{
  "contractName": "ERC721XTokenNFT",
  "abi": [
    {
      "constant": true,
      "inputs": [
        {
          "name": "interfaceId",
          "type": "bytes4"
        }
      ],
      "name": "supportsInterface",
      "outputs": [
        {
          "name": "",
          "type": "bool"
        }
      ],
      "payable": false,
      "stateMutability": "view",
      "type": "function"
    },
    {
      "inputs": [
        {
          "name": "_baseTokenURI",
          "type": "string"
        }
      ],
      "payable": false,
      "stateMutability": "nonpayable",
      "type": "constructor"
    },
    {
      "anonymous": false,
      "inputs": [
        {
          "indexed": true,
          "name": "from",
          "type": "address"
        },
        {
          "indexed": true,
          "name": "to",
          "type": "address"
        },
        {
          "indexed": true,
          "name": "tokenId",
          "type": "uint256"
        }
      ],
      "name": "Transfer",
      "type": "event"
    },
    {
      "anonymous": false,
      "inputs": [
        {
          "indexed": true,
          "name": "owner",
          "type": "address"
        },
        {
          "indexed": true,
          "name": "approved",
          "type": "address"
        },
        {
          "indexed": true,
          "name": "tokenId",
          "type": "uint256"
        }
      ],
      "name": "Approval",
      "type": "event"
    },
    {
      "anonymous": false,
      "inputs": [
        {
          "indexed": true,
          "name": "owner",
          "type": "address"
        },
        {
          "indexed": true,
          "name": "operator",
          "type": "address"
        },
        {
          "indexed": false,
          "name": "approved",
          "type": "bool"
        }
      ],
      "name": "ApprovalForAll",
      "type": "event"
    },
    {
      "constant": true,
      "inputs": [],
      "name": "name",
      "outputs": [
        {
          "name": "",
          "type": "string"
        }
      ],
      "payable": false,
      "stateMutability": "view",
      "type": "function"
    },
    {
      "constant": true,
      "inputs": [],
      "name": "symbol",
      "outputs": [
        {
          "name": "",
          "type": "string"
        }
      ],
      "payable": false,
      "stateMutability": "view",
      "type": "function"
    },
    {
      "constant": true,
      "inputs": [
        {
          "name": "_tokenId",
          "type": "uint256"
        }
      ],
      "name": "exists",
      "outputs": [
        {
          "name": "",
          "type": "bool"
        }
      ],
      "payable": false,
      "stateMutability": "view",
      "type": "function"
    },
    {
      "constant": true,
      "inputs": [],
      "name": "implementsERC721",
      "outputs": [
        {
          "name": "",
          "type": "bool"
        }
      ],
      "payable": false,
      "stateMutability": "pure",
      "type": "function"
    },
    {
      "constant": true,
      "inputs": [],
      "name": "totalSupply",
      "outputs": [
        {
          "name": "",
          "type": "uint256"
        }
      ],
      "payable": false,
      "stateMutability": "view",
      "type": "function"
    },
    {
      "constant": true,
      "inputs": [
        {
          "name": "_index",
          "type": "uint256"
        }
      ],
      "name": "tokenByIndex",
      "outputs": [
        {
          "name": "",
          "type": "uint256"
        }
      ],
      "payable": false,
      "stateMutability": "view",
      "type": "function"
    },
    {
      "constant": true,
      "inputs": [
        {
          "name": "_tokenId",
          "type": "uint256"
        }
      ],
      "name": "ownerOf",
      "outputs": [
        {
          "name": "",
          "type": "address"
        }
      ],
      "payable": false,
      "stateMutability": "view",
      "type": "function"
    },
    {
      "constant": true,
      "inputs": [
        {
          "name": "_owner",
          "type": "address"
        }
      ],
      "name": "tokensOwned",
      "outputs": [
        {
          "name": "indexes",
          "type": "uint256[]"
        },
        {
          "name": "balances",
          "type": "uint256[]"
        }
      ],
      "payable": false,
      "stateMutability": "view",
      "type": "function"
    },
    {
      "constant": true,
      "inputs": [
        {
          "name": "_address",
          "type": "address"
        },
        {
          "name": "_tokenId",
          "type": "uint256"
        }
      ],
      "name": "balanceOf",
      "outputs": [
        {
          "name": "",
          "type": "uint256"
        }
      ],
      "payable": false,
      "stateMutability": "view",
      "type": "function"
    },
    {
      "constant": true,
      "inputs": [
        {
          "name": "_owner",
          "type": "address"
        }
      ],
      "name": "balanceOf",
      "outputs": [
        {
          "name": "balance",
          "type": "uint256"
        }
      ],
      "payable": false,
      "stateMutability": "view",
      "type": "function"
    },
    {
      "constant": false,
      "inputs": [
        {
          "name": "_from",
          "type": "address"
        },
        {
          "name": "_to",
          "type": "address"
        },
        {
          "name": "_tokenId",
          "type": "uint256"
        },
        {
          "name": "_data",
          "type": "bytes"
        }
      ],
      "name": "safeTransferFrom",
      "outputs": [],
      "payable": false,
      "stateMutability": "nonpayable",
      "type": "function"
    },
    {
      "constant": false,
      "inputs": [
        {
          "name": "_from",
          "type": "address"
        },
        {
          "name": "_to",
          "type": "address"
        },
        {
          "name": "_tokenId",
          "type": "uint256"
        }
      ],
      "name": "safeTransferFrom",
      "outputs": [],
      "payable": false,
      "stateMutability": "nonpayable",
      "type": "function"
    },
    {
      "constant": false,
      "inputs": [
        {
          "name": "_from",
          "type": "address"
        },
        {
          "name": "_to",
          "type": "address"
        },
        {
          "name": "_tokenId",
          "type": "uint256"
        }
      ],
      "name": "transferFrom",
      "outputs": [],
      "payable": false,
      "stateMutability": "nonpayable",
      "type": "function"
    },
    {
      "constant": true,
      "inputs": [
        {
          "name": "_tokenId",
          "type": "uint256"
        }
      ],
      "name": "tokenURI",
      "outputs": [
        {
          "name": "",
          "type": "string"
        }
      ],
      "payable": false,
      "stateMutability": "view",
      "type": "function"
    },
    {
      "constant": false,
      "inputs": [
        {
          "name": "_operator",
          "type": "address"
        },
        {
          "name": "_approved",
          "type": "bool"
        }
      ],
      "name": "setApprovalForAll",
      "outputs": [],
      "payable": false,
      "stateMutability": "nonpayable",
      "type": "function"
    },
    {
      "constant": false,
      "inputs": [
        {
          "name": "_to",
          "type": "address"
        },
        {
          "name": "_tokenId",
          "type": "uint256"
        }
      ],
      "name": "approve",
      "outputs": [],
      "payable": false,
      "stateMutability": "nonpayable",
      "type": "function"
    },
    {
      "constant": true,
      "inputs": [
        {
          "name": "_tokenId",
          "type": "uint256"
        }
      ],
      "name": "getApproved",
      "outputs": [
        {
          "name": "",
          "type": "address"
        }
      ],
      "payable": false,
      "stateMutability": "view",
      "type": "function"
    },
    {
      "constant": true,
      "inputs": [
        {
          "name": "_owner",
          "type": "address"
        },
        {
          "name": "_operator",
          "type": "address"
        }
      ],
      "name": "isApprovedForAll",
      "outputs": [
        {
          "name": "isOperator",
          "type": "bool"
        }
      ],
      "payable": false,
      "stateMutability": "view",
      "type": "function"
    },
    {
      "constant": true,
      "inputs": [
        {
          "name": "_owner",
          "type": "address"
        },
        {
          "name": "_index",
          "type": "uint256"
        }
      ],
      "name": "tokenOfOwnerByIndex",
      "outputs": [
        {
          "name": "_tokenId",
          "type": "uint256"
        }
      ],
      "payable": false,
      "stateMutability": "pure",
      "type": "function"
    }
  ],
  "bytecode": "0x60806040523480156200001157600080fd5b506040516200155538038062001555833981018060405260208110156200003757600080fd5b8101908080516401000000008111156200005057600080fd5b820160208101848111156200006457600080fd5b81516401000000008111828201871017156200007f57600080fd5b50509291905050506200009f6301ffc9a760e01b620000ec60201b60201c565b620000b76380ac58cd60e01b620000ec60201b60201c565b8051620000cc90600b906020840190620001bb565b50620000e5635b5e139f60e01b620000ec60201b60201c565b5062000260565b7fffffffff0000000000000000000000000000000000000000000000000000000080821614156200017e57604080517f08c379a000000000000000000000000000000000000000000000000000000000815260206004820152601c60248201527f4552433136353a20696e76616c696420696e7465726661636520696400000000604482015290519081900360640190fd5b7fffffffff00000000000000000000000000000000000000000000000000000000166000908152602081905260409020805460ff19166001179055565b828054600181600116156101000203166002900490600052602060002090601f016020900481019282601f10620001fe57805160ff19168380011785556200022e565b828001600101855582156200022e579182015b828111156200022e57825182559160200191906001019062000211565b506200023c92915062000240565b5090565b6200025d91905b808211156200023c576000815560010162000247565b90565b6112e580620002706000396000f3fe608060405234801561001057600080fd5b506004361061012b5760003560e01c806342842e0e116100ad57806395d89b411161007157806395d89b4114610471578063a22cb46514610479578063b88d4fde146104a7578063c87b56dd1461056d578063e985e9c51461058a5761012b565b806342842e0e146103be5780634f558e79146103f45780634f6ccce7146104115780636352211e1461042e57806370a082311461044b5761012b565b80631051db34116100f45780631051db341461028d57806318160ddd1461029557806321cda7901461029d57806323b872dd1461035c5780632f745c59146103925761012b565b8062fdd58e1461013057806301ffc9a71461016e57806306fdde03146101a9578063081812fc14610226578063095ea7b31461025f575b600080fd5b61015c6004803603604081101561014657600080fd5b506001600160a01b0381351690602001356105b8565b60408051918252519081900360200190f35b6101956004803603602081101561018457600080fd5b50356001600160e01b031916610608565b604080519115158252519081900360200190f35b6101b161062b565b6040805160208082528351818301528351919283929083019185019080838360005b838110156101eb5781810151838201526020016101d3565b50505050905090810190601f1680156102185780820380516001836020036101000a031916815260200191505b509250505060405180910390f35b6102436004803603602081101561023c57600080fd5b5035610657565b604080516001600160a01b039092168252519081900360200190f35b61028b6004803603604081101561027557600080fd5b506001600160a01b038135169060200135610672565b005b61019561071f565b61015c610724565b6102c3600480360360208110156102b357600080fd5b50356001600160a01b031661072a565b604051808060200180602001838103835285818151815260200191508051906020019060200280838360005b838110156103075781810151838201526020016102ef565b50505050905001838103825284818151815260200191508051906020019060200280838360005b8381101561034657818101518382015260200161032e565b5050505090500194505050505060405180910390f35b61028b6004803603606081101561037257600080fd5b506001600160a01b038135811691602081013590911690604001356108f2565b61015c600480360360408110156103a857600080fd5b506001600160a01b038135169060200135610902565b61028b600480360360608110156103d457600080fd5b506001600160a01b0381358116916020810135909116906040013561090a565b6101956004803603602081101561040a57600080fd5b5035610925565b61015c6004803603602081101561042757600080fd5b5035610939565b6102436004803603602081101561044457600080fd5b503561096d565b61015c6004803603602081101561046157600080fd5b50356001600160a01b03166109f5565b6101b1610a0b565b61028b6004803603604081101561048f57600080fd5b506001600160a01b0381351690602001351515610a2f565b61028b600480360360808110156104bd57600080fd5b6001600160a01b038235811692602081013590911691604082013591908101906080810160608201356401000000008111156104f857600080fd5b82018360208201111561050a57600080fd5b8035906020019184600183028401116401000000008311171561052c57600080fd5b91908080601f016020809104026020016040519081016040528093929190818152602001838380828437600092019190915250929550610a9d945050505050565b6101b16004803603602081101561058357600080fd5b5035610af8565b610195600480360360408110156105a057600080fd5b506001600160a01b0381358116916020013516610c39565b60008060006105c684610c67565b6001600160a01b038716600090815260066020908152604080832085845290915290205491935091506105ff908263ffffffff610c7816565b95945050505050565b6001600160e01b0319811660009081526020819052604090205460ff165b919050565b60408051808201909152600f81526001608a1b6e115490cdcc8c56151bdad95b93919502602082015290565b6000908152600960205260409020546001600160a01b031690565b600061067d8261096d565b9050806001600160a01b0316836001600160a01b0316141561069e57600080fd5b336001600160a01b03821614806106ba57506106ba8133610c39565b6106c357600080fd5b60008281526009602052604080822080546001600160a01b0319166001600160a01b0387811691821790925591518593918516917f8c5be1e5ebec7d5bd14f71427d1e84f3dd0314c0f7b2291e5b200ac8c7c3b92591a4505050565b600190565b60055490565b6060806000610737610724565b9050606081604051908082528060200260200182016040528015610765578160200160208202803883390190505b509050606082604051908082528060200260200182016040528015610794578160200160208202803883390190505b5090506000805b8481101561081b576000600582815481106107b257fe5b9060005260206000200154905060006107cb8a836105b8565b1115610812576107db89826105b8565b8484815181106107e757fe5b6020026020010181815250508085848151811061080057fe5b60209081029190910101526001909201915b5060010161079b565b50606081604051908082528060200260200182016040528015610848578160200160208202803883390190505b509050606082604051908082528060200260200182016040528015610877578160200160208202803883390190505b50905060005b838110156108e45784818151811061089157fe5b60200260200101518382815181106108a557fe5b6020026020010181815250508581815181106108bd57fe5b60200260200101518282815181106108d157fe5b602090810291909101015260010161087d565b509650945050505050915091565b6108fd838383610c90565b505050565b600092915050565b6108fd83838360405180602001604052806000815250610a9d565b6000908152600a6020526040902054151590565b6000610943610724565b821061094e57600080fd5b6005828154811061095b57fe5b90600052602060002001549050919050565b6000818152600760205260408120546001600160a01b03166109d95760408051600160e51b62461bcd02815260206004820152601360248201527f436f696e20646f6573206e6f7420657869737400000000000000000000000000604482015290519081900360640190fd5b506000908152600760205260409020546001600160a01b031690565b60006060610a028361072a565b51949350505050565b6040805180820190915260078152600160cb1b6608aa4866e6462b02602082015290565b3360008181526008602090815260408083206001600160a01b03871680855290835292819020805460ff1916861515908117909155815190815290519293927f17307eab39ab6107e8899845ad3d59bd9653f200f220920489ca2b5937696c31929181900390910190a35050565b610aa8848484610c90565b610ab484848484610d95565b610af257604051600160e51b62461bcd0281526004018080602001828103825260328152602001806112886032913960400191505060405180910390fd5b50505050565b6060610b0382610925565b610b575760408051600160e51b62461bcd02815260206004820152601360248201527f546f6b656e20646f65736e277420657869737400000000000000000000000000604482015290519081900360640190fd5b600b610b6283610ecf565b6040516020018083805460018160011615610100020316600290048015610bc05780601f10610b9e576101008083540402835291820191610bc0565b820191906000526020600020905b815481529060010190602001808311610bac575b5050825160208401908083835b60208310610bec5780518252601f199092019160209182019101610bcd565b5181516020939093036101000a6000190180199091169216919091179052600160d91b64173539b7b70292019182525060408051808303601a190181526005909201905295945050505050565b6001600160a01b03918216600090815260086020908152604080832093909416825291909152205460ff1690565b610100601082020491600f90911690565b600181016010026101000382901c61ffff1692915050565b6000818152600a6020526040902054600114610cab57600080fd5b610cbe83610cb88361096d565b83610f93565b610cc757600080fd5b6001600160a01b038216610d1d5760408051600160e51b62461bcd0281526020600482015260126024820152600160701b71496e76616c696420746f206164647265737302604482015290519081900360640190fd5b610d2b838260006002610fde565b610d39828260016002610fde565b60008181526007602052604080822080546001600160a01b0319166001600160a01b0386811691821790925591518493918716917fddf252ad1be2c89b69c2b068fc378daa952ba7f163c4a11628f55a4df523b3ef91a4505050565b6000610da9846001600160a01b0316611055565b610db557506001610ec7565b604051600160e11b630a85bd0102815233600482018181526001600160a01b03888116602485015260448401879052608060648501908152865160848601528651600095928a169463150b7a029490938c938b938b939260a4019060208501908083838e5b83811015610e32578181015183820152602001610e1a565b50505050905090810190601f168015610e5f5780820380516001836020036101000a031916815260200191505b5095505050505050602060405180830381600087803b158015610e8157600080fd5b505af1158015610e95573d6000803e3d6000fd5b505050506040513d6020811015610eab57600080fd5b50516001600160e01b031916600160e11b630a85bd0102149150505b949350505050565b606081610ef757506040805180820190915260018152600160fc1b6003026020820152610626565b8160005b8115610f0f57600101600a82049150610efb565b6060816040519080825280601f01601f191660200182016040528015610f3c576020820181803883390190505b50905060001982015b8515610f8a57600a860660300160f81b82828060019003935081518110610f6857fe5b60200101906001600160f81b031916908160001a905350600a86049550610f45565b50949350505050565b6000826001600160a01b0316846001600160a01b03161480610fce5750836001600160a01b0316610fc383610657565b6001600160a01b0316145b80610ec75750610ec78385610c39565b600080610fea85610c67565b6001600160a01b038816600090815260066020908152604080832085845290915290205491935091506110259082868663ffffffff61105b16565b6001600160a01b039096166000908152600660209081526040808320948352939052919091209490945550505050565b3b151590565b6000808083600281111561106b57fe5b141561109e5761107b8686610c78565b90506110978686611092848863ffffffff61113916565b61119d565b9150610f8a565b60018360028111156110ac57fe5b14156110d3576110bc8686610c78565b90506110978686611092848863ffffffff61120416565b60028360028111156110e157fe5b14156110f25761109786868661119d565b60408051600160e51b62461bcd0281526020600482015260116024820152600160791b7024b73b30b634b21037b832b930ba34b7b702604482015290519081900360640190fd5b6000828201838110156111965760408051600160e51b62461bcd02815260206004820152601b60248201527f536166654d6174683a206164646974696f6e206f766572666c6f770000000000604482015290519081900360640190fd5b9392505050565b60006201000082106111e357604051600160e51b62461bcd0281526004018080602001828103825260238152602001806112656023913960400191505060405180910390fd5b5061ffff600183016010026101000390811b1984169082901b179392505050565b60008282111561125e5760408051600160e51b62461bcd02815260206004820152601e60248201527f536166654d6174683a207375627472616374696f6e206f766572666c6f770000604482015290519081900360640190fd5b5090039056fe416d6f756e7420746f20777269746520696e2062696e20697320746f6f206c6172676553656e7420746f206120636f6e7472616374207768696368206973206e6f7420616e20455243373231207265636569766572a165627a7a72305820f10b2bfd413135e7dc33c1c8c29ba5786199f65994e5cf3fbdc7bf719a1dac4e0029",
  "source": "pragma solidity ^0.5.6;\n\nimport \"openzeppelin-solidity/contracts/token/ERC721/ERC721.sol\";\nimport \"openzeppelin-solidity/contracts/token/ERC721/IERC721Receiver.sol\";\nimport \"openzeppelin-solidity/contracts/utils/Address.sol\";\nimport \"../Libraries/ObjectsLib.sol\";\n\n\n// Packed NFT that has storage which is batch transfer compatible\ncontract ERC721XTokenNFT is ERC721 {\n\n    using ObjectLib for ObjectLib.Operations;\n    using ObjectLib for uint256;\n    using Address for address;\n\n    // bytes4 internal constant InterfaceId_ERC721Enumerable = 0x780e9d63;\n    bytes4 internal constant ERC721_RECEIVED = 0x150b7a02;\n    bytes4 internal constant InterfaceId_ERC721Metadata = 0x5b5e139f;\n\n    uint256[] internal allTokens;\n    mapping(address => mapping(uint256 => uint256)) packedTokenBalance;\n    mapping(uint256 => address) internal tokenOwner;\n    mapping(address => mapping(address => bool)) operators;\n    mapping (uint256 => address) internal tokenApprovals;\n    mapping(uint256 => uint256) tokenType;\n\n    uint256 constant NFT = 1;\n    uint256 constant FT = 2;\n\n    string baseTokenURI;\n\n    constructor(string memory _baseTokenURI) public {\n        baseTokenURI = _baseTokenURI;\n        _registerInterface(InterfaceId_ERC721Metadata);\n    }\n\n    function name() external view returns (string memory) {\n        return \"ERC721XTokenNFT\";\n    }\n\n    function symbol() external view returns (string memory) {\n        return \"ERC721X\";\n    }\n\n    /**\n     * @dev Returns whether the specified token exists\n     * @param _tokenId uint256 ID of the token to query the existence of\n     * @return whether the token exists\n     */\n    function exists(uint256 _tokenId) public view returns (bool) {\n        return tokenType[_tokenId] != 0;\n    }\n\n    function implementsERC721() public pure returns (bool) {\n        return true;\n    }\n\n    /**\n     * @dev Gets the total amount of tokens stored by the contract\n     * @return uint256 representing the total amount of tokens\n     */\n    function totalSupply() public view returns (uint256) {\n        return allTokens.length;\n    }\n\n    /**\n     * @dev Gets the token ID at a given index of all the tokens in this contract\n     * Reverts if the index is greater or equal to the total number of tokens\n     * @param _index uint256 representing the index to be accessed of the tokens list\n     * @return uint256 token ID at the given index of the tokens list\n     */\n    function tokenByIndex(uint256 _index) public view returns (uint256) {\n        require(_index < totalSupply());\n        return allTokens[_index];\n    }\n\n    /**\n     * @dev Gets the owner of a given NFT\n     * @param _tokenId uint256 representing the unique token identifier\n     * @return address the owner of the token\n     */\n    function ownerOf(uint256 _tokenId) public view returns (address) {\n        require(tokenOwner[_tokenId] != address(0), \"Coin does not exist\");\n        return tokenOwner[_tokenId];\n    }\n\n    /**\n     * @dev Gets Iterate through the list of existing tokens and return the indexes\n     *        and balances of the tokens owner by the user\n     * @param _owner The adddress we are checking\n     * @return indexes The tokenIds\n     * @return balances The balances of each token\n     */\n    function tokensOwned(address _owner) public view returns (uint256[] memory indexes, uint256[] memory balances) {\n        uint256 numTokens = totalSupply();\n        uint256[] memory tokenIndexes = new uint256[](numTokens);\n        uint256[] memory tempTokens = new uint256[](numTokens);\n\n        uint256 count;\n        for (uint256 i = 0; i < numTokens; i++) {\n            uint256 tokenId = allTokens[i];\n            if (balanceOf(_owner, tokenId) > 0) {\n                tempTokens[count] = balanceOf(_owner, tokenId);\n                tokenIndexes[count] = tokenId;\n                count++;\n            }\n        }\n\n        // copy over the data to a correct size array\n        uint256[] memory _ownedTokens = new uint256[](count);\n        uint256[] memory _ownedTokensIndexes = new uint256[](count);\n\n        for (uint256 i = 0; i < count; i++) {\n            _ownedTokens[i] = tempTokens[i];\n            _ownedTokensIndexes[i] = tokenIndexes[i];\n        }\n\n        return (_ownedTokensIndexes, _ownedTokens);\n    }\n\n    /**\n     *  @dev Gets the number of tokens owned by the address we are checking\n     *  @param _owner The adddress we are checking\n     *  @return balance The unique amount of tokens owned\n     */\n    function balanceOf(address _owner) public view returns (uint256 balance) {\n        (,uint256[] memory tokens) = tokensOwned(_owner);\n        return tokens.length;\n    }\n\n    /**\n     * @dev return the _tokenId type' balance of _address\n     * @param _address Address to query balance of\n     * @param _tokenId type to query balance of\n     * @return Amount of objects of a given type ID\n     */\n    function balanceOf(address _address, uint256 _tokenId) public view returns (uint256) {\n        (uint256 bin, uint256 index) = _tokenId.getTokenBinIndex();\n        return packedTokenBalance[_address][bin].getValueInBin(index);\n    }\n\n    function safeTransferFrom(\n        address _from,\n        address _to,\n        uint256 _tokenId\n    )\n        public\n    {\n        safeTransferFrom(_from, _to, _tokenId, \"\");\n    }\n\n    function safeTransferFrom(\n        address _from,\n        address _to,\n        uint256 _tokenId,\n        bytes memory _data\n    )\n        public\n    {\n        _transferFrom(_from, _to, _tokenId);\n        require(\n            checkAndCallSafeTransfer(_from, _to, _tokenId, _data),\n            \"Sent to a contract which is not an ERC721 receiver\"\n        );\n    }\n\n    function transferFrom(address _from, address _to, uint256 _tokenId) public {\n        _transferFrom(_from, _to, _tokenId);\n    }\n\n    function _transferFrom(address _from, address _to, uint256 _tokenId)\n        internal\n    {\n        require(tokenType[_tokenId] == NFT);\n        require(isApprovedOrOwner(_from, ownerOf(_tokenId), _tokenId));\n        require(_to != address(0), \"Invalid to address\");\n\n        _updateTokenBalance(_from, _tokenId, 0, ObjectLib.Operations.REPLACE);\n        _updateTokenBalance(_to, _tokenId, 1, ObjectLib.Operations.REPLACE);\n\n        tokenOwner[_tokenId] = _to;\n        emit Transfer(_from, _to, _tokenId);\n    }\n\n    function tokenURI(uint256 _tokenId) public view returns (string memory) {\n        require(exists(_tokenId), \"Token doesn't exist\");\n        return string(abi.encodePacked(\n            baseTokenURI,\n            uint2str(_tokenId),\n            \".json\"\n        ));\n    }\n\n   function uint2str(uint _i) private pure returns (string memory _uintAsString) {\n        if (_i == 0) {\n            return \"0\";\n        }\n\n        uint j = _i;\n        uint len;\n        while (j != 0) {\n            len++;\n            j /= 10;\n        }\n\n        bytes memory bstr = new bytes(len);\n        uint k = len - 1;\n        while (_i != 0) {\n            bstr[k--] = byte(uint8(48 + _i % 10));\n            _i /= 10;\n        }\n\n        return string(bstr);\n    }\n\n    /**\n     * @dev Internal function to invoke `onERC721Received` on a target address\n     * The call is not executed if the target address is not a contract\n     * @param _from address representing the previous owner of the given token ID\n     * @param _to target address that will receive the tokens\n     * @param _tokenId uint256 ID of the token to be transferred\n     * @param _data bytes optional data to send along with the call\n     * @return whether the call correctly returned the expected magic value\n     */\n    function checkAndCallSafeTransfer(\n        address _from,\n        address _to,\n        uint256 _tokenId,\n        bytes memory _data\n    )\n        internal\n        returns (bool)\n    {\n        if (!_to.isContract()) {\n            return true;\n        }\n        bytes4 retval = IERC721Receiver(_to).onERC721Received(\n            msg.sender, _from, _tokenId, _data\n        );\n        return (retval == ERC721_RECEIVED);\n    }\n\n    /**\n     * @dev Will set _operator operator status to true or false\n     * @param _operator Address to changes operator status.\n     * @param _approved  _operator's new operator status (true or false)\n     */\n    function setApprovalForAll(address _operator, bool _approved) public {\n        // Update operator status\n        operators[msg.sender][_operator] = _approved;\n        emit ApprovalForAll(msg.sender, _operator, _approved);\n    }\n\n    /**\n     * @dev Approves another address to transfer the given token ID\n     * The zero address indicates there is no approved address.\n     * There can only be one approved address per token at a given time.\n     * Can only be called by the token owner or an approved operator.\n     * @param _to address to be approved for the given token ID\n     * @param _tokenId uint256 ID of the token to be approved\n     */\n    function approve(address _to, uint256 _tokenId) public {\n        address owner = ownerOf(_tokenId);\n        require(_to != owner);\n        require(msg.sender == owner || isApprovedForAll(owner, msg.sender));\n\n        tokenApprovals[_tokenId] = _to;\n        emit Approval(owner, _to, _tokenId);\n    }\n\n    function _mint(uint256 _tokenId, address _to) internal {\n        require(!exists(_tokenId), \"Error: Tried to mint duplicate token id\");\n        _updateTokenBalance(_to, _tokenId, 1, ObjectLib.Operations.REPLACE);\n        tokenOwner[_tokenId] = _to;\n        tokenType[_tokenId] = NFT;\n        allTokens.push(_tokenId);\n        emit Transfer(address(this), _to, _tokenId);\n    }\n\n    function _updateTokenBalance(\n        address _from,\n        uint256 _tokenId,\n        uint256 _amount,\n        ObjectLib.Operations op\n    )\n        internal\n    {\n        (uint256 bin, uint256 index) = _tokenId.getTokenBinIndex();\n        packedTokenBalance[_from][bin] =\n            packedTokenBalance[_from][bin].updateTokenBalance(\n                index, _amount, op\n        );\n    }\n\n\n    /**\n     * @dev Gets the approved address for a token ID, or zero if no address set\n     * @param _tokenId uint256 ID of the token to query the approval of\n     * @return address currently approved for the given token ID\n     */\n    function getApproved(uint256 _tokenId) public view returns (address) {\n        return tokenApprovals[_tokenId];\n    }\n\n    /**\n     * @dev Function that verifies whether _operator is an authorized operator of _tokenHolder.\n     * @param _operator The address of the operator to query status of\n     * @param _owner Address of the tokenHolder\n     * @return A uint256 specifying the amount of tokens still available for the spender.\n     */\n    function isApprovedForAll(address _owner, address _operator) public view returns (bool isOperator) {\n        return operators[_owner][_operator];\n    }\n\n    function isApprovedOrOwner(address _spender, address _owner, uint256 _tokenId)\n        internal\n        view\n        returns (bool)\n    {\n        return (\n            _spender == _owner ||\n            getApproved(_tokenId) == _spender ||\n            isApprovedForAll(_owner, _spender)\n        );\n    }\n\n    // FOR COMPATIBILITY WITH ERC721 Standard, UNUSED.\n    function tokenOfOwnerByIndex(address _owner, uint256 _index) public pure returns (uint256 _tokenId) {_owner; _index; return 0;}\n}\n",
  "sourcePath": "/Users/DK/work/ExSports/Git/ExSports/blockchain/ExSports-Service/smartContract/contracts/ExsToken/ERC721X/Core/ERC721XTokenNFT.sol",
  "compiler": {
    "name": "solc",
    "version": "0.5.8+commit.23d335f2.Emscripten.clang"
  },
  "schemaVersion": "3.0.16",
  "updatedAt": "2020-05-27T06:32:01.829Z",
  "devdoc": {
    "methods": {
      "approve(address,uint256)": {
        "details": "Approves another address to transfer the given token ID The zero address indicates there is no approved address. There can only be one approved address per token at a given time. Can only be called by the token owner or an approved operator.",
        "params": {
          "_to": "address to be approved for the given token ID",
          "_tokenId": "uint256 ID of the token to be approved"
        }
      },
      "balanceOf(address)": {
        "details": "Gets the number of tokens owned by the address we are checking",
        "params": {
          "_owner": "The adddress we are checking"
        },
        "return": "balance The unique amount of tokens owned"
      },
      "balanceOf(address,uint256)": {
        "details": "return the _tokenId type' balance of _address",
        "params": {
          "_address": "Address to query balance of",
          "_tokenId": "type to query balance of"
        },
        "return": "Amount of objects of a given type ID"
      },
      "exists(uint256)": {
        "details": "Returns whether the specified token exists",
        "params": {
          "_tokenId": "uint256 ID of the token to query the existence of"
        },
        "return": "whether the token exists"
      },
      "getApproved(uint256)": {
        "details": "Gets the approved address for a token ID, or zero if no address set",
        "params": {
          "_tokenId": "uint256 ID of the token to query the approval of"
        },
        "return": "address currently approved for the given token ID"
      },
      "isApprovedForAll(address,address)": {
        "details": "Function that verifies whether _operator is an authorized operator of _tokenHolder.",
        "params": {
          "_operator": "The address of the operator to query status of",
          "_owner": "Address of the tokenHolder"
        },
        "return": "A uint256 specifying the amount of tokens still available for the spender."
      },
      "ownerOf(uint256)": {
        "details": "Gets the owner of a given NFT",
        "params": {
          "_tokenId": "uint256 representing the unique token identifier"
        },
        "return": "address the owner of the token"
      },
      "setApprovalForAll(address,bool)": {
        "details": "Will set _operator operator status to true or false",
        "params": {
          "_approved": "_operator's new operator status (true or false)",
          "_operator": "Address to changes operator status."
        }
      },
      "supportsInterface(bytes4)": {
        "details": "See `IERC165.supportsInterface`.     * Time complexity O(1), guaranteed to always use less than 30 000 gas."
      },
      "tokenByIndex(uint256)": {
        "details": "Gets the token ID at a given index of all the tokens in this contract Reverts if the index is greater or equal to the total number of tokens",
        "params": {
          "_index": "uint256 representing the index to be accessed of the tokens list"
        },
        "return": "uint256 token ID at the given index of the tokens list"
      },
      "tokensOwned(address)": {
        "details": "Gets Iterate through the list of existing tokens and return the indexes       and balances of the tokens owner by the user",
        "params": {
          "_owner": "The adddress we are checking"
        },
        "return": "indexes The tokenIdsbalances The balances of each token"
      },
      "totalSupply()": {
        "details": "Gets the total amount of tokens stored by the contract",
        "return": "uint256 representing the total amount of tokens"
      }
    }
  },
  "userdoc": {
    "methods": {}
  }
}