{
  "contractName": "ERC721XToken",
  "abi": [
    {
      "constant": true,
      "inputs": [
        {
          "name": "_address",
          "type": "address"
        },
        {
          "name": "_tokenId",
          "type": "uint256"
        }
      ],
      "name": "balanceOf",
      "outputs": [
        {
          "name": "",
          "type": "uint256"
        }
      ],
      "payable": false,
      "stateMutability": "view",
      "type": "function"
    },
    {
      "constant": true,
      "inputs": [
        {
          "name": "interfaceId",
          "type": "bytes4"
        }
      ],
      "name": "supportsInterface",
      "outputs": [
        {
          "name": "",
          "type": "bool"
        }
      ],
      "payable": false,
      "stateMutability": "view",
      "type": "function"
    },
    {
      "constant": true,
      "inputs": [],
      "name": "name",
      "outputs": [
        {
          "name": "",
          "type": "string"
        }
      ],
      "payable": false,
      "stateMutability": "view",
      "type": "function"
    },
    {
      "constant": true,
      "inputs": [
        {
          "name": "_tokenId",
          "type": "uint256"
        }
      ],
      "name": "getApproved",
      "outputs": [
        {
          "name": "",
          "type": "address"
        }
      ],
      "payable": false,
      "stateMutability": "view",
      "type": "function"
    },
    {
      "constant": false,
      "inputs": [
        {
          "name": "_to",
          "type": "address"
        },
        {
          "name": "_tokenId",
          "type": "uint256"
        }
      ],
      "name": "approve",
      "outputs": [],
      "payable": false,
      "stateMutability": "nonpayable",
      "type": "function"
    },
    {
      "constant": true,
      "inputs": [],
      "name": "implementsERC721",
      "outputs": [
        {
          "name": "",
          "type": "bool"
        }
      ],
      "payable": false,
      "stateMutability": "pure",
      "type": "function"
    },
    {
      "constant": true,
      "inputs": [],
      "name": "totalSupply",
      "outputs": [
        {
          "name": "",
          "type": "uint256"
        }
      ],
      "payable": false,
      "stateMutability": "view",
      "type": "function"
    },
    {
      "constant": true,
      "inputs": [
        {
          "name": "_owner",
          "type": "address"
        }
      ],
      "name": "tokensOwned",
      "outputs": [
        {
          "name": "indexes",
          "type": "uint256[]"
        },
        {
          "name": "balances",
          "type": "uint256[]"
        }
      ],
      "payable": false,
      "stateMutability": "view",
      "type": "function"
    },
    {
      "constant": true,
      "inputs": [
        {
          "name": "_owner",
          "type": "address"
        },
        {
          "name": "_index",
          "type": "uint256"
        }
      ],
      "name": "tokenOfOwnerByIndex",
      "outputs": [
        {
          "name": "_tokenId",
          "type": "uint256"
        }
      ],
      "payable": false,
      "stateMutability": "pure",
      "type": "function"
    },
    {
      "constant": true,
      "inputs": [
        {
          "name": "_tokenId",
          "type": "uint256"
        }
      ],
      "name": "exists",
      "outputs": [
        {
          "name": "",
          "type": "bool"
        }
      ],
      "payable": false,
      "stateMutability": "view",
      "type": "function"
    },
    {
      "constant": true,
      "inputs": [
        {
          "name": "_index",
          "type": "uint256"
        }
      ],
      "name": "tokenByIndex",
      "outputs": [
        {
          "name": "",
          "type": "uint256"
        }
      ],
      "payable": false,
      "stateMutability": "view",
      "type": "function"
    },
    {
      "constant": true,
      "inputs": [
        {
          "name": "_tokenId",
          "type": "uint256"
        }
      ],
      "name": "ownerOf",
      "outputs": [
        {
          "name": "",
          "type": "address"
        }
      ],
      "payable": false,
      "stateMutability": "view",
      "type": "function"
    },
    {
      "constant": true,
      "inputs": [
        {
          "name": "_owner",
          "type": "address"
        }
      ],
      "name": "balanceOf",
      "outputs": [
        {
          "name": "balance",
          "type": "uint256"
        }
      ],
      "payable": false,
      "stateMutability": "view",
      "type": "function"
    },
    {
      "constant": true,
      "inputs": [],
      "name": "symbol",
      "outputs": [
        {
          "name": "",
          "type": "string"
        }
      ],
      "payable": false,
      "stateMutability": "view",
      "type": "function"
    },
    {
      "constant": false,
      "inputs": [
        {
          "name": "_operator",
          "type": "address"
        },
        {
          "name": "_approved",
          "type": "bool"
        }
      ],
      "name": "setApprovalForAll",
      "outputs": [],
      "payable": false,
      "stateMutability": "nonpayable",
      "type": "function"
    },
    {
      "constant": true,
      "inputs": [
        {
          "name": "_tokenId",
          "type": "uint256"
        }
      ],
      "name": "tokenURI",
      "outputs": [
        {
          "name": "",
          "type": "string"
        }
      ],
      "payable": false,
      "stateMutability": "view",
      "type": "function"
    },
    {
      "constant": true,
      "inputs": [
        {
          "name": "_owner",
          "type": "address"
        },
        {
          "name": "_operator",
          "type": "address"
        }
      ],
      "name": "isApprovedForAll",
      "outputs": [
        {
          "name": "isOperator",
          "type": "bool"
        }
      ],
      "payable": false,
      "stateMutability": "view",
      "type": "function"
    },
    {
      "inputs": [
        {
          "name": "_baseTokenURI",
          "type": "string"
        }
      ],
      "payable": false,
      "stateMutability": "nonpayable",
      "type": "constructor"
    },
    {
      "anonymous": false,
      "inputs": [
        {
          "indexed": false,
          "name": "from",
          "type": "address"
        },
        {
          "indexed": false,
          "name": "to",
          "type": "address"
        },
        {
          "indexed": false,
          "name": "tokenTypes",
          "type": "uint256[]"
        },
        {
          "indexed": false,
          "name": "amounts",
          "type": "uint256[]"
        }
      ],
      "name": "BatchTransfer",
      "type": "event"
    },
    {
      "anonymous": false,
      "inputs": [
        {
          "indexed": true,
          "name": "from",
          "type": "address"
        },
        {
          "indexed": true,
          "name": "to",
          "type": "address"
        },
        {
          "indexed": true,
          "name": "tokenId",
          "type": "uint256"
        }
      ],
      "name": "Transfer",
      "type": "event"
    },
    {
      "anonymous": false,
      "inputs": [
        {
          "indexed": true,
          "name": "owner",
          "type": "address"
        },
        {
          "indexed": true,
          "name": "approved",
          "type": "address"
        },
        {
          "indexed": true,
          "name": "tokenId",
          "type": "uint256"
        }
      ],
      "name": "Approval",
      "type": "event"
    },
    {
      "anonymous": false,
      "inputs": [
        {
          "indexed": true,
          "name": "owner",
          "type": "address"
        },
        {
          "indexed": true,
          "name": "operator",
          "type": "address"
        },
        {
          "indexed": false,
          "name": "approved",
          "type": "bool"
        }
      ],
      "name": "ApprovalForAll",
      "type": "event"
    },
    {
      "anonymous": false,
      "inputs": [
        {
          "indexed": true,
          "name": "from",
          "type": "address"
        },
        {
          "indexed": true,
          "name": "to",
          "type": "address"
        },
        {
          "indexed": true,
          "name": "tokenId",
          "type": "uint256"
        },
        {
          "indexed": false,
          "name": "quantity",
          "type": "uint256"
        }
      ],
      "name": "TransferWithQuantity",
      "type": "event"
    },
    {
      "constant": true,
      "inputs": [],
      "name": "implementsERC721X",
      "outputs": [
        {
          "name": "",
          "type": "bool"
        }
      ],
      "payable": false,
      "stateMutability": "pure",
      "type": "function"
    },
    {
      "constant": false,
      "inputs": [
        {
          "name": "_from",
          "type": "address"
        },
        {
          "name": "_to",
          "type": "address"
        },
        {
          "name": "_tokenIds",
          "type": "uint256[]"
        },
        {
          "name": "_amounts",
          "type": "uint256[]"
        }
      ],
      "name": "batchTransferFrom",
      "outputs": [],
      "payable": false,
      "stateMutability": "nonpayable",
      "type": "function"
    },
    {
      "constant": false,
      "inputs": [
        {
          "name": "_from",
          "type": "address"
        },
        {
          "name": "_to",
          "type": "address"
        },
        {
          "name": "_tokenIds",
          "type": "uint256[]"
        },
        {
          "name": "_amounts",
          "type": "uint256[]"
        },
        {
          "name": "_data",
          "type": "bytes"
        }
      ],
      "name": "safeBatchTransferFrom",
      "outputs": [],
      "payable": false,
      "stateMutability": "nonpayable",
      "type": "function"
    },
    {
      "constant": false,
      "inputs": [
        {
          "name": "_to",
          "type": "address"
        },
        {
          "name": "_tokenId",
          "type": "uint256"
        },
        {
          "name": "_amount",
          "type": "uint256"
        }
      ],
      "name": "transfer",
      "outputs": [],
      "payable": false,
      "stateMutability": "nonpayable",
      "type": "function"
    },
    {
      "constant": false,
      "inputs": [
        {
          "name": "_from",
          "type": "address"
        },
        {
          "name": "_to",
          "type": "address"
        },
        {
          "name": "_tokenId",
          "type": "uint256"
        }
      ],
      "name": "transferFrom",
      "outputs": [],
      "payable": false,
      "stateMutability": "nonpayable",
      "type": "function"
    },
    {
      "constant": false,
      "inputs": [
        {
          "name": "_from",
          "type": "address"
        },
        {
          "name": "_to",
          "type": "address"
        },
        {
          "name": "_tokenId",
          "type": "uint256"
        },
        {
          "name": "_amount",
          "type": "uint256"
        }
      ],
      "name": "transferFrom",
      "outputs": [],
      "payable": false,
      "stateMutability": "nonpayable",
      "type": "function"
    },
    {
      "constant": false,
      "inputs": [
        {
          "name": "_from",
          "type": "address"
        },
        {
          "name": "_to",
          "type": "address"
        },
        {
          "name": "_tokenId",
          "type": "uint256"
        },
        {
          "name": "_amount",
          "type": "uint256"
        }
      ],
      "name": "safeTransferFrom",
      "outputs": [],
      "payable": false,
      "stateMutability": "nonpayable",
      "type": "function"
    },
    {
      "constant": false,
      "inputs": [
        {
          "name": "_from",
          "type": "address"
        },
        {
          "name": "_to",
          "type": "address"
        },
        {
          "name": "_tokenId",
          "type": "uint256"
        }
      ],
      "name": "safeTransferFrom",
      "outputs": [],
      "payable": false,
      "stateMutability": "nonpayable",
      "type": "function"
    },
    {
      "constant": false,
      "inputs": [
        {
          "name": "_from",
          "type": "address"
        },
        {
          "name": "_to",
          "type": "address"
        },
        {
          "name": "_tokenId",
          "type": "uint256"
        },
        {
          "name": "_data",
          "type": "bytes"
        }
      ],
      "name": "safeTransferFrom",
      "outputs": [],
      "payable": false,
      "stateMutability": "nonpayable",
      "type": "function"
    },
    {
      "constant": false,
      "inputs": [
        {
          "name": "_from",
          "type": "address"
        },
        {
          "name": "_to",
          "type": "address"
        },
        {
          "name": "_tokenId",
          "type": "uint256"
        },
        {
          "name": "_amount",
          "type": "uint256"
        },
        {
          "name": "_data",
          "type": "bytes"
        }
      ],
      "name": "safeTransferFrom",
      "outputs": [],
      "payable": false,
      "stateMutability": "nonpayable",
      "type": "function"
    }
  ],
  "bytecode": "0x60806040523480156200001157600080fd5b50604051620025fb380380620025fb833981018060405260208110156200003757600080fd5b8101908080516401000000008111156200005057600080fd5b820160208101848111156200006457600080fd5b81516401000000008111828201871017156200007f57600080fd5b505092919050505080620000a06301ffc9a760e01b620000ee60201b60201c565b620000b86380ac58cd60e01b620000ee60201b60201c565b8051620000cd90600b906020840190620001bd565b50620000e6635b5e139f60e01b620000ee60201b60201c565b505062000262565b7fffffffff0000000000000000000000000000000000000000000000000000000080821614156200018057604080517f08c379a000000000000000000000000000000000000000000000000000000000815260206004820152601c60248201527f4552433136353a20696e76616c696420696e7465726661636520696400000000604482015290519081900360640190fd5b7fffffffff00000000000000000000000000000000000000000000000000000000166000908152602081905260409020805460ff19166001179055565b828054600181600116156101000203166002900490600052602060002090601f016020900481019282601f106200020057805160ff191683800117855562000230565b8280016001018555821562000230579182015b828111156200023057825182559160200191906001019062000213565b506200023e92915062000242565b5090565b6200025f91905b808211156200023e576000815560010162000249565b90565b61238980620002726000396000f3fe608060405234801561001057600080fd5b50600436106101785760003560e01c80632f745c59116100d957806395d89b411161008757806395d89b4114610829578063a22cb46514610831578063b88d4fde1461085f578063c87b56dd14610923578063e985e9c514610940578063f242432a1461096e578063fe99049a14610a3757610178565b80632f745c591461074a57806342842e0e146107765780634f558e79146107ac5780634f6ccce7146107c95780636352211e146107e657806370a08231146108035780637fb42a361461034857610178565b80630febdd49116101365780630febdd491461030c5780631051db341461034857806317fad7fc1461035057806318160ddd1461048c57806321cda7901461049457806323b872dd146105535780632eb2c2d61461058957610178565b8062fdd58e1461017d57806301ffc9a7146101bb57806306fdde03146101f6578063081812fc14610273578063095bcdb6146102ac578063095ea7b3146102e0575b600080fd5b6101a96004803603604081101561019357600080fd5b506001600160a01b038135169060200135610a73565b60408051918252519081900360200190f35b6101e2600480360360208110156101d157600080fd5b50356001600160e01b031916610ac3565b604080519115158252519081900360200190f35b6101fe610ae6565b6040805160208082528351818301528351919283929083019185019080838360005b83811015610238578181015183820152602001610220565b50505050905090810190601f1680156102655780820380516001836020036101000a031916815260200191505b509250505060405180910390f35b6102906004803603602081101561028957600080fd5b5035610b12565b604080516001600160a01b039092168252519081900360200190f35b6102de600480360360608110156102c257600080fd5b506001600160a01b038135169060208101359060400135610b2d565b005b6102de600480360360408110156102f657600080fd5b506001600160a01b038135169060200135610b3e565b6102de6004803603608081101561032257600080fd5b506001600160a01b03813581169160208101359091169060408101359060600135610beb565b6101e2610c0d565b6102de6004803603608081101561036657600080fd5b6001600160a01b038235811692602081013590911691810190606081016040820135600160201b81111561039957600080fd5b8201836020820111156103ab57600080fd5b803590602001918460208302840111600160201b831117156103cc57600080fd5b9190808060200260200160405190810160405280939291908181526020018383602002808284376000920191909152509295949360208101935035915050600160201b81111561041b57600080fd5b82018360208201111561042d57600080fd5b803590602001918460208302840111600160201b8311171561044e57600080fd5b919080806020026020016040519081016040528093929190818152602001838360200280828437600092019190915250929550610c12945050505050565b6101a9610c1e565b6104ba600480360360208110156104aa57600080fd5b50356001600160a01b0316610c24565b604051808060200180602001838103835285818151815260200191508051906020019060200280838360005b838110156104fe5781810151838201526020016104e6565b50505050905001838103825284818151815260200191508051906020019060200280838360005b8381101561053d578181015183820152602001610525565b5050505090500194505050505060405180910390f35b6102de6004803603606081101561056957600080fd5b506001600160a01b03813581169160208101359091169060400135610dec565b6102de600480360360a081101561059f57600080fd5b6001600160a01b038235811692602081013590911691810190606081016040820135600160201b8111156105d257600080fd5b8201836020820111156105e457600080fd5b803590602001918460208302840111600160201b8311171561060557600080fd5b9190808060200260200160405190810160405280939291908181526020018383602002808284376000920191909152509295949360208101935035915050600160201b81111561065457600080fd5b82018360208201111561066657600080fd5b803590602001918460208302840111600160201b8311171561068757600080fd5b9190808060200260200160405190810160405280939291908181526020018383602002808284376000920191909152509295949360208101935035915050600160201b8111156106d657600080fd5b8201836020820111156106e857600080fd5b803590602001918460018302840111600160201b8311171561070957600080fd5b91908080601f016020809104026020016040519081016040528093929190818152602001838380828437600092019190915250929550610df7945050505050565b6101a96004803603604081101561076057600080fd5b506001600160a01b038135169060200135610fdb565b6102de6004803603606081101561078c57600080fd5b506001600160a01b03813581169160208101359091169060400135610fe3565b6101e2600480360360208110156107c257600080fd5b5035610ffe565b6101a9600480360360208110156107df57600080fd5b5035611012565b610290600480360360208110156107fc57600080fd5b5035611046565b6101a96004803603602081101561081957600080fd5b50356001600160a01b03166110ce565b6101fe6110e4565b6102de6004803603604081101561084757600080fd5b506001600160a01b0381351690602001351515611108565b6102de6004803603608081101561087557600080fd5b6001600160a01b03823581169260208101359091169160408201359190810190608081016060820135600160201b8111156108af57600080fd5b8201836020820111156108c157600080fd5b803590602001918460018302840111600160201b831117156108e257600080fd5b91908080601f016020809104026020016040519081016040528093929190818152602001838380828437600092019190915250929550611176945050505050565b6101fe6004803603602081101561093957600080fd5b50356111cb565b6101e26004803603604081101561095657600080fd5b506001600160a01b038135811691602001351661130c565b6102de600480360360a081101561098457600080fd5b6001600160a01b03823581169260208101359091169160408201359160608101359181019060a081016080820135600160201b8111156109c357600080fd5b8201836020820111156109d557600080fd5b803590602001918460018302840111600160201b831117156109f657600080fd5b91908080601f01602080910402602001604051908101604052809392919081815260200183838082843760009201919091525092955061133a945050505050565b6102de60048036036080811015610a4d57600080fd5b506001600160a01b03813581169160208101359091169060408101359060600135611391565b6000806000610a818461139d565b6001600160a01b03871660009081526006602090815260408083208584529091529020549193509150610aba908263ffffffff6113ae16565b95945050505050565b6001600160e01b0319811660009081526020819052604090205460ff165b919050565b60408051808201909152600f81526001608a1b6e115490cdcc8c56151bdad95b93919502602082015290565b6000908152600960205260409020546001600160a01b031690565b610b39338484846113c6565b505050565b6000610b4982611046565b9050806001600160a01b0316836001600160a01b03161415610b6a57600080fd5b336001600160a01b0382161480610b865750610b86813361130c565b610b8f57600080fd5b60008281526009602052604080822080546001600160a01b0319166001600160a01b0387811691821790925591518593918516917f8c5be1e5ebec7d5bd14f71427d1e84f3dd0314c0f7b2291e5b200ac8c7c3b92591a4505050565b610c07848484846040518060200160405280600081525061133a565b50505050565b600190565b610c0784848484611568565b60055490565b6060806000610c31610c1e565b9050606081604051908082528060200260200182016040528015610c5f578160200160208202803883390190505b509050606082604051908082528060200260200182016040528015610c8e578160200160208202803883390190505b5090506000805b84811015610d1557600060058281548110610cac57fe5b906000526020600020015490506000610cc58a83610a73565b1115610d0c57610cd58982610a73565b848481518110610ce157fe5b60200260200101818152505080858481518110610cfa57fe5b60209081029190910101526001909201915b50600101610c95565b50606081604051908082528060200260200182016040528015610d42578160200160208202803883390190505b509050606082604051908082528060200260200182016040528015610d71578160200160208202803883390190505b50905060005b83811015610dde57848181518110610d8b57fe5b6020026020010151838281518110610d9f57fe5b602002602001018181525050858181518110610db757fe5b6020026020010151828281518110610dcb57fe5b6020908102919091010152600101610d77565b509650945050505050915091565b610b39838383611b27565b610e0385858585611568565b610e15846001600160a01b0316611c1a565b15610fd4576000846001600160a01b031663b3b0f4c733888787876040518663ffffffff1660e01b815260040180866001600160a01b03166001600160a01b03168152602001856001600160a01b03166001600160a01b03168152602001806020018060200180602001848103845287818151815260200191508051906020019060200280838360005b83811015610eb7578181015183820152602001610e9f565b50505050905001848103835286818151815260200191508051906020019060200280838360005b83811015610ef6578181015183820152602001610ede565b50505050905001848103825285818151815260200191508051906020019080838360005b83811015610f32578181015183820152602001610f1a565b50505050905090810190601f168015610f5f5780820380516001836020036101000a031916815260200191505b5098505050505050505050602060405180830381600087803b158015610f8457600080fd5b505af1158015610f98573d6000803e3d6000fd5b505050506040513d6020811015610fae57600080fd5b505190506001600160e01b03198116600160e11b6374f2df350214610fd257600080fd5b505b5050505050565b600092915050565b610b3983838360405180602001604052806000815250611176565b6000908152600a6020526040902054151590565b600061101c610c1e565b821061102757600080fd5b6005828154811061103457fe5b90600052602060002001549050919050565b6000818152600760205260408120546001600160a01b03166110b25760408051600160e51b62461bcd02815260206004820152601360248201527f436f696e20646f6573206e6f7420657869737400000000000000000000000000604482015290519081900360640190fd5b506000908152600760205260409020546001600160a01b031690565b600060606110db83610c24565b51949350505050565b6040805180820190915260078152600160cb1b6608aa4866e6462b02602082015290565b3360008181526008602090815260408083206001600160a01b03871680855290835292819020805460ff1916861515908117909155815190815290519293927f17307eab39ab6107e8899845ad3d59bd9653f200f220920489ca2b5937696c31929181900390910190a35050565b611181848484611b27565b61118d84848484611c20565b610c0757604051600160e51b62461bcd02815260040180806020018281038252603281526020018061228f6032913960400191505060405180910390fd5b60606111d682610ffe565b61122a5760408051600160e51b62461bcd02815260206004820152601360248201527f546f6b656e20646f65736e277420657869737400000000000000000000000000604482015290519081900360640190fd5b600b61123583611d5a565b60405160200180838054600181600116156101000203166002900480156112935780601f10611271576101008083540402835291820191611293565b820191906000526020600020905b81548152906001019060200180831161127f575b5050825160208401908083835b602083106112bf5780518252601f1990920191602091820191016112a0565b5181516020939093036101000a6000190180199091169216919091179052600160d91b64173539b7b70292019182525060408051808303601a190181526005909201905295945050505050565b6001600160a01b03918216600090815260086020908152604080832093909416825291909152205460ff1690565b611346858585856113c6565b6113538585858585611e1e565b610fd457604051600160e51b62461bcd0281526004018080602001828103825260338152602001806123096033913960400191505060405180910390fd5b610c07848484846113c6565b610100601082020491600f90911690565b600181016010026101000382901c61ffff1692915050565b83336001600160a01b038216148061140157506001600160a01b038116600090815260086020908152604080832033845290915290205460ff165b61143f57604051600160e51b62461bcd0281526004018080602001828103825260288152602001806122e16028913960400191505060405180910390fd5b6000838152600a602052604090205460021461145a57600080fd5b6114648584610a73565b8211156114a557604051600160e51b62461bcd02815260040180806020018281038252602281526020018061233c6022913960400191505060405180910390fd5b6001600160a01b0384166114fb5760408051600160e51b62461bcd0281526020600482015260126024820152600160701b71496e76616c696420746f206164647265737302604482015290519081900360640190fd5b6115088584846001611f7a565b6115158484846000611f7a565b82846001600160a01b0316866001600160a01b03167f2114851a3e2a54429989f46c1ab0743e37ded205d9bbdfd85635aed5bd595a06856040518082815260200191505060405180910390a45050505050565b83336001600160a01b03821614806115a357506001600160a01b038116600090815260086020908152604080832033845290915290205460ff165b6115e157604051600160e51b62461bcd0281526004018080602001828103825260288152602001806122e16028913960400191505060405180910390fd5b815183511461162457604051600160e51b62461bcd0281526004018080602001828103825260268152602001806122466026913960400191505060405180910390fd5b6001600160a01b0384166116795760408051600160e51b62461bcd02815260206004820152601160248201526001607a1b70125b9d985b1a59081c9958da5c1a595b9d02604482015290519081900360640190fd5b6001600a60008560008151811061168c57fe5b60200260200101518152602001908152602001600020541415611739578360076000856000815181106116bb57fe5b6020026020010151815260200190815260200160002060006101000a8154816001600160a01b0302191690836001600160a01b031602179055508260008151811061170257fe5b6020026020010151846001600160a01b0316866001600160a01b03166000805160206122c183398151915260405160405180910390a45b6000806117598560008151811061174c57fe5b602002602001015161139d565b9150915060006117b6600660008a6001600160a01b03166001600160a01b0316815260200190815260200160002060008581526020019081526020016000205483876000815181106117a757fe5b60200260200101516001611ff1565b90506000611811600660008a6001600160a01b03166001600160a01b03168152602001908152602001600020600086815260200190815260200160002054848860008151811061180257fe5b60200260200101516000611ff1565b87519091508460015b828110156119b4576001600a60008c848151811061183457fe5b602002602001015181526020019081526020016000205414156118df578a600760008c848151811061186257fe5b6020026020010151815260200190815260200160002060006101000a8154816001600160a01b0302191690836001600160a01b031602179055508981815181106118a857fe5b60200260200101518b6001600160a01b03168d6001600160a01b03166000805160206122c183398151915260405160405180910390a45b6118ee8a828151811061174c57fe5b9097509550818714611952576001600160a01b038c811660009081526006602081815260408084208785528083528185209a909a55938f16835290815282822094825284815282822096909655888152958552808620549290945292909320549185905b61197d868a838151811061196257fe5b6020026020010151600188611ff1909392919063ffffffff16565b94506119aa868a838151811061198f57fe5b6020026020010151600087611ff1909392919063ffffffff16565b935060010161181a565b5083600660008d6001600160a01b03166001600160a01b0316815260200190815260200160002060008881526020019081526020016000208190555082600660008c6001600160a01b03166001600160a01b031681526020019081526020016000206000888152602001908152602001600020819055507ff59807b2c31ca3ba212e90599175c120c556422950bac5be656274483e8581df8b8b8b8b60405180856001600160a01b03166001600160a01b03168152602001846001600160a01b03166001600160a01b031681526020018060200180602001838103835285818151815260200191508051906020019060200280838360005b83811015611ac4578181015183820152602001611aac565b50505050905001838103825284818151815260200191508051906020019060200280838360005b83811015611b03578181015183820152602001611aeb565b50505050905001965050505050505060405180910390a15050505050505050505050565b6000818152600a6020526040902054600114611b4257600080fd5b611b5583611b4f83611046565b836120cf565b611b5e57600080fd5b6001600160a01b038216611bb45760408051600160e51b62461bcd0281526020600482015260126024820152600160701b71496e76616c696420746f206164647265737302604482015290519081900360640190fd5b611bc2838260006002611f7a565b611bd0828260016002611f7a565b60008181526007602052604080822080546001600160a01b0319166001600160a01b0386811691821790925591518493918716916000805160206122c183398151915291a4505050565b3b151590565b6000611c34846001600160a01b0316611c1a565b611c4057506001611d52565b604051600160e11b630a85bd0102815233600482018181526001600160a01b03888116602485015260448401879052608060648501908152865160848601528651600095928a169463150b7a029490938c938b938b939260a4019060208501908083838e5b83811015611cbd578181015183820152602001611ca5565b50505050905090810190601f168015611cea5780820380516001836020036101000a031916815260200191505b5095505050505050602060405180830381600087803b158015611d0c57600080fd5b505af1158015611d20573d6000803e3d6000fd5b505050506040513d6020811015611d3657600080fd5b50516001600160e01b031916600160e11b630a85bd0102149150505b949350505050565b606081611d8257506040805180820190915260018152600160fc1b6003026020820152610ae1565b8160005b8115611d9a57600101600a82049150611d86565b6060816040519080825280601f01601f191660200182016040528015611dc7576020820181803883390190505b50905060001982015b8515611e1557600a860660300160f81b82828060019003935081518110611df357fe5b60200101906001600160f81b031916908160001a905350600a86049550611dd0565b50949350505050565b6000611e32856001600160a01b0316611c1a565b611e3e57506001610aba565b6000856001600160a01b03166393ba7daa33898888886040518663ffffffff1660e01b815260040180866001600160a01b03166001600160a01b03168152602001856001600160a01b03166001600160a01b0316815260200184815260200183815260200180602001828103825283818151815260200191508051906020019080838360005b83811015611edc578181015183820152602001611ec4565b50505050905090810190601f168015611f095780820380516001836020036101000a031916815260200191505b509650505050505050602060405180830381600087803b158015611f2c57600080fd5b505af1158015611f40573d6000803e3d6000fd5b505050506040513d6020811015611f5657600080fd5b50516001600160e01b031916600160e41b630660b337021491505095945050505050565b600080611f868561139d565b6001600160a01b03881660009081526006602090815260408083208584529091529020549193509150611fc19082868663ffffffff611ff116565b6001600160a01b039096166000908152600660209081526040808320948352939052919091209490945550505050565b6000808083600281111561200157fe5b14156120345761201186866113ae565b905061202d8686612028848863ffffffff61211a16565b61217e565b9150611e15565b600183600281111561204257fe5b14156120695761205286866113ae565b905061202d8686612028848863ffffffff6121e516565b600283600281111561207757fe5b14156120885761202d86868661217e565b60408051600160e51b62461bcd0281526020600482015260116024820152600160791b7024b73b30b634b21037b832b930ba34b7b702604482015290519081900360640190fd5b6000826001600160a01b0316846001600160a01b0316148061210a5750836001600160a01b03166120ff83610b12565b6001600160a01b0316145b80611d525750611d52838561130c565b6000828201838110156121775760408051600160e51b62461bcd02815260206004820152601b60248201527f536166654d6174683a206164646974696f6e206f766572666c6f770000000000604482015290519081900360640190fd5b9392505050565b60006201000082106121c457604051600160e51b62461bcd02815260040180806020018281038252602381526020018061226c6023913960400191505060405180910390fd5b5061ffff600183016010026101000390811b1984169082901b179392505050565b60008282111561223f5760408051600160e51b62461bcd02815260206004820152601e60248201527f536166654d6174683a207375627472616374696f6e206f766572666c6f770000604482015290519081900360640190fd5b5090039056fe496e636f6e73697374656e74206172726179206c656e677468206265747765656e2061726773416d6f756e7420746f20777269746520696e2062696e20697320746f6f206c6172676553656e7420746f206120636f6e7472616374207768696368206973206e6f7420616e20455243373231207265636569766572ddf252ad1be2c89b69c2b068fc378daa952ba7f163c4a11628f55a4df523b3ef6d73672e73656e646572206973206e656974686572205f66726f6d206e6f72206f70657261746f7253656e7420746f206120636f6e7472616374207768696368206973206e6f7420616e20455243373231582072656365697665725175616e746974792067726561746572207468616e2066726f6d2062616c616e6365a165627a7a723058202483e1966d9b2e42a4761bff7e56fccfc4c3ccbd93265bc3c919446d6f412cf70029",
  "source": "pragma solidity ^0.5.6;\n\n\nimport \"./ERC721XTokenNFT.sol\";\n\nimport \"./../Interfaces/ERC721X.sol\";\nimport \"./../Interfaces/ERC721XReceiver.sol\";\n\nimport \"openzeppelin-solidity/contracts/utils/Address.sol\";\nimport \"./../Libraries/ObjectsLib.sol\";\n\n\n// Additional features over NFT token that is compatible with batch transfers\ncontract ERC721XToken is ERC721X, ERC721XTokenNFT {\n\n    using ObjectLib for ObjectLib.Operations;\n    using Address for address;\n\n    bytes4 internal constant ERC721X_RECEIVED = 0x660b3370;\n    bytes4 internal constant ERC721X_BATCH_RECEIVE_SIG = 0xe9e5be6a;\n\n    event BatchTransfer(address from, address to, uint256[] tokenTypes, uint256[] amounts);\n\n    constructor(string memory _baseTokenURI) public ERC721XTokenNFT(_baseTokenURI) {}\n\n\n    modifier isOperatorOrOwner(address _from) {\n        require((msg.sender == _from) || operators[_from][msg.sender], \"msg.sender is neither _from nor operator\");\n        _;\n    }\n\n    function implementsERC721X() public pure returns (bool) {\n        return true;\n    }\n\n    /**\n     * @dev transfer objects from different tokenIds to specified address\n     * @param _from The address to BatchTransfer objects from.\n     * @param _to The address to batchTransfer objects to.\n     * @param _tokenIds Array of tokenIds to update balance of\n     * @param _amounts Array of amount of object per type to be transferred.\n     * Note:  Arrays should be sorted so that all tokenIds in a same bin are adjacent (more efficient).\n     */\n    function _batchTransferFrom(address _from, address _to, uint256[] memory _tokenIds, uint256[] memory _amounts)\n        internal\n        isOperatorOrOwner(_from)\n    {\n\n        // Requirements\n        require(_tokenIds.length == _amounts.length, \"Inconsistent array length between args\");\n        require(_to != address(0), \"Invalid recipient\");\n\n        if (tokenType[_tokenIds[0]] == NFT) {\n            tokenOwner[_tokenIds[0]] = _to;\n            emit Transfer(_from, _to, _tokenIds[0]);\n        }\n\n        // Load first bin and index where the object balance exists\n        (uint256 bin, uint256 index) = ObjectLib.getTokenBinIndex(_tokenIds[0]);\n\n        // Balance for current bin in memory (initialized with first transfer)\n        // Written with bad library syntax instead of as below to bypass stack limit error\n        uint256 balFrom = ObjectLib.updateTokenBalance(\n            packedTokenBalance[_from][bin], index, _amounts[0], ObjectLib.Operations.SUB\n        );\n        uint256 balTo = ObjectLib.updateTokenBalance(\n            packedTokenBalance[_to][bin], index, _amounts[0], ObjectLib.Operations.ADD\n        );\n\n        // Number of transfers to execute\n        uint256 nTransfer = _tokenIds.length;\n\n        // Last bin updated\n        uint256 lastBin = bin;\n\n        for (uint256 i = 1; i < nTransfer; i++) {\n            // If we're transferring an NFT we additionally should update the tokenOwner and emit the corresponding event\n            if (tokenType[_tokenIds[i]] == NFT) {\n                tokenOwner[_tokenIds[i]] = _to;\n                emit Transfer(_from, _to, _tokenIds[i]);\n            }\n            (bin, index) = _tokenIds[i].getTokenBinIndex();\n\n            // If new bin\n            if (bin != lastBin) {\n                // Update storage balance of previous bin\n                packedTokenBalance[_from][lastBin] = balFrom;\n                packedTokenBalance[_to][lastBin] = balTo;\n\n                // Load current bin balance in memory\n                balFrom = packedTokenBalance[_from][bin];\n                balTo = packedTokenBalance[_to][bin];\n\n                // Bin will be the most recent bin\n                lastBin = bin;\n            }\n\n            // Update memory balance\n            balFrom = balFrom.updateTokenBalance(index, _amounts[i], ObjectLib.Operations.SUB);\n            balTo = balTo.updateTokenBalance(index, _amounts[i], ObjectLib.Operations.ADD);\n        }\n\n        // Update storage of the last bin visited\n        packedTokenBalance[_from][bin] = balFrom;\n        packedTokenBalance[_to][bin] = balTo;\n\n        // Emit batchTransfer event\n        emit BatchTransfer(_from, _to, _tokenIds, _amounts);\n    }\n\n    function batchTransferFrom(address _from, address _to, uint256[] memory _tokenIds, uint256[] memory _amounts) public {\n        // Batch Transfering\n        _batchTransferFrom(_from, _to, _tokenIds, _amounts);\n    }\n\n    /**\n     * @dev transfer objects from different tokenIds to specified address\n     * @param _from The address to BatchTransfer objects from.\n     * @param _to The address to batchTransfer objects to.\n     * @param _tokenIds Array of tokenIds to update balance of\n     * @param _amounts Array of amount of object per type to be transferred.\n     * @param _data Data to pass to onERC721XReceived() function if recipient is contract\n     * Note:  Arrays should be sorted so that all tokenIds in a same bin are adjacent (more efficient).\n     */\n    function safeBatchTransferFrom(\n        address _from,\n        address _to,\n        uint256[] memory _tokenIds,\n        uint256[] memory _amounts,\n        bytes memory _data\n    )\n        public\n    {\n\n        // Batch Transfering\n        _batchTransferFrom(_from, _to, _tokenIds, _amounts);\n\n        // Pass data if recipient is contract\n        if (_to.isContract()) {\n            bytes4 retval = ERC721XReceiver(_to).onERC721XBatchReceived(\n                msg.sender, _from, _tokenIds, _amounts, _data\n            );\n            require(retval == ERC721X_BATCH_RECEIVE_SIG);\n        }\n    }\n\n    function transfer(address _to, uint256 _tokenId, uint256 _amount) public {\n        _transferFrom(msg.sender, _to, _tokenId, _amount);\n    }\n\n    function transferFrom(address _from, address _to, uint256 _tokenId, uint256 _amount) public {\n        _transferFrom(_from, _to, _tokenId, _amount);\n    }\n\n    function _transferFrom(address _from, address _to, uint256 _tokenId, uint256 _amount)\n        internal\n        isOperatorOrOwner(_from)\n    {\n        require(tokenType[_tokenId] == FT);\n        require(_amount <= balanceOf(_from, _tokenId), \"Quantity greater than from balance\");\n        require(_to != address(0), \"Invalid to address\");\n\n        _updateTokenBalance(_from, _tokenId, _amount, ObjectLib.Operations.SUB);\n        _updateTokenBalance(_to, _tokenId, _amount, ObjectLib.Operations.ADD);\n        emit TransferWithQuantity(_from, _to, _tokenId, _amount);\n    }\n\n    function safeTransferFrom(address _from, address _to, uint256 _tokenId, uint256 _amount) public {\n        safeTransferFrom(_from, _to, _tokenId, _amount, \"\");\n    }\n\n    function safeTransferFrom(address _from, address _to, uint256 _tokenId, uint256 _amount, bytes memory _data) public {\n        _transferFrom(_from, _to, _tokenId, _amount);\n        require(\n            checkAndCallSafeTransfer(_from, _to, _tokenId, _amount, _data),\n            \"Sent to a contract which is not an ERC721X receiver\"\n        );\n    }\n\n    function _mint(uint256 _tokenId, address _to, uint256 _supply) internal {\n        // If the token doesn't exist, add it to the tokens array\n        if (!exists(_tokenId)) {\n            tokenType[_tokenId] = FT;\n            allTokens.push(_tokenId);\n        } else {\n            // if the token exists, it must be a FT\n            require(tokenType[_tokenId] == FT, \"Not a FT\");\n        }\n\n        _updateTokenBalance(_to, _tokenId, _supply, ObjectLib.Operations.ADD);\n        emit TransferWithQuantity(address(this), _to, _tokenId, _supply);\n    }\n\n\n    function checkAndCallSafeTransfer(\n        address _from,\n        address _to,\n        uint256 _tokenId,\n        uint256 _amount,\n        bytes memory _data\n    )\n        internal\n        returns (bool)\n    {\n        if (!_to.isContract()) {\n            return true;\n        }\n\n        bytes4 retval = ERC721XReceiver(_to).onERC721XReceived(\n            msg.sender, _from, _tokenId, _amount, _data);\n        return(retval == ERC721X_RECEIVED);\n    }\n\n}\n",
  "sourcePath": "/Users/DK/work/ExSports/Git/ExSports/blockchain/ExSports-Service/smartContract/contracts/ExsToken/ERC721X/Core/ERC721XToken.sol",
  "compiler": {
    "name": "solc",
    "version": "0.5.8+commit.23d335f2.Emscripten.clang"
  },
  "schemaVersion": "3.0.16",
  "updatedAt": "2020-05-27T06:32:01.823Z",
  "devdoc": {
    "methods": {
      "approve(address,uint256)": {
        "details": "Approves another address to transfer the given token ID The zero address indicates there is no approved address. There can only be one approved address per token at a given time. Can only be called by the token owner or an approved operator.",
        "params": {
          "_to": "address to be approved for the given token ID",
          "_tokenId": "uint256 ID of the token to be approved"
        }
      },
      "balanceOf(address)": {
        "details": "Gets the number of tokens owned by the address we are checking",
        "params": {
          "_owner": "The adddress we are checking"
        },
        "return": "balance The unique amount of tokens owned"
      },
      "balanceOf(address,uint256)": {
        "details": "return the _tokenId type' balance of _address",
        "params": {
          "_address": "Address to query balance of",
          "_tokenId": "type to query balance of"
        },
        "return": "Amount of objects of a given type ID"
      },
      "exists(uint256)": {
        "details": "Returns whether the specified token exists",
        "params": {
          "_tokenId": "uint256 ID of the token to query the existence of"
        },
        "return": "whether the token exists"
      },
      "getApproved(uint256)": {
        "details": "Gets the approved address for a token ID, or zero if no address set",
        "params": {
          "_tokenId": "uint256 ID of the token to query the approval of"
        },
        "return": "address currently approved for the given token ID"
      },
      "isApprovedForAll(address,address)": {
        "details": "Function that verifies whether _operator is an authorized operator of _tokenHolder.",
        "params": {
          "_operator": "The address of the operator to query status of",
          "_owner": "Address of the tokenHolder"
        },
        "return": "A uint256 specifying the amount of tokens still available for the spender."
      },
      "ownerOf(uint256)": {
        "details": "Gets the owner of a given NFT",
        "params": {
          "_tokenId": "uint256 representing the unique token identifier"
        },
        "return": "address the owner of the token"
      },
      "safeBatchTransferFrom(address,address,uint256[],uint256[],bytes)": {
        "details": "transfer objects from different tokenIds to specified address",
        "params": {
          "_amounts": "Array of amount of object per type to be transferred.",
          "_data": "Data to pass to onERC721XReceived() function if recipient is contract Note:  Arrays should be sorted so that all tokenIds in a same bin are adjacent (more efficient).",
          "_from": "The address to BatchTransfer objects from.",
          "_to": "The address to batchTransfer objects to.",
          "_tokenIds": "Array of tokenIds to update balance of"
        }
      },
      "setApprovalForAll(address,bool)": {
        "details": "Will set _operator operator status to true or false",
        "params": {
          "_approved": "_operator's new operator status (true or false)",
          "_operator": "Address to changes operator status."
        }
      },
      "supportsInterface(bytes4)": {
        "details": "See `IERC165.supportsInterface`.     * Time complexity O(1), guaranteed to always use less than 30 000 gas."
      },
      "tokenByIndex(uint256)": {
        "details": "Gets the token ID at a given index of all the tokens in this contract Reverts if the index is greater or equal to the total number of tokens",
        "params": {
          "_index": "uint256 representing the index to be accessed of the tokens list"
        },
        "return": "uint256 token ID at the given index of the tokens list"
      },
      "tokensOwned(address)": {
        "details": "Gets Iterate through the list of existing tokens and return the indexes       and balances of the tokens owner by the user",
        "params": {
          "_owner": "The adddress we are checking"
        },
        "return": "indexes The tokenIdsbalances The balances of each token"
      },
      "totalSupply()": {
        "details": "Gets the total amount of tokens stored by the contract",
        "return": "uint256 representing the total amount of tokens"
      }
    }
  },
  "userdoc": {
    "methods": {}
  }
}