{
  "contractName": "ExsCoinFrame",
  "abi": [
    {
      "constant": true,
      "inputs": [],
      "name": "name",
      "outputs": [
        {
          "name": "",
          "type": "string"
        }
      ],
      "payable": false,
      "stateMutability": "view",
      "type": "function"
    },
    {
      "constant": false,
      "inputs": [
        {
          "name": "spender",
          "type": "address"
        },
        {
          "name": "value",
          "type": "uint256"
        }
      ],
      "name": "approve",
      "outputs": [
        {
          "name": "",
          "type": "bool"
        }
      ],
      "payable": false,
      "stateMutability": "nonpayable",
      "type": "function"
    },
    {
      "constant": true,
      "inputs": [],
      "name": "totalSupply",
      "outputs": [
        {
          "name": "",
          "type": "uint256"
        }
      ],
      "payable": false,
      "stateMutability": "view",
      "type": "function"
    },
    {
      "constant": false,
      "inputs": [
        {
          "name": "_from",
          "type": "address"
        },
        {
          "name": "_to",
          "type": "address"
        },
        {
          "name": "_value",
          "type": "uint256"
        }
      ],
      "name": "transferFrom",
      "outputs": [
        {
          "name": "",
          "type": "bool"
        }
      ],
      "payable": false,
      "stateMutability": "nonpayable",
      "type": "function"
    },
    {
      "constant": true,
      "inputs": [],
      "name": "decimals",
      "outputs": [
        {
          "name": "",
          "type": "uint8"
        }
      ],
      "payable": false,
      "stateMutability": "view",
      "type": "function"
    },
    {
      "constant": false,
      "inputs": [
        {
          "name": "spender",
          "type": "address"
        },
        {
          "name": "addedValue",
          "type": "uint256"
        }
      ],
      "name": "increaseAllowance",
      "outputs": [
        {
          "name": "",
          "type": "bool"
        }
      ],
      "payable": false,
      "stateMutability": "nonpayable",
      "type": "function"
    },
    {
      "constant": true,
      "inputs": [
        {
          "name": "_owner",
          "type": "address"
        }
      ],
      "name": "balanceOf",
      "outputs": [
        {
          "name": "balance",
          "type": "uint256"
        }
      ],
      "payable": false,
      "stateMutability": "view",
      "type": "function"
    },
    {
      "constant": false,
      "inputs": [],
      "name": "renounceOwnership",
      "outputs": [],
      "payable": false,
      "stateMutability": "nonpayable",
      "type": "function"
    },
    {
      "constant": true,
      "inputs": [],
      "name": "owner",
      "outputs": [
        {
          "name": "",
          "type": "address"
        }
      ],
      "payable": false,
      "stateMutability": "view",
      "type": "function"
    },
    {
      "constant": true,
      "inputs": [],
      "name": "isOwner",
      "outputs": [
        {
          "name": "",
          "type": "bool"
        }
      ],
      "payable": false,
      "stateMutability": "view",
      "type": "function"
    },
    {
      "constant": true,
      "inputs": [],
      "name": "symbol",
      "outputs": [
        {
          "name": "",
          "type": "string"
        }
      ],
      "payable": false,
      "stateMutability": "view",
      "type": "function"
    },
    {
      "constant": false,
      "inputs": [
        {
          "name": "spender",
          "type": "address"
        },
        {
          "name": "subtractedValue",
          "type": "uint256"
        }
      ],
      "name": "decreaseAllowance",
      "outputs": [
        {
          "name": "",
          "type": "bool"
        }
      ],
      "payable": false,
      "stateMutability": "nonpayable",
      "type": "function"
    },
    {
      "constant": false,
      "inputs": [
        {
          "name": "_to",
          "type": "address"
        },
        {
          "name": "_value",
          "type": "uint256"
        }
      ],
      "name": "transfer",
      "outputs": [
        {
          "name": "",
          "type": "bool"
        }
      ],
      "payable": false,
      "stateMutability": "nonpayable",
      "type": "function"
    },
    {
      "constant": true,
      "inputs": [
        {
          "name": "owner",
          "type": "address"
        },
        {
          "name": "spender",
          "type": "address"
        }
      ],
      "name": "allowance",
      "outputs": [
        {
          "name": "",
          "type": "uint256"
        }
      ],
      "payable": false,
      "stateMutability": "view",
      "type": "function"
    },
    {
      "constant": false,
      "inputs": [
        {
          "name": "_operators",
          "type": "address[]"
        }
      ],
      "name": "setOperators",
      "outputs": [],
      "payable": false,
      "stateMutability": "nonpayable",
      "type": "function"
    },
    {
      "constant": false,
      "inputs": [
        {
          "name": "newOwner",
          "type": "address"
        }
      ],
      "name": "transferOwnership",
      "outputs": [],
      "payable": false,
      "stateMutability": "nonpayable",
      "type": "function"
    },
    {
      "inputs": [
        {
          "name": "_name",
          "type": "string"
        },
        {
          "name": "_symbol",
          "type": "string"
        },
        {
          "name": "_decimals",
          "type": "uint8"
        },
        {
          "name": "_initial_supply",
          "type": "uint256"
        }
      ],
      "payable": false,
      "stateMutability": "nonpayable",
      "type": "constructor"
    },
    {
      "anonymous": false,
      "inputs": [
        {
          "indexed": true,
          "name": "previousOwner",
          "type": "address"
        },
        {
          "indexed": true,
          "name": "newOwner",
          "type": "address"
        }
      ],
      "name": "OwnershipTransferred",
      "type": "event"
    },
    {
      "anonymous": false,
      "inputs": [
        {
          "indexed": true,
          "name": "from",
          "type": "address"
        },
        {
          "indexed": true,
          "name": "to",
          "type": "address"
        },
        {
          "indexed": false,
          "name": "value",
          "type": "uint256"
        }
      ],
      "name": "Transfer",
      "type": "event"
    },
    {
      "anonymous": false,
      "inputs": [
        {
          "indexed": true,
          "name": "owner",
          "type": "address"
        },
        {
          "indexed": true,
          "name": "spender",
          "type": "address"
        },
        {
          "indexed": false,
          "name": "value",
          "type": "uint256"
        }
      ],
      "name": "Approval",
      "type": "event"
    }
  ],
  "bytecode": "0x60806040523480156200001157600080fd5b5060405162000f0f38038062000f0f833981018060405260808110156200003757600080fd5b8101908080516401000000008111156200005057600080fd5b820160208101848111156200006457600080fd5b81516401000000008111828201871017156200007f57600080fd5b505092919060200180516401000000008111156200009c57600080fd5b82016020810184811115620000b057600080fd5b8151640100000000811182820187101715620000cb57600080fd5b50506020820151604092830151600380546001600160a01b0319163317908190559351929550909350916001600160a01b0316906000907f8be0079c531659141344cd1fd0a4f28419497f9722a3daafe3b4186f6b6457e0908290a383516200013c90600a90602087019062000186565b5082516200015290600b90602086019062000186565b50600c805460ff191660ff9390931692909217909155600581905533600090815260046020526040902055506200022b9050565b828054600181600116156101000203166002900490600052602060002090601f016020900481019282601f10620001c957805160ff1916838001178555620001f9565b82800160010185558215620001f9579182015b82811115620001f9578251825591602001919060010190620001dc565b50620002079291506200020b565b5090565b6200022891905b8082111562000207576000815560010162000212565b90565b610cd4806200023b6000396000f3fe608060405234801561001057600080fd5b50600436106100e05760003560e01c80638da5cb5b116100875780638da5cb5b1461026c5780638f32d59b1461029057806395d89b4114610298578063a457c2d7146102a0578063a9059cbb146102cc578063dd62ed3e146102f8578063ddf71cd514610326578063f2fde38b146103c9576100e0565b806306fdde03146100e5578063095ea7b31461016257806318160ddd146101a257806323b872dd146101bc578063313ce567146101f2578063395093511461021057806370a082311461023c578063715018a614610262575b600080fd5b6100ed6103ef565b6040805160208082528351818301528351919283929083019185019080838360005b8381101561012757818101518382015260200161010f565b50505050905090810190601f1680156101545780820380516001836020036101000a031916815260200191505b509250505060405180910390f35b61018e6004803603604081101561017857600080fd5b506001600160a01b03813516906020013561047d565b604080519115158252519081900360200190f35b6101aa610493565b60408051918252519081900360200190f35b61018e600480360360608110156101d257600080fd5b506001600160a01b0381358116916020810135909116906040013561049a565b6101fa6105b7565b6040805160ff9092168252519081900360200190f35b61018e6004803603604081101561022657600080fd5b506001600160a01b0381351690602001356105c0565b6101aa6004803603602081101561025257600080fd5b50356001600160a01b0316610601565b61026a61061c565b005b6102746106b0565b604080516001600160a01b039092168252519081900360200190f35b61018e6106bf565b6100ed6106d0565b61018e600480360360408110156102b657600080fd5b506001600160a01b03813516906020013561072b565b61018e600480360360408110156102e257600080fd5b506001600160a01b038135169060200135610767565b6101aa6004803603604081101561030e57600080fd5b506001600160a01b0381358116916020013516610859565b61026a6004803603602081101561033c57600080fd5b81019060208101813564010000000081111561035757600080fd5b82018360208201111561036957600080fd5b8035906020019184602083028401116401000000008311171561038b57600080fd5b919080806020026020016040519081016040528093929190818152602001838360200280828437600092019190915250929550610884945050505050565b61026a600480360360208110156103df57600080fd5b50356001600160a01b031661092a565b600a805460408051602060026001851615610100026000190190941693909304601f810184900484028201840190925281815292918301828280156104755780601f1061044a57610100808354040283529160200191610475565b820191906000526020600020905b81548152906001019060200180831161045857829003601f168201915b505050505081565b600061048a338484610980565b50600192915050565b6005545b90565b60006104a4610a72565b6104ad57600080fd5b6001600160a01b0383166104c057600080fd5b6001600160a01b0384166104d357600080fd5b6001600160a01b0384166000908152600460205260409020548211156104f857600080fd5b6001600160a01b038416600090815260046020526040902054610521908363ffffffff610ab416565b6001600160a01b038086166000908152600460205260408082209390935590851681522054610556908363ffffffff610b1416565b6001600160a01b0380851660008181526004602090815260409182902094909455805186815290519193928816927fddf252ad1be2c89b69c2b068fc378daa952ba7f163c4a11628f55a4df523b3ef92918290030190a35060019392505050565b600c5460ff1681565b3360008181526001602090815260408083206001600160a01b0387168452909152812054909161048a9185906105fc908663ffffffff610b1416565b610980565b6001600160a01b031660009081526004602052604090205490565b6106246106bf565b6106665760408051600160e51b62461bcd0281526020600482018190526024820152600080516020610c65833981519152604482015290519081900360640190fd5b6003546040516000916001600160a01b0316907f8be0079c531659141344cd1fd0a4f28419497f9722a3daafe3b4186f6b6457e0908390a3600380546001600160a01b0319169055565b6003546001600160a01b031690565b6003546001600160a01b0316331490565b600b805460408051602060026001851615610100026000190190941693909304601f810184900484028201840190925281815292918301828280156104755780601f1061044a57610100808354040283529160200191610475565b3360008181526001602090815260408083206001600160a01b0387168452909152812054909161048a9185906105fc908663ffffffff610ab416565b6000610771610a72565b61077a57600080fd5b6001600160a01b03831661078d57600080fd5b336000908152600460205260409020548211156107a957600080fd5b336000908152600460205260409020546107c9908363ffffffff610ab416565b33600090815260046020526040808220929092556001600160a01b038516815220546107fb908363ffffffff610b1416565b6001600160a01b0384166000818152600460209081526040918290209390935580518581529051919233927fddf252ad1be2c89b69c2b068fc378daa952ba7f163c4a11628f55a4df523b3ef9281900390910190a350600192915050565b6001600160a01b03918216600090815260016020908152604080832093909416825291909152205490565b61088c6106bf565b6108ce5760408051600160e51b62461bcd0281526020600482018190526024820152600080516020610c65833981519152604482015290519081900360640190fd5b60005b8151811015610926576001600760008484815181106108ec57fe5b6020908102919091018101516001600160a01b03168252810191909152604001600020805460ff19169115159190911790556001016108d1565b5050565b6109326106bf565b6109745760408051600160e51b62461bcd0281526020600482018190526024820152600080516020610c65833981519152604482015290519081900360640190fd5b61097d81610b78565b50565b6001600160a01b0383166109c857604051600160e51b62461bcd028152600401808060200182810382526024815260200180610c856024913960400191505060405180910390fd5b6001600160a01b038216610a1057604051600160e51b62461bcd028152600401808060200182810382526022815260200180610c436022913960400191505060405180910390fd5b6001600160a01b03808416600081815260016020908152604080832094871680845294825291829020859055815185815291517f8c5be1e5ebec7d5bd14f71427d1e84f3dd0314c0f7b2291e5b200ac8c7c3b9259281900390910190a3505050565b6000610a7c6106b0565b6001600160a01b0316336001600160a01b03161415610a9d57506001610497565b503360009081526007602052604090205460ff1690565b600082821115610b0e5760408051600160e51b62461bcd02815260206004820152601e60248201527f536166654d6174683a207375627472616374696f6e206f766572666c6f770000604482015290519081900360640190fd5b50900390565b600082820183811015610b715760408051600160e51b62461bcd02815260206004820152601b60248201527f536166654d6174683a206164646974696f6e206f766572666c6f770000000000604482015290519081900360640190fd5b9392505050565b6001600160a01b038116610bc057604051600160e51b62461bcd028152600401808060200182810382526026815260200180610c1d6026913960400191505060405180910390fd5b6003546040516001600160a01b038084169216907f8be0079c531659141344cd1fd0a4f28419497f9722a3daafe3b4186f6b6457e090600090a3600380546001600160a01b0319166001600160a01b039290921691909117905556fe4f776e61626c653a206e6577206f776e657220697320746865207a65726f206164647265737345524332303a20617070726f766520746f20746865207a65726f20616464726573734f776e61626c653a2063616c6c6572206973206e6f7420746865206f776e657245524332303a20617070726f76652066726f6d20746865207a65726f2061646472657373a165627a7a72305820ffde24e1025a163f18c7ec631f6b79bdbe516c2a73dea137ffd3fa96d0ac3a990029",
  "source": "pragma solidity ^0.5.0;\n\nimport \"./ExsCoinCore.sol\";\n\ncontract ExsCoinFrame is ExsCoinCore {\n  string public name;\n  string public symbol;\n  uint8 public decimals;\n\n  constructor(string memory _name, string memory _symbol, uint8 _decimals, uint256 _initial_supply) public {\n    name = _name;\n    symbol = _symbol;\n    decimals = _decimals;\n\n    totalSupply_ = _initial_supply;\n    balances[msg.sender] = _initial_supply;\n  }\n}\n",
  "sourcePath": "/Users/DK/work/ExSports/Git/ExSports/blockchain/ExSports-Service/smartContract/contracts/ExsCoin/ExsCoinFrame.sol",
  "compiler": {
    "name": "solc",
    "version": "0.5.8+commit.23d335f2.Emscripten.clang"
  },
  "schemaVersion": "3.0.16",
  "updatedAt": "2020-05-27T06:32:01.782Z",
  "devdoc": {
    "methods": {
      "allowance(address,address)": {
        "details": "See `IERC20.allowance`."
      },
      "approve(address,uint256)": {
        "details": "See `IERC20.approve`.     * Requirements:     * - `spender` cannot be the zero address."
      },
      "decreaseAllowance(address,uint256)": {
        "details": "Atomically decreases the allowance granted to `spender` by the caller.     * This is an alternative to `approve` that can be used as a mitigation for problems described in `IERC20.approve`.     * Emits an `Approval` event indicating the updated allowance.     * Requirements:     * - `spender` cannot be the zero address. - `spender` must have allowance for the caller of at least `subtractedValue`."
      },
      "increaseAllowance(address,uint256)": {
        "details": "Atomically increases the allowance granted to `spender` by the caller.     * This is an alternative to `approve` that can be used as a mitigation for problems described in `IERC20.approve`.     * Emits an `Approval` event indicating the updated allowance.     * Requirements:     * - `spender` cannot be the zero address."
      },
      "isOwner()": {
        "details": "Returns true if the caller is the current owner."
      },
      "owner()": {
        "details": "Returns the address of the current owner."
      },
      "renounceOwnership()": {
        "details": "Leaves the contract without owner. It will not be possible to call `onlyOwner` functions anymore. Can only be called by the current owner.     * > Note: Renouncing ownership will leave the contract without an owner, thereby removing any functionality that is only available to the owner."
      },
      "transferOwnership(address)": {
        "details": "Transfers ownership of the contract to a new account (`newOwner`). Can only be called by the current owner."
      }
    }
  },
  "userdoc": {
    "methods": {}
  }
}