{
  "contractName": "ExsCoin",
  "abi": [
    {
      "constant": true,
      "inputs": [],
      "name": "name",
      "outputs": [
        {
          "name": "",
          "type": "string"
        }
      ],
      "payable": false,
      "stateMutability": "view",
      "type": "function"
    },
    {
      "constant": false,
      "inputs": [
        {
          "name": "spender",
          "type": "address"
        },
        {
          "name": "value",
          "type": "uint256"
        }
      ],
      "name": "approve",
      "outputs": [
        {
          "name": "",
          "type": "bool"
        }
      ],
      "payable": false,
      "stateMutability": "nonpayable",
      "type": "function"
    },
    {
      "constant": true,
      "inputs": [],
      "name": "totalSupply",
      "outputs": [
        {
          "name": "",
          "type": "uint256"
        }
      ],
      "payable": false,
      "stateMutability": "view",
      "type": "function"
    },
    {
      "constant": false,
      "inputs": [
        {
          "name": "_from",
          "type": "address"
        },
        {
          "name": "_to",
          "type": "address"
        },
        {
          "name": "_value",
          "type": "uint256"
        }
      ],
      "name": "transferFrom",
      "outputs": [
        {
          "name": "",
          "type": "bool"
        }
      ],
      "payable": false,
      "stateMutability": "nonpayable",
      "type": "function"
    },
    {
      "constant": true,
      "inputs": [],
      "name": "decimals",
      "outputs": [
        {
          "name": "",
          "type": "uint8"
        }
      ],
      "payable": false,
      "stateMutability": "view",
      "type": "function"
    },
    {
      "constant": false,
      "inputs": [
        {
          "name": "spender",
          "type": "address"
        },
        {
          "name": "addedValue",
          "type": "uint256"
        }
      ],
      "name": "increaseAllowance",
      "outputs": [
        {
          "name": "",
          "type": "bool"
        }
      ],
      "payable": false,
      "stateMutability": "nonpayable",
      "type": "function"
    },
    {
      "constant": true,
      "inputs": [
        {
          "name": "_owner",
          "type": "address"
        }
      ],
      "name": "balanceOf",
      "outputs": [
        {
          "name": "balance",
          "type": "uint256"
        }
      ],
      "payable": false,
      "stateMutability": "view",
      "type": "function"
    },
    {
      "constant": false,
      "inputs": [],
      "name": "renounceOwnership",
      "outputs": [],
      "payable": false,
      "stateMutability": "nonpayable",
      "type": "function"
    },
    {
      "constant": true,
      "inputs": [],
      "name": "owner",
      "outputs": [
        {
          "name": "",
          "type": "address"
        }
      ],
      "payable": false,
      "stateMutability": "view",
      "type": "function"
    },
    {
      "constant": true,
      "inputs": [],
      "name": "isOwner",
      "outputs": [
        {
          "name": "",
          "type": "bool"
        }
      ],
      "payable": false,
      "stateMutability": "view",
      "type": "function"
    },
    {
      "constant": true,
      "inputs": [],
      "name": "symbol",
      "outputs": [
        {
          "name": "",
          "type": "string"
        }
      ],
      "payable": false,
      "stateMutability": "view",
      "type": "function"
    },
    {
      "constant": false,
      "inputs": [
        {
          "name": "spender",
          "type": "address"
        },
        {
          "name": "subtractedValue",
          "type": "uint256"
        }
      ],
      "name": "decreaseAllowance",
      "outputs": [
        {
          "name": "",
          "type": "bool"
        }
      ],
      "payable": false,
      "stateMutability": "nonpayable",
      "type": "function"
    },
    {
      "constant": false,
      "inputs": [
        {
          "name": "_to",
          "type": "address"
        },
        {
          "name": "_value",
          "type": "uint256"
        }
      ],
      "name": "transfer",
      "outputs": [
        {
          "name": "",
          "type": "bool"
        }
      ],
      "payable": false,
      "stateMutability": "nonpayable",
      "type": "function"
    },
    {
      "constant": true,
      "inputs": [],
      "name": "coreAddr",
      "outputs": [
        {
          "name": "",
          "type": "address"
        }
      ],
      "payable": false,
      "stateMutability": "view",
      "type": "function"
    },
    {
      "constant": true,
      "inputs": [
        {
          "name": "owner",
          "type": "address"
        },
        {
          "name": "spender",
          "type": "address"
        }
      ],
      "name": "allowance",
      "outputs": [
        {
          "name": "",
          "type": "uint256"
        }
      ],
      "payable": false,
      "stateMutability": "view",
      "type": "function"
    },
    {
      "constant": false,
      "inputs": [
        {
          "name": "_operators",
          "type": "address[]"
        }
      ],
      "name": "setOperators",
      "outputs": [],
      "payable": false,
      "stateMutability": "nonpayable",
      "type": "function"
    },
    {
      "constant": false,
      "inputs": [
        {
          "name": "newOwner",
          "type": "address"
        }
      ],
      "name": "transferOwnership",
      "outputs": [],
      "payable": false,
      "stateMutability": "nonpayable",
      "type": "function"
    },
    {
      "inputs": [],
      "payable": false,
      "stateMutability": "nonpayable",
      "type": "constructor"
    },
    {
      "anonymous": false,
      "inputs": [
        {
          "indexed": false,
          "name": "_base",
          "type": "address"
        }
      ],
      "name": "NewCoreSet",
      "type": "event"
    },
    {
      "anonymous": false,
      "inputs": [
        {
          "indexed": false,
          "name": "_from",
          "type": "address"
        },
        {
          "indexed": false,
          "name": "_to",
          "type": "address"
        },
        {
          "indexed": false,
          "name": "_value",
          "type": "uint256"
        },
        {
          "indexed": false,
          "name": "_purchaseId",
          "type": "uint256"
        },
        {
          "indexed": false,
          "name": "_productId",
          "type": "string"
        },
        {
          "indexed": false,
          "name": "_orderId",
          "type": "string"
        },
        {
          "indexed": false,
          "name": "_memo",
          "type": "string"
        },
        {
          "indexed": false,
          "name": "_timestamp",
          "type": "uint256"
        }
      ],
      "name": "PurchaseCoin",
      "type": "event"
    },
    {
      "anonymous": false,
      "inputs": [
        {
          "indexed": false,
          "name": "_from",
          "type": "address"
        },
        {
          "indexed": false,
          "name": "_to",
          "type": "address"
        },
        {
          "indexed": false,
          "name": "_value",
          "type": "uint256"
        },
        {
          "indexed": false,
          "name": "_memo",
          "type": "string"
        },
        {
          "indexed": false,
          "name": "_timestamp",
          "type": "uint256"
        }
      ],
      "name": "RewardCoin",
      "type": "event"
    },
    {
      "anonymous": false,
      "inputs": [
        {
          "indexed": false,
          "name": "_from",
          "type": "address"
        },
        {
          "indexed": false,
          "name": "_to",
          "type": "address"
        },
        {
          "indexed": false,
          "name": "_value",
          "type": "uint256"
        },
        {
          "indexed": false,
          "name": "_memo",
          "type": "string"
        },
        {
          "indexed": false,
          "name": "_timestamp",
          "type": "uint256"
        }
      ],
      "name": "SendCoin",
      "type": "event"
    },
    {
      "anonymous": false,
      "inputs": [
        {
          "indexed": false,
          "name": "_from",
          "type": "address"
        },
        {
          "indexed": false,
          "name": "_to",
          "type": "address"
        },
        {
          "indexed": false,
          "name": "_value",
          "type": "uint256"
        },
        {
          "indexed": false,
          "name": "_memo",
          "type": "string"
        },
        {
          "indexed": false,
          "name": "_timestamp",
          "type": "uint256"
        }
      ],
      "name": "BurnCoin",
      "type": "event"
    },
    {
      "anonymous": false,
      "inputs": [
        {
          "indexed": true,
          "name": "previousOwner",
          "type": "address"
        },
        {
          "indexed": true,
          "name": "newOwner",
          "type": "address"
        }
      ],
      "name": "OwnershipTransferred",
      "type": "event"
    },
    {
      "anonymous": false,
      "inputs": [
        {
          "indexed": true,
          "name": "from",
          "type": "address"
        },
        {
          "indexed": true,
          "name": "to",
          "type": "address"
        },
        {
          "indexed": false,
          "name": "value",
          "type": "uint256"
        }
      ],
      "name": "Transfer",
      "type": "event"
    },
    {
      "anonymous": false,
      "inputs": [
        {
          "indexed": true,
          "name": "owner",
          "type": "address"
        },
        {
          "indexed": true,
          "name": "spender",
          "type": "address"
        },
        {
          "indexed": false,
          "name": "value",
          "type": "uint256"
        }
      ],
      "name": "Approval",
      "type": "event"
    },
    {
      "constant": false,
      "inputs": [
        {
          "name": "_coreAddr",
          "type": "address"
        }
      ],
      "name": "setCoreAddress",
      "outputs": [],
      "payable": false,
      "stateMutability": "nonpayable",
      "type": "function"
    },
    {
      "constant": true,
      "inputs": [],
      "name": "getCoreAddress",
      "outputs": [
        {
          "name": "",
          "type": "address"
        }
      ],
      "payable": false,
      "stateMutability": "view",
      "type": "function"
    },
    {
      "constant": true,
      "inputs": [
        {
          "name": "_purchaseId",
          "type": "uint256"
        }
      ],
      "name": "purchaseAcknowledge",
      "outputs": [
        {
          "name": "",
          "type": "bool"
        }
      ],
      "payable": false,
      "stateMutability": "view",
      "type": "function"
    },
    {
      "constant": false,
      "inputs": [
        {
          "name": "_purchaseId",
          "type": "uint256"
        },
        {
          "name": "_acknowledge",
          "type": "bool"
        }
      ],
      "name": "setPurchaseAcknowledge",
      "outputs": [],
      "payable": false,
      "stateMutability": "nonpayable",
      "type": "function"
    },
    {
      "constant": true,
      "inputs": [],
      "name": "totalPurchase",
      "outputs": [
        {
          "name": "",
          "type": "uint256"
        }
      ],
      "payable": false,
      "stateMutability": "view",
      "type": "function"
    },
    {
      "constant": false,
      "inputs": [
        {
          "name": "_from",
          "type": "address"
        },
        {
          "name": "_to",
          "type": "address"
        },
        {
          "name": "_value",
          "type": "uint256"
        },
        {
          "name": "_purchaseId",
          "type": "uint256"
        },
        {
          "name": "_productId",
          "type": "string"
        },
        {
          "name": "_orderId",
          "type": "string"
        },
        {
          "name": "_memo",
          "type": "string"
        }
      ],
      "name": "purchaseCoin",
      "outputs": [
        {
          "name": "",
          "type": "bool"
        }
      ],
      "payable": false,
      "stateMutability": "nonpayable",
      "type": "function"
    },
    {
      "constant": false,
      "inputs": [
        {
          "name": "_from",
          "type": "address"
        },
        {
          "name": "_to",
          "type": "address"
        },
        {
          "name": "_value",
          "type": "uint256"
        },
        {
          "name": "_memo",
          "type": "string"
        }
      ],
      "name": "rewardCoin",
      "outputs": [
        {
          "name": "",
          "type": "bool"
        }
      ],
      "payable": false,
      "stateMutability": "nonpayable",
      "type": "function"
    },
    {
      "constant": false,
      "inputs": [
        {
          "name": "_from",
          "type": "address"
        },
        {
          "name": "_to",
          "type": "address"
        },
        {
          "name": "_value",
          "type": "uint256"
        },
        {
          "name": "_memo",
          "type": "string"
        }
      ],
      "name": "sendCoin",
      "outputs": [
        {
          "name": "",
          "type": "bool"
        }
      ],
      "payable": false,
      "stateMutability": "nonpayable",
      "type": "function"
    },
    {
      "constant": false,
      "inputs": [
        {
          "name": "_from",
          "type": "address"
        },
        {
          "name": "_to",
          "type": "address"
        },
        {
          "name": "_value",
          "type": "uint256"
        },
        {
          "name": "_memo",
          "type": "string"
        }
      ],
      "name": "burnCoin",
      "outputs": [
        {
          "name": "",
          "type": "bool"
        }
      ],
      "payable": false,
      "stateMutability": "nonpayable",
      "type": "function"
    }
  ],
  "bytecode": "0x60806040523480156200001157600080fd5b50604080518082018252600d81527f457853706f72747320436f696e000000000000000000000000000000000000006020808301919091528251808401845260038082527f45585300000000000000000000000000000000000000000000000000000000009282019290925281546001600160a01b0319163317918290559251919291600091633b9aca00916001600160a01b03919091169083907f8be0079c531659141344cd1fd0a4f28419497f9722a3daafe3b4186f6b6457e0908290a38351620000e690600a90602087019062000185565b508251620000fc90600b90602086019062000185565b50600c805460ff191660ff93909316929092179091556005819055336000908152600460205260409081902091909155516200013b925090506200020a565b604051809103906000f08015801562000158573d6000803e3d6000fd5b50600c60016101000a8154816001600160a01b0302191690836001600160a01b0316021790555062000238565b828054600181600116156101000203166002900490600052602060002090601f016020900481019282601f10620001c857805160ff1916838001178555620001f8565b82800160010185558215620001f8579182015b82811115620001f8578251825591602001919060010190620001db565b506200020692915062000218565b5090565b610b79806200217683390190565b6200023591905b808211156200020657600081556001016200021f565b90565b611f2e80620002486000396000f3fe608060405234801561001057600080fd5b506004361061016e5760003560e01c80638da5cb5b116100ce578063b4d3822c11610087578063b4d3822c14610561578063d043c4b114610625578063dbbb7a00146107f8578063dd62ed3e14610800578063ddf71cd51461082e578063dfe5fc61146108cf578063f2fde38b146108f45761016e565b80638da5cb5b146104cb5780638f32d59b146104d357806391aad239146104db57806395d89b4114610501578063a457c2d714610509578063a9059cbb146105355761016e565b8063395093511161012b57806339509351146102c25780635f9c5116146102ee5780636f1f57e2146103b257806370a08231146103cf578063715018a6146103f55780637b2581c2146103ff578063828b031d146104075761016e565b806306fdde0314610173578063095ea7b3146101f057806318160ddd146102305780632096b7681461024a57806323b872dd1461026e578063313ce567146102a4575b600080fd5b61017b61091a565b6040805160208082528351818301528351919283929083019185019080838360005b838110156101b557818101518382015260200161019d565b50505050905090810190601f1680156101e25780820380516001836020036101000a031916815260200191505b509250505060405180910390f35b61021c6004803603604081101561020657600080fd5b506001600160a01b0381351690602001356109a8565b604080519115158252519081900360200190f35b6102386109be565b60408051918252519081900360200190f35b6102526109c5565b604080516001600160a01b039092168252519081900360200190f35b61021c6004803603606081101561028457600080fd5b506001600160a01b03813581169160208101359091169060400135610a26565b6102ac610b43565b6040805160ff9092168252519081900360200190f35b61021c600480360360408110156102d857600080fd5b506001600160a01b038135169060200135610b4c565b61021c6004803603608081101561030457600080fd5b6001600160a01b03823581169260208101359091169160408201359190810190608081016060820135600160201b81111561033e57600080fd5b82018360208201111561035057600080fd5b803590602001918460018302840111600160201b8311171561037157600080fd5b91908080601f016020809104026020016040519081016040528093929190818152602001838380828437600092019190915250929550610b8d945050505050565b61021c600480360360208110156103c857600080fd5b5035610dc7565b610238600480360360208110156103e557600080fd5b50356001600160a01b0316610e29565b6103fd610e44565b005b610238610ed8565b61021c6004803603608081101561041d57600080fd5b6001600160a01b03823581169260208101359091169160408201359190810190608081016060820135600160201b81111561045757600080fd5b82018360208201111561046957600080fd5b803590602001918460018302840111600160201b8311171561048a57600080fd5b91908080601f016020809104026020016040519081016040528093929190818152602001838380828437600092019190915250929550610f2b945050505050565b610252611183565b61021c611192565b6103fd600480360360208110156104f157600080fd5b50356001600160a01b03166111a3565b61017b6112b9565b61021c6004803603604081101561051f57600080fd5b506001600160a01b038135169060200135611314565b61021c6004803603604081101561054b57600080fd5b506001600160a01b038135169060200135611350565b61021c6004803603608081101561057757600080fd5b6001600160a01b03823581169260208101359091169160408201359190810190608081016060820135600160201b8111156105b157600080fd5b8201836020820111156105c357600080fd5b803590602001918460018302840111600160201b831117156105e457600080fd5b91908080601f016020809104026020016040519081016040528093929190818152602001838380828437600092019190915250929550611442945050505050565b61021c600480360360e081101561063b57600080fd5b6001600160a01b03823581169260208101359091169160408201359160608101359181019060a081016080820135600160201b81111561067a57600080fd5b82018360208201111561068c57600080fd5b803590602001918460018302840111600160201b831117156106ad57600080fd5b91908080601f0160208091040260200160405190810160405280939291908181526020018383808284376000920191909152509295949360208101935035915050600160201b8111156106ff57600080fd5b82018360208201111561071157600080fd5b803590602001918460018302840111600160201b8311171561073257600080fd5b91908080601f0160208091040260200160405190810160405280939291908181526020018383808284376000920191909152509295949360208101935035915050600160201b81111561078457600080fd5b82018360208201111561079657600080fd5b803590602001918460018302840111600160201b831117156107b757600080fd5b91908080601f016020809104026020016040519081016040528093929190818152602001838380828437600092019190915250929550611679945050505050565b610252611a0c565b6102386004803603604081101561081657600080fd5b506001600160a01b0381358116916020013516611a20565b6103fd6004803603602081101561084457600080fd5b810190602081018135600160201b81111561085e57600080fd5b82018360208201111561087057600080fd5b803590602001918460208302840111600160201b8311171561089157600080fd5b919080806020026020016040519081016040528093929190818152602001838360200280828437600092019190915250929550611a4b945050505050565b6103fd600480360360408110156108e557600080fd5b50803590602001351515611af1565b6103fd6004803603602081101561090a57600080fd5b50356001600160a01b0316611b5b565b600a805460408051602060026001851615610100026000190190941693909304601f810184900484028201840190925281815292918301828280156109a05780601f10610975576101008083540402835291602001916109a0565b820191906000526020600020905b81548152906001019060200180831161098357829003601f168201915b505050505081565b60006109b5338484611bb1565b50600192915050565b6005545b90565b60006109cf611192565b610a115760408051600160e51b62461bcd0281526020600482018190526024820152600080516020611ebf833981519152604482015290519081900360640190fd5b50600c5461010090046001600160a01b031690565b6000610a30611ca3565b610a3957600080fd5b6001600160a01b038316610a4c57600080fd5b6001600160a01b038416610a5f57600080fd5b6001600160a01b038416600090815260046020526040902054821115610a8457600080fd5b6001600160a01b038416600090815260046020526040902054610aad908363ffffffff611ce516565b6001600160a01b038086166000908152600460205260408082209390935590851681522054610ae2908363ffffffff611d4516565b6001600160a01b0380851660008181526004602090815260409182902094909455805186815290519193928816927fddf252ad1be2c89b69c2b068fc378daa952ba7f163c4a11628f55a4df523b3ef92918290030190a35060019392505050565b600c5460ff1681565b3360008181526001602090815260408083206001600160a01b038716845290915281205490916109b5918590610b88908663ffffffff611d4516565b611bb1565b6000610b97611192565b610bd95760408051600160e51b62461bcd0281526020600482018190526024820152600080516020611ebf833981519152604482015290519081900360640190fd5b600c54604080516001600160a01b0388811660248301528781166044830152606480830188905283518084039091018152608490920183526020820180516001600160e01b0316600160e01b6323b872dd021781529251825160009560609561010090910493909316939282918083835b60208310610c695780518252601f199092019160209182019101610c4a565b6001836020036101000a038019825116818451168082178552505050505050905001915050600060405180830381855af49150503d8060008114610cc9576040519150601f19603f3d011682016040523d82523d6000602084013e610cce565b606091505b509150915081610cdd57600080fd5b7f65f2b7fe5beb716154ddf5eadd0c928cb9845f58fe9836f26d91793391b0fb76878787874260405180866001600160a01b03166001600160a01b03168152602001856001600160a01b03166001600160a01b0316815260200184815260200180602001838152602001828103825284818151815260200191508051906020019080838360005b83811015610d7c578181015183820152602001610d64565b50505050905090810190601f168015610da95780820380516001836020036101000a031916815260200191505b50965050505050505060405180910390a15060019695505050505050565b6000610dd1611192565b610e135760408051600160e51b62461bcd0281526020600482018190526024820152600080516020611ebf833981519152604482015290519081900360640190fd5b5060009081526008602052604090205460ff1690565b6001600160a01b031660009081526004602052604090205490565b610e4c611192565b610e8e5760408051600160e51b62461bcd0281526020600482018190526024820152600080516020611ebf833981519152604482015290519081900360640190fd5b6003546040516000916001600160a01b0316907f8be0079c531659141344cd1fd0a4f28419497f9722a3daafe3b4186f6b6457e0908390a3600380546001600160a01b0319169055565b6000610ee2611192565b610f245760408051600160e51b62461bcd0281526020600482018190526024820152600080516020611ebf833981519152604482015290519081900360640190fd5b5060095490565b6000610f35611192565b610f775760408051600160e51b62461bcd0281526020600482018190526024820152600080516020611ebf833981519152604482015290519081900360640190fd5b836001600160a01b0316856001600160a01b03161415610fe15760408051600160e51b62461bcd02815260206004820181905260248201527f596f752063616e206e6f742073656e6420697420746f20796f757273656c662e604482015290519081900360640190fd5b600c54604080516001600160a01b0388811660248301528781166044830152606480830188905283518084039091018152608490920183526020820180516001600160e01b0316600160e01b6323b872dd021781529251825160009560609561010090910493909316939282918083835b602083106110715780518252601f199092019160209182019101611052565b6001836020036101000a038019825116818451168082178552505050505050905001915050600060405180830381855af49150503d80600081146110d1576040519150601f19603f3d011682016040523d82523d6000602084013e6110d6565b606091505b5091509150816110e557600080fd5b7f3553641a2fbf83ffecd23773205e93d466a59202f02337c1bca08cd8321f88e6878787874260405180866001600160a01b03166001600160a01b03168152602001856001600160a01b03166001600160a01b03168152602001848152602001806020018381526020018281038252848181518152602001915080519060200190808383600083811015610d7c578181015183820152602001610d64565b6003546001600160a01b031690565b6003546001600160a01b0316331490565b6111ab611192565b6111ed5760408051600160e51b62461bcd0281526020600482018190526024820152600080516020611ebf833981519152604482015290519081900360640190fd5b6001600160a01b038116158015906112185750600c546001600160a01b038281166101009092041614155b61125d5760408051600160e51b62461bcd02815260206004820152600b6024820152600160a91b6a2fb130b9b29032b93937b902604482015290519081900360640190fd5b600c80546001600160a01b0383166101008102610100600160a81b03199092169190911790915560408051918252517ff7a469a282c2cb73bfb09039c1d8f4fdb232c1cf4f5580f230c7c1f6c637a2c89181900360200190a150565b600b805460408051602060026001851615610100026000190190941693909304601f810184900484028201840190925281815292918301828280156109a05780601f10610975576101008083540402835291602001916109a0565b3360008181526001602090815260408083206001600160a01b038716845290915281205490916109b5918590610b88908663ffffffff611ce516565b600061135a611ca3565b61136357600080fd5b6001600160a01b03831661137657600080fd5b3360009081526004602052604090205482111561139257600080fd5b336000908152600460205260409020546113b2908363ffffffff611ce516565b33600090815260046020526040808220929092556001600160a01b038516815220546113e4908363ffffffff611d4516565b6001600160a01b0384166000818152600460209081526040918290209390935580518581529051919233927fddf252ad1be2c89b69c2b068fc378daa952ba7f163c4a11628f55a4df523b3ef9281900390910190a350600192915050565b600061144c611192565b61148e5760408051600160e51b62461bcd0281526020600482018190526024820152600080516020611ebf833981519152604482015290519081900360640190fd5b600c54604080516001600160a01b0388811660248301528781166044830152606480830188905283518084039091018152608490920183526020820180516001600160e01b0316600160e01b6323b872dd021781529251825160009560609561010090910493909316939282918083835b6020831061151e5780518252601f1990920191602091820191016114ff565b6001836020036101000a038019825116818451168082178552505050505050905001915050600060405180830381855af49150503d806000811461157e576040519150601f19603f3d011682016040523d82523d6000602084013e611583565b606091505b50915091508161159257600080fd5b7f830586d6a72a804f140a0418b331128bf8058dcacdc856dde974e8425869aad0878787874260405180866001600160a01b03166001600160a01b03168152602001856001600160a01b03166001600160a01b0316815260200184815260200180602001838152602001828103825284818151815260200191508051906020019080838360005b83811015611631578181015183820152602001611619565b50505050905090810190601f16801561165e5780820380516001836020036101000a031916815260200191505b50965050505050505060405180910390a15050949350505050565b6000611683611192565b6116c55760408051600160e51b62461bcd0281526020600482018190526024820152600080516020611ebf833981519152604482015290519081900360640190fd5b6116ce85610dc7565b1561170d57604051600160e51b62461bcd028152600401808060200182810382526029815260200180611e966029913960400191505060405180910390fd5b600c54604080516001600160a01b038b811660248301528a8116604483015260648083018b905283518084039091018152608490920183526020820180516001600160e01b0316600160e01b6323b872dd021781529251825160009560609561010090910493909316939282918083835b6020831061179d5780518252601f19909201916020918201910161177e565b6001836020036101000a038019825116818451168082178552505050505050905001915050600060405180830381855af49150503d80600081146117fd576040519150601f19603f3d011682016040523d82523d6000602084013e611802565b606091505b50915091508161181157600080fd5b60016008600089815260200190815260200160002060006101000a81548160ff0219169083151502179055506009546001016009819055507f1cb8aa318a2c86ff53de3e19292fbdfd73c9232020cb5210b002117c225977d18a8a8a8a8a8a8a4260405180896001600160a01b03166001600160a01b03168152602001886001600160a01b03166001600160a01b03168152602001878152602001868152602001806020018060200180602001858152602001848103845288818151815260200191508051906020019080838360005b838110156118f95781810151838201526020016118e1565b50505050905090810190601f1680156119265780820380516001836020036101000a031916815260200191505b50848103835287518152875160209182019189019080838360005b83811015611959578181015183820152602001611941565b50505050905090810190601f1680156119865780820380516001836020036101000a031916815260200191505b50848103825286518152865160209182019188019080838360005b838110156119b95781810151838201526020016119a1565b50505050905090810190601f1680156119e65780820380516001836020036101000a031916815260200191505b509b50505050505050505050505060405180910390a15060019998505050505050505050565b600c5461010090046001600160a01b031681565b6001600160a01b03918216600090815260016020908152604080832093909416825291909152205490565b611a53611192565b611a955760408051600160e51b62461bcd0281526020600482018190526024820152600080516020611ebf833981519152604482015290519081900360640190fd5b60005b8151811015611aed57600160076000848481518110611ab357fe5b6020908102919091018101516001600160a01b03168252810191909152604001600020805460ff1916911515919091179055600101611a98565b5050565b611af9611192565b611b3b5760408051600160e51b62461bcd0281526020600482018190526024820152600080516020611ebf833981519152604482015290519081900360640190fd5b600091825260086020526040909120805460ff1916911515919091179055565b611b63611192565b611ba55760408051600160e51b62461bcd0281526020600482018190526024820152600080516020611ebf833981519152604482015290519081900360640190fd5b611bae81611da9565b50565b6001600160a01b038316611bf957604051600160e51b62461bcd028152600401808060200182810382526024815260200180611edf6024913960400191505060405180910390fd5b6001600160a01b038216611c4157604051600160e51b62461bcd028152600401808060200182810382526022815260200180611e746022913960400191505060405180910390fd5b6001600160a01b03808416600081815260016020908152604080832094871680845294825291829020859055815185815291517f8c5be1e5ebec7d5bd14f71427d1e84f3dd0314c0f7b2291e5b200ac8c7c3b9259281900390910190a3505050565b6000611cad611183565b6001600160a01b0316336001600160a01b03161415611cce575060016109c2565b503360009081526007602052604090205460ff1690565b600082821115611d3f5760408051600160e51b62461bcd02815260206004820152601e60248201527f536166654d6174683a207375627472616374696f6e206f766572666c6f770000604482015290519081900360640190fd5b50900390565b600082820183811015611da25760408051600160e51b62461bcd02815260206004820152601b60248201527f536166654d6174683a206164646974696f6e206f766572666c6f770000000000604482015290519081900360640190fd5b9392505050565b6001600160a01b038116611df157604051600160e51b62461bcd028152600401808060200182810382526026815260200180611e4e6026913960400191505060405180910390fd5b6003546040516001600160a01b038084169216907f8be0079c531659141344cd1fd0a4f28419497f9722a3daafe3b4186f6b6457e090600090a3600380546001600160a01b0319166001600160a01b039290921691909117905556fe4f776e61626c653a206e6577206f776e657220697320746865207a65726f206164647265737345524332303a20617070726f766520746f20746865207a65726f2061646472657373546869732070757263686173652068617320616c7265616479206265656e2070726f6365737365642e4f776e61626c653a2063616c6c6572206973206e6f7420746865206f776e657245524332303a20617070726f76652066726f6d20746865207a65726f2061646472657373a165627a7a723058207e7b5485f51b5b3fac56e766e27d6e8bbeeec064ee9aa6d4c6179e33ac2dc8f7002960806040819052600380546001600160a01b0319163317908190556001600160a01b0316906000907f8be0079c531659141344cd1fd0a4f28419497f9722a3daafe3b4186f6b6457e0908290a3610b1e8061005b6000396000f3fe608060405234801561001057600080fd5b50600436106100bf5760003560e01c80638da5cb5b1161007c5780638da5cb5b146101b05780638f32d59b146101d4578063a457c2d7146101dc578063a9059cbb14610208578063dd62ed3e14610234578063ddf71cd514610262578063f2fde38b14610305576100bf565b8063095ea7b3146100c457806318160ddd1461010457806323b872dd1461011e578063395093511461015457806370a0823114610180578063715018a6146101a6575b600080fd5b6100f0600480360360408110156100da57600080fd5b506001600160a01b03813516906020013561032b565b604080519115158252519081900360200190f35b61010c610341565b60408051918252519081900360200190f35b6100f06004803603606081101561013457600080fd5b506001600160a01b03813581169160208101359091169060400135610348565b6100f06004803603604081101561016a57600080fd5b506001600160a01b038135169060200135610465565b61010c6004803603602081101561019657600080fd5b50356001600160a01b03166104a6565b6101ae6104c1565b005b6101b8610555565b604080516001600160a01b039092168252519081900360200190f35b6100f0610564565b6100f0600480360360408110156101f257600080fd5b506001600160a01b038135169060200135610575565b6100f06004803603604081101561021e57600080fd5b506001600160a01b0381351690602001356105b1565b61010c6004803603604081101561024a57600080fd5b506001600160a01b03813581169160200135166106a3565b6101ae6004803603602081101561027857600080fd5b81019060208101813564010000000081111561029357600080fd5b8201836020820111156102a557600080fd5b803590602001918460208302840111640100000000831117156102c757600080fd5b9190808060200260200160405190810160405280939291908181526020018383602002808284376000920191909152509295506106ce945050505050565b6101ae6004803603602081101561031b57600080fd5b50356001600160a01b0316610774565b60006103383384846107ca565b50600192915050565b6005545b90565b60006103526108bc565b61035b57600080fd5b6001600160a01b03831661036e57600080fd5b6001600160a01b03841661038157600080fd5b6001600160a01b0384166000908152600460205260409020548211156103a657600080fd5b6001600160a01b0384166000908152600460205260409020546103cf908363ffffffff6108fe16565b6001600160a01b038086166000908152600460205260408082209390935590851681522054610404908363ffffffff61095e16565b6001600160a01b0380851660008181526004602090815260409182902094909455805186815290519193928816927fddf252ad1be2c89b69c2b068fc378daa952ba7f163c4a11628f55a4df523b3ef92918290030190a35060019392505050565b3360008181526001602090815260408083206001600160a01b038716845290915281205490916103389185906104a1908663ffffffff61095e16565b6107ca565b6001600160a01b031660009081526004602052604090205490565b6104c9610564565b61050b5760408051600160e51b62461bcd0281526020600482018190526024820152600080516020610aaf833981519152604482015290519081900360640190fd5b6003546040516000916001600160a01b0316907f8be0079c531659141344cd1fd0a4f28419497f9722a3daafe3b4186f6b6457e0908390a3600380546001600160a01b0319169055565b6003546001600160a01b031690565b6003546001600160a01b0316331490565b3360008181526001602090815260408083206001600160a01b038716845290915281205490916103389185906104a1908663ffffffff6108fe16565b60006105bb6108bc565b6105c457600080fd5b6001600160a01b0383166105d757600080fd5b336000908152600460205260409020548211156105f357600080fd5b33600090815260046020526040902054610613908363ffffffff6108fe16565b33600090815260046020526040808220929092556001600160a01b03851681522054610645908363ffffffff61095e16565b6001600160a01b0384166000818152600460209081526040918290209390935580518581529051919233927fddf252ad1be2c89b69c2b068fc378daa952ba7f163c4a11628f55a4df523b3ef9281900390910190a350600192915050565b6001600160a01b03918216600090815260016020908152604080832093909416825291909152205490565b6106d6610564565b6107185760408051600160e51b62461bcd0281526020600482018190526024820152600080516020610aaf833981519152604482015290519081900360640190fd5b60005b81518110156107705760016007600084848151811061073657fe5b6020908102919091018101516001600160a01b03168252810191909152604001600020805460ff191691151591909117905560010161071b565b5050565b61077c610564565b6107be5760408051600160e51b62461bcd0281526020600482018190526024820152600080516020610aaf833981519152604482015290519081900360640190fd5b6107c7816109c2565b50565b6001600160a01b03831661081257604051600160e51b62461bcd028152600401808060200182810382526024815260200180610acf6024913960400191505060405180910390fd5b6001600160a01b03821661085a57604051600160e51b62461bcd028152600401808060200182810382526022815260200180610a8d6022913960400191505060405180910390fd5b6001600160a01b03808416600081815260016020908152604080832094871680845294825291829020859055815185815291517f8c5be1e5ebec7d5bd14f71427d1e84f3dd0314c0f7b2291e5b200ac8c7c3b9259281900390910190a3505050565b60006108c6610555565b6001600160a01b0316336001600160a01b031614156108e757506001610345565b503360009081526007602052604090205460ff1690565b6000828211156109585760408051600160e51b62461bcd02815260206004820152601e60248201527f536166654d6174683a207375627472616374696f6e206f766572666c6f770000604482015290519081900360640190fd5b50900390565b6000828201838110156109bb5760408051600160e51b62461bcd02815260206004820152601b60248201527f536166654d6174683a206164646974696f6e206f766572666c6f770000000000604482015290519081900360640190fd5b9392505050565b6001600160a01b038116610a0a57604051600160e51b62461bcd028152600401808060200182810382526026815260200180610a676026913960400191505060405180910390fd5b6003546040516001600160a01b038084169216907f8be0079c531659141344cd1fd0a4f28419497f9722a3daafe3b4186f6b6457e090600090a3600380546001600160a01b0319166001600160a01b039290921691909117905556fe4f776e61626c653a206e6577206f776e657220697320746865207a65726f206164647265737345524332303a20617070726f766520746f20746865207a65726f20616464726573734f776e61626c653a2063616c6c6572206973206e6f7420746865206f776e657245524332303a20617070726f76652066726f6d20746865207a65726f2061646472657373a165627a7a72305820057a374115d67fa5d343e0618b3eb66be1c818a9c6b4989aaad25150354fd35e0029",
  "source": "pragma solidity ^0.5.0;\n\nimport \"./ExsCoinFrame.sol\";\nimport \"./ExsCoinCore.sol\";\n\ncontract ExsCoin is ExsCoinFrame {\n\n    ExsCoinCore public coreAddr;\n\n//    bytes4 constant funcSelector = bytes4(keccak256(\"transfer(address, uint256)\"));\n\n    event NewCoreSet(address _base);\n\n    event PurchaseCoin(address _from, address _to, uint _value, uint _purchaseId, string _productId, string _orderId, string _memo, uint _timestamp);\n    event RewardCoin(address _from, address _to, uint _value, string _memo, uint _timestamp);\n    event SendCoin(address _from, address _to, uint _value, string _memo, uint _timestamp);\n    event BurnCoin(address _from, address _to, uint _value, string _memo, uint _timestamp);\n\n    constructor()\n    ExsCoinFrame(\"ExSports Coin\", \"EXS\", 0, 1000000000) public\n    {\n      coreAddr = new ExsCoinCore();\n    }\n\n    function setCoreAddress(address _coreAddr) onlyOwner external {\n      require(_coreAddr != address(0) && address(coreAddr) != _coreAddr, \"_base error\");\n      coreAddr = ExsCoinCore(address(_coreAddr));\n      emit NewCoreSet(_coreAddr);\n    }\n\n    function getCoreAddress() onlyOwner public view returns (address) {\n      return address(coreAddr);\n    }\n\n    function purchaseAcknowledge(uint _purchaseId) onlyOwner public view returns (bool) {\n      return acknowledges[_purchaseId];\n    }\n\n    function setPurchaseAcknowledge(uint _purchaseId, bool _acknowledge) onlyOwner public {\n      acknowledges[_purchaseId] = _acknowledge;\n    }\n\n\n\n    function totalPurchase() onlyOwner public view returns (uint) {\n      return totalPurchase_;\n    }\n\n\n\n    function purchaseCoin(address _from, address _to, uint256 _value, uint _purchaseId, string memory _productId, string  memory _orderId, string memory _memo) onlyOwner public returns (bool) {\n\n      // require(purchaseAcknowledge(_purchaseId) == false, \"\");\n      // if (purchaseAcknowledge(_purchaseId)) {\n      //   revert();\n      //   return false;\n      // }\n      require(purchaseAcknowledge(_purchaseId) == false, \"This purchase has already been processed.\");\n      (bool success, bytes memory data) = address(coreAddr).delegatecall(abi.encodeWithSignature(\"transferFrom(address,address,uint256)\", _from, _to, _value));\n       if (!success) {\n         revert();\n         return false;\n       }\n\n      acknowledges[_purchaseId] = true;\n      totalPurchase_ = totalPurchase_ + 1;\n\n      emit PurchaseCoin(_from, _to, _value, _purchaseId,  _productId, _orderId, _memo, block.timestamp);\n\n      return true;\n    }\n\n    function rewardCoin(address _from, address _to, uint256 _value, string memory _memo) onlyOwner public returns (bool) {\n      (bool success, bytes memory data) = address(coreAddr).delegatecall(abi.encodeWithSignature(\"transferFrom(address,address,uint256)\", _from, _to, _value));\n       if (!success) {\n         revert();\n       }\n\n      emit RewardCoin(_from, _to, _value, _memo, block.timestamp);\n    }\n\n\n\n    function sendCoin(address _from, address _to, uint256 _value, string memory _memo) onlyOwner public returns (bool) {\n\n      require(_from != _to, \"You can not send it to yourself.\");\n      (bool success, bytes memory data) = address(coreAddr).delegatecall(abi.encodeWithSignature(\"transferFrom(address,address,uint256)\", _from, _to, _value));\n\n       if (!success) {\n         revert();\n       }\n\n       // coreAddr.transferFrom(_from, _to, _value);\n\n       emit SendCoin(_from, _to, _value, _memo, block.timestamp);\n\n       return true;\n    }\n\n    function burnCoin(address _from, address _to, uint256 _value, string memory _memo) onlyOwner public returns (bool) {\n      (bool success, bytes memory data) = address(coreAddr).delegatecall(abi.encodeWithSignature(\"transferFrom(address,address,uint256)\", _from, _to, _value));\n\n       if (!success) {\n         revert();\n       }\n\n       // coreAddr.transferFrom(_from, _to, _value);\n\n       emit BurnCoin(_from, _to, _value, _memo, block.timestamp);\n\n       return true;\n    }\n\n}\n",
  "sourcePath": "/Users/DK/work/ExSports/Git/ExSports/blockchain/ExSports-Service/smartContract/contracts/ExsCoin/ExsCoin.sol",
  "compiler": {
    "name": "solc",
    "version": "0.5.8+commit.23d335f2.Emscripten.clang"
  },
  "schemaVersion": "3.0.16",
  "updatedAt": "2020-05-27T06:34:03.705Z",
  "devdoc": {
    "methods": {
      "allowance(address,address)": {
        "details": "See `IERC20.allowance`."
      },
      "approve(address,uint256)": {
        "details": "See `IERC20.approve`.     * Requirements:     * - `spender` cannot be the zero address."
      },
      "decreaseAllowance(address,uint256)": {
        "details": "Atomically decreases the allowance granted to `spender` by the caller.     * This is an alternative to `approve` that can be used as a mitigation for problems described in `IERC20.approve`.     * Emits an `Approval` event indicating the updated allowance.     * Requirements:     * - `spender` cannot be the zero address. - `spender` must have allowance for the caller of at least `subtractedValue`."
      },
      "increaseAllowance(address,uint256)": {
        "details": "Atomically increases the allowance granted to `spender` by the caller.     * This is an alternative to `approve` that can be used as a mitigation for problems described in `IERC20.approve`.     * Emits an `Approval` event indicating the updated allowance.     * Requirements:     * - `spender` cannot be the zero address."
      },
      "isOwner()": {
        "details": "Returns true if the caller is the current owner."
      },
      "owner()": {
        "details": "Returns the address of the current owner."
      },
      "renounceOwnership()": {
        "details": "Leaves the contract without owner. It will not be possible to call `onlyOwner` functions anymore. Can only be called by the current owner.     * > Note: Renouncing ownership will leave the contract without an owner, thereby removing any functionality that is only available to the owner."
      },
      "transferOwnership(address)": {
        "details": "Transfers ownership of the contract to a new account (`newOwner`). Can only be called by the current owner."
      }
    }
  },
  "userdoc": {
    "methods": {}
  }
}