{
  "contractName": "ExsCoinCore",
  "abi": [
    {
      "constant": false,
      "inputs": [
        {
          "name": "spender",
          "type": "address"
        },
        {
          "name": "value",
          "type": "uint256"
        }
      ],
      "name": "approve",
      "outputs": [
        {
          "name": "",
          "type": "bool"
        }
      ],
      "payable": false,
      "stateMutability": "nonpayable",
      "type": "function"
    },
    {
      "constant": false,
      "inputs": [
        {
          "name": "spender",
          "type": "address"
        },
        {
          "name": "addedValue",
          "type": "uint256"
        }
      ],
      "name": "increaseAllowance",
      "outputs": [
        {
          "name": "",
          "type": "bool"
        }
      ],
      "payable": false,
      "stateMutability": "nonpayable",
      "type": "function"
    },
    {
      "constant": false,
      "inputs": [],
      "name": "renounceOwnership",
      "outputs": [],
      "payable": false,
      "stateMutability": "nonpayable",
      "type": "function"
    },
    {
      "constant": true,
      "inputs": [],
      "name": "owner",
      "outputs": [
        {
          "name": "",
          "type": "address"
        }
      ],
      "payable": false,
      "stateMutability": "view",
      "type": "function"
    },
    {
      "constant": true,
      "inputs": [],
      "name": "isOwner",
      "outputs": [
        {
          "name": "",
          "type": "bool"
        }
      ],
      "payable": false,
      "stateMutability": "view",
      "type": "function"
    },
    {
      "constant": false,
      "inputs": [
        {
          "name": "spender",
          "type": "address"
        },
        {
          "name": "subtractedValue",
          "type": "uint256"
        }
      ],
      "name": "decreaseAllowance",
      "outputs": [
        {
          "name": "",
          "type": "bool"
        }
      ],
      "payable": false,
      "stateMutability": "nonpayable",
      "type": "function"
    },
    {
      "constant": true,
      "inputs": [
        {
          "name": "owner",
          "type": "address"
        },
        {
          "name": "spender",
          "type": "address"
        }
      ],
      "name": "allowance",
      "outputs": [
        {
          "name": "",
          "type": "uint256"
        }
      ],
      "payable": false,
      "stateMutability": "view",
      "type": "function"
    },
    {
      "constant": false,
      "inputs": [
        {
          "name": "newOwner",
          "type": "address"
        }
      ],
      "name": "transferOwnership",
      "outputs": [],
      "payable": false,
      "stateMutability": "nonpayable",
      "type": "function"
    },
    {
      "anonymous": false,
      "inputs": [
        {
          "indexed": true,
          "name": "previousOwner",
          "type": "address"
        },
        {
          "indexed": true,
          "name": "newOwner",
          "type": "address"
        }
      ],
      "name": "OwnershipTransferred",
      "type": "event"
    },
    {
      "anonymous": false,
      "inputs": [
        {
          "indexed": true,
          "name": "from",
          "type": "address"
        },
        {
          "indexed": true,
          "name": "to",
          "type": "address"
        },
        {
          "indexed": false,
          "name": "value",
          "type": "uint256"
        }
      ],
      "name": "Transfer",
      "type": "event"
    },
    {
      "anonymous": false,
      "inputs": [
        {
          "indexed": true,
          "name": "owner",
          "type": "address"
        },
        {
          "indexed": true,
          "name": "spender",
          "type": "address"
        },
        {
          "indexed": false,
          "name": "value",
          "type": "uint256"
        }
      ],
      "name": "Approval",
      "type": "event"
    },
    {
      "constant": false,
      "inputs": [
        {
          "name": "_operators",
          "type": "address[]"
        }
      ],
      "name": "setOperators",
      "outputs": [],
      "payable": false,
      "stateMutability": "nonpayable",
      "type": "function"
    },
    {
      "constant": true,
      "inputs": [],
      "name": "totalSupply",
      "outputs": [
        {
          "name": "",
          "type": "uint256"
        }
      ],
      "payable": false,
      "stateMutability": "view",
      "type": "function"
    },
    {
      "constant": false,
      "inputs": [
        {
          "name": "_to",
          "type": "address"
        },
        {
          "name": "_value",
          "type": "uint256"
        }
      ],
      "name": "transfer",
      "outputs": [
        {
          "name": "",
          "type": "bool"
        }
      ],
      "payable": false,
      "stateMutability": "nonpayable",
      "type": "function"
    },
    {
      "constant": false,
      "inputs": [
        {
          "name": "_from",
          "type": "address"
        },
        {
          "name": "_to",
          "type": "address"
        },
        {
          "name": "_value",
          "type": "uint256"
        }
      ],
      "name": "transferFrom",
      "outputs": [
        {
          "name": "",
          "type": "bool"
        }
      ],
      "payable": false,
      "stateMutability": "nonpayable",
      "type": "function"
    },
    {
      "constant": true,
      "inputs": [
        {
          "name": "_owner",
          "type": "address"
        }
      ],
      "name": "balanceOf",
      "outputs": [
        {
          "name": "balance",
          "type": "uint256"
        }
      ],
      "payable": false,
      "stateMutability": "view",
      "type": "function"
    }
  ],
  "bytecode": "0x60806040819052600380546001600160a01b0319163317908190556001600160a01b0316906000907f8be0079c531659141344cd1fd0a4f28419497f9722a3daafe3b4186f6b6457e0908290a3610b1e8061005b6000396000f3fe608060405234801561001057600080fd5b50600436106100bf5760003560e01c80638da5cb5b1161007c5780638da5cb5b146101b05780638f32d59b146101d4578063a457c2d7146101dc578063a9059cbb14610208578063dd62ed3e14610234578063ddf71cd514610262578063f2fde38b14610305576100bf565b8063095ea7b3146100c457806318160ddd1461010457806323b872dd1461011e578063395093511461015457806370a0823114610180578063715018a6146101a6575b600080fd5b6100f0600480360360408110156100da57600080fd5b506001600160a01b03813516906020013561032b565b604080519115158252519081900360200190f35b61010c610341565b60408051918252519081900360200190f35b6100f06004803603606081101561013457600080fd5b506001600160a01b03813581169160208101359091169060400135610348565b6100f06004803603604081101561016a57600080fd5b506001600160a01b038135169060200135610465565b61010c6004803603602081101561019657600080fd5b50356001600160a01b03166104a6565b6101ae6104c1565b005b6101b8610555565b604080516001600160a01b039092168252519081900360200190f35b6100f0610564565b6100f0600480360360408110156101f257600080fd5b506001600160a01b038135169060200135610575565b6100f06004803603604081101561021e57600080fd5b506001600160a01b0381351690602001356105b1565b61010c6004803603604081101561024a57600080fd5b506001600160a01b03813581169160200135166106a3565b6101ae6004803603602081101561027857600080fd5b81019060208101813564010000000081111561029357600080fd5b8201836020820111156102a557600080fd5b803590602001918460208302840111640100000000831117156102c757600080fd5b9190808060200260200160405190810160405280939291908181526020018383602002808284376000920191909152509295506106ce945050505050565b6101ae6004803603602081101561031b57600080fd5b50356001600160a01b0316610774565b60006103383384846107ca565b50600192915050565b6005545b90565b60006103526108bc565b61035b57600080fd5b6001600160a01b03831661036e57600080fd5b6001600160a01b03841661038157600080fd5b6001600160a01b0384166000908152600460205260409020548211156103a657600080fd5b6001600160a01b0384166000908152600460205260409020546103cf908363ffffffff6108fe16565b6001600160a01b038086166000908152600460205260408082209390935590851681522054610404908363ffffffff61095e16565b6001600160a01b0380851660008181526004602090815260409182902094909455805186815290519193928816927fddf252ad1be2c89b69c2b068fc378daa952ba7f163c4a11628f55a4df523b3ef92918290030190a35060019392505050565b3360008181526001602090815260408083206001600160a01b038716845290915281205490916103389185906104a1908663ffffffff61095e16565b6107ca565b6001600160a01b031660009081526004602052604090205490565b6104c9610564565b61050b5760408051600160e51b62461bcd0281526020600482018190526024820152600080516020610aaf833981519152604482015290519081900360640190fd5b6003546040516000916001600160a01b0316907f8be0079c531659141344cd1fd0a4f28419497f9722a3daafe3b4186f6b6457e0908390a3600380546001600160a01b0319169055565b6003546001600160a01b031690565b6003546001600160a01b0316331490565b3360008181526001602090815260408083206001600160a01b038716845290915281205490916103389185906104a1908663ffffffff6108fe16565b60006105bb6108bc565b6105c457600080fd5b6001600160a01b0383166105d757600080fd5b336000908152600460205260409020548211156105f357600080fd5b33600090815260046020526040902054610613908363ffffffff6108fe16565b33600090815260046020526040808220929092556001600160a01b03851681522054610645908363ffffffff61095e16565b6001600160a01b0384166000818152600460209081526040918290209390935580518581529051919233927fddf252ad1be2c89b69c2b068fc378daa952ba7f163c4a11628f55a4df523b3ef9281900390910190a350600192915050565b6001600160a01b03918216600090815260016020908152604080832093909416825291909152205490565b6106d6610564565b6107185760408051600160e51b62461bcd0281526020600482018190526024820152600080516020610aaf833981519152604482015290519081900360640190fd5b60005b81518110156107705760016007600084848151811061073657fe5b6020908102919091018101516001600160a01b03168252810191909152604001600020805460ff191691151591909117905560010161071b565b5050565b61077c610564565b6107be5760408051600160e51b62461bcd0281526020600482018190526024820152600080516020610aaf833981519152604482015290519081900360640190fd5b6107c7816109c2565b50565b6001600160a01b03831661081257604051600160e51b62461bcd028152600401808060200182810382526024815260200180610acf6024913960400191505060405180910390fd5b6001600160a01b03821661085a57604051600160e51b62461bcd028152600401808060200182810382526022815260200180610a8d6022913960400191505060405180910390fd5b6001600160a01b03808416600081815260016020908152604080832094871680845294825291829020859055815185815291517f8c5be1e5ebec7d5bd14f71427d1e84f3dd0314c0f7b2291e5b200ac8c7c3b9259281900390910190a3505050565b60006108c6610555565b6001600160a01b0316336001600160a01b031614156108e757506001610345565b503360009081526007602052604090205460ff1690565b6000828211156109585760408051600160e51b62461bcd02815260206004820152601e60248201527f536166654d6174683a207375627472616374696f6e206f766572666c6f770000604482015290519081900360640190fd5b50900390565b6000828201838110156109bb5760408051600160e51b62461bcd02815260206004820152601b60248201527f536166654d6174683a206164646974696f6e206f766572666c6f770000000000604482015290519081900360640190fd5b9392505050565b6001600160a01b038116610a0a57604051600160e51b62461bcd028152600401808060200182810382526026815260200180610a676026913960400191505060405180910390fd5b6003546040516001600160a01b038084169216907f8be0079c531659141344cd1fd0a4f28419497f9722a3daafe3b4186f6b6457e090600090a3600380546001600160a01b0319166001600160a01b039290921691909117905556fe4f776e61626c653a206e6577206f776e657220697320746865207a65726f206164647265737345524332303a20617070726f766520746f20746865207a65726f20616464726573734f776e61626c653a2063616c6c6572206973206e6f7420746865206f776e657245524332303a20617070726f76652066726f6d20746865207a65726f2061646472657373a165627a7a72305820057a374115d67fa5d343e0618b3eb66be1c818a9c6b4989aaad25150354fd35e0029",
  "source": "pragma solidity ^0.5.0;\n\nimport \"openzeppelin-solidity/contracts/token/ERC20/ERC20.sol\";\nimport \"openzeppelin-solidity/contracts/ownership/Ownable.sol\";\n\ncontract ExsCoinCore is ERC20, Ownable  {\n\n  using SafeMath for uint256;\n  mapping(address => uint256) balances;\n  uint256 totalSupply_;\n  mapping (address => mapping (address => uint256)) internal allowed;\n\n  mapping(address => bool) operators;\n\n // purchase acknowledge\n mapping(uint => bool) acknowledges;\n uint totalPurchase_;\n\n  function setOperators(address[] memory _operators) onlyOwner public {\n    for (uint i=0; i<_operators.length; i++) {\n      operators[_operators[i]] = true;\n    }\n  }\n\n  function isOwnerOrOperator() private view returns (bool) {\n    if (msg.sender == owner()) {\n      return true;\n    }\n    return operators[msg.sender];\n  }\n\n\n  function totalSupply() public view returns (uint256) {\n    return totalSupply_;\n  }\n\n  function transfer(address _to, uint256 _value)  public  returns (bool) {\n    require(isOwnerOrOperator());\n    require(_to != address(0));\n    require(_value <= balances[msg.sender]);\n    balances[msg.sender] = balances[msg.sender].sub(_value);\n    balances[_to] = balances[_to].add(_value);\n    emit Transfer(msg.sender, _to, _value);\n    return true;\n  }\n\n  function transferFrom(address _from, address _to, uint256 _value)  public returns (bool) {\n    require(isOwnerOrOperator());\n    require(_to != address(0));\n    require(_from != address(0));\n    require(_value <= balances[_from]);\n    balances[_from] = balances[_from].sub(_value);\n    balances[_to] = balances[_to].add(_value);\n    emit Transfer(_from, _to, _value);\n    return true;\n  }\n\n  function balanceOf(address _owner) public view returns (uint256 balance) {\n    return balances[_owner];\n  }\n}\n",
  "sourcePath": "/Users/DK/work/ExSports/Git/ExSports/blockchain/ExSports-Service/smartContract/contracts/ExsCoin/ExsCoinCore.sol",
  "compiler": {
    "name": "solc",
    "version": "0.5.8+commit.23d335f2.Emscripten.clang"
  },
  "schemaVersion": "3.0.16",
  "updatedAt": "2020-05-27T06:32:01.780Z",
  "devdoc": {
    "methods": {
      "allowance(address,address)": {
        "details": "See `IERC20.allowance`."
      },
      "approve(address,uint256)": {
        "details": "See `IERC20.approve`.     * Requirements:     * - `spender` cannot be the zero address."
      },
      "decreaseAllowance(address,uint256)": {
        "details": "Atomically decreases the allowance granted to `spender` by the caller.     * This is an alternative to `approve` that can be used as a mitigation for problems described in `IERC20.approve`.     * Emits an `Approval` event indicating the updated allowance.     * Requirements:     * - `spender` cannot be the zero address. - `spender` must have allowance for the caller of at least `subtractedValue`."
      },
      "increaseAllowance(address,uint256)": {
        "details": "Atomically increases the allowance granted to `spender` by the caller.     * This is an alternative to `approve` that can be used as a mitigation for problems described in `IERC20.approve`.     * Emits an `Approval` event indicating the updated allowance.     * Requirements:     * - `spender` cannot be the zero address."
      },
      "isOwner()": {
        "details": "Returns true if the caller is the current owner."
      },
      "owner()": {
        "details": "Returns the address of the current owner."
      },
      "renounceOwnership()": {
        "details": "Leaves the contract without owner. It will not be possible to call `onlyOwner` functions anymore. Can only be called by the current owner.     * > Note: Renouncing ownership will leave the contract without an owner, thereby removing any functionality that is only available to the owner."
      },
      "transferOwnership(address)": {
        "details": "Transfers ownership of the contract to a new account (`newOwner`). Can only be called by the current owner."
      }
    }
  },
  "userdoc": {
    "methods": {}
  }
}