{
  "contractName": "ExsMarketV2",
  "abi": [
    {
      "constant": true,
      "inputs": [],
      "name": "countOfValidServiceProducts",
      "outputs": [
        {
          "name": "",
          "type": "uint256"
        }
      ],
      "payable": false,
      "stateMutability": "view",
      "type": "function"
    },
    {
      "constant": true,
      "inputs": [
        {
          "name": "",
          "type": "uint256"
        }
      ],
      "name": "allServiceProducts",
      "outputs": [
        {
          "name": "productId",
          "type": "uint256"
        },
        {
          "name": "owner",
          "type": "address"
        },
        {
          "name": "tokenId",
          "type": "uint256"
        },
        {
          "name": "totalAmount",
          "type": "uint256"
        },
        {
          "name": "amount",
          "type": "uint256"
        },
        {
          "name": "perPrice",
          "type": "uint256"
        },
        {
          "name": "isValid",
          "type": "bool"
        }
      ],
      "payable": false,
      "stateMutability": "view",
      "type": "function"
    },
    {
      "constant": true,
      "inputs": [
        {
          "name": "lastProductId",
          "type": "uint256"
        },
        {
          "name": "count",
          "type": "uint256"
        }
      ],
      "name": "getValidUserProducts",
      "outputs": [
        {
          "components": [
            {
              "name": "productId",
              "type": "uint256"
            },
            {
              "name": "owner",
              "type": "address"
            },
            {
              "name": "tokenId",
              "type": "uint256"
            },
            {
              "name": "amount",
              "type": "uint256"
            },
            {
              "name": "price",
              "type": "uint256"
            },
            {
              "name": "isValid",
              "type": "bool"
            }
          ],
          "name": "",
          "type": "tuple[]"
        }
      ],
      "payable": false,
      "stateMutability": "view",
      "type": "function"
    },
    {
      "constant": true,
      "inputs": [],
      "name": "countOfValidUserProducts",
      "outputs": [
        {
          "name": "",
          "type": "uint256"
        }
      ],
      "payable": false,
      "stateMutability": "view",
      "type": "function"
    },
    {
      "constant": true,
      "inputs": [],
      "name": "getTokenAddress",
      "outputs": [
        {
          "name": "",
          "type": "address"
        }
      ],
      "payable": false,
      "stateMutability": "view",
      "type": "function"
    },
    {
      "constant": true,
      "inputs": [
        {
          "name": "_productId",
          "type": "uint256"
        }
      ],
      "name": "getUserProduct",
      "outputs": [
        {
          "components": [
            {
              "name": "productId",
              "type": "uint256"
            },
            {
              "name": "owner",
              "type": "address"
            },
            {
              "name": "tokenId",
              "type": "uint256"
            },
            {
              "name": "amount",
              "type": "uint256"
            },
            {
              "name": "price",
              "type": "uint256"
            },
            {
              "name": "isValid",
              "type": "bool"
            }
          ],
          "name": "",
          "type": "tuple"
        }
      ],
      "payable": false,
      "stateMutability": "view",
      "type": "function"
    },
    {
      "constant": false,
      "inputs": [
        {
          "name": "_addr",
          "type": "address"
        }
      ],
      "name": "setTokenAddress",
      "outputs": [],
      "payable": false,
      "stateMutability": "nonpayable",
      "type": "function"
    },
    {
      "constant": true,
      "inputs": [
        {
          "name": "",
          "type": "uint256"
        }
      ],
      "name": "allUserProducts",
      "outputs": [
        {
          "name": "productId",
          "type": "uint256"
        },
        {
          "name": "owner",
          "type": "address"
        },
        {
          "name": "tokenId",
          "type": "uint256"
        },
        {
          "name": "amount",
          "type": "uint256"
        },
        {
          "name": "price",
          "type": "uint256"
        },
        {
          "name": "isValid",
          "type": "bool"
        }
      ],
      "payable": false,
      "stateMutability": "view",
      "type": "function"
    },
    {
      "constant": true,
      "inputs": [],
      "name": "getValidUserProductAll",
      "outputs": [
        {
          "components": [
            {
              "name": "productId",
              "type": "uint256"
            },
            {
              "name": "owner",
              "type": "address"
            },
            {
              "name": "tokenId",
              "type": "uint256"
            },
            {
              "name": "amount",
              "type": "uint256"
            },
            {
              "name": "price",
              "type": "uint256"
            },
            {
              "name": "isValid",
              "type": "bool"
            }
          ],
          "name": "",
          "type": "tuple[]"
        }
      ],
      "payable": false,
      "stateMutability": "view",
      "type": "function"
    },
    {
      "constant": true,
      "inputs": [],
      "name": "countOfAllServiceProducts",
      "outputs": [
        {
          "name": "",
          "type": "uint256"
        }
      ],
      "payable": false,
      "stateMutability": "view",
      "type": "function"
    },
    {
      "constant": true,
      "inputs": [],
      "name": "getCoinAddress",
      "outputs": [
        {
          "name": "",
          "type": "address"
        }
      ],
      "payable": false,
      "stateMutability": "view",
      "type": "function"
    },
    {
      "constant": false,
      "inputs": [
        {
          "name": "_productId",
          "type": "uint256"
        },
        {
          "name": "_owner",
          "type": "address"
        }
      ],
      "name": "cancelUserProductSale",
      "outputs": [
        {
          "name": "",
          "type": "uint256"
        }
      ],
      "payable": false,
      "stateMutability": "nonpayable",
      "type": "function"
    },
    {
      "constant": false,
      "inputs": [
        {
          "name": "_productId",
          "type": "uint256"
        },
        {
          "name": "_buyer",
          "type": "address"
        }
      ],
      "name": "purchaseUserProduct",
      "outputs": [],
      "payable": true,
      "stateMutability": "payable",
      "type": "function"
    },
    {
      "constant": true,
      "inputs": [],
      "name": "tokenContract",
      "outputs": [
        {
          "name": "",
          "type": "address"
        }
      ],
      "payable": false,
      "stateMutability": "view",
      "type": "function"
    },
    {
      "constant": true,
      "inputs": [],
      "name": "getAllServiceProducts",
      "outputs": [
        {
          "components": [
            {
              "name": "productId",
              "type": "uint256"
            },
            {
              "name": "owner",
              "type": "address"
            },
            {
              "name": "tokenId",
              "type": "uint256"
            },
            {
              "name": "totalAmount",
              "type": "uint256"
            },
            {
              "name": "amount",
              "type": "uint256"
            },
            {
              "name": "perPrice",
              "type": "uint256"
            },
            {
              "name": "isValid",
              "type": "bool"
            }
          ],
          "name": "",
          "type": "tuple[]"
        }
      ],
      "payable": false,
      "stateMutability": "view",
      "type": "function"
    },
    {
      "constant": false,
      "inputs": [
        {
          "name": "_productId",
          "type": "uint256"
        },
        {
          "name": "_buyer",
          "type": "address"
        },
        {
          "name": "_amount",
          "type": "uint256"
        }
      ],
      "name": "purchaseServiceProduct",
      "outputs": [],
      "payable": true,
      "stateMutability": "payable",
      "type": "function"
    },
    {
      "constant": true,
      "inputs": [
        {
          "name": "_owner",
          "type": "address"
        }
      ],
      "name": "getValidUserProductsOwned",
      "outputs": [
        {
          "components": [
            {
              "name": "productId",
              "type": "uint256"
            },
            {
              "name": "owner",
              "type": "address"
            },
            {
              "name": "tokenId",
              "type": "uint256"
            },
            {
              "name": "amount",
              "type": "uint256"
            },
            {
              "name": "price",
              "type": "uint256"
            },
            {
              "name": "isValid",
              "type": "bool"
            }
          ],
          "name": "",
          "type": "tuple[]"
        }
      ],
      "payable": false,
      "stateMutability": "view",
      "type": "function"
    },
    {
      "constant": true,
      "inputs": [
        {
          "name": "",
          "type": "uint256"
        }
      ],
      "name": "validDynamicProductIds",
      "outputs": [
        {
          "name": "",
          "type": "uint256"
        }
      ],
      "payable": false,
      "stateMutability": "view",
      "type": "function"
    },
    {
      "constant": false,
      "inputs": [],
      "name": "renounceOwnership",
      "outputs": [],
      "payable": false,
      "stateMutability": "nonpayable",
      "type": "function"
    },
    {
      "constant": true,
      "inputs": [],
      "name": "coinContract",
      "outputs": [
        {
          "name": "",
          "type": "address"
        }
      ],
      "payable": false,
      "stateMutability": "view",
      "type": "function"
    },
    {
      "constant": true,
      "inputs": [
        {
          "name": "_productId",
          "type": "uint256"
        }
      ],
      "name": "ownerOfUserProduct",
      "outputs": [
        {
          "name": "",
          "type": "address"
        }
      ],
      "payable": false,
      "stateMutability": "view",
      "type": "function"
    },
    {
      "constant": true,
      "inputs": [
        {
          "name": "_owner",
          "type": "address"
        },
        {
          "name": "lastProductId",
          "type": "uint256"
        },
        {
          "name": "count",
          "type": "uint256"
        }
      ],
      "name": "getValidUserProductsOwnedPage",
      "outputs": [
        {
          "components": [
            {
              "name": "productId",
              "type": "uint256"
            },
            {
              "name": "owner",
              "type": "address"
            },
            {
              "name": "tokenId",
              "type": "uint256"
            },
            {
              "name": "amount",
              "type": "uint256"
            },
            {
              "name": "price",
              "type": "uint256"
            },
            {
              "name": "isValid",
              "type": "bool"
            }
          ],
          "name": "",
          "type": "tuple[]"
        }
      ],
      "payable": false,
      "stateMutability": "view",
      "type": "function"
    },
    {
      "constant": true,
      "inputs": [],
      "name": "getValidServiceProductAll",
      "outputs": [
        {
          "components": [
            {
              "name": "productId",
              "type": "uint256"
            },
            {
              "name": "owner",
              "type": "address"
            },
            {
              "name": "tokenId",
              "type": "uint256"
            },
            {
              "name": "totalAmount",
              "type": "uint256"
            },
            {
              "name": "amount",
              "type": "uint256"
            },
            {
              "name": "perPrice",
              "type": "uint256"
            },
            {
              "name": "isValid",
              "type": "bool"
            }
          ],
          "name": "",
          "type": "tuple[]"
        }
      ],
      "payable": false,
      "stateMutability": "view",
      "type": "function"
    },
    {
      "constant": true,
      "inputs": [
        {
          "name": "_productId",
          "type": "uint256"
        }
      ],
      "name": "getServiceProduct",
      "outputs": [
        {
          "components": [
            {
              "name": "productId",
              "type": "uint256"
            },
            {
              "name": "owner",
              "type": "address"
            },
            {
              "name": "tokenId",
              "type": "uint256"
            },
            {
              "name": "totalAmount",
              "type": "uint256"
            },
            {
              "name": "amount",
              "type": "uint256"
            },
            {
              "name": "perPrice",
              "type": "uint256"
            },
            {
              "name": "isValid",
              "type": "bool"
            }
          ],
          "name": "",
          "type": "tuple"
        }
      ],
      "payable": false,
      "stateMutability": "view",
      "type": "function"
    },
    {
      "constant": true,
      "inputs": [],
      "name": "owner",
      "outputs": [
        {
          "name": "",
          "type": "address"
        }
      ],
      "payable": false,
      "stateMutability": "view",
      "type": "function"
    },
    {
      "constant": true,
      "inputs": [],
      "name": "isOwner",
      "outputs": [
        {
          "name": "",
          "type": "bool"
        }
      ],
      "payable": false,
      "stateMutability": "view",
      "type": "function"
    },
    {
      "constant": true,
      "inputs": [],
      "name": "countOfAllUserProducts",
      "outputs": [
        {
          "name": "",
          "type": "uint256"
        }
      ],
      "payable": false,
      "stateMutability": "view",
      "type": "function"
    },
    {
      "constant": true,
      "inputs": [],
      "name": "oldMarketContract",
      "outputs": [
        {
          "name": "",
          "type": "address"
        }
      ],
      "payable": false,
      "stateMutability": "view",
      "type": "function"
    },
    {
      "constant": false,
      "inputs": [
        {
          "name": "_productId",
          "type": "uint256"
        }
      ],
      "name": "cancelServiceProductSale",
      "outputs": [
        {
          "name": "",
          "type": "uint256"
        }
      ],
      "payable": false,
      "stateMutability": "nonpayable",
      "type": "function"
    },
    {
      "constant": true,
      "inputs": [
        {
          "name": "",
          "type": "uint256"
        }
      ],
      "name": "validUserProductIds",
      "outputs": [
        {
          "name": "",
          "type": "uint256"
        }
      ],
      "payable": false,
      "stateMutability": "view",
      "type": "function"
    },
    {
      "constant": true,
      "inputs": [
        {
          "name": "",
          "type": "uint256"
        }
      ],
      "name": "validServiceProductIds",
      "outputs": [
        {
          "name": "",
          "type": "uint256"
        }
      ],
      "payable": false,
      "stateMutability": "view",
      "type": "function"
    },
    {
      "constant": false,
      "inputs": [
        {
          "name": "_addr",
          "type": "address"
        }
      ],
      "name": "setCoinAddress",
      "outputs": [],
      "payable": false,
      "stateMutability": "nonpayable",
      "type": "function"
    },
    {
      "constant": false,
      "inputs": [
        {
          "name": "_owner",
          "type": "address"
        },
        {
          "name": "_tokenId",
          "type": "uint256"
        },
        {
          "name": "_amount",
          "type": "uint256"
        },
        {
          "name": "_price",
          "type": "uint256"
        }
      ],
      "name": "registerUserProduct",
      "outputs": [
        {
          "name": "",
          "type": "uint256"
        }
      ],
      "payable": false,
      "stateMutability": "nonpayable",
      "type": "function"
    },
    {
      "constant": true,
      "inputs": [
        {
          "name": "",
          "type": "uint256"
        }
      ],
      "name": "allDynamicProducts",
      "outputs": [
        {
          "name": "productId",
          "type": "uint256"
        },
        {
          "name": "owner",
          "type": "address"
        },
        {
          "name": "tokenId",
          "type": "uint256"
        },
        {
          "name": "totalAmount",
          "type": "uint256"
        },
        {
          "name": "amount",
          "type": "uint256"
        },
        {
          "name": "perPrice",
          "type": "uint256"
        },
        {
          "name": "isValid",
          "type": "bool"
        },
        {
          "name": "useDynamicPrice",
          "type": "bool"
        },
        {
          "name": "deltaPrice",
          "type": "uint256"
        },
        {
          "name": "fee",
          "type": "uint256"
        }
      ],
      "payable": false,
      "stateMutability": "view",
      "type": "function"
    },
    {
      "constant": true,
      "inputs": [
        {
          "name": "lastProductId",
          "type": "uint256"
        },
        {
          "name": "count",
          "type": "uint256"
        }
      ],
      "name": "getValidServiceProducts",
      "outputs": [
        {
          "components": [
            {
              "name": "productId",
              "type": "uint256"
            },
            {
              "name": "owner",
              "type": "address"
            },
            {
              "name": "tokenId",
              "type": "uint256"
            },
            {
              "name": "totalAmount",
              "type": "uint256"
            },
            {
              "name": "amount",
              "type": "uint256"
            },
            {
              "name": "perPrice",
              "type": "uint256"
            },
            {
              "name": "isValid",
              "type": "bool"
            }
          ],
          "name": "",
          "type": "tuple[]"
        }
      ],
      "payable": false,
      "stateMutability": "view",
      "type": "function"
    },
    {
      "constant": false,
      "inputs": [
        {
          "name": "newOwner",
          "type": "address"
        }
      ],
      "name": "transferOwnership",
      "outputs": [],
      "payable": false,
      "stateMutability": "nonpayable",
      "type": "function"
    },
    {
      "inputs": [
        {
          "name": "_coin",
          "type": "address"
        },
        {
          "name": "_token",
          "type": "address"
        }
      ],
      "payable": false,
      "stateMutability": "nonpayable",
      "type": "constructor"
    },
    {
      "anonymous": false,
      "inputs": [
        {
          "indexed": false,
          "name": "_addr",
          "type": "address"
        }
      ],
      "name": "SetOldMarketAddress",
      "type": "event"
    },
    {
      "anonymous": false,
      "inputs": [
        {
          "indexed": false,
          "name": "_owner",
          "type": "address"
        },
        {
          "indexed": false,
          "name": "_productId",
          "type": "uint256"
        }
      ],
      "name": "RegisterDynamicProduct",
      "type": "event"
    },
    {
      "anonymous": false,
      "inputs": [
        {
          "indexed": false,
          "name": "_productId",
          "type": "uint256"
        },
        {
          "indexed": false,
          "name": "_owner",
          "type": "address"
        },
        {
          "indexed": false,
          "name": "_buyer",
          "type": "address"
        },
        {
          "indexed": false,
          "name": "_tokenId",
          "type": "uint256"
        },
        {
          "indexed": false,
          "name": "_amount",
          "type": "uint256"
        },
        {
          "indexed": false,
          "name": "_amountLeft",
          "type": "uint256"
        },
        {
          "indexed": false,
          "name": "_price",
          "type": "uint256"
        },
        {
          "indexed": false,
          "name": "_timestamp",
          "type": "uint256"
        }
      ],
      "name": "PurchaseDynamicProduct",
      "type": "event"
    },
    {
      "anonymous": false,
      "inputs": [
        {
          "indexed": false,
          "name": "_productId",
          "type": "uint256"
        },
        {
          "indexed": false,
          "name": "_owner",
          "type": "address"
        },
        {
          "indexed": false,
          "name": "_buyer",
          "type": "address"
        },
        {
          "indexed": false,
          "name": "_tokenId",
          "type": "uint256"
        },
        {
          "indexed": false,
          "name": "_amount",
          "type": "uint256"
        },
        {
          "indexed": false,
          "name": "_amountLeft",
          "type": "uint256"
        },
        {
          "indexed": false,
          "name": "_price",
          "type": "uint256"
        },
        {
          "indexed": false,
          "name": "_timestamp",
          "type": "uint256"
        }
      ],
      "name": "PurchaseDynamicProductManually",
      "type": "event"
    },
    {
      "anonymous": false,
      "inputs": [
        {
          "indexed": false,
          "name": "_productId",
          "type": "uint256"
        },
        {
          "indexed": false,
          "name": "_owner",
          "type": "address"
        },
        {
          "indexed": false,
          "name": "_requester",
          "type": "address"
        },
        {
          "indexed": false,
          "name": "_tokenId",
          "type": "uint256"
        },
        {
          "indexed": false,
          "name": "_amount",
          "type": "uint256"
        },
        {
          "indexed": false,
          "name": "_timestamp",
          "type": "uint256"
        }
      ],
      "name": "CancelDynamicProductSale",
      "type": "event"
    },
    {
      "anonymous": false,
      "inputs": [
        {
          "indexed": false,
          "name": "_productId",
          "type": "uint256"
        },
        {
          "indexed": false,
          "name": "_useDynamicPrice",
          "type": "bool"
        },
        {
          "indexed": false,
          "name": "_deltaPrice",
          "type": "uint256"
        }
      ],
      "name": "ChangeDynamicPrice",
      "type": "event"
    },
    {
      "anonymous": false,
      "inputs": [
        {
          "indexed": false,
          "name": "_productId",
          "type": "uint256"
        },
        {
          "indexed": false,
          "name": "_fee",
          "type": "uint256"
        }
      ],
      "name": "ChangeDynamicPriceFee",
      "type": "event"
    },
    {
      "anonymous": false,
      "inputs": [
        {
          "indexed": false,
          "name": "_productId",
          "type": "uint256"
        },
        {
          "indexed": false,
          "name": "_requester",
          "type": "address"
        },
        {
          "indexed": false,
          "name": "price",
          "type": "uint256"
        },
        {
          "indexed": false,
          "name": "reqPrice",
          "type": "uint256"
        }
      ],
      "name": "DoNotMatchPrice",
      "type": "event"
    },
    {
      "anonymous": false,
      "inputs": [
        {
          "indexed": false,
          "name": "_addr",
          "type": "address"
        }
      ],
      "name": "SetCoinAddress",
      "type": "event"
    },
    {
      "anonymous": false,
      "inputs": [
        {
          "indexed": false,
          "name": "_addr",
          "type": "address"
        }
      ],
      "name": "SetTokenAddress",
      "type": "event"
    },
    {
      "anonymous": false,
      "inputs": [
        {
          "indexed": false,
          "name": "_owner",
          "type": "address"
        },
        {
          "indexed": false,
          "name": "_productId",
          "type": "uint256"
        }
      ],
      "name": "RegisterServiceProduct",
      "type": "event"
    },
    {
      "anonymous": false,
      "inputs": [
        {
          "indexed": false,
          "name": "_productId",
          "type": "uint256"
        },
        {
          "indexed": false,
          "name": "_owner",
          "type": "address"
        },
        {
          "indexed": false,
          "name": "_buyer",
          "type": "address"
        },
        {
          "indexed": false,
          "name": "_tokenId",
          "type": "uint256"
        },
        {
          "indexed": false,
          "name": "_amount",
          "type": "uint256"
        },
        {
          "indexed": false,
          "name": "_amountLeft",
          "type": "uint256"
        },
        {
          "indexed": false,
          "name": "_price",
          "type": "uint256"
        },
        {
          "indexed": false,
          "name": "_timestamp",
          "type": "uint256"
        }
      ],
      "name": "PurchaseServiceProduct",
      "type": "event"
    },
    {
      "anonymous": false,
      "inputs": [
        {
          "indexed": false,
          "name": "_owner",
          "type": "address"
        },
        {
          "indexed": false,
          "name": "_productId",
          "type": "uint256"
        }
      ],
      "name": "RegisterUserProduct",
      "type": "event"
    },
    {
      "anonymous": false,
      "inputs": [
        {
          "indexed": false,
          "name": "_productId",
          "type": "uint256"
        },
        {
          "indexed": false,
          "name": "_owner",
          "type": "address"
        },
        {
          "indexed": false,
          "name": "_buyer",
          "type": "address"
        },
        {
          "indexed": false,
          "name": "_tokenId",
          "type": "uint256"
        },
        {
          "indexed": false,
          "name": "_amount",
          "type": "uint256"
        },
        {
          "indexed": false,
          "name": "_price",
          "type": "uint256"
        },
        {
          "indexed": false,
          "name": "_timestamp",
          "type": "uint256"
        }
      ],
      "name": "PurchaseUserProduct",
      "type": "event"
    },
    {
      "anonymous": false,
      "inputs": [
        {
          "indexed": false,
          "name": "_productId",
          "type": "uint256"
        },
        {
          "indexed": false,
          "name": "_owner",
          "type": "address"
        },
        {
          "indexed": false,
          "name": "_requester",
          "type": "address"
        },
        {
          "indexed": false,
          "name": "_tokenId",
          "type": "uint256"
        },
        {
          "indexed": false,
          "name": "_amount",
          "type": "uint256"
        },
        {
          "indexed": false,
          "name": "_timestamp",
          "type": "uint256"
        }
      ],
      "name": "CancelServiceProductSale",
      "type": "event"
    },
    {
      "anonymous": false,
      "inputs": [
        {
          "indexed": false,
          "name": "_productId",
          "type": "uint256"
        },
        {
          "indexed": false,
          "name": "_owner",
          "type": "address"
        },
        {
          "indexed": false,
          "name": "_requester",
          "type": "address"
        },
        {
          "indexed": false,
          "name": "_tokenId",
          "type": "uint256"
        },
        {
          "indexed": false,
          "name": "_amount",
          "type": "uint256"
        },
        {
          "indexed": false,
          "name": "_timestamp",
          "type": "uint256"
        }
      ],
      "name": "CancelUserProductSale",
      "type": "event"
    },
    {
      "anonymous": false,
      "inputs": [
        {
          "indexed": true,
          "name": "previousOwner",
          "type": "address"
        },
        {
          "indexed": true,
          "name": "newOwner",
          "type": "address"
        }
      ],
      "name": "OwnershipTransferred",
      "type": "event"
    },
    {
      "constant": false,
      "inputs": [
        {
          "name": "_addr",
          "type": "address"
        }
      ],
      "name": "setOldMarketAddress",
      "outputs": [],
      "payable": false,
      "stateMutability": "nonpayable",
      "type": "function"
    },
    {
      "constant": true,
      "inputs": [],
      "name": "getOldMarketAddress",
      "outputs": [
        {
          "name": "",
          "type": "address"
        }
      ],
      "payable": false,
      "stateMutability": "view",
      "type": "function"
    },
    {
      "constant": true,
      "inputs": [],
      "name": "countOfValidDynamicProducts",
      "outputs": [
        {
          "name": "",
          "type": "uint256"
        }
      ],
      "payable": false,
      "stateMutability": "view",
      "type": "function"
    },
    {
      "constant": true,
      "inputs": [],
      "name": "countOfAllDynamicProducts",
      "outputs": [
        {
          "name": "",
          "type": "uint256"
        }
      ],
      "payable": false,
      "stateMutability": "view",
      "type": "function"
    },
    {
      "constant": true,
      "inputs": [
        {
          "name": "_productId",
          "type": "uint256"
        }
      ],
      "name": "getDynamicProduct",
      "outputs": [
        {
          "components": [
            {
              "name": "productId",
              "type": "uint256"
            },
            {
              "name": "owner",
              "type": "address"
            },
            {
              "name": "tokenId",
              "type": "uint256"
            },
            {
              "name": "totalAmount",
              "type": "uint256"
            },
            {
              "name": "amount",
              "type": "uint256"
            },
            {
              "name": "perPrice",
              "type": "uint256"
            },
            {
              "name": "isValid",
              "type": "bool"
            },
            {
              "name": "useDynamicPrice",
              "type": "bool"
            },
            {
              "name": "deltaPrice",
              "type": "uint256"
            },
            {
              "name": "fee",
              "type": "uint256"
            }
          ],
          "name": "",
          "type": "tuple"
        }
      ],
      "payable": false,
      "stateMutability": "view",
      "type": "function"
    },
    {
      "constant": false,
      "inputs": [
        {
          "name": "_owner",
          "type": "address"
        },
        {
          "name": "_tokenId",
          "type": "uint256"
        },
        {
          "name": "_totalAmount",
          "type": "uint256"
        },
        {
          "name": "_perPrice",
          "type": "uint256"
        }
      ],
      "name": "registerServiceProduct",
      "outputs": [
        {
          "name": "",
          "type": "uint256"
        }
      ],
      "payable": false,
      "stateMutability": "nonpayable",
      "type": "function"
    },
    {
      "constant": false,
      "inputs": [
        {
          "name": "_owner",
          "type": "address"
        },
        {
          "name": "_tokenId",
          "type": "uint256"
        },
        {
          "name": "_totalAmount",
          "type": "uint256"
        },
        {
          "name": "_perPrice",
          "type": "uint256"
        },
        {
          "name": "_isValid",
          "type": "bool"
        },
        {
          "name": "_useDynamicPrice",
          "type": "bool"
        },
        {
          "name": "_deltaPrice",
          "type": "uint256"
        },
        {
          "name": "_fee",
          "type": "uint256"
        }
      ],
      "name": "registerDynamicProduct",
      "outputs": [
        {
          "name": "",
          "type": "uint256"
        }
      ],
      "payable": false,
      "stateMutability": "nonpayable",
      "type": "function"
    },
    {
      "constant": true,
      "inputs": [],
      "name": "getValidDynamicProductAll",
      "outputs": [
        {
          "components": [
            {
              "name": "productId",
              "type": "uint256"
            },
            {
              "name": "owner",
              "type": "address"
            },
            {
              "name": "tokenId",
              "type": "uint256"
            },
            {
              "name": "totalAmount",
              "type": "uint256"
            },
            {
              "name": "amount",
              "type": "uint256"
            },
            {
              "name": "perPrice",
              "type": "uint256"
            },
            {
              "name": "isValid",
              "type": "bool"
            },
            {
              "name": "useDynamicPrice",
              "type": "bool"
            },
            {
              "name": "deltaPrice",
              "type": "uint256"
            },
            {
              "name": "fee",
              "type": "uint256"
            }
          ],
          "name": "",
          "type": "tuple[]"
        }
      ],
      "payable": false,
      "stateMutability": "view",
      "type": "function"
    },
    {
      "constant": true,
      "inputs": [
        {
          "name": "lastProductId",
          "type": "uint256"
        },
        {
          "name": "count",
          "type": "uint256"
        }
      ],
      "name": "getValidDynamicProducts",
      "outputs": [
        {
          "components": [
            {
              "name": "productId",
              "type": "uint256"
            },
            {
              "name": "owner",
              "type": "address"
            },
            {
              "name": "tokenId",
              "type": "uint256"
            },
            {
              "name": "totalAmount",
              "type": "uint256"
            },
            {
              "name": "amount",
              "type": "uint256"
            },
            {
              "name": "perPrice",
              "type": "uint256"
            },
            {
              "name": "isValid",
              "type": "bool"
            },
            {
              "name": "useDynamicPrice",
              "type": "bool"
            },
            {
              "name": "deltaPrice",
              "type": "uint256"
            },
            {
              "name": "fee",
              "type": "uint256"
            }
          ],
          "name": "",
          "type": "tuple[]"
        }
      ],
      "payable": false,
      "stateMutability": "view",
      "type": "function"
    },
    {
      "constant": true,
      "inputs": [],
      "name": "getAllDynamicProducts",
      "outputs": [
        {
          "components": [
            {
              "name": "productId",
              "type": "uint256"
            },
            {
              "name": "owner",
              "type": "address"
            },
            {
              "name": "tokenId",
              "type": "uint256"
            },
            {
              "name": "totalAmount",
              "type": "uint256"
            },
            {
              "name": "amount",
              "type": "uint256"
            },
            {
              "name": "perPrice",
              "type": "uint256"
            },
            {
              "name": "isValid",
              "type": "bool"
            },
            {
              "name": "useDynamicPrice",
              "type": "bool"
            },
            {
              "name": "deltaPrice",
              "type": "uint256"
            },
            {
              "name": "fee",
              "type": "uint256"
            }
          ],
          "name": "",
          "type": "tuple[]"
        }
      ],
      "payable": false,
      "stateMutability": "view",
      "type": "function"
    },
    {
      "constant": true,
      "inputs": [],
      "name": "getAllUserProducts",
      "outputs": [
        {
          "components": [
            {
              "name": "productId",
              "type": "uint256"
            },
            {
              "name": "owner",
              "type": "address"
            },
            {
              "name": "tokenId",
              "type": "uint256"
            },
            {
              "name": "amount",
              "type": "uint256"
            },
            {
              "name": "price",
              "type": "uint256"
            },
            {
              "name": "isValid",
              "type": "bool"
            }
          ],
          "name": "",
          "type": "tuple[]"
        }
      ],
      "payable": false,
      "stateMutability": "view",
      "type": "function"
    },
    {
      "constant": false,
      "inputs": [
        {
          "name": "_productId",
          "type": "uint256"
        }
      ],
      "name": "cancelDynamicProductSale",
      "outputs": [
        {
          "name": "",
          "type": "uint256"
        }
      ],
      "payable": false,
      "stateMutability": "nonpayable",
      "type": "function"
    },
    {
      "constant": false,
      "inputs": [
        {
          "name": "_productId",
          "type": "uint256"
        },
        {
          "name": "_buyer",
          "type": "address"
        },
        {
          "name": "_amount",
          "type": "uint256"
        },
        {
          "name": "_reqPrice",
          "type": "uint256"
        }
      ],
      "name": "purchaseDynamicProduct",
      "outputs": [],
      "payable": true,
      "stateMutability": "payable",
      "type": "function"
    },
    {
      "constant": false,
      "inputs": [
        {
          "name": "_productId",
          "type": "uint256"
        },
        {
          "name": "_buyer",
          "type": "address"
        },
        {
          "name": "_amount",
          "type": "uint256"
        },
        {
          "name": "_manualPrice",
          "type": "uint256"
        }
      ],
      "name": "purchaseDynamicProductManually",
      "outputs": [],
      "payable": true,
      "stateMutability": "payable",
      "type": "function"
    },
    {
      "constant": false,
      "inputs": [
        {
          "name": "startIndex",
          "type": "uint256"
        },
        {
          "name": "endIndex",
          "type": "uint256"
        }
      ],
      "name": "copyServiceProductFromOldMarketContract",
      "outputs": [
        {
          "components": [
            {
              "name": "productId",
              "type": "uint256"
            },
            {
              "name": "owner",
              "type": "address"
            },
            {
              "name": "tokenId",
              "type": "uint256"
            },
            {
              "name": "totalAmount",
              "type": "uint256"
            },
            {
              "name": "amount",
              "type": "uint256"
            },
            {
              "name": "perPrice",
              "type": "uint256"
            },
            {
              "name": "isValid",
              "type": "bool"
            },
            {
              "name": "useDynamicPrice",
              "type": "bool"
            },
            {
              "name": "deltaPrice",
              "type": "uint256"
            },
            {
              "name": "fee",
              "type": "uint256"
            }
          ],
          "name": "",
          "type": "tuple[]"
        }
      ],
      "payable": true,
      "stateMutability": "payable",
      "type": "function"
    },
    {
      "constant": false,
      "inputs": [
        {
          "name": "startIndex",
          "type": "uint256"
        },
        {
          "name": "endIndex",
          "type": "uint256"
        }
      ],
      "name": "copyUserProductFromOldMarketContract",
      "outputs": [
        {
          "components": [
            {
              "name": "productId",
              "type": "uint256"
            },
            {
              "name": "owner",
              "type": "address"
            },
            {
              "name": "tokenId",
              "type": "uint256"
            },
            {
              "name": "amount",
              "type": "uint256"
            },
            {
              "name": "price",
              "type": "uint256"
            },
            {
              "name": "isValid",
              "type": "bool"
            }
          ],
          "name": "",
          "type": "tuple[]"
        }
      ],
      "payable": true,
      "stateMutability": "payable",
      "type": "function"
    },
    {
      "constant": false,
      "inputs": [
        {
          "name": "_productId",
          "type": "uint256"
        },
        {
          "name": "_useDynamicPrice",
          "type": "bool"
        },
        {
          "name": "_deltaPrice",
          "type": "uint256"
        }
      ],
      "name": "changeDynamicPrice",
      "outputs": [],
      "payable": false,
      "stateMutability": "nonpayable",
      "type": "function"
    },
    {
      "constant": false,
      "inputs": [
        {
          "name": "_productId",
          "type": "uint256"
        },
        {
          "name": "_fee",
          "type": "uint256"
        }
      ],
      "name": "changeDynamicPriceFee",
      "outputs": [
        {
          "name": "",
          "type": "bool"
        }
      ],
      "payable": false,
      "stateMutability": "nonpayable",
      "type": "function"
    }
  ],
  "bytecode": "0x60806040523480156200001157600080fd5b5060405160408062005092833981018060405262000033919081019062000153565b600080546001600160a01b0319163317808255604051849284926001600160a01b0316917f8be0079c531659141344cd1fd0a4f28419497f9722a3daafe3b4186f6b6457e0908290a36001600160a01b038216620000c8576040517f08c379a0000000000000000000000000000000000000000000000000000000008152600401620000bf9062000208565b60405180910390fd5b6001600160a01b0381166200010b576040517f08c379a0000000000000000000000000000000000000000000000000000000008152600401620000bf906200021a565b600180546001600160a01b039384166001600160a01b0319918216179091556002805492909316911617905550620002619050565b80516200014d8162000247565b92915050565b600080604083850312156200016757600080fd5b600062000175858562000140565b9250506020620001888582860162000140565b9150509250929050565b6000620001a1600b836200022c565b7f5f636f696e206572726f72000000000000000000000000000000000000000000815260200192915050565b6000620001dc600c836200022c565b7f5f746f6b656e206572726f720000000000000000000000000000000000000000815260200192915050565b602080825281016200014d8162000192565b602080825281016200014d81620001cd565b90815260200190565b60006001600160a01b0382166200014d565b620002528162000235565b81146200025e57600080fd5b50565b614e2180620002716000396000f3fe6080604052600436106102d55760003560e01c80637aed0bf81161017b578063a9797887116100d7578063d2e37c7911610085578063d2e37c7914610842578063d623cb2b14610862578063dddeed5f14610877578063e6e623c8146108ad578063ed648fc9146108cd578063f2fde38b146108ed578063f8049e131461090d576102d5565b8063a979788714610785578063ace4176b146107a5578063b0bdacc6146107c5578063b3aa1ac7146107e5578063b435f7ef146107fa578063b51c0a251461080d578063b8d3193914610822576102d5565b80638da5cb5b116101345780638da5cb5b146106cf5780638f32d59b146106e457806393fac3281461070657806397b9e4a61461071b5780639e98e16c146107305780639f4c4bc9146107455780639f997a2d14610765576102d5565b80637aed0bf81461061a5780637e9563de1461063a57806383b4aad51461065a57806386fa500f1461067a57806389857efe1461068f5780638b79b848146106bc576102d5565b806346172bfc116102355780636021c626116101e35780636021c6261461055d578063617c3335146105705780636b763a9e14610590578063715018a6146105b057806372dd52e3146105c557806376ca0f76146105da57806377fd04d6146105ed576102d5565b806346172bfc1461048f57806346bbf53d146104b157806346fb2d06146104d15780634cc7a7e1146104f157806353e31a621461050457806355a373d614610519578063587ea2d51461053b576102d5565b8063179193ac11610292578063179193ac146103b157806326a4e8d2146103de5780632e35f794146103fe5780633db27259146104305780633e6c669f14610445578063400430681461045a57806343bd10f71461046f576102d5565b806308a89221146102da5780630ed3c756146103055780630fffe5a414610338578063105ddc2d1461036557806310fe9ae81461037a5780631172bdf71461039c575b600080fd5b3480156102e657600080fd5b506102ef61092d565b6040516102fc9190614a98565b60405180910390f35b34801561031157600080fd5b506103256103203660046141be565b610934565b6040516102fc9796959493929190614c66565b34801561034457600080fd5b506103586103533660046143d0565b61098d565b6040516102fc91906149c0565b34801561037157600080fd5b506102ef610ae6565b34801561038657600080fd5b5061038f610aec565b6040516102fc919061490f565b6103af6103aa366004614248565b610b3f565b005b3480156103bd57600080fd5b506103d16103cc3660046141be565b610dfd565b6040516102fc9190614a8a565b3480156103ea57600080fd5b506103af6103f9366004614024565b610e7c565b34801561040a57600080fd5b5061041e6104193660046141be565b610f28565b6040516102fc96959493929190614c17565b34801561043c57600080fd5b50610358610f78565b34801561045157600080fd5b506102ef611095565b34801561046657600080fd5b5061038f6110c5565b34801561047b57600080fd5b506103af61048a366004614024565b6110e8565b34801561049b57600080fd5b506104a4611189565b6040516102fc919061499e565b3480156104bd57600080fd5b506102ef6104cc3660046140f0565b6112cd565b3480156104dd57600080fd5b506102ef6104ec3660046141dc565b61151b565b6103af6104ff3660046141dc565b6116d0565b34801561051057600080fd5b506104a4611928565b34801561052557600080fd5b5061052e611a22565b6040516102fc91906149df565b34801561054757600080fd5b50610550611a31565b6040516102fc91906149af565b6103af61056b366004614216565b611afc565b34801561057c57600080fd5b5061035861058b366004614024565b611d23565b34801561059c57600080fd5b506102ef6105ab3660046141be565b611e99565b3480156105bc57600080fd5b506103af611eb7565b3480156105d157600080fd5b5061052e611f28565b6103586105e83660046143d0565b611f37565b3480156105f957600080fd5b5061060d6106083660046141be565b6122e3565b6040516102fc9190614a6d565b34801561062657600080fd5b5061038f6106353660046141be565b612392565b34801561064657600080fd5b506102ef61065536600461408f565b6123ca565b34801561066657600080fd5b50610358610675366004614042565b6123ea565b34801561068657600080fd5b50610550612581565b34801561069b57600080fd5b506106af6106aa3660046141be565b61269f565b6040516102fc9190614a7c565b6104a46106ca3660046143d0565b612728565b3480156106db57600080fd5b5061038f612b9f565b3480156106f057600080fd5b506106f9612bae565b6040516102fc91906149d1565b34801561071257600080fd5b506102ef612bbf565b34801561072757600080fd5b506102ef612bef565b34801561073c57600080fd5b5061052e612bf5565b34801561075157600080fd5b506102ef6107603660046141be565b612c04565b34801561077157600080fd5b506102ef6107803660046141be565b612d75565b34801561079157600080fd5b506102ef6107a03660046141be565b612d82565b3480156107b157600080fd5b506103af6107c036600461439e565b612d8f565b3480156107d157600080fd5b506103af6107e0366004614024565b612e59565b3480156107f157600080fd5b5061038f612efa565b6103af610808366004614248565b612f44565b34801561081957600080fd5b50610358613153565b34801561082e57600080fd5b506102ef61083d3660046141be565b613214565b34801561084e57600080fd5b506102ef61085d36600461408f565b61339c565b34801561086e57600080fd5b506102ef6135d1565b34801561088357600080fd5b506108976108923660046141be565b613601565b6040516102fc9a99989796959493929190614cc2565b3480156108b957600080fd5b506106f96108c83660046143d0565b613671565b3480156108d957600080fd5b506105506108e83660046143d0565b613713565b3480156108f957600080fd5b506103af610908366004614024565b613857565b34801561091957600080fd5b506104a46109283660046143d0565b61388a565b6004545b90565b6003818154811061094157fe5b600091825260209091206007909102018054600182015460028301546003840154600485015460058601546006909601549496506001600160a01b039093169491939092919060ff1687565b60608060018310156109a0579050610ae0565b8380156109ad5750600184015b6060846040519080825280602002602001820160405280156109e957816020015b6109d6613eb2565b8152602001906001900390816109ce5790505b5090506000825b600754811015610ac75760078181548110610a0757fe5b600091825260209091206005600690920201015460ff1615610ab35760078181548110610a3057fe5b60009182526020918290206040805160c08101825260069093029091018054835260018101546001600160a01b031693830193909352600283015490820152600382015460608201526004820154608082015260059091015460ff16151560a08201528351849084908110610aa157fe5b60209081029190910101526001909101905b868210610abf57610ac7565b6001016109f0565b508015610ad957509250610ae0915050565b5091925050505b92915050565b60085490565b6000610af6612bae565b610b1e57604051600160e51b62461bcd028152600401610b1590614a4d565b60405180910390fd5b610b266139f4565b610b2f57600080fd5b506002546001600160a01b031690565b610b476139f4565b610b5057600080fd5b600082118015610b6857506001600160a01b03831615155b610b7157600080fd5b600d8481548110610b7e57fe5b600091825260209091206006600990920201015460ff16610b9e57600080fd5b6000600d8581548110610bad57fe5b906000526020600020906009020190508281600401541015610bce57600080fd5b6006810154600090610100900460ff1615610c0d5750600781015460048201546003830154600884015460058501549290910390920201840201610c1c565b50600881015460058201548402015b808314610c61577f99e7229d8ebd63cf0733e17f2c8a586fb9f52ee4afd7fef0889260228d62a82286868386604051610c589493929190614c09565b60405180910390a15b808314610c6d57600080fd5b6001805490830154604051600160e01b6323b872dd0281526001600160a01b03928316926323b872dd92610cab928a9290911690869060040161491d565b602060405180830381600087803b158015610cc557600080fd5b505af1158015610cd9573d6000803e3d6000fd5b505050506040513d601f19601f82011682018060405250610cfd91908101906141a0565b506002805490830154604051600160e11b637f4c824d0281526001600160a01b039092169163fe99049a91610d3a9130918a918a90600401614945565b600060405180830381600087803b158015610d5457600080fd5b505af1158015610d68573d6000803e3d6000fd5b5050506004830154610d8191508563ffffffff613a4116565b60048301819055610d97578154610d9790613a6c565b81546001830154600284015460048501546040517fd0eb52c83c6313c39e239e34230e4ab58d427e4b4a927221059c459a0996f67c94610ded9490936001600160a01b03909116928b928b919089904290614b84565b60405180910390a1505050505050565b610e05613eb2565b60078281548110610e1257fe5b60009182526020918290206040805160c08101825260069093029091018054835260018101546001600160a01b031693830193909352600283015490820152600382015460608201526004820154608082015260059091015460ff16151560a08201529050919050565b610e846139f4565b610e8d57600080fd5b6001600160a01b03811615801590610eb357506002546001600160a01b03828116911614155b610ed257604051600160e51b62461bcd028152600401610b1590614a3d565b600280546001600160a01b0319166001600160a01b0383161790556040517f33a7e73920e7bb871d64f12f439f70e8d764c488da2188d67bd27ddb6020513790610f1d90839061490f565b60405180910390a150565b60078181548110610f3557fe5b60009182526020909120600690910201805460018201546002830154600384015460048501546005909501549395506001600160a01b0390921693909260ff1686565b600854604080518281526020808402820101909152606091908290828015610fba57816020015b610fa7613eb2565b815260200190600190039081610f9f5790505b5090506000805b60075481101561108c5760078181548110610fd857fe5b600091825260209091206005600690920201015460ff1615611084576007818154811061100157fe5b60009182526020918290206040805160c08101825260069093029091018054835260018101546001600160a01b031693830193909352600283015490820152600382015460608201526004820154608082015260059091015460ff16151560a0820152835184908490811061107257fe5b60200260200101819052508160010191505b600101610fc1565b50909250505090565b600061109f612bae565b6110be57604051600160e51b62461bcd028152600401610b1590614a4d565b5060035490565b60006110cf6139f4565b6110d857600080fd5b506001546001600160a01b031690565b6110f06139f4565b6110f957600080fd5b6001600160a01b0381161580159061111f5750600c546001600160a01b03828116911614155b61113e57604051600160e51b62461bcd028152600401610b1590614a3d565b600c80546001600160a01b0319166001600160a01b0383161790556040517f5410cc3702817ec0d7d5d36d4219096d89e382b8c5a20716226312a010d3fb0190610f1d90839061490f565b600e546040805182815260208084028201019091526060919082908280156111cb57816020015b6111b8613ef3565b8152602001906001900390816111b05790505b5090506000805b600d5481101561108c57600d81815481106111e957fe5b600091825260209091206006600990920201015460ff16156112c557600d818154811061121257fe5b6000918252602091829020604080516101408101825260099093029091018054835260018101546001600160a01b0316938301939093526002830154908201526003820154606082015260048201546080820152600582015460a0820152600682015460ff808216151560c08401526101009182900416151560e083015260078301549082015260089091015461012082015283518490849081106112b357fe5b60200260200101819052508160010191505b6001016111d2565b60006112d7613ef3565b8981602001906001600160a01b031690816001600160a01b031681525050888160400181815250508781606001818152505087816080018181525050868160a0018181525050858160c0019015159081151581525050848160e0019015159081151581525050838161010001818152505082816101200181815250506000600d80549050905080826000018181525050600d82908060018154018082558091505090600182039060005260206000209060090201600090919290919091506000820151816000015560208201518160010160006101000a8154816001600160a01b0302191690836001600160a01b0316021790555060408201518160020155606082015181600301556080820151816004015560a0820151816005015560c08201518160060160006101000a81548160ff02191690831515021790555060e08201518160060160016101000a81548160ff021916908315150217905550610100820151816007015561012082015181600801555050508160200151600f600083815260200190815260200160002060006101000a8154816001600160a01b0302191690836001600160a01b03160217905550600e805490506010600083815260200190815260200160002081905550600e8190806001815401808255809150509060018203906000526020600020016000909192909190915055507fd3c2b5929895468b4848c45914047c7f55b8241626a46586abc8c162af8b8c3c8b82604051611503929190614983565b60405180910390a19150505b98975050505050505050565b60006115256139f4565b61152e57600080fd5b61153783613b79565b61153f613eb2565b6007848154811061154c57fe5b60009182526020918290206040805160c08101825260069093029091018054835260018101546001600160a01b0390811694840185905260028201549284019290925260038101546060840152600481015460808401526005015460ff16151560a08301529092508416146115d657604051600160e51b62461bcd028152600401610b1590614a1d565b60208101516001600160a01b03163014156115f057600080fd5b60208101516001600160a01b0316301461167b57600254602082015160408084015160608501519151600160e11b637f4c824d0281526001600160a01b039094169363fe99049a936116489330939192600401614945565b600060405180830381600087803b15801561166257600080fd5b505af1158015611676573d6000803e3d6000fd5b505050505b7f4189a8a7fa179466219587522575a50de255e8e7026f392a9f5f18ce4868d7108482602001518584604001518560600151426040516116c096959493929190614b00565b60405180910390a1509192915050565b6116d86139f4565b6116e157600080fd5b6001600160a01b0381166116f457600080fd5b6007828154811061170157fe5b600091825260209091206005600690920201015460ff1661172157600080fd5b611729613eb2565b6007838154811061173657fe5b60009182526020918290206040805160c08101825260069093029091018054835260018101546001600160a01b0390811694840185905260028201549284019290925260038101546060840152600481015460808401526005015460ff16151560a0830152909250831614156117c157604051600160e51b62461bcd028152600401610b1590614a0d565b60015460208201516080830151604051600160e01b6323b872dd0281526001600160a01b03909316926323b872dd926117fe92879260040161491d565b602060405180830381600087803b15801561181857600080fd5b505af115801561182c573d6000803e3d6000fd5b505050506040513d601f19601f8201168201806040525061185091908101906141a0565b5060025460408083015160608401519151600160e11b637f4c824d0281526001600160a01b039093169263fe99049a92611891923092889290600401614945565b600060405180830381600087803b1580156118ab57600080fd5b505af11580156118bf573d6000803e3d6000fd5b505050506118cc83613b79565b7fe9b24546dabc2769d548df32b55a8d7b21e95312016da1a572562f22dc1a8a9181600001518260200151848460400151856060015186608001514260405161191b9796959493929190614b28565b60405180910390a1505050565b6060611932612bae565b61195157604051600160e51b62461bcd028152600401610b1590614a4d565b600d805480602002602001604051908101604052809291908181526020016000905b82821015611a19576000848152602090819020604080516101408101825260098602909201805483526001808201546001600160a01b0316848601526002820154928401929092526003810154606084015260048101546080840152600581015460a0840152600681015460ff808216151560c08601526101009182900416151560e0850152600782015490840152600801546101208301529083529092019101611973565b50505050905090565b6002546001600160a01b031681565b6060611a3b612bae565b611a5a57604051600160e51b62461bcd028152600401610b1590614a4d565b6003805480602002602001604051908101604052809291908181526020016000905b82821015611a195760008481526020908190206040805160e08101825260078602909201805483526001808201546001600160a01b0316848601526002820154928401929092526003810154606084015260048101546080840152600581015460a08401526006015460ff16151560c08301529083529092019101611a7c565b611b046139f4565b611b0d57600080fd5b600081118015611b2557506001600160a01b03821615155b611b2e57600080fd5b60038381548110611b3b57fe5b600091825260209091206006600790920201015460ff16611b5b57600080fd5b600060038481548110611b6a57fe5b906000526020600020906007020190508181600401541015611b8b57600080fd5b60058101546001805490830154604051600160e01b6323b872dd028152928502926001600160a01b03928316926323b872dd92611bd292899290911690869060040161491d565b602060405180830381600087803b158015611bec57600080fd5b505af1158015611c00573d6000803e3d6000fd5b505050506040513d601f19601f82011682018060405250611c2491908101906141a0565b506002805490830154604051600160e11b637f4c824d0281526001600160a01b039092169163fe99049a91611c6191309189918990600401614945565b600060405180830381600087803b158015611c7b57600080fd5b505af1158015611c8f573d6000803e3d6000fd5b5050506004830154611ca891508463ffffffff613a4116565b60048301819055611cbe578154611cbe90613a6c565b81546001830154600284015460048501546040517f8a5653bc9a777344f6718d3cadbcb89429a5373d7261b7ace32d6f9dcff558e194611d149490936001600160a01b03909116928a928a919089904290614b84565b60405180910390a15050505050565b6008546001600160a01b0382166000908152600b60209081526040918290205482518181528183028101909201909252606092918391908015611d8057816020015b611d6d613eb2565b815260200190600190039081611d655790505b5090506000805b600754811015611e8f5760078181548110611d9e57fe5b600091825260209091206005600690920201015460ff168015611df25750856001600160a01b031660078281548110611dd357fe5b60009182526020909120600160069092020101546001600160a01b0316145b15611e875760078181548110611e0457fe5b60009182526020918290206040805160c08101825260069093029091018054835260018101546001600160a01b031693830193909352600283015490820152600382015460608201526004820154608082015260059091015460ff16151560a08201528351849084908110611e7557fe5b60200260200101819052508160010191505b600101611d87565b5090949350505050565b600e8181548110611ea657fe5b600091825260209091200154905081565b611ebf612bae565b611ede57604051600160e51b62461bcd028152600401610b1590614a4d565b600080546040516001600160a01b03909116907f8be0079c531659141344cd1fd0a4f28419497f9722a3daafe3b4186f6b6457e0908390a3600080546001600160a01b0319169055565b6001546001600160a01b031681565b6060611f416139f4565b611f4a57600080fd5b600c546001600160a01b0316611f5f57600080fd5b825b82811161223e57611f70613eb2565b600c54604051600160e21b630b8d7de5028152600091829182918291829182916001600160a01b0390911690632e35f79490611fb0908b90600401614a98565b60c06040518083038186803b158015611fc857600080fd5b505afa158015611fdc573d6000803e3d6000fd5b505050506040513d601f19601f82011682018060405250612000919081019061427b565b6000868152600a6020526040902080546001600160a01b0319166001600160a01b038716179055949a5092985090965094509250905080156120e957600880546000888152601260205260408082208390556001830184559290527ff3f7a9fe364faab93b216da50a3214154f22a0a2b415b23a84c8169e8b636ee3018790556002549051600160e61b63020da8410281526001600160a01b039091169063836a1040906120b690879030908890600401614bfb565b600060405180830381600087803b1580156120d057600080fd5b505af11580156120e4573d6000803e3d6000fd5b505050505b9486526001600160a01b039384166020870190815260408701938452606087019283526080870191825294151560a08701908152600780546001808201835560009290925297517fa66cc928b5edb82af9bd49922954155ab7b0942694bea4ce44661d9a8736c68860069099029889015595517fa66cc928b5edb82af9bd49922954155ab7b0942694bea4ce44661d9a8736c689880180546001600160a01b031916919096161790945591517fa66cc928b5edb82af9bd49922954155ab7b0942694bea4ce44661d9a8736c68a860155517fa66cc928b5edb82af9bd49922954155ab7b0942694bea4ce44661d9a8736c68b850155517fa66cc928b5edb82af9bd49922954155ab7b0942694bea4ce44661d9a8736c68c840155517fa66cc928b5edb82af9bd49922954155ab7b0942694bea4ce44661d9a8736c68d909201805460ff19169215159290921790915501611f61565b506007805480602002602001604051908101604052809291908181526020016000905b828210156122d75760008481526020908190206040805160c08101825260068602909201805483526001808201546001600160a01b03168486015260028201549284019290925260038101546060840152600481015460808401526005015460ff16151560a08301529083529092019101612261565b50505050905092915050565b6122eb613ef3565b600d82815481106122f857fe5b6000918252602091829020604080516101408101825260099093029091018054835260018101546001600160a01b0316938301939093526002830154908201526003820154606082015260048201546080820152600582015460a0820152600682015460ff808216151560c08401526101009182900416151560e08301526007830154908201526008909101546101208201529050919050565b6000818152600a60205260408120546001600160a01b031680610ae057604051600160e51b62461bcd028152600401610b1590614a5d565b60006123df85858585600160008060006112cd565b90505b949350505050565b60608060018310156123fd57905061257a565b83801561240a5750600184015b60608460405190808252806020026020018201604052801561244657816020015b612433613eb2565b81526020019060019003908161242b5790505b5090506000825b600754811015612561576007818154811061246457fe5b600091825260209091206005600690920201015460ff1680156124b85750886001600160a01b03166007828154811061249957fe5b60009182526020909120600160069092020101546001600160a01b0316145b1561254d57600781815481106124ca57fe5b60009182526020918290206040805160c08101825260069093029091018054835260018101546001600160a01b031693830193909352600283015490820152600382015460608201526004820154608082015260059091015460ff16151560a0820152835184908490811061253b57fe5b60209081029190910101526001909101905b86821061255957612561565b60010161244d565b5080156125735750925061257a915050565b5091925050505b9392505050565b6004546040805182815260208084028201019091526060919082908280156125c357816020015b6125b0613f53565b8152602001906001900390816125a85790505b5090506000805b60035481101561108c57600381815481106125e157fe5b600091825260209091206006600790920201015460ff1615612697576003818154811061260a57fe5b60009182526020918290206040805160e08101825260079093029091018054835260018101546001600160a01b0316938301939093526002830154908201526003820154606082015260048201546080820152600582015460a082015260069091015460ff16151560c0820152835184908490811061268557fe5b60200260200101819052508160010191505b6001016125ca565b6126a7613f53565b600382815481106126b457fe5b60009182526020918290206040805160e08101825260079093029091018054835260018101546001600160a01b0316938301939093526002830154908201526003820154606082015260048201546080820152600582015460a082015260069091015460ff16151560c08201529050919050565b60606127326139f4565b61273b57600080fd5b600c546001600160a01b031661275057600080fd5b825b828111612ad657612761613ef3565b600c54604051600160e11b630769e3ab0281526000918291829182918291829182916001600160a01b031690630ed3c756906127a1908c90600401614a98565b60e06040518083038186803b1580156127b957600080fd5b505afa1580156127cd573d6000803e3d6000fd5b505050506040513d601f19601f820116820180604052506127f19190810190614302565b6000878152600f6020526040902080546001600160a01b0319166001600160a01b038816179055959c50939a50919850965094509250905080156128dc57600e80546000898152601060205260408082208390556001830184559290527fbb7b4a454dc3493923482f07822329ed19e8244eff582cc204f8554c3620c3fd018890556002549051600160e61b63020da8410281526001600160a01b039091169063836a1040906128a990889030908890600401614bfb565b600060405180830381600087803b1580156128c357600080fd5b505af11580156128d7573d6000803e3d6000fd5b505050505b9587526001600160a01b039485166020880190815260408801948552606088019384526080880192835260a0880191825295151560c08801908152600160e08901818152610100808b0183815260006101208d01818152600d8054808801825592529c517fd7b6990105719101dabeb77144f2a3385c8033acd3af97e9423a695e81ad1eb56009909202918201559a517fd7b6990105719101dabeb77144f2a3385c8033acd3af97e9423a695e81ad1eb68c0180546001600160a01b03191691909b161790995596517fd7b6990105719101dabeb77144f2a3385c8033acd3af97e9423a695e81ad1eb78a015594517fd7b6990105719101dabeb77144f2a3385c8033acd3af97e9423a695e81ad1eb889015592517fd7b6990105719101dabeb77144f2a3385c8033acd3af97e9423a695e81ad1eb988015590517fd7b6990105719101dabeb77144f2a3385c8033acd3af97e9423a695e81ad1eba870155517fd7b6990105719101dabeb77144f2a3385c8033acd3af97e9423a695e81ad1ebb86018054935160ff19949094169115159190911761ff0019169215159093029190911790915590517fd7b6990105719101dabeb77144f2a3385c8033acd3af97e9423a695e81ad1ebc83015591517fd7b6990105719101dabeb77144f2a3385c8033acd3af97e9423a695e81ad1ebd9091015501612752565b50600d805480602002602001604051908101604052809291908181526020016000905b828210156122d7576000848152602090819020604080516101408101825260098602909201805483526001808201546001600160a01b0316848601526002820154928401929092526003810154606084015260048101546080840152600581015460a0840152600681015460ff808216151560c08601526101009182900416151560e0850152600782015490840152600801546101208301529083529092019101612af9565b6000546001600160a01b031690565b6000546001600160a01b0316331490565b6000612bc9612bae565b612be857604051600160e51b62461bcd028152600401610b1590614a4d565b5060075490565b600e5490565b600c546001600160a01b031681565b6000612c0e6139f4565b612c1757600080fd5b612c2082613a6c565b612c28613f53565b60038381548110612c3557fe5b60009182526020918290206040805160e08101825260079093029091018054835260018101546001600160a01b03169383018490526002810154918301919091526003810154606083015260048101546080830152600581015460a08301526006015460ff16151560c082015291503014612d2157600254602082015160408084015160808501519151600160e11b637f4c824d0281526001600160a01b039094169363fe99049a93612cee9330939192600401614945565b600060405180830381600087803b158015612d0857600080fd5b505af1158015612d1c573d6000803e3d6000fd5b505050505b7f0e652dad8d8af80e1b2260cac59b8511db9190cd65710653f14c2eb210bea98b838260200151338460400151856080015142604051612d6696959493929190614aa6565b60405180910390a15090919050565b60088181548110611ea657fe5b60048181548110611ea657fe5b612d976139f4565b612da057600080fd5b600d8381548110612dad57fe5b600091825260209091206006600990920201015460ff16612dcd57600080fd5b81600d8481548110612ddb57fe5b906000526020600020906009020160060160016101000a81548160ff02191690831515021790555080600d8481548110612e1157fe5b9060005260206000209060090201600701819055507f4ab2ca3ccd11f4c1481df1e4550150cf6c33635f7b1c7864e9e400a449dcba0283838360405161191b93929190614d57565b612e616139f4565b612e6a57600080fd5b6001600160a01b03811615801590612e9057506001546001600160a01b03828116911614155b612eaf57604051600160e51b62461bcd028152600401610b1590614a3d565b600180546001600160a01b0319166001600160a01b0383161790556040517fa675768c20143028b535be7e8b7140c37f119b05dfa7a3691d326178a0c4438290610f1d90839061490f565b6000612f04612bae565b612f2357604051600160e51b62461bcd028152600401610b1590614a4d565b612f2b6139f4565b612f3457600080fd5b50600c546001600160a01b031690565b612f4c6139f4565b612f5557600080fd5b600082118015612f6d57506001600160a01b03831615155b612f7657600080fd5b600d8481548110612f8357fe5b600091825260209091206006600990920201015460ff16612fa357600080fd5b6000600d8581548110612fb257fe5b906000526020600020906009020190508281600401541015612fd357600080fd5b6001805490820154604051600160e01b6323b872dd02815284926001600160a01b03908116926323b872dd92613011928a921690869060040161491d565b602060405180830381600087803b15801561302b57600080fd5b505af115801561303f573d6000803e3d6000fd5b505050506040513d601f19601f8201168201806040525061306391908101906141a0565b506002805490830154604051600160e11b637f4c824d0281526001600160a01b039092169163fe99049a916130a09130918a918a90600401614945565b600060405180830381600087803b1580156130ba57600080fd5b505af11580156130ce573d6000803e3d6000fd5b50505060048301546130e791508563ffffffff613a4116565b600483018190556130fd5781546130fd90613a6c565b81546001830154600284015460048501546040517f13e400a3b7d9e675f7d01fc3ee6846c6d1341959deda5840c5f1d2070aae5a6694610ded9490936001600160a01b03909116928b928b919089904290614b84565b606061315d612bae565b61317c57604051600160e51b62461bcd028152600401610b1590614a4d565b6007805480602002602001604051908101604052809291908181526020016000905b82821015611a195760008481526020908190206040805160c08101825260068602909201805483526001808201546001600160a01b03168486015260028201549284019290925260038101546060840152600481015460808401526005015460ff16151560a0830152908352909201910161319e565b600061321e6139f4565b61322757600080fd5b61323082613cf9565b613238613ef3565b600d838154811061324557fe5b6000918252602091829020604080516101408101825260099093029091018054835260018101546001600160a01b03169383018490526002810154918301919091526003810154606083015260048101546080830152600581015460a0830152600681015460ff808216151560c08501526101009182900416151560e0840152600782015490830152600801546101208201529150301461335757600254602082015160408084015160808501519151600160e11b637f4c824d0281526001600160a01b039094169363fe99049a936133249330939192600401614945565b600060405180830381600087803b15801561333e57600080fd5b505af1158015613352573d6000803e3d6000fd5b505050505b7f919b13b71c3c92afb4d94e206237855b7a7e5f8fb910641f7ef9c90f4f15d57b838260200151338460400151856080015142604051612d6696959493929190614aa6565b60006133a66139f4565b6133af57600080fd5b6133b7613eb2565b6001600160a01b03868116602083810182815260408086018a8152606087018a8152608088018a8152600160a08a0181815260078054808d52808401825560009182528c517fa66cc928b5edb82af9bd49922954155ab7b0942694bea4ce44661d9a8736c688600683029081019190915598517fa66cc928b5edb82af9bd49922954155ab7b0942694bea4ce44661d9a8736c6898a0180546001600160a01b031990811692909e16918217905596517fa66cc928b5edb82af9bd49922954155ab7b0942694bea4ce44661d9a8736c68a8a015594517fa66cc928b5edb82af9bd49922954155ab7b0942694bea4ce44661d9a8736c68b89015592517fa66cc928b5edb82af9bd49922954155ab7b0942694bea4ce44661d9a8736c68c880155517fa66cc928b5edb82af9bd49922954155ab7b0942694bea4ce44661d9a8736c68d909601805460ff191696151596909617909555818152600a8652838120805490981690921790965560088054600986528383208190558085019091557ff3f7a9fe364faab93b216da50a3214154f22a0a2b415b23a84c8169e8b636ee301869055938452600b90925291205490613570908290613e06565b6001600160a01b0389166000908152600b60205260409081902091909155517fde7cdd89c5b2c71744ad16191ac4e6cf035fca94cc67f4a3386b824f680c022e906135be908a908590614983565b60405180910390a1509695505050505050565b60006135db612bae565b6135fa57604051600160e51b62461bcd028152600401610b1590614a4d565b50600d5490565b600d818154811061360e57fe5b60009182526020909120600990910201805460018201546002830154600384015460048501546005860154600687015460078801546008909801549698506001600160a01b0390951696939592949193909260ff8084169361010090041691908a565b600061367b6139f4565b61368457600080fd5b600d838154811061369157fe5b600091825260209091206006600990920201015460ff166136b157600080fd5b81600d84815481106136bf57fe5b9060005260206000209060090201600801819055507f1698896f892be4061686f92852bea888247db63e869aa6cfe7f766ad855f02a08383604051613705929190614d72565b60405180910390a192915050565b6060806001831015613726579050610ae0565b8380156137335750600184015b60608460405190808252806020026020018201604052801561376f57816020015b61375c613f53565b8152602001906001900390816137545790505b5090506000825b600354811015610ac7576003818154811061378d57fe5b600091825260209091206006600790920201015460ff161561384357600381815481106137b657fe5b60009182526020918290206040805160e08101825260079093029091018054835260018101546001600160a01b0316938301939093526002830154908201526003820154606082015260048201546080820152600582015460a082015260069091015460ff16151560c0820152835184908490811061383157fe5b60209081029190910101526001909101905b86821061384f57610ac7565b600101613776565b61385f612bae565b61387e57604051600160e51b62461bcd028152600401610b1590614a4d565b61388781613e2e565b50565b606080600183101561389d579050610ae0565b8380156138aa5750600184015b6060846040519080825280602002602001820160405280156138e657816020015b6138d3613ef3565b8152602001906001900390816138cb5790505b5090506000825b600d54811015610ac757600d818154811061390457fe5b600091825260209091206006600990920201015460ff16156139e057600d818154811061392d57fe5b6000918252602091829020604080516101408101825260099093029091018054835260018101546001600160a01b0316938301939093526002830154908201526003820154606082015260048201546080820152600582015460a0820152600682015460ff808216151560c08401526101009182900416151560e083015260078301549082015260089091015461012082015283518490849081106139ce57fe5b60209081029190910101526001909101905b8682106139ec57610ac7565b6001016138ed565b60006139fe612b9f565b6001600160a01b0316336001600160a01b03161480613a2757506002546001600160a01b031633145b80613a3c57506001546001600160a01b031633145b905090565b600082821115613a6657604051600160e51b62461bcd028152600401610b1590614a2d565b50900390565b60038181548110613a7957fe5b600091825260209091206006600790920201015460ff161515600114613a9e57600080fd5b600454600090613ab590600163ffffffff613a4116565b60008381526011602052604081205460048054939450909284908110613ad757fe5b906000526020600020015490508060048381548110613af257fe5b6000918252602080832090910192909255828152601190915260409020829055600454613b2690600163ffffffff613a4116565b613b31600482613f9b565b5060008481526011602052604081208190556003805486908110613b5157fe5b60009182526020909120600790910201600601805460ff191691151591909117905550505050565b60078181548110613b8657fe5b600091825260209091206005600690920201015460ff161515600114613bab57600080fd5b600854600090613bc290600163ffffffff613a4116565b60008381526009602052604081205460088054939450909284908110613be457fe5b906000526020600020015490508060088381548110613bff57fe5b6000918252602080832090910192909255828152600990915260409020829055600854613c3390600163ffffffff613a4116565b613c3e600882613f9b565b5060008481526009602052604081208190556007805486908110613c5e57fe5b60009182526020822060069190910201600501805460ff1916921515929092179091556007805486908110613c8f57fe5b60009182526020808320600160069093020191909101546001600160a01b0316808352600b9091526040909120549091508015613cf157613cd781600163ffffffff613a4116565b6001600160a01b0383166000908152600b60205260409020555b505050505050565b600d8181548110613d0657fe5b600091825260209091206006600990920201015460ff161515600114613d2b57600080fd5b600e54600090613d4290600163ffffffff613a4116565b600083815260106020526040812054600e8054939450909284908110613d6457fe5b9060005260206000200154905080600e8381548110613d7f57fe5b6000918252602080832090910192909255828152601090915260409020829055600e54613db390600163ffffffff613a4116565b613dbe600e82613f9b565b506000848152601060205260408120819055600d805486908110613dde57fe5b60009182526020909120600990910201600601805460ff191691151591909117905550505050565b60008282018381101561257a57604051600160e51b62461bcd028152600401610b15906149fd565b6001600160a01b038116613e5757604051600160e51b62461bcd028152600401610b15906149ed565b600080546040516001600160a01b03808516939216917f8be0079c531659141344cd1fd0a4f28419497f9722a3daafe3b4186f6b6457e091a3600080546001600160a01b0319166001600160a01b0392909216919091179055565b6040518060c001604052806000815260200160006001600160a01b031681526020016000815260200160008152602001600081526020016000151581525090565b6040518061014001604052806000815260200160006001600160a01b031681526020016000815260200160008152602001600081526020016000815260200160001515815260200160001515815260200160008152602001600081525090565b6040518060e001604052806000815260200160006001600160a01b03168152602001600081526020016000815260200160008152602001600081526020016000151581525090565b815481835581811115613fbf57600083815260209020613fbf918101908301613fc4565b505050565b61093191905b80821115613fde5760008155600101613fca565b5090565b8035610ae081614dc1565b8051610ae081614dc1565b8035610ae081614dd5565b8051610ae081614dd5565b8035610ae081614dde565b8051610ae081614dde565b60006020828403121561403657600080fd5b60006123e28484613fe2565b60008060006060848603121561405757600080fd5b60006140638686613fe2565b93505060206140748682870161400e565b92505060406140858682870161400e565b9150509250925092565b600080600080608085870312156140a557600080fd5b60006140b18787613fe2565b94505060206140c28782880161400e565b93505060406140d38782880161400e565b92505060606140e48782880161400e565b91505092959194509250565b600080600080600080600080610100898b03121561410d57600080fd5b60006141198b8b613fe2565b985050602061412a8b828c0161400e565b975050604061413b8b828c0161400e565b965050606061414c8b828c0161400e565b955050608061415d8b828c01613ff8565b94505060a061416e8b828c01613ff8565b93505060c061417f8b828c0161400e565b92505060e06141908b828c0161400e565b9150509295985092959890939650565b6000602082840312156141b257600080fd5b60006123e28484614003565b6000602082840312156141d057600080fd5b60006123e2848461400e565b600080604083850312156141ef57600080fd5b60006141fb858561400e565b925050602061420c85828601613fe2565b9150509250929050565b60008060006060848603121561422b57600080fd5b6000614237868661400e565b935050602061407486828701613fe2565b6000806000806080858703121561425e57600080fd5b600061426a878761400e565b94505060206140c287828801613fe2565b60008060008060008060c0878903121561429457600080fd5b60006142a08989614019565b96505060206142b189828a01613fed565b95505060406142c289828a01614019565b94505060606142d389828a01614019565b93505060806142e489828a01614019565b92505060a06142f589828a01614003565b9150509295509295509295565b600080600080600080600060e0888a03121561431d57600080fd5b60006143298a8a614019565b975050602061433a8a828b01613fed565b965050604061434b8a828b01614019565b955050606061435c8a828b01614019565b945050608061436d8a828b01614019565b93505060a061437e8a828b01614019565b92505060c061438f8a828b01614003565b91505092959891949750929550565b6000806000606084860312156143b357600080fd5b60006143bf868661400e565b935050602061407486828701613ff8565b600080604083850312156143e357600080fd5b60006143ef858561400e565b925050602061420c8582860161400e565b600061440c838361474c565b50506101400190565b60006144218383614813565b505060e00190565b60006144358383614896565b505060c00190565b61444681614daf565b82525050565b61444681614d93565b600061446082614d86565b61446a8185614d8a565b935061447583614d80565b8060005b838110156144a357815161448d8882614400565b975061449883614d80565b925050600101614479565b509495945050505050565b60006144b982614d86565b6144c38185614d8a565b93506144ce83614d80565b8060005b838110156144a35781516144e68882614415565b97506144f183614d80565b9250506001016144d2565b600061450782614d86565b6145118185614d8a565b935061451c83614d80565b8060005b838110156144a35781516145348882614429565b975061453f83614d80565b925050600101614520565b61444681614d9e565b61444681614db6565b6000614569602683614d8a565b7f4f776e61626c653a206e6577206f776e657220697320746865207a65726f20618152600160d01b6564647265737302602082015260400192915050565b60006145b4601b83614d8a565b7f536166654d6174683a206164646974696f6e206f766572666c6f770000000000815260200192915050565b60006145ed603083614d8a565b7f596f752063616e206e6f74207075726368617365207468652070726f647563748152600160811b6f103cb7ba903932b3b4b9ba32b932b21702602082015260400192915050565b6000614642602583614d8a565b7f596f7520617265206e6f7420746865206f776e6572206f66207468652070726f8152600160d91b64323ab1ba1702602082015260400192915050565b600061468c601e83614d8a565b7f536166654d6174683a207375627472616374696f6e206f766572666c6f770000815260200192915050565b60006146c5600b83614d8a565b600160a91b6a2fb0b232391032b93937b902815260200192915050565b60006146ef602083614d8a565b7f4f776e61626c653a2063616c6c6572206973206e6f7420746865206f776e6572815260200192915050565b6000614728601283614d8a565b600160721b71141c9bd91d58dd081a5cc81a5b9d985b1a5902815260200192915050565b805161014083019061475e8482614906565b506020820151614771602085018261444c565b5060408201516147846040850182614906565b5060608201516147976060850182614906565b5060808201516147aa6080850182614906565b5060a08201516147bd60a0850182614906565b5060c08201516147d060c085018261454a565b5060e08201516147e360e085018261454a565b506101008201516147f8610100850182614906565b5061012082015161480d610120850182614906565b50505050565b805160e08301906148248482614906565b506020820151614837602085018261444c565b50604082015161484a6040850182614906565b50606082015161485d6060850182614906565b5060808201516148706080850182614906565b5060a082015161488360a0850182614906565b5060c082015161480d60c085018261454a565b805160c08301906148a78482614906565b5060208201516148ba602085018261444c565b5060408201516148cd6040850182614906565b5060608201516148e06060850182614906565b5060808201516148f36080850182614906565b5060a082015161480d60a085018261454a565b61444681610931565b60208101610ae0828461444c565b6060810161492b828661444c565b614938602083018561444c565b6123e26040830184614906565b60808101614953828761444c565b614960602083018661444c565b61496d6040830185614906565b61497a6060830184614906565b95945050505050565b60408101614991828561444c565b61257a6020830184614906565b6020808252810161257a8184614455565b6020808252810161257a81846144ae565b6020808252810161257a81846144fc565b60208101610ae0828461454a565b60208101610ae08284614553565b60208082528101610ae08161455c565b60208082528101610ae0816145a7565b60208082528101610ae0816145e0565b60208082528101610ae081614635565b60208082528101610ae08161467f565b60208082528101610ae0816146b8565b60208082528101610ae0816146e2565b60208082528101610ae08161471b565b6101408101610ae0828461474c565b60e08101610ae08284614813565b60c08101610ae08284614896565b60208101610ae08284614906565b60c08101614ab48289614906565b614ac1602083018861444c565b614ace604083018761443d565b614adb6060830186614906565b614ae86080830185614906565b614af560a0830184614906565b979650505050505050565b60c08101614b0e8289614906565b614b1b602083018861444c565b614ace604083018761444c565b60e08101614b36828a614906565b614b43602083018961444c565b614b50604083018861444c565b614b5d6060830187614906565b614b6a6080830186614906565b614b7760a0830185614906565b61150f60c0830184614906565b6101008101614b93828b614906565b614ba0602083018a61444c565b614bad604083018961444c565b614bba6060830188614906565b614bc76080830187614906565b614bd460a0830186614906565b614be160c0830185614906565b614bee60e0830184614906565b9998505050505050505050565b6060810161492b8286614906565b608081016149538287614906565b60c08101614c258289614906565b614c32602083018861444c565b614c3f6040830187614906565b614c4c6060830186614906565b614c596080830185614906565b614af560a083018461454a565b60e08101614c74828a614906565b614c81602083018961444c565b614c8e6040830188614906565b614c9b6060830187614906565b614ca86080830186614906565b614cb560a0830185614906565b61150f60c083018461454a565b6101408101614cd1828d614906565b614cde602083018c61444c565b614ceb604083018b614906565b614cf8606083018a614906565b614d056080830189614906565b614d1260a0830188614906565b614d1f60c083018761454a565b614d2c60e083018661454a565b614d3a610100830185614906565b614d48610120830184614906565b9b9a5050505050505050505050565b60608101614d658286614906565b614938602083018561454a565b604081016149918285614906565b60200190565b5190565b90815260200190565b6000610ae082614da3565b151590565b6001600160a01b031690565b6000610ae0825b6000610ae082614d93565b614dca81614d93565b811461388757600080fd5b614dca81614d9e565b614dca8161093156fea265627a7a723058206f69e301fa0832afb7f8a1a11349193677c556f9c1ce46125ea69002af8470df6c6578706572696d656e74616cf50037",
  "source": "pragma solidity ^0.5.0;\nimport \"./ExsMarketBase.sol\";\npragma experimental ABIEncoderV2;\ncontract ExsMarketV2 is ExsMarketBase {\n  // constructor(address _coin, address _token) public ExsMarket(_coin, _token) {}\n  constructor(address _coin, address _token) public  ExsMarketBase(_coin, _token){\n  }\n\n  struct DynamicProduct {\n    uint productId;\n    address owner;\n    uint tokenId;\n    uint totalAmount;\n    uint amount;\n    uint perPrice;\n    bool isValid;\n    bool useDynamicPrice;\n    uint deltaPrice;\n    uint fee;\n  }\n\n  ExsMarket public oldMarketContract;\n\n  DynamicProduct[] public allDynamicProducts;\n  uint256[] public validDynamicProductIds;\n  mapping (uint256 => address) dynamicProductOwners;\n  mapping(uint256 => uint256) private validDynamicProductIndex;\n  mapping(uint256 => uint256) private validServiceProductIndex;\n  mapping(uint256 => uint256) private validUserProductIndex;\n  event SetOldMarketAddress(address _addr);\n  event RegisterDynamicProduct(address _owner, uint256 _productId);\n  event PurchaseDynamicProduct(uint256 _productId, address _owner, address _buyer, uint256 _tokenId, uint256 _amount, uint256 _amountLeft, uint256 _price, uint256 _timestamp);\n  event PurchaseDynamicProductManually(uint256 _productId, address _owner, address _buyer, uint256 _tokenId, uint256 _amount, uint256 _amountLeft, uint256 _price, uint256 _timestamp);\n  event CancelDynamicProductSale(uint _productId, address _owner, address _requester, uint256 _tokenId, uint256 _amount, uint256 _timestamp);\n  event ChangeDynamicPrice(uint _productId, bool _useDynamicPrice, uint _deltaPrice);\n  event ChangeDynamicPriceFee(uint _productId, uint _fee);\n  event DoNotMatchPrice(uint _productId, address _requester, uint price, uint reqPrice);\n\n\n  function setOldMarketAddress(address _addr)  public {\n    require(isOwnerOrOperator());\n    require(_addr != address(0) && address(oldMarketContract) != _addr, \"_addr error\");\n    oldMarketContract = ExsMarket(address(_addr));\n    emit SetOldMarketAddress(_addr);\n  }\n\n  function getOldMarketAddress() onlyOwner public view returns(address) {\n    require(isOwnerOrOperator());\n    return address(oldMarketContract);\n  }\n\n  function countOfValidDynamicProducts() public view returns (uint) {\n    return validDynamicProductIds.length;\n   }\n  function countOfAllDynamicProducts() onlyOwner public view returns (uint) {\n    return allDynamicProducts.length;\n  }\n  function getDynamicProduct(uint _productId) public view returns (DynamicProduct memory) {\n    return allDynamicProducts[_productId];\n  }\n  function isOwnerOrOperator() private view returns (bool) {\n    return (msg.sender == owner() || msg.sender == address(tokenContract) || msg.sender == address(coinContract));\n  }\n   function registerServiceProduct(address _owner, uint256 _tokenId, uint256 _totalAmount, uint256 _perPrice) public returns(uint) {\n     return registerDynamicProduct(_owner, _tokenId, _totalAmount, _perPrice, true, false, 0, 0);\n   }\n   function registerDynamicProduct(address _owner, uint256 _tokenId, uint256 _totalAmount, uint256 _perPrice, bool _isValid, bool _useDynamicPrice, uint256 _deltaPrice, uint256 _fee) public returns(uint) {\n     DynamicProduct memory product;\n     product.owner = _owner;\n     product.tokenId = _tokenId;\n     product.totalAmount = _totalAmount;\n     product.amount = _totalAmount;\n     product.perPrice = _perPrice;\n     product.isValid = _isValid;\n     product.useDynamicPrice = _useDynamicPrice;\n     product.deltaPrice = _deltaPrice;\n     product.fee = _fee;\n     uint productId =  allDynamicProducts.length;\n     product.productId = productId;\n     allDynamicProducts.push(product);\n     dynamicProductOwners[productId] = product.owner;\n     validDynamicProductIndex[productId] = validDynamicProductIds.length;\n     validDynamicProductIds.push(productId);\n     emit RegisterDynamicProduct(_owner, productId);\n     return productId;\n   }\n   function getValidDynamicProductAll() public view returns (DynamicProduct[] memory) {\n     uint validProductsCount = validDynamicProductIds.length;\n     DynamicProduct[] memory products = new DynamicProduct[](validProductsCount);\n     uint validIndex = 0;\n     for (uint i = 0; i < allDynamicProducts.length; i++) {\n        if (allDynamicProducts[i].isValid) {\n          products[validIndex] = allDynamicProducts[i];\n          validIndex = validIndex + 1;\n        }\n     }\n     return products;\n   }\n   function getValidDynamicProducts(uint lastProductId, uint count) public view returns (DynamicProduct[] memory) {\n     DynamicProduct [] memory tempProducts;\n     if (count < 1) {\n       return tempProducts;\n     }\n     uint startId = lastProductId;\n     if (lastProductId > 0){\n       startId = lastProductId + 1;\n     }\n      DynamicProduct[] memory products = new DynamicProduct[](count);\n       uint counter = 0;\n       for (uint i = startId; i < allDynamicProducts.length; i++) {\n          if (allDynamicProducts[i].isValid) {\n              products[counter] = allDynamicProducts[i];\n              counter++;\n          }\n          if (counter >=count) {\n            break;\n          }\n       }\n      if (counter > 0){\n        return products;\n      }\n    return tempProducts;\n  }\n  function getAllDynamicProducts() onlyOwner public view returns (DynamicProduct[] memory) {\n    return allDynamicProducts;\n  }\n  function getAllUserProducts() onlyOwner public view returns (UserProduct[] memory) {\n    return allUserProducts;\n  }\n  function cancelDynamicProductSale(uint _productId) public returns (uint)\n  {\n      require(isOwnerOrOperator());\n      invalidateDynamicProduct(_productId);\n      DynamicProduct memory product = allDynamicProducts[_productId];\n      if (product.owner != address(this)) {\n          tokenContract.transferFrom(address(this), product.owner, product.tokenId, product.amount);\n      }\n      emit CancelDynamicProductSale(_productId, product.owner, msg.sender, product.tokenId, product.amount, block.timestamp);\n      return _productId;\n  }\n  function invalidateDynamicProduct(uint _productId) private {\n    require(allDynamicProducts[_productId].isValid == true);\n    uint256 lastIndex = validDynamicProductIds.length.sub(1);\n    uint256 removeIndex = validDynamicProductIndex[_productId];\n    uint256 lastProductId = validDynamicProductIds[lastIndex];\n    validDynamicProductIds[removeIndex] =  lastProductId;\n    validDynamicProductIndex[lastProductId] = removeIndex;\n    validDynamicProductIds.length = validDynamicProductIds.length.sub(1);\n    validDynamicProductIndex[_productId] = 0; //no meaning\n    allDynamicProducts[_productId].isValid = false;\n  }\n  function purchaseDynamicProduct(uint256 _productId, address _buyer, uint256 _amount, uint256 _reqPrice)  public payable {\n     require(isOwnerOrOperator());\n     require(_amount > 0 && _buyer != address(0));\n     require(allDynamicProducts[_productId].isValid);\n     DynamicProduct storage product = allDynamicProducts[_productId];\n     require(product.amount >= _amount);\n     uint256 price = 0;\n\n     if (product.useDynamicPrice){\n       uint256 dyPrice = (product.totalAmount - product.amount) * product.deltaPrice;\n       price = (product.perPrice + dyPrice) * _amount + product.fee;\n     }\n     else {\n       price = product.perPrice * _amount + product.fee;\n     }\n\n     if (_reqPrice != price) {\n       emit DoNotMatchPrice(_productId, _buyer, price, _reqPrice);\n     }\n     require(_reqPrice == price);\n     coinContract.transferFrom(_buyer, product.owner, price);\n     tokenContract.transferFrom(address(this), _buyer, product.tokenId, _amount);\n     product.amount = product.amount.sub(_amount);\n\n     if (product.amount == 0) {\n       invalidateServiceProduct(product.productId);\n     }\n     emit PurchaseDynamicProduct(product.productId, product.owner, _buyer, product.tokenId, _amount, product.amount, price, block.timestamp);\n   }\n   function purchaseDynamicProductManually(uint256 _productId, address _buyer, uint256 _amount, uint256 _manualPrice)  public payable {\n     require(isOwnerOrOperator());\n     require(_amount > 0 && _buyer != address(0));\n     require(allDynamicProducts[_productId].isValid);\n     DynamicProduct storage product = allDynamicProducts[_productId];\n     require(product.amount >= _amount);\n     uint256 price = _manualPrice;\n     coinContract.transferFrom(_buyer, product.owner, price);\n     tokenContract.transferFrom(address(this), _buyer, product.tokenId, _amount);\n     product.amount = product.amount.sub(_amount);\n\n     if (product.amount == 0) {\n       invalidateServiceProduct(product.productId);\n     }\n\n     emit PurchaseDynamicProductManually(product.productId, product.owner, _buyer, product.tokenId, _amount, product.amount, price, block.timestamp);\n   }\n   function invalidateServiceProduct(uint _productId) private {\n     require(allServiceProducts[_productId].isValid == true);\n     uint256 lastIndex = validServiceProductIds.length.sub(1);\n     uint256 removeIndex = validServiceProductIndex[_productId];\n     uint256 lastProductId = validServiceProductIds[lastIndex];\n     validServiceProductIds[removeIndex] =  lastProductId;\n     validServiceProductIndex[lastProductId] = removeIndex;\n     validServiceProductIds.length = validServiceProductIds.length.sub(1);\n     validServiceProductIndex[_productId] = 0; //no meaning\n     allServiceProducts[_productId].isValid = false;\n   }\n   // function copyServiceProductFromOldMarketContract(uint totalCount) public payable returns (DynamicProduct[] memory) {\n   function copyServiceProductFromOldMarketContract(uint startIndex, uint endIndex) public payable returns (DynamicProduct[] memory) {\n     require(isOwnerOrOperator());\n     require(address(oldMarketContract) != address(0));\n     // uint productCount = totalCount;\n\n\n     for (uint i = startIndex; i <= endIndex; i++) {\n       DynamicProduct memory dp;\n       (uint256 productId, address owner, uint256 tokenId, uint256 totalAmount, uint256 amount, uint256 perPrice, bool isValid) = oldMarketContract.allServiceProducts(i);\n       dynamicProductOwners[productId] = owner;\n       if (isValid) {\n         validDynamicProductIndex[productId] = validDynamicProductIds.length;\n         validDynamicProductIds.push(productId);\n         // tokenContract.setOperator(address(oldMarketContract), msg.sender, true);\n         // tokenContract.setOperator(owner, address(this), true);\n\n         // tokenContract.transferFrom(address(oldMarketContract), address(this), tokenId, amount);\n         tokenContract.mint(tokenId, address(this), amount);\n       }\n       dp.productId = productId;\n       dp.owner = owner;\n       dp.tokenId = tokenId;\n       dp.totalAmount = totalAmount;\n       dp.amount = amount;\n       dp.perPrice = perPrice;\n       dp.isValid = isValid;\n       dp.useDynamicPrice = true;\n       dp.deltaPrice = 1;\n       dp.fee = 0;\n       allDynamicProducts.push(dp);\n     }\n     return allDynamicProducts;\n   }\n   // function copyUserProductFromOldMarketContract(uint totalCount) public payable returns (UserProduct[] memory) {\n   function copyUserProductFromOldMarketContract(uint startIndex, uint endIndex) public payable returns (UserProduct[] memory) {\n     require(isOwnerOrOperator());\n     require(address(oldMarketContract) != address(0));\n\n     // uint productCount = totalCount;\n     // for (uint i = 0; i < productCount; i++) {\n     for (uint i = startIndex; i <= endIndex; i++) {\n       UserProduct memory up;\n       (uint productId, address owner, uint tokenId, uint amount, uint price, bool isValid) = oldMarketContract.allUserProducts(i);\n       userProductOwners[productId] = owner;\n       if (isValid) {\n         validUserProductIndex[productId] = validUserProductIds.length;\n         validUserProductIds.push(productId);\n         // tokenContract.setOperator(address(oldMarketContract), msg.sender, true);\n         // tokenContract.setOperator(address(this), msg.sender, true);\n         // tokenContract.transferFrom(address(oldMarketContract), address(this), tokenId, amount);\n          tokenContract.mint(tokenId, address(this), amount);\n       }\n       up.productId = productId;\n       up.owner = owner;\n       up.tokenId = tokenId;\n       up.amount = amount;\n       up.price = price;\n       up.isValid = isValid;\n       allUserProducts.push(up);\n     }\n     return allUserProducts;\n   }\n   function changeDynamicPrice(uint _productId, bool _useDynamicPrice, uint _deltaPrice) public {\n     require(isOwnerOrOperator());\n     require(allDynamicProducts[_productId].isValid);\n     allDynamicProducts[_productId].useDynamicPrice = _useDynamicPrice;\n     allDynamicProducts[_productId].deltaPrice = _deltaPrice;\n     emit ChangeDynamicPrice(_productId, _useDynamicPrice, _deltaPrice);\n   }\n   function changeDynamicPriceFee(uint _productId, uint _fee) public returns (bool) {\n     require(isOwnerOrOperator());\n     require(allDynamicProducts[_productId].isValid);\n     allDynamicProducts[_productId].fee = _fee;\n     emit ChangeDynamicPriceFee(_productId, _fee);\n   }\n}\n",
  "sourcePath": "/Users/DK/work/ExSports/Git/ExSports/blockchain/ExSports-Service/smartContract/contracts/ExsMarket/ExsMarketV2.sol",
  "compiler": {
    "name": "solc",
    "version": "0.5.8+commit.23d335f2.Emscripten.clang"
  },
  "schemaVersion": "3.0.16",
  "updatedAt": "2020-05-27T06:34:03.732Z",
  "devdoc": {
    "methods": {
      "isOwner()": {
        "details": "Returns true if the caller is the current owner."
      },
      "owner()": {
        "details": "Returns the address of the current owner."
      },
      "renounceOwnership()": {
        "details": "Leaves the contract without owner. It will not be possible to call `onlyOwner` functions anymore. Can only be called by the current owner.     * > Note: Renouncing ownership will leave the contract without an owner, thereby removing any functionality that is only available to the owner."
      },
      "transferOwnership(address)": {
        "details": "Transfers ownership of the contract to a new account (`newOwner`). Can only be called by the current owner."
      }
    }
  },
  "userdoc": {
    "methods": {}
  }
}