{
  "contractName": "ExsMarket",
  "abi": [
    {
      "constant": true,
      "inputs": [
        {
          "name": "",
          "type": "uint256"
        }
      ],
      "name": "allServiceProducts",
      "outputs": [
        {
          "name": "productId",
          "type": "uint256"
        },
        {
          "name": "owner",
          "type": "address"
        },
        {
          "name": "tokenId",
          "type": "uint256"
        },
        {
          "name": "totalAmount",
          "type": "uint256"
        },
        {
          "name": "amount",
          "type": "uint256"
        },
        {
          "name": "perPrice",
          "type": "uint256"
        },
        {
          "name": "isValid",
          "type": "bool"
        }
      ],
      "payable": false,
      "stateMutability": "view",
      "type": "function"
    },
    {
      "constant": true,
      "inputs": [
        {
          "name": "",
          "type": "uint256"
        }
      ],
      "name": "allUserProducts",
      "outputs": [
        {
          "name": "productId",
          "type": "uint256"
        },
        {
          "name": "owner",
          "type": "address"
        },
        {
          "name": "tokenId",
          "type": "uint256"
        },
        {
          "name": "amount",
          "type": "uint256"
        },
        {
          "name": "price",
          "type": "uint256"
        },
        {
          "name": "isValid",
          "type": "bool"
        }
      ],
      "payable": false,
      "stateMutability": "view",
      "type": "function"
    },
    {
      "constant": true,
      "inputs": [],
      "name": "tokenContract",
      "outputs": [
        {
          "name": "",
          "type": "address"
        }
      ],
      "payable": false,
      "stateMutability": "view",
      "type": "function"
    },
    {
      "constant": false,
      "inputs": [],
      "name": "renounceOwnership",
      "outputs": [],
      "payable": false,
      "stateMutability": "nonpayable",
      "type": "function"
    },
    {
      "constant": true,
      "inputs": [],
      "name": "coinContract",
      "outputs": [
        {
          "name": "",
          "type": "address"
        }
      ],
      "payable": false,
      "stateMutability": "view",
      "type": "function"
    },
    {
      "constant": true,
      "inputs": [],
      "name": "owner",
      "outputs": [
        {
          "name": "",
          "type": "address"
        }
      ],
      "payable": false,
      "stateMutability": "view",
      "type": "function"
    },
    {
      "constant": true,
      "inputs": [],
      "name": "isOwner",
      "outputs": [
        {
          "name": "",
          "type": "bool"
        }
      ],
      "payable": false,
      "stateMutability": "view",
      "type": "function"
    },
    {
      "constant": true,
      "inputs": [
        {
          "name": "",
          "type": "uint256"
        }
      ],
      "name": "validUserProductIds",
      "outputs": [
        {
          "name": "",
          "type": "uint256"
        }
      ],
      "payable": false,
      "stateMutability": "view",
      "type": "function"
    },
    {
      "constant": true,
      "inputs": [
        {
          "name": "",
          "type": "uint256"
        }
      ],
      "name": "validServiceProductIds",
      "outputs": [
        {
          "name": "",
          "type": "uint256"
        }
      ],
      "payable": false,
      "stateMutability": "view",
      "type": "function"
    },
    {
      "constant": false,
      "inputs": [
        {
          "name": "newOwner",
          "type": "address"
        }
      ],
      "name": "transferOwnership",
      "outputs": [],
      "payable": false,
      "stateMutability": "nonpayable",
      "type": "function"
    },
    {
      "inputs": [
        {
          "name": "_coin",
          "type": "address"
        },
        {
          "name": "_token",
          "type": "address"
        }
      ],
      "payable": false,
      "stateMutability": "nonpayable",
      "type": "constructor"
    },
    {
      "anonymous": false,
      "inputs": [
        {
          "indexed": false,
          "name": "_addr",
          "type": "address"
        }
      ],
      "name": "SetCoinAddress",
      "type": "event"
    },
    {
      "anonymous": false,
      "inputs": [
        {
          "indexed": false,
          "name": "_addr",
          "type": "address"
        }
      ],
      "name": "SetTokenAddress",
      "type": "event"
    },
    {
      "anonymous": false,
      "inputs": [
        {
          "indexed": false,
          "name": "_owner",
          "type": "address"
        },
        {
          "indexed": false,
          "name": "_productId",
          "type": "uint256"
        }
      ],
      "name": "RegisterServiceProduct",
      "type": "event"
    },
    {
      "anonymous": false,
      "inputs": [
        {
          "indexed": false,
          "name": "_productId",
          "type": "uint256"
        },
        {
          "indexed": false,
          "name": "_owner",
          "type": "address"
        },
        {
          "indexed": false,
          "name": "_buyer",
          "type": "address"
        },
        {
          "indexed": false,
          "name": "_tokenId",
          "type": "uint256"
        },
        {
          "indexed": false,
          "name": "_amount",
          "type": "uint256"
        },
        {
          "indexed": false,
          "name": "_amountLeft",
          "type": "uint256"
        },
        {
          "indexed": false,
          "name": "_price",
          "type": "uint256"
        },
        {
          "indexed": false,
          "name": "_timestamp",
          "type": "uint256"
        }
      ],
      "name": "PurchaseServiceProduct",
      "type": "event"
    },
    {
      "anonymous": false,
      "inputs": [
        {
          "indexed": false,
          "name": "_owner",
          "type": "address"
        },
        {
          "indexed": false,
          "name": "_productId",
          "type": "uint256"
        }
      ],
      "name": "RegisterUserProduct",
      "type": "event"
    },
    {
      "anonymous": false,
      "inputs": [
        {
          "indexed": false,
          "name": "_productId",
          "type": "uint256"
        },
        {
          "indexed": false,
          "name": "_owner",
          "type": "address"
        },
        {
          "indexed": false,
          "name": "_buyer",
          "type": "address"
        },
        {
          "indexed": false,
          "name": "_tokenId",
          "type": "uint256"
        },
        {
          "indexed": false,
          "name": "_amount",
          "type": "uint256"
        },
        {
          "indexed": false,
          "name": "_price",
          "type": "uint256"
        },
        {
          "indexed": false,
          "name": "_timestamp",
          "type": "uint256"
        }
      ],
      "name": "PurchaseUserProduct",
      "type": "event"
    },
    {
      "anonymous": false,
      "inputs": [
        {
          "indexed": false,
          "name": "_productId",
          "type": "uint256"
        },
        {
          "indexed": false,
          "name": "_owner",
          "type": "address"
        },
        {
          "indexed": false,
          "name": "_requester",
          "type": "address"
        },
        {
          "indexed": false,
          "name": "_tokenId",
          "type": "uint256"
        },
        {
          "indexed": false,
          "name": "_amount",
          "type": "uint256"
        },
        {
          "indexed": false,
          "name": "_timestamp",
          "type": "uint256"
        }
      ],
      "name": "CancelServiceProductSale",
      "type": "event"
    },
    {
      "anonymous": false,
      "inputs": [
        {
          "indexed": false,
          "name": "_productId",
          "type": "uint256"
        },
        {
          "indexed": false,
          "name": "_owner",
          "type": "address"
        },
        {
          "indexed": false,
          "name": "_requester",
          "type": "address"
        },
        {
          "indexed": false,
          "name": "_tokenId",
          "type": "uint256"
        },
        {
          "indexed": false,
          "name": "_amount",
          "type": "uint256"
        },
        {
          "indexed": false,
          "name": "_timestamp",
          "type": "uint256"
        }
      ],
      "name": "CancelUserProductSale",
      "type": "event"
    },
    {
      "anonymous": false,
      "inputs": [
        {
          "indexed": true,
          "name": "previousOwner",
          "type": "address"
        },
        {
          "indexed": true,
          "name": "newOwner",
          "type": "address"
        }
      ],
      "name": "OwnershipTransferred",
      "type": "event"
    },
    {
      "constant": false,
      "inputs": [
        {
          "name": "_addr",
          "type": "address"
        }
      ],
      "name": "setCoinAddress",
      "outputs": [],
      "payable": false,
      "stateMutability": "nonpayable",
      "type": "function"
    },
    {
      "constant": true,
      "inputs": [],
      "name": "getCoinAddress",
      "outputs": [
        {
          "name": "",
          "type": "address"
        }
      ],
      "payable": false,
      "stateMutability": "view",
      "type": "function"
    },
    {
      "constant": false,
      "inputs": [
        {
          "name": "_addr",
          "type": "address"
        }
      ],
      "name": "setTokenAddress",
      "outputs": [],
      "payable": false,
      "stateMutability": "nonpayable",
      "type": "function"
    },
    {
      "constant": true,
      "inputs": [],
      "name": "getTokenAddress",
      "outputs": [
        {
          "name": "",
          "type": "address"
        }
      ],
      "payable": false,
      "stateMutability": "view",
      "type": "function"
    },
    {
      "constant": true,
      "inputs": [],
      "name": "countOfValidServiceProducts",
      "outputs": [
        {
          "name": "",
          "type": "uint256"
        }
      ],
      "payable": false,
      "stateMutability": "view",
      "type": "function"
    },
    {
      "constant": true,
      "inputs": [],
      "name": "countOfAllServiceProducts",
      "outputs": [
        {
          "name": "",
          "type": "uint256"
        }
      ],
      "payable": false,
      "stateMutability": "view",
      "type": "function"
    },
    {
      "constant": true,
      "inputs": [],
      "name": "countOfValidUserProducts",
      "outputs": [
        {
          "name": "",
          "type": "uint256"
        }
      ],
      "payable": false,
      "stateMutability": "view",
      "type": "function"
    },
    {
      "constant": true,
      "inputs": [],
      "name": "countOfAllUserProducts",
      "outputs": [
        {
          "name": "",
          "type": "uint256"
        }
      ],
      "payable": false,
      "stateMutability": "view",
      "type": "function"
    },
    {
      "constant": true,
      "inputs": [
        {
          "name": "_productId",
          "type": "uint256"
        }
      ],
      "name": "getServiceProduct",
      "outputs": [
        {
          "components": [
            {
              "name": "productId",
              "type": "uint256"
            },
            {
              "name": "owner",
              "type": "address"
            },
            {
              "name": "tokenId",
              "type": "uint256"
            },
            {
              "name": "totalAmount",
              "type": "uint256"
            },
            {
              "name": "amount",
              "type": "uint256"
            },
            {
              "name": "perPrice",
              "type": "uint256"
            },
            {
              "name": "isValid",
              "type": "bool"
            }
          ],
          "name": "",
          "type": "tuple"
        }
      ],
      "payable": false,
      "stateMutability": "view",
      "type": "function"
    },
    {
      "constant": true,
      "inputs": [
        {
          "name": "_productId",
          "type": "uint256"
        }
      ],
      "name": "getUserProduct",
      "outputs": [
        {
          "components": [
            {
              "name": "productId",
              "type": "uint256"
            },
            {
              "name": "owner",
              "type": "address"
            },
            {
              "name": "tokenId",
              "type": "uint256"
            },
            {
              "name": "amount",
              "type": "uint256"
            },
            {
              "name": "price",
              "type": "uint256"
            },
            {
              "name": "isValid",
              "type": "bool"
            }
          ],
          "name": "",
          "type": "tuple"
        }
      ],
      "payable": false,
      "stateMutability": "view",
      "type": "function"
    },
    {
      "constant": true,
      "inputs": [
        {
          "name": "_productId",
          "type": "uint256"
        }
      ],
      "name": "ownerOfUserProduct",
      "outputs": [
        {
          "name": "",
          "type": "address"
        }
      ],
      "payable": false,
      "stateMutability": "view",
      "type": "function"
    },
    {
      "constant": false,
      "inputs": [
        {
          "name": "_owner",
          "type": "address"
        },
        {
          "name": "_tokenId",
          "type": "uint256"
        },
        {
          "name": "_totalAmount",
          "type": "uint256"
        },
        {
          "name": "_perPrice",
          "type": "uint256"
        }
      ],
      "name": "registerServiceProduct",
      "outputs": [
        {
          "name": "",
          "type": "uint256"
        }
      ],
      "payable": false,
      "stateMutability": "nonpayable",
      "type": "function"
    },
    {
      "constant": false,
      "inputs": [
        {
          "name": "_owner",
          "type": "address"
        },
        {
          "name": "_tokenId",
          "type": "uint256"
        },
        {
          "name": "_amount",
          "type": "uint256"
        },
        {
          "name": "_price",
          "type": "uint256"
        }
      ],
      "name": "registerUserProduct",
      "outputs": [
        {
          "name": "",
          "type": "uint256"
        }
      ],
      "payable": false,
      "stateMutability": "nonpayable",
      "type": "function"
    },
    {
      "constant": true,
      "inputs": [],
      "name": "getValidServiceProductAll",
      "outputs": [
        {
          "components": [
            {
              "name": "productId",
              "type": "uint256"
            },
            {
              "name": "owner",
              "type": "address"
            },
            {
              "name": "tokenId",
              "type": "uint256"
            },
            {
              "name": "totalAmount",
              "type": "uint256"
            },
            {
              "name": "amount",
              "type": "uint256"
            },
            {
              "name": "perPrice",
              "type": "uint256"
            },
            {
              "name": "isValid",
              "type": "bool"
            }
          ],
          "name": "",
          "type": "tuple[]"
        }
      ],
      "payable": false,
      "stateMutability": "view",
      "type": "function"
    },
    {
      "constant": true,
      "inputs": [
        {
          "name": "lastProductId",
          "type": "uint256"
        },
        {
          "name": "count",
          "type": "uint256"
        }
      ],
      "name": "getValidServiceProducts",
      "outputs": [
        {
          "components": [
            {
              "name": "productId",
              "type": "uint256"
            },
            {
              "name": "owner",
              "type": "address"
            },
            {
              "name": "tokenId",
              "type": "uint256"
            },
            {
              "name": "totalAmount",
              "type": "uint256"
            },
            {
              "name": "amount",
              "type": "uint256"
            },
            {
              "name": "perPrice",
              "type": "uint256"
            },
            {
              "name": "isValid",
              "type": "bool"
            }
          ],
          "name": "",
          "type": "tuple[]"
        }
      ],
      "payable": false,
      "stateMutability": "view",
      "type": "function"
    },
    {
      "constant": true,
      "inputs": [],
      "name": "getValidUserProductAll",
      "outputs": [
        {
          "components": [
            {
              "name": "productId",
              "type": "uint256"
            },
            {
              "name": "owner",
              "type": "address"
            },
            {
              "name": "tokenId",
              "type": "uint256"
            },
            {
              "name": "amount",
              "type": "uint256"
            },
            {
              "name": "price",
              "type": "uint256"
            },
            {
              "name": "isValid",
              "type": "bool"
            }
          ],
          "name": "",
          "type": "tuple[]"
        }
      ],
      "payable": false,
      "stateMutability": "view",
      "type": "function"
    },
    {
      "constant": true,
      "inputs": [
        {
          "name": "lastProductId",
          "type": "uint256"
        },
        {
          "name": "count",
          "type": "uint256"
        }
      ],
      "name": "getValidUserProducts",
      "outputs": [
        {
          "components": [
            {
              "name": "productId",
              "type": "uint256"
            },
            {
              "name": "owner",
              "type": "address"
            },
            {
              "name": "tokenId",
              "type": "uint256"
            },
            {
              "name": "amount",
              "type": "uint256"
            },
            {
              "name": "price",
              "type": "uint256"
            },
            {
              "name": "isValid",
              "type": "bool"
            }
          ],
          "name": "",
          "type": "tuple[]"
        }
      ],
      "payable": false,
      "stateMutability": "view",
      "type": "function"
    },
    {
      "constant": true,
      "inputs": [
        {
          "name": "_owner",
          "type": "address"
        },
        {
          "name": "lastProductId",
          "type": "uint256"
        },
        {
          "name": "count",
          "type": "uint256"
        }
      ],
      "name": "getValidUserProductsOwnedPage",
      "outputs": [
        {
          "components": [
            {
              "name": "productId",
              "type": "uint256"
            },
            {
              "name": "owner",
              "type": "address"
            },
            {
              "name": "tokenId",
              "type": "uint256"
            },
            {
              "name": "amount",
              "type": "uint256"
            },
            {
              "name": "price",
              "type": "uint256"
            },
            {
              "name": "isValid",
              "type": "bool"
            }
          ],
          "name": "",
          "type": "tuple[]"
        }
      ],
      "payable": false,
      "stateMutability": "view",
      "type": "function"
    },
    {
      "constant": true,
      "inputs": [
        {
          "name": "_owner",
          "type": "address"
        }
      ],
      "name": "getValidUserProductsOwned",
      "outputs": [
        {
          "components": [
            {
              "name": "productId",
              "type": "uint256"
            },
            {
              "name": "owner",
              "type": "address"
            },
            {
              "name": "tokenId",
              "type": "uint256"
            },
            {
              "name": "amount",
              "type": "uint256"
            },
            {
              "name": "price",
              "type": "uint256"
            },
            {
              "name": "isValid",
              "type": "bool"
            }
          ],
          "name": "",
          "type": "tuple[]"
        }
      ],
      "payable": false,
      "stateMutability": "view",
      "type": "function"
    },
    {
      "constant": true,
      "inputs": [],
      "name": "getAllServiceProducts",
      "outputs": [
        {
          "components": [
            {
              "name": "productId",
              "type": "uint256"
            },
            {
              "name": "owner",
              "type": "address"
            },
            {
              "name": "tokenId",
              "type": "uint256"
            },
            {
              "name": "totalAmount",
              "type": "uint256"
            },
            {
              "name": "amount",
              "type": "uint256"
            },
            {
              "name": "perPrice",
              "type": "uint256"
            },
            {
              "name": "isValid",
              "type": "bool"
            }
          ],
          "name": "",
          "type": "tuple[]"
        }
      ],
      "payable": false,
      "stateMutability": "view",
      "type": "function"
    },
    {
      "constant": false,
      "inputs": [
        {
          "name": "_productId",
          "type": "uint256"
        }
      ],
      "name": "cancelServiceProductSale",
      "outputs": [
        {
          "name": "",
          "type": "uint256"
        }
      ],
      "payable": false,
      "stateMutability": "nonpayable",
      "type": "function"
    },
    {
      "constant": false,
      "inputs": [
        {
          "name": "_productId",
          "type": "uint256"
        },
        {
          "name": "_owner",
          "type": "address"
        }
      ],
      "name": "cancelUserProductSale",
      "outputs": [
        {
          "name": "",
          "type": "uint256"
        }
      ],
      "payable": false,
      "stateMutability": "nonpayable",
      "type": "function"
    },
    {
      "constant": false,
      "inputs": [
        {
          "name": "_productId",
          "type": "uint256"
        },
        {
          "name": "_buyer",
          "type": "address"
        },
        {
          "name": "_amount",
          "type": "uint256"
        }
      ],
      "name": "purchaseServiceProduct",
      "outputs": [],
      "payable": true,
      "stateMutability": "payable",
      "type": "function"
    },
    {
      "constant": false,
      "inputs": [
        {
          "name": "_productId",
          "type": "uint256"
        },
        {
          "name": "_buyer",
          "type": "address"
        }
      ],
      "name": "purchaseUserProduct",
      "outputs": [],
      "payable": true,
      "stateMutability": "payable",
      "type": "function"
    }
  ],
  "bytecode": "0x60806040523480156200001157600080fd5b5060405160408062003091833981018060405262000033919081019062000150565b600080546001600160a01b03191633178082556040516001600160a01b039190911691907f8be0079c531659141344cd1fd0a4f28419497f9722a3daafe3b4186f6b6457e0908290a36001600160a01b038216620000c8576040517f08c379a0000000000000000000000000000000000000000000000000000000008152600401620000bf9062000205565b60405180910390fd5b6001600160a01b0381166200010b576040517f08c379a0000000000000000000000000000000000000000000000000000000008152600401620000bf9062000217565b600180546001600160a01b039384166001600160a01b031991821617909155600280549290931691161790556200025e565b80516200014a8162000244565b92915050565b600080604083850312156200016457600080fd5b60006200017285856200013d565b925050602062000185858286016200013d565b9150509250929050565b60006200019e600b8362000229565b7f5f636f696e206572726f72000000000000000000000000000000000000000000815260200192915050565b6000620001d9600c8362000229565b7f5f746f6b656e206572726f720000000000000000000000000000000000000000815260200192915050565b602080825281016200014a816200018f565b602080825281016200014a81620001ca565b90815260200190565b60006001600160a01b0382166200014a565b6200024f8162000232565b81146200025b57600080fd5b50565b612e23806200026e6000396000f3fe6080604052600436106101b95760003560e01c8063715018a6116100ed5780638f32d59b116100905780638f32d59b146104cb57806393fac328146104ed5780639f4c4bc9146105025780639f997a2d14610522578063a979788714610542578063b0bdacc614610562578063d2e37c7914610582578063ed648fc9146105a2578063f2fde38b146105c2576101b9565b8063715018a6146103ea57806372dd52e3146103ff5780637aed0bf8146104145780637e9563de1461043457806383b4aad51461045457806386fa500f1461047457806389857efe146104895780638da5cb5b146104b6576101b9565b80633db27259116101605780633db27259146103015780633e6c669f14610316578063400430681461032b57806346fb2d06146103405780634cc7a7e11461036057806355a373d614610373578063587ea2d5146103955780636021c626146103b7578063617c3335146103ca576101b9565b806308a89221146101be5780630ed3c756146101e95780630fffe5a41461021c578063105ddc2d1461024957806310fe9ae81461025e578063179193ac1461028057806326a4e8d2146102ad5780632e35f794146102cf575b600080fd5b3480156101ca57600080fd5b506101d36105e2565b6040516101e09190612b68565b60405180910390f35b3480156101f557600080fd5b5061020961020436600461255a565b6105e9565b6040516101e09796959493929190612d26565b34801561022857600080fd5b5061023c6102373660046125e4565b610642565b6040516101e09190612a9f565b34801561025557600080fd5b506101d361079b565b34801561026a57600080fd5b506102736107a1565b6040516101e091906129ff565b34801561028c57600080fd5b506102a061029b36600461255a565b6107f4565b6040516101e09190612b5a565b3480156102b957600080fd5b506102cd6102c8366004612470565b610873565b005b3480156102db57600080fd5b506102ef6102ea36600461255a565b61091f565b6040516101e096959493929190612cd7565b34801561030d57600080fd5b5061023c61096f565b34801561032257600080fd5b506101d3610a8c565b34801561033757600080fd5b50610273610abc565b34801561034c57600080fd5b506101d361035b366004612578565b610adf565b6102cd61036e366004612578565b610c94565b34801561037f57600080fd5b50610388610eec565b6040516101e09190612abe565b3480156103a157600080fd5b506103aa610efb565b6040516101e09190612a8e565b6102cd6103c53660046125b2565b610fcf565b3480156103d657600080fd5b5061023c6103e5366004612470565b6111f6565b3480156103f657600080fd5b506102cd61136c565b34801561040b57600080fd5b506103886113dd565b34801561042057600080fd5b5061027361042f36600461255a565b6113ec565b34801561044057600080fd5b506101d361044f3660046124db565b611424565b34801561046057600080fd5b5061023c61046f36600461248e565b611657565b34801561048057600080fd5b506103aa6117ee565b34801561049557600080fd5b506104a96104a436600461255a565b61190c565b6040516101e09190612b4c565b3480156104c257600080fd5b50610273611995565b3480156104d757600080fd5b506104e06119a4565b6040516101e09190612ab0565b3480156104f957600080fd5b506101d36119b5565b34801561050e57600080fd5b506101d361051d36600461255a565b6119e5565b34801561052e57600080fd5b506101d361053d36600461255a565b611b56565b34801561054e57600080fd5b506101d361055d36600461255a565b611b74565b34801561056e57600080fd5b506102cd61057d366004612470565b611b81565b34801561058e57600080fd5b506101d361059d3660046124db565b611c22565b3480156105ae57600080fd5b506103aa6105bd3660046125e4565b611e57565b3480156105ce57600080fd5b506102cd6105dd366004612470565b611f9b565b6004545b90565b600381815481106105f657fe5b600091825260209091206007909102018054600182015460028301546003840154600485015460058601546006909601549496506001600160a01b039093169491939092919060ff1687565b6060806001831015610655579050610795565b8380156106625750600184015b60608460405190808252806020026020018201604052801561069e57816020015b61068b61237f565b8152602001906001900390816106835790505b5090506000825b60075481101561077c57600781815481106106bc57fe5b600091825260209091206005600690920201015460ff161561076857600781815481106106e557fe5b60009182526020918290206040805160c08101825260069093029091018054835260018101546001600160a01b031693830193909352600283015490820152600382015460608201526004820154608082015260059091015460ff16151560a0820152835184908490811061075657fe5b60209081029190910101526001909101905b8682106107745761077c565b6001016106a5565b50801561078e57509250610795915050565b5091925050505b92915050565b60085490565b60006107ab6119a4565b6107d357604051600160e51b62461bcd0281526004016107ca90612b2c565b60405180910390fd5b6107db611fce565b6107e457600080fd5b506002546001600160a01b031690565b6107fc61237f565b6007828154811061080957fe5b60009182526020918290206040805160c08101825260069093029091018054835260018101546001600160a01b031693830193909352600283015490820152600382015460608201526004820154608082015260059091015460ff16151560a08201529050919050565b61087b611fce565b61088457600080fd5b6001600160a01b038116158015906108aa57506002546001600160a01b03828116911614155b6108c957604051600160e51b62461bcd0281526004016107ca90612b1c565b600280546001600160a01b0319166001600160a01b0383161790556040517f33a7e73920e7bb871d64f12f439f70e8d764c488da2188d67bd27ddb60205137906109149083906129ff565b60405180910390a150565b6007818154811061092c57fe5b60009182526020909120600690910201805460018201546002830154600384015460048501546005909501549395506001600160a01b0390921693909260ff1686565b6008546040805182815260208084028201019091526060919082908280156109b157816020015b61099e61237f565b8152602001906001900390816109965790505b5090506000805b600754811015610a8357600781815481106109cf57fe5b600091825260209091206005600690920201015460ff1615610a7b57600781815481106109f857fe5b60009182526020918290206040805160c08101825260069093029091018054835260018101546001600160a01b031693830193909352600283015490820152600382015460608201526004820154608082015260059091015460ff16151560a08201528351849084908110610a6957fe5b60200260200101819052508160010191505b6001016109b8565b50909250505090565b6000610a966119a4565b610ab557604051600160e51b62461bcd0281526004016107ca90612b2c565b5060035490565b6000610ac6611fce565b610acf57600080fd5b506001546001600160a01b031690565b6000610ae9611fce565b610af257600080fd5b610afb8361201b565b610b0361237f565b60078481548110610b1057fe5b60009182526020918290206040805160c08101825260069093029091018054835260018101546001600160a01b0390811694840185905260028201549284019290925260038101546060840152600481015460808401526005015460ff16151560a0830152909250841614610b9a57604051600160e51b62461bcd0281526004016107ca90612afc565b60208101516001600160a01b0316301415610bb457600080fd5b60208101516001600160a01b03163014610c3f57600254602082015160408084015160608501519151600160e11b637f4c824d0281526001600160a01b039094169363fe99049a93610c0c9330939192600401612a35565b600060405180830381600087803b158015610c2657600080fd5b505af1158015610c3a573d6000803e3d6000fd5b505050505b7f4189a8a7fa179466219587522575a50de255e8e7026f392a9f5f18ce4868d710848260200151858460400151856060015142604051610c8496959493929190612bd0565b60405180910390a1509192915050565b610c9c611fce565b610ca557600080fd5b6001600160a01b038116610cb857600080fd5b60078281548110610cc557fe5b600091825260209091206005600690920201015460ff16610ce557600080fd5b610ced61237f565b60078381548110610cfa57fe5b60009182526020918290206040805160c08101825260069093029091018054835260018101546001600160a01b0390811694840185905260028201549284019290925260038101546060840152600481015460808401526005015460ff16151560a083015290925083161415610d8557604051600160e51b62461bcd0281526004016107ca90612aec565b60015460208201516080830151604051600160e01b6323b872dd0281526001600160a01b03909316926323b872dd92610dc2928792600401612a0d565b602060405180830381600087803b158015610ddc57600080fd5b505af1158015610df0573d6000803e3d6000fd5b505050506040513d601f19601f82011682018060405250610e14919081019061253c565b5060025460408083015160608401519151600160e11b637f4c824d0281526001600160a01b039093169263fe99049a92610e55923092889290600401612a35565b600060405180830381600087803b158015610e6f57600080fd5b505af1158015610e83573d6000803e3d6000fd5b50505050610e908361201b565b7fe9b24546dabc2769d548df32b55a8d7b21e95312016da1a572562f22dc1a8a91816000015182602001518484604001518560600151866080015142604051610edf9796959493929190612bf8565b60405180910390a1505050565b6002546001600160a01b031681565b6060610f056119a4565b610f2457604051600160e51b62461bcd0281526004016107ca90612b2c565b6003805480602002602001604051908101604052809291908181526020016000905b82821015610fc65760008481526020908190206040805160e08101825260078602909201805483526001808201546001600160a01b0316848601526002820154928401929092526003810154606084015260048101546080840152600581015460a08401526006015460ff16151560c08301529083529092019101610f46565b50505050905090565b610fd7611fce565b610fe057600080fd5b600081118015610ff857506001600160a01b03821615155b61100157600080fd5b6003838154811061100e57fe5b600091825260209091206006600790920201015460ff1661102e57600080fd5b60006003848154811061103d57fe5b90600052602060002090600702019050818160040154101561105e57600080fd5b60058101546001805490830154604051600160e01b6323b872dd028152928502926001600160a01b03928316926323b872dd926110a5928992909116908690600401612a0d565b602060405180830381600087803b1580156110bf57600080fd5b505af11580156110d3573d6000803e3d6000fd5b505050506040513d601f19601f820116820180604052506110f7919081019061253c565b506002805490830154604051600160e11b637f4c824d0281526001600160a01b039092169163fe99049a9161113491309189918990600401612a35565b600060405180830381600087803b15801561114e57600080fd5b505af1158015611162573d6000803e3d6000fd5b505050600483015461117b91508463ffffffff61219b16565b60048301819055611191578154611191906121c6565b81546001830154600284015460048501546040517f8a5653bc9a777344f6718d3cadbcb89429a5373d7261b7ace32d6f9dcff558e1946111e79490936001600160a01b03909116928a928a919089904290612c60565b60405180910390a15050505050565b6008546001600160a01b0382166000908152600b6020908152604091829020548251818152818302810190920190925260609291839190801561125357816020015b61124061237f565b8152602001906001900390816112385790505b5090506000805b600754811015611362576007818154811061127157fe5b600091825260209091206005600690920201015460ff1680156112c55750856001600160a01b0316600782815481106112a657fe5b60009182526020909120600160069092020101546001600160a01b0316145b1561135a57600781815481106112d757fe5b60009182526020918290206040805160c08101825260069093029091018054835260018101546001600160a01b031693830193909352600283015490820152600382015460608201526004820154608082015260059091015460ff16151560a0820152835184908490811061134857fe5b60200260200101819052508160010191505b60010161125a565b5090949350505050565b6113746119a4565b61139357604051600160e51b62461bcd0281526004016107ca90612b2c565b600080546040516001600160a01b03909116907f8be0079c531659141344cd1fd0a4f28419497f9722a3daafe3b4186f6b6457e0908390a3600080546001600160a01b0319169055565b6001546001600160a01b031681565b6000818152600a60205260408120546001600160a01b03168061079557604051600160e51b62461bcd0281526004016107ca90612b3c565b600061142e611fce565b61143757600080fd5b61143f6123c0565b6001600160a01b038681166020838101918252604080850189815260608601898152608087018a815260a088018a8152600160c08a0181815260038054808d52808401825560009182528c517fc2575a0e9e593c00f959f8c92f12db2869c3395a3b0502d05e2516446f71f85b60078302908101919091559a517fc2575a0e9e593c00f959f8c92f12db2869c3395a3b0502d05e2516446f71f85c8c0180546001600160a01b031990811692909e16918217905597517fc2575a0e9e593c00f959f8c92f12db2869c3395a3b0502d05e2516446f71f85d8c015595517fc2575a0e9e593c00f959f8c92f12db2869c3395a3b0502d05e2516446f71f85e8b015593517fc2575a0e9e593c00f959f8c92f12db2869c3395a3b0502d05e2516446f71f85f8a015591517fc2575a0e9e593c00f959f8c92f12db2869c3395a3b0502d05e2516446f71f86089015590517fc2575a0e9e593c00f959f8c92f12db2869c3395a3b0502d05e2516446f71f861909701805460ff1916971515979097179096558181526006855283812080549097169092179095556004805460059094528282208490559383018455929092527f8a35acfbc15ff81a39ae7d344fd709f28e8600b4aa8c65c6b64bfe7fe36bd19b01829055517fa956348acedf38aa18f8a2bf44149d2ed8e2bac3825ccfc250e440729e33cb74906116439089908490612a73565b60405180910390a19150505b949350505050565b606080600183101561166a5790506117e7565b8380156116775750600184015b6060846040519080825280602002602001820160405280156116b357816020015b6116a061237f565b8152602001906001900390816116985790505b5090506000825b6007548110156117ce57600781815481106116d157fe5b600091825260209091206005600690920201015460ff1680156117255750886001600160a01b03166007828154811061170657fe5b60009182526020909120600160069092020101546001600160a01b0316145b156117ba576007818154811061173757fe5b60009182526020918290206040805160c08101825260069093029091018054835260018101546001600160a01b031693830193909352600283015490820152600382015460608201526004820154608082015260059091015460ff16151560a082015283518490849081106117a857fe5b60209081029190910101526001909101905b8682106117c6576117ce565b6001016116ba565b5080156117e0575092506117e7915050565b5091925050505b9392505050565b60045460408051828152602080840282010190915260609190829082801561183057816020015b61181d6123c0565b8152602001906001900390816118155790505b5090506000805b600354811015610a83576003818154811061184e57fe5b600091825260209091206006600790920201015460ff1615611904576003818154811061187757fe5b60009182526020918290206040805160e08101825260079093029091018054835260018101546001600160a01b0316938301939093526002830154908201526003820154606082015260048201546080820152600582015460a082015260069091015460ff16151560c082015283518490849081106118f257fe5b60200260200101819052508160010191505b600101611837565b6119146123c0565b6003828154811061192157fe5b60009182526020918290206040805160e08101825260079093029091018054835260018101546001600160a01b0316938301939093526002830154908201526003820154606082015260048201546080820152600582015460a082015260069091015460ff16151560c08201529050919050565b6000546001600160a01b031690565b6000546001600160a01b0316331490565b60006119bf6119a4565b6119de57604051600160e51b62461bcd0281526004016107ca90612b2c565b5060075490565b60006119ef611fce565b6119f857600080fd5b611a01826121c6565b611a096123c0565b60038381548110611a1657fe5b60009182526020918290206040805160e08101825260079093029091018054835260018101546001600160a01b03169383018490526002810154918301919091526003810154606083015260048101546080830152600581015460a08301526006015460ff16151560c082015291503014611b0257600254602082015160408084015160808501519151600160e11b637f4c824d0281526001600160a01b039094169363fe99049a93611acf9330939192600401612a35565b600060405180830381600087803b158015611ae957600080fd5b505af1158015611afd573d6000803e3d6000fd5b505050505b7f0e652dad8d8af80e1b2260cac59b8511db9190cd65710653f14c2eb210bea98b838260200151338460400151856080015142604051611b4796959493929190612b76565b60405180910390a15090919050565b60088181548110611b6357fe5b600091825260209091200154905081565b60048181548110611b6357fe5b611b89611fce565b611b9257600080fd5b6001600160a01b03811615801590611bb857506001546001600160a01b03828116911614155b611bd757604051600160e51b62461bcd0281526004016107ca90612b1c565b600180546001600160a01b0319166001600160a01b0383161790556040517fa675768c20143028b535be7e8b7140c37f119b05dfa7a3691d326178a0c44382906109149083906129ff565b6000611c2c611fce565b611c3557600080fd5b611c3d61237f565b6001600160a01b03868116602083810182815260408086018a8152606087018a8152608088018a8152600160a08a0181815260078054808d52808401825560009182528c517fa66cc928b5edb82af9bd49922954155ab7b0942694bea4ce44661d9a8736c688600683029081019190915598517fa66cc928b5edb82af9bd49922954155ab7b0942694bea4ce44661d9a8736c6898a0180546001600160a01b031990811692909e16918217905596517fa66cc928b5edb82af9bd49922954155ab7b0942694bea4ce44661d9a8736c68a8a015594517fa66cc928b5edb82af9bd49922954155ab7b0942694bea4ce44661d9a8736c68b89015592517fa66cc928b5edb82af9bd49922954155ab7b0942694bea4ce44661d9a8736c68c880155517fa66cc928b5edb82af9bd49922954155ab7b0942694bea4ce44661d9a8736c68d909601805460ff191696151596909617909555818152600a8652838120805490981690921790965560088054600986528383208190558085019091557ff3f7a9fe364faab93b216da50a3214154f22a0a2b415b23a84c8169e8b636ee301869055938452600b90925291205490611df69082906122d3565b6001600160a01b0389166000908152600b60205260409081902091909155517fde7cdd89c5b2c71744ad16191ac4e6cf035fca94cc67f4a3386b824f680c022e90611e44908a908590612a73565b60405180910390a1509695505050505050565b6060806001831015611e6a579050610795565b838015611e775750600184015b606084604051908082528060200260200182016040528015611eb357816020015b611ea06123c0565b815260200190600190039081611e985790505b5090506000825b60035481101561077c5760038181548110611ed157fe5b600091825260209091206006600790920201015460ff1615611f875760038181548110611efa57fe5b60009182526020918290206040805160e08101825260079093029091018054835260018101546001600160a01b0316938301939093526002830154908201526003820154606082015260048201546080820152600582015460a082015260069091015460ff16151560c08201528351849084908110611f7557fe5b60209081029190910101526001909101905b868210611f935761077c565b600101611eba565b611fa36119a4565b611fc257604051600160e51b62461bcd0281526004016107ca90612b2c565b611fcb816122fb565b50565b6000611fd8611995565b6001600160a01b0316336001600160a01b0316148061200157506002546001600160a01b031633145b8061201657506001546001600160a01b031633145b905090565b6007818154811061202857fe5b600091825260209091206005600690920201015460ff16151560011461204d57600080fd5b60085460009061206490600163ffffffff61219b16565b6000838152600960205260408120546008805493945090928490811061208657fe5b9060005260206000200154905080600883815481106120a157fe5b60009182526020808320909101929092558281526009909152604090208290556008546120d590600163ffffffff61219b16565b6120e0600882612408565b506000848152600960205260408120819055600780548690811061210057fe5b60009182526020822060069190910201600501805460ff191692151592909217909155600780548690811061213157fe5b60009182526020808320600160069093020191909101546001600160a01b0316808352600b90915260409091205490915080156121935761217981600163ffffffff61219b16565b6001600160a01b0383166000908152600b60205260409020555b505050505050565b6000828211156121c057604051600160e51b62461bcd0281526004016107ca90612b0c565b50900390565b600381815481106121d357fe5b600091825260209091206006600790920201015460ff1615156001146121f857600080fd5b60045460009061220f90600163ffffffff61219b16565b6000838152600560205260408120546004805493945090928490811061223157fe5b90600052602060002001549050806004838154811061224c57fe5b600091825260208083209091019290925582815260059091526040902082905560045461228090600163ffffffff61219b16565b61228b600482612408565b50600084815260056020526040812081905560038054869081106122ab57fe5b60009182526020909120600790910201600601805460ff191691151591909117905550505050565b6000828201838110156117e757604051600160e51b62461bcd0281526004016107ca90612adc565b6001600160a01b03811661232457604051600160e51b62461bcd0281526004016107ca90612acc565b600080546040516001600160a01b03808516939216917f8be0079c531659141344cd1fd0a4f28419497f9722a3daafe3b4186f6b6457e091a3600080546001600160a01b0319166001600160a01b0392909216919091179055565b6040518060c001604052806000815260200160006001600160a01b031681526020016000815260200160008152602001600081526020016000151581525090565b6040518060e001604052806000815260200160006001600160a01b03168152602001600081526020016000815260200160008152602001600081526020016000151581525090565b81548183558181111561242c5760008381526020902061242c918101908301612431565b505050565b6105e691905b8082111561244b5760008155600101612437565b5090565b803561079581612dc3565b805161079581612dd7565b803561079581612de0565b60006020828403121561248257600080fd5b600061164f848461244f565b6000806000606084860312156124a357600080fd5b60006124af868661244f565b93505060206124c086828701612465565b92505060406124d186828701612465565b9150509250925092565b600080600080608085870312156124f157600080fd5b60006124fd878761244f565b945050602061250e87828801612465565b935050604061251f87828801612465565b925050606061253087828801612465565b91505092959194509250565b60006020828403121561254e57600080fd5b600061164f848461245a565b60006020828403121561256c57600080fd5b600061164f8484612465565b6000806040838503121561258b57600080fd5b60006125978585612465565b92505060206125a88582860161244f565b9150509250929050565b6000806000606084860312156125c757600080fd5b60006125d38686612465565b93505060206124c08682870161244f565b600080604083850312156125f757600080fd5b60006126038585612465565b92505060206125a885828601612465565b600061262083836128fd565b505060e00190565b60006126348383612986565b505060c00190565b61264581612db1565b82525050565b61264581612d95565b600061265f82612d88565b6126698185612d8c565b935061267483612d82565b8060005b838110156126a257815161268c8882612614565b975061269783612d82565b925050600101612678565b509495945050505050565b60006126b882612d88565b6126c28185612d8c565b93506126cd83612d82565b8060005b838110156126a25781516126e58882612628565b97506126f083612d82565b9250506001016126d1565b61264581612da0565b61264581612db8565b600061271a602683612d8c565b7f4f776e61626c653a206e6577206f776e657220697320746865207a65726f20618152600160d01b6564647265737302602082015260400192915050565b6000612765601b83612d8c565b7f536166654d6174683a206164646974696f6e206f766572666c6f770000000000815260200192915050565b600061279e603083612d8c565b7f596f752063616e206e6f74207075726368617365207468652070726f647563748152600160811b6f103cb7ba903932b3b4b9ba32b932b21702602082015260400192915050565b60006127f3602583612d8c565b7f596f7520617265206e6f7420746865206f776e6572206f66207468652070726f8152600160d91b64323ab1ba1702602082015260400192915050565b600061283d601e83612d8c565b7f536166654d6174683a207375627472616374696f6e206f766572666c6f770000815260200192915050565b6000612876600b83612d8c565b600160a91b6a2fb0b232391032b93937b902815260200192915050565b60006128a0602083612d8c565b7f4f776e61626c653a2063616c6c6572206973206e6f7420746865206f776e6572815260200192915050565b60006128d9601283612d8c565b600160721b71141c9bd91d58dd081a5cc81a5b9d985b1a5902815260200192915050565b805160e083019061290e84826129f6565b506020820151612921602085018261264b565b50604082015161293460408501826129f6565b50606082015161294760608501826129f6565b50608082015161295a60808501826129f6565b5060a082015161296d60a08501826129f6565b5060c082015161298060c08501826126fb565b50505050565b805160c083019061299784826129f6565b5060208201516129aa602085018261264b565b5060408201516129bd60408501826129f6565b5060608201516129d060608501826129f6565b5060808201516129e360808501826129f6565b5060a082015161298060a08501826126fb565b612645816105e6565b60208101610795828461264b565b60608101612a1b828661264b565b612a28602083018561264b565b61164f60408301846129f6565b60808101612a43828761264b565b612a50602083018661264b565b612a5d60408301856129f6565b612a6a60608301846129f6565b95945050505050565b60408101612a81828561264b565b6117e760208301846129f6565b602080825281016117e78184612654565b602080825281016117e781846126ad565b6020810161079582846126fb565b602081016107958284612704565b602080825281016107958161270d565b6020808252810161079581612758565b6020808252810161079581612791565b60208082528101610795816127e6565b6020808252810161079581612830565b6020808252810161079581612869565b6020808252810161079581612893565b60208082528101610795816128cc565b60e0810161079582846128fd565b60c081016107958284612986565b6020810161079582846129f6565b60c08101612b8482896129f6565b612b91602083018861264b565b612b9e604083018761263c565b612bab60608301866129f6565b612bb860808301856129f6565b612bc560a08301846129f6565b979650505050505050565b60c08101612bde82896129f6565b612beb602083018861264b565b612b9e604083018761264b565b60e08101612c06828a6129f6565b612c13602083018961264b565b612c20604083018861264b565b612c2d60608301876129f6565b612c3a60808301866129f6565b612c4760a08301856129f6565b612c5460c08301846129f6565b98975050505050505050565b6101008101612c6f828b6129f6565b612c7c602083018a61264b565b612c89604083018961264b565b612c9660608301886129f6565b612ca360808301876129f6565b612cb060a08301866129f6565b612cbd60c08301856129f6565b612cca60e08301846129f6565b9998505050505050505050565b60c08101612ce582896129f6565b612cf2602083018861264b565b612cff60408301876129f6565b612d0c60608301866129f6565b612d1960808301856129f6565b612bc560a08301846126fb565b60e08101612d34828a6129f6565b612d41602083018961264b565b612d4e60408301886129f6565b612d5b60608301876129f6565b612d6860808301866129f6565b612d7560a08301856129f6565b612c5460c08301846126fb565b60200190565b5190565b90815260200190565b600061079582612da5565b151590565b6001600160a01b031690565b6000610795825b600061079582612d95565b612dcc81612d95565b8114611fcb57600080fd5b612dcc81612da0565b612dcc816105e656fea265627a7a72305820dea5b6cc485ac2a2ef05a4ff9e990173b0f66289b8d09f1f1cce11b8cc14fc706c6578706572696d656e74616cf50037",
  "source": "pragma solidity ^0.5.0;\n\nimport \"openzeppelin-solidity/contracts/ownership/Ownable.sol\";\nimport \"openzeppelin-solidity/contracts/math/SafeMath.sol\";\nimport \"../ExsCoin/ExsCoin.sol\";\nimport \"../ExsToken/ExsToken.sol\";\nimport \"../ExsToken/ERC721X/Interfaces/ERC721XReceiver.sol\";\n\n pragma experimental ABIEncoderV2;\ncontract ExsMarket is Ownable {\n\n  ExsCoin public coinContract;\n  ExsToken public tokenContract;\n\n  bytes4 constant ERC721X_RECEIVED = 0x660b3370;\n  bytes4 constant ERC721X_BATCH_RECEIVE_SIG = 0xe9e5be6a;\n\n  constructor(address _coin, address _token) public ExsMarket(_coin, _token) {\n    require(_coin != address(0), \"_coin error\");\n    require(_token != address(0), \"_token error\");\n\n     coinContract = ExsCoin(address(_coin));\n     tokenContract = ExsToken(address(_token));\n  }\n\n  struct UserProduct {\n    uint productId;\n    address owner;\n    uint tokenId;\n    uint amount;\n    uint price;\n    bool isValid;\n  }\n\n  struct ServiceProduct {\n    uint productId;\n    address owner;\n    uint tokenId;\n    uint totalAmount;\n    uint amount;\n    uint perPrice;\n    bool isValid;\n  }\n\n    using SafeMath for uint256;\n\n    // for service products\n    ServiceProduct[] public allServiceProducts;\n    uint256[] public validServiceProductIds;\n    mapping(uint256 => uint256) private validServiceProductIndex;\n    mapping (uint256 => address) serviceProductOwners;\n\n    // for user products\n    UserProduct[] public allUserProducts;\n    uint256[] public validUserProductIds;\n    mapping(uint256 => uint256) private validUserProductIndex;\n    mapping(uint256 => address) userProductOwners;\n\n    mapping(address => uint256) userProductCounts;\n\n// events\n  event SetCoinAddress(address _addr);\n  event SetTokenAddress(address _addr);\n\n  event RegisterServiceProduct(address _owner, uint256 _productId);\n  event PurchaseServiceProduct(uint256 _productId, address _owner, address _buyer, uint256 _tokenId, uint256 _amount, uint256 _amountLeft, uint256 _price, uint256 _timestamp);\n\n  event RegisterUserProduct(address _owner, uint256 _productId);\n  event PurchaseUserProduct(uint256 _productId, address _owner, address _buyer, uint256 _tokenId, uint256 _amount, uint256 _price, uint256 _timestamp);\n\n  event CancelServiceProductSale(uint _productId, address _owner, address _requester, uint256 _tokenId, uint256 _amount, uint256 _timestamp);\n  event CancelUserProductSale(uint _productId, address _owner, address _requester, uint256 _tokenId, uint256 _amount,  uint256 _timestamp);\n//\n// functions ---\n//\n\n  // set/get coinContract\n  function setCoinAddress(address _addr)  public {\n    require(isOwnerOrOperator());\n    require(_addr != address(0) && address(coinContract) != _addr, \"_addr error\");\n    coinContract = ExsCoin(address(_addr));\n    emit SetCoinAddress(_addr);\n  }\n\n  function getCoinAddress()  public view returns(address) {\n    require(isOwnerOrOperator());\n    return address(coinContract);\n  }\n\n  // set/get tokenContract\n  function setTokenAddress(address _addr)  public {\n    require(isOwnerOrOperator());\n    require(_addr != address(0) && address(tokenContract) != _addr, \"_addr error\");\n    tokenContract = ExsToken(address(_addr));\n    emit SetTokenAddress(_addr);\n  }\n\n  function getTokenAddress() onlyOwner public view returns(address) {\n    require(isOwnerOrOperator());\n    return address(tokenContract);\n  }\n\n  // counts of serviceProducts\n  function countOfValidServiceProducts() public view returns (uint) {\n    return validServiceProductIds.length;\n   }\n  function countOfAllServiceProducts() onlyOwner public view returns (uint) {\n    return allServiceProducts.length;\n  }\n\n  // counts of userProducts\n  function countOfValidUserProducts() public view returns (uint) {\n    return validUserProductIds.length;\n   }\n  function countOfAllUserProducts() onlyOwner public view returns (uint) {\n    return allUserProducts.length;\n  }\n\n  function getServiceProduct(uint _productId) public view returns (ServiceProduct memory) {\n    return allServiceProducts[_productId];\n  }\n\n  function getUserProduct(uint _productId) public view returns (UserProduct memory) {\n    return allUserProducts[_productId];\n  }\n\n   function ownerOfUserProduct(uint256 _productId) public view returns (address) {\n       address addr_owner =  userProductOwners[_productId];\n       require(addr_owner != address(0), \"Product is invalid\");\n       return addr_owner;\n   }\n\n   // function serviceProductByIndex(uint256 index) public view returns (uint) {\n   //     require(index < allProductCount());\n   //     return allProductIds[index];\n   // }\n\n// function registerTest(uint _tokenId, uint _totalQuantity) public payable {\n//   tokenContract.approve(address(this), 0);\n//   tokenContract.transfer(address(this), _tokenId, _totalQuantity);\n// }\n\n\n  function isOwnerOrOperator() private view returns (bool) {\n    return (msg.sender == owner() || msg.sender == address(tokenContract) || msg.sender == address(coinContract));\n  }\n\n\n   // registerServiceProduct()\n   function registerServiceProduct(address _owner, uint256 _tokenId, uint256 _totalAmount, uint256 _perPrice) public returns(uint) {\n     //require(tokenContract != address(0));\n     // tokenContract.transferFrom(msg.sender, address(this), _tokenId, _totalQuantity);\n     require(isOwnerOrOperator());\n\n     ServiceProduct memory product;\n     // product.owner = address(this);\n     product.owner = _owner;\n     product.tokenId = _tokenId;\n     product.totalAmount = _totalAmount;\n     product.amount = _totalAmount;\n     product.perPrice = _perPrice;\n     product.isValid = true;\n\n     uint productId =  allServiceProducts.length;\n     product.productId = productId;\n     allServiceProducts.push(product);\n\n     serviceProductOwners[productId] = product.owner;\n\n     validServiceProductIndex[productId] = validServiceProductIds.length;\n     validServiceProductIds.push(productId);\n\n\n     emit RegisterServiceProduct(_owner, productId);\n\n     return productId;\n   }\n\n\n   function registerUserProduct(address _owner, uint256 _tokenId, uint256 _amount, uint256 _price)  public returns(uint) {\n     //require(tokenContract != address(0));\n     // tokenContract.transferFrom(msg.sender, address(this), _tokenId, _totalQuantity);\n\n     require(isOwnerOrOperator());\n\n     UserProduct memory product;\n     product.owner = _owner;\n     product.tokenId = _tokenId;\n     product.amount = _amount;\n     product.price = _price;\n     product.isValid = true;\n\n     uint productId =  allUserProducts.length;\n     product.productId = productId;\n     allUserProducts.push(product);\n\n     userProductOwners[productId] = product.owner;\n\n     validUserProductIndex[productId] = validUserProductIds.length;\n     validUserProductIds.push(productId);\n\n     uint256 totalCount = userProductCounts[_owner];\n     userProductCounts[_owner] = totalCount.add(1);\n\n     emit RegisterUserProduct(_owner, productId);\n\n     return productId;\n   }\n\n\n   function getValidServiceProductAll() public view returns (ServiceProduct[] memory) {\n\n     uint validProductsCount = validServiceProductIds.length;\n     ServiceProduct[] memory products = new ServiceProduct[](validProductsCount);\n     uint validIndex = 0;\n     for (uint i = 0; i < allServiceProducts.length; i++) {\n        if (allServiceProducts[i].isValid) {\n          products[validIndex] = allServiceProducts[i];\n          validIndex = validIndex + 1;\n        }\n     }\n     return products;\n   }\n\n   function getValidServiceProducts(uint lastProductId, uint count) public view returns (ServiceProduct[] memory) {\n\n     ServiceProduct [] memory tempProducts;\n     if (count < 1) {\n       return tempProducts;\n     }\n\n     uint startId = lastProductId;\n     if (lastProductId > 0){\n       startId = lastProductId + 1;\n     }\n\n      ServiceProduct[] memory products = new ServiceProduct[](count);\n\n       uint counter = 0;\n       for (uint i = startId; i < allServiceProducts.length; i++) {\n          if (allServiceProducts[i].isValid) {\n              products[counter] = allServiceProducts[i];\n              counter++;\n          }\n          if (counter >=count) {\n            break;\n          }\n       }\n\n      if (counter > 0){\n        return products;\n      }\n\n       return tempProducts;\n\n   }\n\n   function getValidUserProductAll() public view returns (UserProduct[] memory) {\n\n     uint validProductsCount = validUserProductIds.length;\n     UserProduct[] memory products = new UserProduct[](validProductsCount);\n     uint validIndex = 0;\n     for (uint i = 0; i < allUserProducts.length; i++) {\n        if (allUserProducts[i].isValid) {\n          products[validIndex] = allUserProducts[i];\n          validIndex = validIndex + 1;\n        }\n     }\n     return products;\n   }\n\n   function getValidUserProducts(uint lastProductId, uint count) public view returns (UserProduct[] memory) {\n\n     UserProduct [] memory tempProducts;\n     if (count < 1) {\n       return tempProducts;\n     }\n\n     uint startId = lastProductId;\n     if (lastProductId > 0){\n       startId = lastProductId + 1;\n     }\n\n     UserProduct[] memory products = new UserProduct[](count);\n\n       uint counter = 0;\n       for (uint i = startId; i < allUserProducts.length; i++) {\n          if (allUserProducts[i].isValid) {\n              products[counter] = allUserProducts[i];\n              counter++;\n          }\n          if (counter >=count) {\n            break;\n          }\n       }\n\n      if (counter > 0){\n        return products;\n      }\n\n       return tempProducts;\n\n   }\n\n   function getValidUserProductsOwnedPage(address _owner, uint lastProductId, uint count) public view returns (UserProduct[] memory) {\n\n     UserProduct [] memory tempProducts;\n     if (count < 1) {\n       return tempProducts;\n     }\n\n     uint startId = lastProductId;\n     if (lastProductId > 0){\n       startId = lastProductId + 1;\n     }\n\n       UserProduct[] memory products = new UserProduct[](count);\n\n       uint counter = 0;\n       for (uint i = startId; i < allUserProducts.length; i++) {\n         if (allUserProducts[i].isValid && allUserProducts[i].owner == _owner) {\n           products[counter] = allUserProducts[i];\n           counter++;\n         }\n\n         if (counter >=count) {\n           break;\n         }\n       }\n\n      if (counter > 0){\n        return products;\n      }\n\n       return tempProducts;\n\n   }\n\n   function getValidUserProductsOwned(address _owner) public view returns (UserProduct[] memory) {\n\n     uint validProductsCount = validUserProductIds.length;\n     UserProduct[] memory products = new UserProduct[](userProductCounts[_owner]);\n     uint validIndex = 0;\n     for (uint i = 0; i < allUserProducts.length; i++) {\n        if (allUserProducts[i].isValid && allUserProducts[i].owner == _owner) {\n          products[validIndex] = allUserProducts[i];\n          validIndex = validIndex + 1;\n        }\n     }\n     return products;\n   }\n\n   function getAllServiceProducts() onlyOwner public view returns (ServiceProduct[] memory) {\n     // uint productsCount = allServiceProducts.length;\n     // ServiceProduct[] memory products = new ServiceProduct[](productsCount);\n     //  for (uint i = 0; i < productsCount; i++) {\n     //    uint productId = validServiceProductIds[i];\n     //    ServiceProduct memory product = allServiceProducts[productId];\n     //    products[i] = product;\n     //  }\n      return allServiceProducts;\n   }\n\n  function cancelServiceProductSale(uint _productId)  public returns (uint)\n  {\n      require(isOwnerOrOperator());\n      invalidateServiceProduct(_productId);\n\n      ServiceProduct memory product = allServiceProducts[_productId];\n      //require (product.owner == _owner, \"You are not the owner of the product.\");\n\n      if (product.owner != address(this)) {\n          tokenContract.transferFrom(address(this), product.owner, product.tokenId, product.amount);\n      }\n\n      emit CancelServiceProductSale(_productId, product.owner, msg.sender, product.tokenId, product.amount, block.timestamp);\n      return _productId;\n  }\n\n\n  function invalidateServiceProduct(uint _productId) private {\n    require(allServiceProducts[_productId].isValid == true);\n\n    uint256 lastIndex = validServiceProductIds.length.sub(1);\n    uint256 removeIndex = validServiceProductIndex[_productId];\n    uint256 lastProductId = validServiceProductIds[lastIndex];\n\n    //swap\n    validServiceProductIds[removeIndex] =  lastProductId;\n    validServiceProductIndex[lastProductId] = removeIndex;\n\n    validServiceProductIds.length = validServiceProductIds.length.sub(1);\n    validServiceProductIndex[_productId] = 0; //no meaning\n\n    allServiceProducts[_productId].isValid = false;\n\n  }\n\n\n  function invalidateUserProduct(uint _productId) private {\n\n     require(allUserProducts[_productId].isValid == true);\n\n      uint256 lastIndex = validUserProductIds.length.sub(1);\n      uint256 removeIndex = validUserProductIndex[_productId];\n      uint256 lastProductId = validUserProductIds[lastIndex];\n\n      //swap\n      validUserProductIds[removeIndex] =  lastProductId;\n      validUserProductIndex[lastProductId] = removeIndex;\n\n      validUserProductIds.length = validUserProductIds.length.sub(1);\n      validUserProductIndex[_productId] = 0; //no meaning\n\n      allUserProducts[_productId].isValid = false;\n\n     address owner = allUserProducts[_productId].owner;\n     uint totalCount = userProductCounts[owner];\n\n     if (totalCount > 0)\n     {\n       userProductCounts[owner] = totalCount.sub(1);\n     }\n  }\n\n\n  function cancelUserProductSale(uint _productId, address _owner)  public returns (uint)\n  {\n      require(isOwnerOrOperator());\n      invalidateUserProduct(_productId);\n\n      UserProduct memory product = allUserProducts[_productId];\n\n      require (product.owner == _owner, \"You are not the owner of the product.\");\n      require(product.owner != address(this));\n\n      if (product.owner != address(this)) {\n          tokenContract.transferFrom(address(this), product.owner, product.tokenId, product.amount);\n      }\n\n      emit CancelUserProductSale(_productId, product.owner, _owner, product.tokenId, product.amount, block.timestamp);\n      return _productId;\n  }\n\n   // function cancelSale(uint256 _productId, address _sender) onlyOwner external {\n   //\n   //     address addr_owner = ownerOf(_productId);\n   //\n   //     require(addr_owner == msg.sender addr_owner == _owner, \"sender is NOT the owner of the token\");\n   //\n   //     if (allowance[_tokenId] != address(0)) {\n   //         delete allowance[_tokenId];\n   //     }\n   //\n   //     //productOwners[_productId] = address(0);\n   //     balances[msg.sender] = balances[msg.sender].sub(1);\n   //\n   //     //!!! call re-index function\n   //     removeInvalidToken(_tokenId);\n   //\n   //     emit Transfer(addr_owner, address(0), _tokenId);\n   // }\n\n   // function removeProduct(uint256 _productId) private {\n   //\n   //     uint256 lastIndex = validProductIds.length.sub(1);\n   //     uint256 removeIndex = validProductIndex[_productId];\n   //\n   //     uint256 lastProductId = validProductIds[lastIndex];\n   //\n   //     //swap\n   //     validProductIds[removeIndex] =  lastProductId;\n   //     validProductIndex[lastProductId] = removeIndex;\n   //\n   //     validProductIds.length = validProductIds.length.sub(1);\n   //\n   //     //TODO: check\n   //     validProductIndex[_productId] = 0; //no meaning\n   // }\n\n\n   function purchaseServiceProduct(uint256 _productId, address _buyer, uint256 _amount)  public payable {\n     require(isOwnerOrOperator());\n     require(_amount > 0 && _buyer != address(0));\n     require(allServiceProducts[_productId].isValid);\n\n     ServiceProduct storage product = allServiceProducts[_productId];\n     //coinAddr.approve(address(this), product.price);\n     require(product.amount >= _amount);\n     uint256 price = product.perPrice * _amount;\n\n     coinContract.transferFrom(_buyer, product.owner, price);\n     tokenContract.transferFrom(address(this), _buyer, product.tokenId, _amount);\n\n//\n     product.amount = product.amount.sub(_amount);\n\n     if (product.amount == 0) {\n       invalidateServiceProduct(product.productId);\n     }\n\n     emit PurchaseServiceProduct(product.productId, product.owner, _buyer, product.tokenId, _amount, product.amount, price, block.timestamp);\n   }\n\n\n   function purchaseUserProduct(uint256 _productId, address _buyer)  public payable {\n     require(isOwnerOrOperator());\n     require( _buyer != address(0));\n     require(allUserProducts[_productId].isValid);\n\n     UserProduct memory product = allUserProducts[_productId];\n     //coinAddr.approve(address(this), product.price);\n     //require(product.quantity >= _quantity);\n     //uint256 price = product.perPrice * _quantity;\n\n     require( _buyer != product.owner, \"You can not purchase the product you registered.\" );\n\n     //tokenContract.setOperator(_buyer, msg.sender, true);\n     //emit ApprovalForAll(_buyer, msg.sender, true);\n\n     coinContract.transferFrom(_buyer, product.owner, product.price);\n     tokenContract.transferFrom(address(this), _buyer, product.tokenId, product.amount);\n\n    invalidateUserProduct(_productId);\n  //\n//     product.quantity = product.quantity.sub(_quantity);\n     //if (product.totalQuantity == 0) {\n       // product.isValid = false;\n     // }\n\n     emit PurchaseUserProduct(product.productId, product.owner, _buyer, product.tokenId, product.amount, product.price, block.timestamp);\n   }\n}\n",
  "sourcePath": "/Users/DK/work/ExSports/Git/ExSports/blockchain/ExSports-Service/smartContract/contracts/ExsMarket/ExsMarket.sol",
  "compiler": {
    "name": "solc",
    "version": "0.5.8+commit.23d335f2.Emscripten.clang"
  },
  "schemaVersion": "3.0.16",
  "updatedAt": "2020-05-27T06:33:35.714Z",
  "devdoc": {
    "methods": {
      "isOwner()": {
        "details": "Returns true if the caller is the current owner."
      },
      "owner()": {
        "details": "Returns the address of the current owner."
      },
      "renounceOwnership()": {
        "details": "Leaves the contract without owner. It will not be possible to call `onlyOwner` functions anymore. Can only be called by the current owner.     * > Note: Renouncing ownership will leave the contract without an owner, thereby removing any functionality that is only available to the owner."
      },
      "transferOwnership(address)": {
        "details": "Transfers ownership of the contract to a new account (`newOwner`). Can only be called by the current owner."
      }
    }
  },
  "userdoc": {
    "methods": {}
  }
}