{
  "contractName": "ExsToken",
  "abi": [
    {
      "constant": true,
      "inputs": [
        {
          "name": "_address",
          "type": "address"
        },
        {
          "name": "_tokenId",
          "type": "uint256"
        }
      ],
      "name": "balanceOf",
      "outputs": [
        {
          "name": "",
          "type": "uint256"
        }
      ],
      "payable": false,
      "stateMutability": "view",
      "type": "function"
    },
    {
      "constant": true,
      "inputs": [
        {
          "name": "interfaceId",
          "type": "bytes4"
        }
      ],
      "name": "supportsInterface",
      "outputs": [
        {
          "name": "",
          "type": "bool"
        }
      ],
      "payable": false,
      "stateMutability": "view",
      "type": "function"
    },
    {
      "constant": true,
      "inputs": [
        {
          "name": "_tokenId",
          "type": "uint256"
        }
      ],
      "name": "getApproved",
      "outputs": [
        {
          "name": "",
          "type": "address"
        }
      ],
      "payable": false,
      "stateMutability": "view",
      "type": "function"
    },
    {
      "constant": false,
      "inputs": [
        {
          "name": "_to",
          "type": "address"
        },
        {
          "name": "_tokenId",
          "type": "uint256"
        },
        {
          "name": "_amount",
          "type": "uint256"
        }
      ],
      "name": "transfer",
      "outputs": [],
      "payable": false,
      "stateMutability": "nonpayable",
      "type": "function"
    },
    {
      "constant": false,
      "inputs": [
        {
          "name": "_to",
          "type": "address"
        },
        {
          "name": "_tokenId",
          "type": "uint256"
        }
      ],
      "name": "approve",
      "outputs": [],
      "payable": false,
      "stateMutability": "nonpayable",
      "type": "function"
    },
    {
      "constant": false,
      "inputs": [
        {
          "name": "_from",
          "type": "address"
        },
        {
          "name": "_to",
          "type": "address"
        },
        {
          "name": "_tokenId",
          "type": "uint256"
        },
        {
          "name": "_amount",
          "type": "uint256"
        }
      ],
      "name": "safeTransferFrom",
      "outputs": [],
      "payable": false,
      "stateMutability": "nonpayable",
      "type": "function"
    },
    {
      "constant": true,
      "inputs": [],
      "name": "implementsERC721",
      "outputs": [
        {
          "name": "",
          "type": "bool"
        }
      ],
      "payable": false,
      "stateMutability": "pure",
      "type": "function"
    },
    {
      "constant": false,
      "inputs": [
        {
          "name": "_from",
          "type": "address"
        },
        {
          "name": "_to",
          "type": "address"
        },
        {
          "name": "_tokenIds",
          "type": "uint256[]"
        },
        {
          "name": "_amounts",
          "type": "uint256[]"
        }
      ],
      "name": "batchTransferFrom",
      "outputs": [],
      "payable": false,
      "stateMutability": "nonpayable",
      "type": "function"
    },
    {
      "constant": true,
      "inputs": [],
      "name": "totalSupply",
      "outputs": [
        {
          "name": "",
          "type": "uint256"
        }
      ],
      "payable": false,
      "stateMutability": "view",
      "type": "function"
    },
    {
      "constant": true,
      "inputs": [
        {
          "name": "_owner",
          "type": "address"
        }
      ],
      "name": "tokensOwned",
      "outputs": [
        {
          "name": "indexes",
          "type": "uint256[]"
        },
        {
          "name": "balances",
          "type": "uint256[]"
        }
      ],
      "payable": false,
      "stateMutability": "view",
      "type": "function"
    },
    {
      "constant": false,
      "inputs": [
        {
          "name": "_from",
          "type": "address"
        },
        {
          "name": "_to",
          "type": "address"
        },
        {
          "name": "_tokenId",
          "type": "uint256"
        }
      ],
      "name": "transferFrom",
      "outputs": [],
      "payable": false,
      "stateMutability": "nonpayable",
      "type": "function"
    },
    {
      "constant": false,
      "inputs": [
        {
          "name": "_from",
          "type": "address"
        },
        {
          "name": "_to",
          "type": "address"
        },
        {
          "name": "_tokenIds",
          "type": "uint256[]"
        },
        {
          "name": "_amounts",
          "type": "uint256[]"
        },
        {
          "name": "_data",
          "type": "bytes"
        }
      ],
      "name": "safeBatchTransferFrom",
      "outputs": [],
      "payable": false,
      "stateMutability": "nonpayable",
      "type": "function"
    },
    {
      "constant": true,
      "inputs": [
        {
          "name": "_owner",
          "type": "address"
        },
        {
          "name": "_index",
          "type": "uint256"
        }
      ],
      "name": "tokenOfOwnerByIndex",
      "outputs": [
        {
          "name": "_tokenId",
          "type": "uint256"
        }
      ],
      "payable": false,
      "stateMutability": "pure",
      "type": "function"
    },
    {
      "constant": false,
      "inputs": [
        {
          "name": "_from",
          "type": "address"
        },
        {
          "name": "_to",
          "type": "address"
        },
        {
          "name": "_tokenId",
          "type": "uint256"
        }
      ],
      "name": "safeTransferFrom",
      "outputs": [],
      "payable": false,
      "stateMutability": "nonpayable",
      "type": "function"
    },
    {
      "constant": true,
      "inputs": [
        {
          "name": "_tokenId",
          "type": "uint256"
        }
      ],
      "name": "exists",
      "outputs": [
        {
          "name": "",
          "type": "bool"
        }
      ],
      "payable": false,
      "stateMutability": "view",
      "type": "function"
    },
    {
      "constant": true,
      "inputs": [
        {
          "name": "_index",
          "type": "uint256"
        }
      ],
      "name": "tokenByIndex",
      "outputs": [
        {
          "name": "",
          "type": "uint256"
        }
      ],
      "payable": false,
      "stateMutability": "view",
      "type": "function"
    },
    {
      "constant": true,
      "inputs": [
        {
          "name": "_tokenId",
          "type": "uint256"
        }
      ],
      "name": "ownerOf",
      "outputs": [
        {
          "name": "",
          "type": "address"
        }
      ],
      "payable": false,
      "stateMutability": "view",
      "type": "function"
    },
    {
      "constant": true,
      "inputs": [
        {
          "name": "_owner",
          "type": "address"
        }
      ],
      "name": "balanceOf",
      "outputs": [
        {
          "name": "balance",
          "type": "uint256"
        }
      ],
      "payable": false,
      "stateMutability": "view",
      "type": "function"
    },
    {
      "constant": true,
      "inputs": [],
      "name": "implementsERC721X",
      "outputs": [
        {
          "name": "",
          "type": "bool"
        }
      ],
      "payable": false,
      "stateMutability": "pure",
      "type": "function"
    },
    {
      "constant": false,
      "inputs": [
        {
          "name": "_operator",
          "type": "address"
        },
        {
          "name": "_approved",
          "type": "bool"
        }
      ],
      "name": "setApprovalForAll",
      "outputs": [],
      "payable": false,
      "stateMutability": "nonpayable",
      "type": "function"
    },
    {
      "constant": false,
      "inputs": [
        {
          "name": "_from",
          "type": "address"
        },
        {
          "name": "_to",
          "type": "address"
        },
        {
          "name": "_tokenId",
          "type": "uint256"
        },
        {
          "name": "_data",
          "type": "bytes"
        }
      ],
      "name": "safeTransferFrom",
      "outputs": [],
      "payable": false,
      "stateMutability": "nonpayable",
      "type": "function"
    },
    {
      "constant": true,
      "inputs": [
        {
          "name": "_tokenId",
          "type": "uint256"
        }
      ],
      "name": "tokenURI",
      "outputs": [
        {
          "name": "",
          "type": "string"
        }
      ],
      "payable": false,
      "stateMutability": "view",
      "type": "function"
    },
    {
      "constant": true,
      "inputs": [],
      "name": "marketAddr",
      "outputs": [
        {
          "name": "",
          "type": "address"
        }
      ],
      "payable": false,
      "stateMutability": "view",
      "type": "function"
    },
    {
      "constant": true,
      "inputs": [],
      "name": "tradeAddr",
      "outputs": [
        {
          "name": "",
          "type": "address"
        }
      ],
      "payable": false,
      "stateMutability": "view",
      "type": "function"
    },
    {
      "constant": true,
      "inputs": [
        {
          "name": "_owner",
          "type": "address"
        },
        {
          "name": "_operator",
          "type": "address"
        }
      ],
      "name": "isApprovedForAll",
      "outputs": [
        {
          "name": "isOperator",
          "type": "bool"
        }
      ],
      "payable": false,
      "stateMutability": "view",
      "type": "function"
    },
    {
      "constant": false,
      "inputs": [
        {
          "name": "_from",
          "type": "address"
        },
        {
          "name": "_to",
          "type": "address"
        },
        {
          "name": "_tokenId",
          "type": "uint256"
        },
        {
          "name": "_amount",
          "type": "uint256"
        },
        {
          "name": "_data",
          "type": "bytes"
        }
      ],
      "name": "safeTransferFrom",
      "outputs": [],
      "payable": false,
      "stateMutability": "nonpayable",
      "type": "function"
    },
    {
      "constant": false,
      "inputs": [
        {
          "name": "_from",
          "type": "address"
        },
        {
          "name": "_to",
          "type": "address"
        },
        {
          "name": "_tokenId",
          "type": "uint256"
        },
        {
          "name": "_amount",
          "type": "uint256"
        }
      ],
      "name": "transferFrom",
      "outputs": [],
      "payable": false,
      "stateMutability": "nonpayable",
      "type": "function"
    },
    {
      "inputs": [],
      "payable": false,
      "stateMutability": "nonpayable",
      "type": "constructor"
    },
    {
      "anonymous": false,
      "inputs": [
        {
          "indexed": false,
          "name": "_addr",
          "type": "address"
        }
      ],
      "name": "NewMarketAddress",
      "type": "event"
    },
    {
      "anonymous": false,
      "inputs": [
        {
          "indexed": false,
          "name": "_addr",
          "type": "address"
        }
      ],
      "name": "NewTradeAddress",
      "type": "event"
    },
    {
      "anonymous": false,
      "inputs": [
        {
          "indexed": false,
          "name": "_owner",
          "type": "address"
        },
        {
          "indexed": false,
          "name": "_to",
          "type": "address"
        },
        {
          "indexed": false,
          "name": "_productId",
          "type": "uint256"
        },
        {
          "indexed": false,
          "name": "_timestamp",
          "type": "uint256"
        }
      ],
      "name": "RegisterServiceProduct",
      "type": "event"
    },
    {
      "anonymous": false,
      "inputs": [
        {
          "indexed": false,
          "name": "_owner",
          "type": "address"
        },
        {
          "indexed": false,
          "name": "_to",
          "type": "address"
        },
        {
          "indexed": false,
          "name": "_productId",
          "type": "uint256"
        },
        {
          "indexed": false,
          "name": "_timestamp",
          "type": "uint256"
        }
      ],
      "name": "RegisterUserProduct",
      "type": "event"
    },
    {
      "anonymous": false,
      "inputs": [
        {
          "indexed": false,
          "name": "_owner",
          "type": "address"
        },
        {
          "indexed": false,
          "name": "_to",
          "type": "address"
        },
        {
          "indexed": false,
          "name": "_productId",
          "type": "uint256"
        },
        {
          "indexed": false,
          "name": "_timestamp",
          "type": "uint256"
        }
      ],
      "name": "RegisterTradeProduct",
      "type": "event"
    },
    {
      "anonymous": false,
      "inputs": [
        {
          "indexed": false,
          "name": "from",
          "type": "address"
        },
        {
          "indexed": false,
          "name": "to",
          "type": "address"
        },
        {
          "indexed": false,
          "name": "tokenTypes",
          "type": "uint256[]"
        },
        {
          "indexed": false,
          "name": "amounts",
          "type": "uint256[]"
        }
      ],
      "name": "BatchTransfer",
      "type": "event"
    },
    {
      "anonymous": false,
      "inputs": [
        {
          "indexed": true,
          "name": "from",
          "type": "address"
        },
        {
          "indexed": true,
          "name": "to",
          "type": "address"
        },
        {
          "indexed": true,
          "name": "tokenId",
          "type": "uint256"
        }
      ],
      "name": "Transfer",
      "type": "event"
    },
    {
      "anonymous": false,
      "inputs": [
        {
          "indexed": true,
          "name": "owner",
          "type": "address"
        },
        {
          "indexed": true,
          "name": "approved",
          "type": "address"
        },
        {
          "indexed": true,
          "name": "tokenId",
          "type": "uint256"
        }
      ],
      "name": "Approval",
      "type": "event"
    },
    {
      "anonymous": false,
      "inputs": [
        {
          "indexed": true,
          "name": "owner",
          "type": "address"
        },
        {
          "indexed": true,
          "name": "operator",
          "type": "address"
        },
        {
          "indexed": false,
          "name": "approved",
          "type": "bool"
        }
      ],
      "name": "ApprovalForAll",
      "type": "event"
    },
    {
      "anonymous": false,
      "inputs": [
        {
          "indexed": true,
          "name": "from",
          "type": "address"
        },
        {
          "indexed": true,
          "name": "to",
          "type": "address"
        },
        {
          "indexed": true,
          "name": "tokenId",
          "type": "uint256"
        },
        {
          "indexed": false,
          "name": "quantity",
          "type": "uint256"
        }
      ],
      "name": "TransferWithQuantity",
      "type": "event"
    },
    {
      "constant": true,
      "inputs": [],
      "name": "name",
      "outputs": [
        {
          "name": "",
          "type": "string"
        }
      ],
      "payable": false,
      "stateMutability": "view",
      "type": "function"
    },
    {
      "constant": true,
      "inputs": [],
      "name": "symbol",
      "outputs": [
        {
          "name": "",
          "type": "string"
        }
      ],
      "payable": false,
      "stateMutability": "view",
      "type": "function"
    },
    {
      "constant": false,
      "inputs": [
        {
          "name": "_addr",
          "type": "address"
        }
      ],
      "name": "setMarketAddress",
      "outputs": [],
      "payable": false,
      "stateMutability": "nonpayable",
      "type": "function"
    },
    {
      "constant": true,
      "inputs": [],
      "name": "getMarketAddress",
      "outputs": [
        {
          "name": "",
          "type": "address"
        }
      ],
      "payable": false,
      "stateMutability": "view",
      "type": "function"
    },
    {
      "constant": false,
      "inputs": [
        {
          "name": "_addr",
          "type": "address"
        }
      ],
      "name": "setTradeAddress",
      "outputs": [],
      "payable": false,
      "stateMutability": "nonpayable",
      "type": "function"
    },
    {
      "constant": true,
      "inputs": [],
      "name": "getTradeAddress",
      "outputs": [
        {
          "name": "",
          "type": "address"
        }
      ],
      "payable": false,
      "stateMutability": "view",
      "type": "function"
    },
    {
      "constant": false,
      "inputs": [
        {
          "name": "_owner",
          "type": "address"
        },
        {
          "name": "_operator",
          "type": "address"
        },
        {
          "name": "approval",
          "type": "bool"
        }
      ],
      "name": "setOperator",
      "outputs": [],
      "payable": false,
      "stateMutability": "nonpayable",
      "type": "function"
    },
    {
      "constant": false,
      "inputs": [
        {
          "name": "_tokenId",
          "type": "uint256"
        },
        {
          "name": "_to",
          "type": "address"
        },
        {
          "name": "_supply",
          "type": "uint256"
        }
      ],
      "name": "mint",
      "outputs": [],
      "payable": false,
      "stateMutability": "nonpayable",
      "type": "function"
    },
    {
      "constant": true,
      "inputs": [
        {
          "name": "_owner",
          "type": "address"
        }
      ],
      "name": "totalBalanceOf",
      "outputs": [
        {
          "name": "",
          "type": "uint256"
        },
        {
          "name": "",
          "type": "uint256"
        }
      ],
      "payable": false,
      "stateMutability": "view",
      "type": "function"
    },
    {
      "constant": false,
      "inputs": [
        {
          "name": "_owner",
          "type": "address"
        },
        {
          "name": "_tokenId",
          "type": "uint256"
        },
        {
          "name": "_totalAmount",
          "type": "uint256"
        },
        {
          "name": "_perPrice",
          "type": "uint256"
        }
      ],
      "name": "registerServiceProduct",
      "outputs": [
        {
          "name": "",
          "type": "bool"
        }
      ],
      "payable": true,
      "stateMutability": "payable",
      "type": "function"
    },
    {
      "constant": false,
      "inputs": [
        {
          "name": "_owner",
          "type": "address"
        },
        {
          "name": "_tokenId",
          "type": "uint256"
        },
        {
          "name": "_amount",
          "type": "uint256"
        },
        {
          "name": "_price",
          "type": "uint256"
        }
      ],
      "name": "registerUserProduct",
      "outputs": [
        {
          "name": "",
          "type": "bool"
        }
      ],
      "payable": true,
      "stateMutability": "payable",
      "type": "function"
    },
    {
      "constant": false,
      "inputs": [
        {
          "name": "_owner",
          "type": "address"
        },
        {
          "name": "_offerTokenIds",
          "type": "uint256[]"
        },
        {
          "name": "_offerTokenAmounts",
          "type": "uint256[]"
        },
        {
          "name": "_requiredTokenIds",
          "type": "uint256[]"
        },
        {
          "name": "_requiredTokenAmounts",
          "type": "uint256[]"
        }
      ],
      "name": "registerTradeProduct",
      "outputs": [
        {
          "name": "",
          "type": "bool"
        }
      ],
      "payable": true,
      "stateMutability": "payable",
      "type": "function"
    }
  ],
  "bytecode": "0x60806040523480156200001157600080fd5b5060405180602001604052806000815250806200003b6301ffc9a760e01b6200008960201b60201c565b620000536380ac58cd60e01b6200008960201b60201c565b80516200006890600b90602084019062000158565b5062000081635b5e139f60e01b6200008960201b60201c565b5050620001fd565b7fffffffff0000000000000000000000000000000000000000000000000000000080821614156200011b57604080517f08c379a000000000000000000000000000000000000000000000000000000000815260206004820152601c60248201527f4552433136353a20696e76616c696420696e7465726661636520696400000000604482015290519081900360640190fd5b7fffffffff00000000000000000000000000000000000000000000000000000000166000908152602081905260409020805460ff19166001179055565b828054600181600116156101000203166002900490600052602060002090601f016020900481019282601f106200019b57805160ff1916838001178555620001cb565b82800160010185558215620001cb579182015b82811115620001cb578251825591602001919060010190620001ae565b50620001d9929150620001dd565b5090565b620001fa91905b80821115620001d95760008155600101620001e4565b90565b61345c806200020d6000396000f3fe60806040526004361061021f5760003560e01c80636352211e1161012e578063c87b56dd116100ab578063e7334fe51161006f578063e7334fe514610efb578063e985e9c514610f10578063f242432a14610f4b578063fae9261214611021578063fe99049a146110545761021f565b8063c87b56dd14610c38578063cefa74cc14610c62578063d2e37c7914610c77578063d601f4d614610caf578063dd21b6c214610cc45761021f565b80638677412f116100f25780638677412f14610abd57806395d89b4114610ad2578063a22cb46514610ae7578063b88d4fde14610b22578063bc735d9014610bf35761021f565b80636352211e146109e957806370a0823114610a135780637e9563de14610a465780637fb42a361461044a578063836a104014610a7e5761021f565b806318160ddd116101bc5780632f745c59116101805780632f745c59146108cd57806342842e0e146109065780634b0ee02a146109495780634f558e79146109955780634f6ccce7146109bf5761021f565b806318160ddd146105a857806321a9cf34146105bd57806321cda790146105f057806323b872dd146106bc5780632eb2c2d6146106ff5761021f565b8062fdd58e1461022457806301ffc9a71461026f57806306fdde03146102b7578063081812fc14610341578063095bcdb614610387578063095ea7b3146103c85780630febdd49146104015780631051db341461044a57806317fad7fc1461045f575b600080fd5b34801561023057600080fd5b5061025d6004803603604081101561024757600080fd5b506001600160a01b03813516906020013561109d565b60408051918252519081900360200190f35b34801561027b57600080fd5b506102a36004803603602081101561029257600080fd5b50356001600160e01b0319166110ed565b604080519115158252519081900360200190f35b3480156102c357600080fd5b506102cc611110565b6040805160208082528351818301528351919283929083019185019080838360005b838110156103065781810151838201526020016102ee565b50505050905090810190601f1680156103335780820380516001836020036101000a031916815260200191505b509250505060405180910390f35b34801561034d57600080fd5b5061036b6004803603602081101561036457600080fd5b503561113c565b604080516001600160a01b039092168252519081900360200190f35b34801561039357600080fd5b506103c6600480360360608110156103aa57600080fd5b506001600160a01b038135169060208101359060400135611157565b005b3480156103d457600080fd5b506103c6600480360360408110156103eb57600080fd5b506001600160a01b038135169060200135611168565b34801561040d57600080fd5b506103c66004803603608081101561042457600080fd5b506001600160a01b03813581169160208101359091169060408101359060600135611215565b34801561045657600080fd5b506102a3611237565b34801561046b57600080fd5b506103c66004803603608081101561048257600080fd5b6001600160a01b038235811692602081013590911691810190606081016040820135600160201b8111156104b557600080fd5b8201836020820111156104c757600080fd5b803590602001918460208302840111600160201b831117156104e857600080fd5b9190808060200260200160405190810160405280939291908181526020018383602002808284376000920191909152509295949360208101935035915050600160201b81111561053757600080fd5b82018360208201111561054957600080fd5b803590602001918460208302840111600160201b8311171561056a57600080fd5b91908080602002602001604051908101604052809392919081815260200183836020028082843760009201919091525092955061123c945050505050565b3480156105b457600080fd5b5061025d611248565b3480156105c957600080fd5b506103c6600480360360208110156105e057600080fd5b50356001600160a01b031661124e565b3480156105fc57600080fd5b506106236004803603602081101561061357600080fd5b50356001600160a01b031661130f565b604051808060200180602001838103835285818151815260200191508051906020019060200280838360005b8381101561066757818101518382015260200161064f565b50505050905001838103825284818151815260200191508051906020019060200280838360005b838110156106a657818101518382015260200161068e565b5050505090500194505050505060405180910390f35b3480156106c857600080fd5b506103c6600480360360608110156106df57600080fd5b506001600160a01b038135811691602081013590911690604001356114d7565b34801561070b57600080fd5b506103c6600480360360a081101561072257600080fd5b6001600160a01b038235811692602081013590911691810190606081016040820135600160201b81111561075557600080fd5b82018360208201111561076757600080fd5b803590602001918460208302840111600160201b8311171561078857600080fd5b9190808060200260200160405190810160405280939291908181526020018383602002808284376000920191909152509295949360208101935035915050600160201b8111156107d757600080fd5b8201836020820111156107e957600080fd5b803590602001918460208302840111600160201b8311171561080a57600080fd5b9190808060200260200160405190810160405280939291908181526020018383602002808284376000920191909152509295949360208101935035915050600160201b81111561085957600080fd5b82018360208201111561086b57600080fd5b803590602001918460018302840111600160201b8311171561088c57600080fd5b91908080601f0160208091040260200160405190810160405280939291908181526020018383808284376000920191909152509295506114e2945050505050565b3480156108d957600080fd5b5061025d600480360360408110156108f057600080fd5b506001600160a01b0381351690602001356116c6565b34801561091257600080fd5b506103c66004803603606081101561092957600080fd5b506001600160a01b038135811691602081013590911690604001356116ce565b34801561095557600080fd5b5061097c6004803603602081101561096c57600080fd5b50356001600160a01b03166116e9565b6040805192835260208301919091528051918290030190f35b3480156109a157600080fd5b506102a3600480360360208110156109b857600080fd5b50356117bd565b3480156109cb57600080fd5b5061025d600480360360208110156109e257600080fd5b50356117d1565b3480156109f557600080fd5b5061036b60048036036020811015610a0c57600080fd5b5035611805565b348015610a1f57600080fd5b5061025d60048036036020811015610a3657600080fd5b50356001600160a01b031661188d565b6102a360048036036080811015610a5c57600080fd5b506001600160a01b0381351690602081013590604081013590606001356118a3565b348015610a8a57600080fd5b506103c660048036036060811015610aa157600080fd5b508035906001600160a01b036020820135169060400135611a7b565b348015610ac957600080fd5b5061036b611a86565b348015610ade57600080fd5b506102cc611a95565b348015610af357600080fd5b506103c660048036036040811015610b0a57600080fd5b506001600160a01b0381351690602001351515611ab5565b348015610b2e57600080fd5b506103c660048036036080811015610b4557600080fd5b6001600160a01b03823581169260208101359091169160408201359190810190608081016060820135600160201b811115610b7f57600080fd5b820183602082011115610b9157600080fd5b803590602001918460018302840111600160201b83111715610bb257600080fd5b91908080601f016020809104026020016040519081016040528093929190818152602001838380828437600092019190915250929550611b11945050505050565b348015610bff57600080fd5b506103c660048036036060811015610c1657600080fd5b506001600160a01b038135811691602081013590911690604001351515611b66565b348015610c4457600080fd5b506102cc60048036036020811015610c5b57600080fd5b5035611bc4565b348015610c6e57600080fd5b5061036b611d05565b6102a360048036036080811015610c8d57600080fd5b506001600160a01b038135169060208101359060408101359060600135611d14565b348015610cbb57600080fd5b5061036b611ede565b6102a3600480360360a0811015610cda57600080fd5b6001600160a01b038235169190810190604081016020820135600160201b811115610d0457600080fd5b820183602082011115610d1657600080fd5b803590602001918460208302840111600160201b83111715610d3757600080fd5b9190808060200260200160405190810160405280939291908181526020018383602002808284376000920191909152509295949360208101935035915050600160201b811115610d8657600080fd5b820183602082011115610d9857600080fd5b803590602001918460208302840111600160201b83111715610db957600080fd5b9190808060200260200160405190810160405280939291908181526020018383602002808284376000920191909152509295949360208101935035915050600160201b811115610e0857600080fd5b820183602082011115610e1a57600080fd5b803590602001918460208302840111600160201b83111715610e3b57600080fd5b9190808060200260200160405190810160405280939291908181526020018383602002808284376000920191909152509295949360208101935035915050600160201b811115610e8a57600080fd5b820183602082011115610e9c57600080fd5b803590602001918460208302840111600160201b83111715610ebd57600080fd5b919080806020026020016040519081016040528093929190818152602001838360200280828437600092019190915250929550611eed945050505050565b348015610f0757600080fd5b5061036b6121f2565b348015610f1c57600080fd5b506102a360048036036040811015610f3357600080fd5b506001600160a01b0381358116916020013516612201565b348015610f5757600080fd5b506103c6600480360360a0811015610f6e57600080fd5b6001600160a01b03823581169260208101359091169160408201359160608101359181019060a081016080820135600160201b811115610fad57600080fd5b820183602082011115610fbf57600080fd5b803590602001918460018302840111600160201b83111715610fe057600080fd5b91908080601f01602080910402602001604051908101604052809392919081815260200183838082843760009201919091525092955061222f945050505050565b34801561102d57600080fd5b506103c66004803603602081101561104457600080fd5b50356001600160a01b0316612286565b34801561106057600080fd5b506103c66004803603608081101561107757600080fd5b506001600160a01b03813581169160208101359091169060408101359060600135612347565b60008060006110ab84612353565b6001600160a01b038716600090815260066020908152604080832085845290915290205491935091506110e4908263ffffffff61236416565b95945050505050565b6001600160e01b0319811660009081526020819052604090205460ff165b919050565b60408051808201909152600f8152600160881b6e457853706f72747320546f6b656e7302602082015290565b6000908152600960205260409020546001600160a01b031690565b6111633384848461237c565b505050565b600061117382611805565b9050806001600160a01b0316836001600160a01b0316141561119457600080fd5b336001600160a01b03821614806111b057506111b08133612201565b6111b957600080fd5b60008281526009602052604080822080546001600160a01b0319166001600160a01b0387811691821790925591518593918516917f8c5be1e5ebec7d5bd14f71427d1e84f3dd0314c0f7b2291e5b200ac8c7c3b92591a4505050565b611231848484846040518060200160405280600081525061222f565b50505050565b600190565b6112318484848461251e565b60055490565b336001600160a01b038216158015906112755750600d546001600160a01b03838116911614155b6112ba5760408051600160e51b62461bcd02815260206004820152600b6024820152600160a91b6a2fb0b232391032b93937b902604482015290519081900360640190fd5b600d80546001600160a01b0384166001600160a01b0319909116811790915560408051918252517f680acad08e291f0ec3e83cb73446ebc1fd3532428e893fdf770d2965453d7aa59181900360200190a15050565b606080600061131c611248565b905060608160405190808252806020026020018201604052801561134a578160200160208202803883390190505b509050606082604051908082528060200260200182016040528015611379578160200160208202803883390190505b5090506000805b848110156114005760006005828154811061139757fe5b9060005260206000200154905060006113b08a8361109d565b11156113f7576113c0898261109d565b8484815181106113cc57fe5b602002602001018181525050808584815181106113e557fe5b60209081029190910101526001909201915b50600101611380565b5060608160405190808252806020026020018201604052801561142d578160200160208202803883390190505b50905060608260405190808252806020026020018201604052801561145c578160200160208202803883390190505b50905060005b838110156114c95784818151811061147657fe5b602002602001015183828151811061148a57fe5b6020026020010181815250508581815181106114a257fe5b60200260200101518282815181106114b657fe5b6020908102919091010152600101611462565b509650945050505050915091565b611163838383612add565b6114ee8585858561251e565b611500846001600160a01b0316612bd0565b156116bf576000846001600160a01b031663b3b0f4c733888787876040518663ffffffff1660e01b815260040180866001600160a01b03166001600160a01b03168152602001856001600160a01b03166001600160a01b03168152602001806020018060200180602001848103845287818151815260200191508051906020019060200280838360005b838110156115a257818101518382015260200161158a565b50505050905001848103835286818151815260200191508051906020019060200280838360005b838110156115e15781810151838201526020016115c9565b50505050905001848103825285818151815260200191508051906020019080838360005b8381101561161d578181015183820152602001611605565b50505050905090810190601f16801561164a5780820380516001836020036101000a031916815260200191505b5098505050505050505050602060405180830381600087803b15801561166f57600080fd5b505af1158015611683573d6000803e3d6000fd5b505050506040513d602081101561169957600080fd5b505190506001600160e01b03198116600160e11b6374f2df3502146116bd57600080fd5b505b5050505050565b600092915050565b61116383838360405180602001604052806000815250611b11565b60008060006116f6611248565b9050606081604051908082528060200260200182016040528015611724578160200160208202803883390190505b509050606082604051908082528060200260200182016040528015611753578160200160208202803883390190505b509050600080805b858110156117af5760006005828154811061177257fe5b90600052602060002001549050600061178b8b8361109d565b11156117a65761179b8a8261109d565b600190940193909201915b5060010161175b565b509095509350505050915091565b6000908152600a6020526040902054151590565b60006117db611248565b82106117e657600080fd5b600582815481106117f357fe5b90600052602060002001549050919050565b6000818152600760205260408120546001600160a01b03166118715760408051600160e51b62461bcd02815260206004820152601360248201527f436f696e20646f6573206e6f7420657869737400000000000000000000000000604482015290519081900360640190fd5b506000908152600760205260409020546001600160a01b031690565b6000606061189a8361130f565b51949350505050565b6000336118b1858786612bd6565b6001600160a01b03861660008181526008602090815260408083203380855290835292819020805460ff19166001908117909155815190815290519293926000805160206132f9833981519152929181900390910190a3600c80546001600160a01b0390811660009081526008602090815260408083203380855290835292819020805460ff1916600190811790915594548151958652905192949316926000805160206132f9833981519152929081900390910190a3600c546119819087906001600160a01b03168787612347565b600c5460408051600160e11b633f4ab1ef0281526001600160a01b03898116600483015260248201899052604482018890526064820187905291516000939290921691637e9563de9160848082019260209290919082900301818787803b1580156119eb57600080fd5b505af11580156119ff573d6000803e3d6000fd5b505050506040513d6020811015611a1557600080fd5b5051600c54604080516001600160a01b03808c1682529092166020830152818101839052426060830152519192507fce86f5f717aa0a87c743d7b8007477a6b94eb38a5a34467e99d470a9259af81d919081900360800190a15060019695505050505050565b611163838383612bd6565b600d546001600160a01b031690565b6040805180820190915260038152600160ea1b6211561502602082015290565b3360008181526008602090815260408083206001600160a01b03871680855290835292819020805460ff1916861515908117909155815190815290519293926000805160206132f9833981519152929181900390910190a35050565b611b1c848484612add565b611b2884848484612cd4565b61123157604051600160e51b62461bcd0281526004018080602001828103825260328152602001806133626032913960400191505060405180910390fd5b336001600160a01b03848116600081815260086020908152604080832094881680845294825291829020805460ff1916871515908117909155825190815291516000805160206132f98339815191529281900390910190a350505050565b6060611bcf826117bd565b611c235760408051600160e51b62461bcd02815260206004820152601360248201527f546f6b656e20646f65736e277420657869737400000000000000000000000000604482015290519081900360640190fd5b600b611c2e83612e0d565b6040516020018083805460018160011615610100020316600290048015611c8c5780601f10611c6a576101008083540402835291820191611c8c565b820191906000526020600020905b815481529060010190602001808311611c78575b5050825160208401908083835b60208310611cb85780518252601f199092019160209182019101611c99565b5181516020939093036101000a6000190180199091169216919091179052600160d91b64173539b7b70292019182525060408051808303601a190181526005909201905295945050505050565b600c546001600160a01b031681565b6001600160a01b038416600081815260086020908152604080832033808552908352818420805460ff19166001908117909155825190815291519394909390926000805160206132f9833981519152928290030190a3600c80546001600160a01b0390811660009081526008602090815260408083203380855290835292819020805460ff1916600190811790915594548151958652905192949316926000805160206132f9833981519152929081900390910190a3600c54611de39086906001600160a01b03168686612347565b600c5460408051600160e01b63d2e37c790281526001600160a01b0388811660048301526024820188905260448201879052606482018690529151600093929092169163d2e37c799160848082019260209290919082900301818787803b158015611e4d57600080fd5b505af1158015611e61573d6000803e3d6000fd5b505050506040513d6020811015611e7757600080fd5b5051600c54604080516001600160a01b03808b1682529092166020830152818101839052426060830152519192507fdcb8a78e2f6c377e04d06ca34bf742251cdca1f486f06fe4a9406bbff6548e56919081900360800190a160019150505b949350505050565b600d546001600160a01b031681565b60008351855114611efd57600080fd5b8151835114611f0b57600080fd5b6001600160a01b03861660008181526008602090815260408083203380855290835292819020805460ff19166001908117909155815190815290519293926000805160206132f9833981519152929181900390910190a3600d80546001600160a01b0390811660009081526008602090815260408083203380855290835292819020805460ff1916600190811790915594548151958652905192949316926000805160206132f9833981519152929081900390910190a3600d54611fdb9087906001600160a01b0316878761123c565b6000600d60009054906101000a90046001600160a01b03166001600160a01b031663dd21b6c288888888886040518663ffffffff1660e01b815260040180866001600160a01b03166001600160a01b0316815260200180602001806020018060200180602001858103855289818151815260200191508051906020019060200280838360005b83811015612079578181015183820152602001612061565b50505050905001858103845288818151815260200191508051906020019060200280838360005b838110156120b85781810151838201526020016120a0565b50505050905001858103835287818151815260200191508051906020019060200280838360005b838110156120f75781810151838201526020016120df565b50505050905001858103825286818151815260200191508051906020019060200280838360005b8381101561213657818101518382015260200161211e565b505050509050019950505050505050505050602060405180830381600087803b15801561216257600080fd5b505af1158015612176573d6000803e3d6000fd5b505050506040513d602081101561218c57600080fd5b5051600d54604080516001600160a01b03808c1682529092166020830152818101839052426060830152519192507fd56d6a4da272f07d2a247f32cfa7e48b702f829e97a86d5532c6250fa1f81064919081900360800190a15060019695505050505050565b600c546001600160a01b031690565b6001600160a01b03918216600090815260086020908152604080832093909416825291909152205460ff1690565b61223b8585858561237c565b6122488585858585612ed1565b6116bf57604051600160e51b62461bcd0281526004018080602001828103825260338152602001806133dc6033913960400191505060405180910390fd5b336001600160a01b038216158015906122ad5750600c546001600160a01b03838116911614155b6122f25760408051600160e51b62461bcd02815260206004820152600b6024820152600160a91b6a2fb0b232391032b93937b902604482015290519081900360640190fd5b600c80546001600160a01b0384166001600160a01b0319909116811790915560408051918252517fc4b5334fc8dc862ede501ee38a7c612b43bfbc1655f77550d870841e299d8e029181900360200190a15050565b6112318484848461237c565b610100601082020491600f90911690565b600181016010026101000382901c61ffff1692915050565b83336001600160a01b03821614806123b757506001600160a01b038116600090815260086020908152604080832033845290915290205460ff165b6123f557604051600160e51b62461bcd0281526004018080602001828103825260288152602001806133b46028913960400191505060405180910390fd5b6000838152600a602052604090205460021461241057600080fd5b61241a858461109d565b82111561245b57604051600160e51b62461bcd02815260040180806020018281038252602281526020018061340f6022913960400191505060405180910390fd5b6001600160a01b0384166124b15760408051600160e51b62461bcd0281526020600482015260126024820152600160701b71496e76616c696420746f206164647265737302604482015290519081900360640190fd5b6124be858484600161302d565b6124cb848484600061302d565b82846001600160a01b0316866001600160a01b03167f2114851a3e2a54429989f46c1ab0743e37ded205d9bbdfd85635aed5bd595a06856040518082815260200191505060405180910390a45050505050565b83336001600160a01b038216148061255957506001600160a01b038116600090815260086020908152604080832033845290915290205460ff165b61259757604051600160e51b62461bcd0281526004018080602001828103825260288152602001806133b46028913960400191505060405180910390fd5b81518351146125da57604051600160e51b62461bcd0281526004018080602001828103825260268152602001806133196026913960400191505060405180910390fd5b6001600160a01b03841661262f5760408051600160e51b62461bcd02815260206004820152601160248201526001607a1b70125b9d985b1a59081c9958da5c1a595b9d02604482015290519081900360640190fd5b6001600a60008560008151811061264257fe5b602002602001015181526020019081526020016000205414156126ef5783600760008560008151811061267157fe5b6020026020010151815260200190815260200160002060006101000a8154816001600160a01b0302191690836001600160a01b03160217905550826000815181106126b857fe5b6020026020010151846001600160a01b0316866001600160a01b031660008051602061339483398151915260405160405180910390a45b60008061270f8560008151811061270257fe5b6020026020010151612353565b91509150600061276c600660008a6001600160a01b03166001600160a01b03168152602001908152602001600020600085815260200190815260200160002054838760008151811061275d57fe5b602002602001015160016130a4565b905060006127c7600660008a6001600160a01b03166001600160a01b0316815260200190815260200160002060008681526020019081526020016000205484886000815181106127b857fe5b602002602001015160006130a4565b87519091508460015b8281101561296a576001600a60008c84815181106127ea57fe5b60200260200101518152602001908152602001600020541415612895578a600760008c848151811061281857fe5b6020026020010151815260200190815260200160002060006101000a8154816001600160a01b0302191690836001600160a01b0316021790555089818151811061285e57fe5b60200260200101518b6001600160a01b03168d6001600160a01b031660008051602061339483398151915260405160405180910390a45b6128a48a828151811061270257fe5b9097509550818714612908576001600160a01b038c811660009081526006602081815260408084208785528083528185209a909a55938f16835290815282822094825284815282822096909655888152958552808620549290945292909320549185905b612933868a838151811061291857fe5b60200260200101516001886130a4909392919063ffffffff16565b9450612960868a838151811061294557fe5b60200260200101516000876130a4909392919063ffffffff16565b93506001016127d0565b5083600660008d6001600160a01b03166001600160a01b0316815260200190815260200160002060008881526020019081526020016000208190555082600660008c6001600160a01b03166001600160a01b031681526020019081526020016000206000888152602001908152602001600020819055507ff59807b2c31ca3ba212e90599175c120c556422950bac5be656274483e8581df8b8b8b8b60405180856001600160a01b03166001600160a01b03168152602001846001600160a01b03166001600160a01b031681526020018060200180602001838103835285818151815260200191508051906020019060200280838360005b83811015612a7a578181015183820152602001612a62565b50505050905001838103825284818151815260200191508051906020019060200280838360005b83811015612ab9578181015183820152602001612aa1565b50505050905001965050505050505060405180910390a15050505050505050505050565b6000818152600a6020526040902054600114612af857600080fd5b612b0b83612b0583611805565b83613182565b612b1457600080fd5b6001600160a01b038216612b6a5760408051600160e51b62461bcd0281526020600482015260126024820152600160701b71496e76616c696420746f206164647265737302604482015290519081900360640190fd5b612b7883826000600261302d565b612b8682826001600261302d565b60008181526007602052604080822080546001600160a01b0319166001600160a01b03868116918217909255915184939187169160008051602061339483398151915291a4505050565b3b151590565b612bdf836117bd565b612c2b576000838152600a60205260408120600290556005805460018101825591527f036b6384b5eca791c62761152d0c79bb0604c104a5fb6f4eb0703f3154bb3db001839055612c7f565b6000838152600a6020526040902054600214612c7f5760408051600160e51b62461bcd0281526020600482015260086024820152600160c21b67139bdd081848119502604482015290519081900360640190fd5b612c8c828483600061302d565b60408051828152905184916001600160a01b0385169130917f2114851a3e2a54429989f46c1ab0743e37ded205d9bbdfd85635aed5bd595a06919081900360200190a4505050565b6000612ce8846001600160a01b0316612bd0565b612cf457506001611ed6565b604051600160e11b630a85bd0102815233600482018181526001600160a01b03888116602485015260448401879052608060648501908152865160848601528651600095928a169463150b7a029490938c938b938b939260a4019060208501908083838e5b83811015612d71578181015183820152602001612d59565b50505050905090810190601f168015612d9e5780820380516001836020036101000a031916815260200191505b5095505050505050602060405180830381600087803b158015612dc057600080fd5b505af1158015612dd4573d6000803e3d6000fd5b505050506040513d6020811015612dea57600080fd5b50516001600160e01b031916600160e11b630a85bd010214915050949350505050565b606081612e3557506040805180820190915260018152600160fc1b600302602082015261110b565b8160005b8115612e4d57600101600a82049150612e39565b6060816040519080825280601f01601f191660200182016040528015612e7a576020820181803883390190505b50905060001982015b8515612ec857600a860660300160f81b82828060019003935081518110612ea657fe5b60200101906001600160f81b031916908160001a905350600a86049550612e83565b50949350505050565b6000612ee5856001600160a01b0316612bd0565b612ef1575060016110e4565b6000856001600160a01b03166393ba7daa33898888886040518663ffffffff1660e01b815260040180866001600160a01b03166001600160a01b03168152602001856001600160a01b03166001600160a01b0316815260200184815260200183815260200180602001828103825283818151815260200191508051906020019080838360005b83811015612f8f578181015183820152602001612f77565b50505050905090810190601f168015612fbc5780820380516001836020036101000a031916815260200191505b509650505050505050602060405180830381600087803b158015612fdf57600080fd5b505af1158015612ff3573d6000803e3d6000fd5b505050506040513d602081101561300957600080fd5b50516001600160e01b031916600160e41b630660b337021491505095945050505050565b60008061303985612353565b6001600160a01b038816600090815260066020908152604080832085845290915290205491935091506130749082868663ffffffff6130a416565b6001600160a01b039096166000908152600660209081526040808320948352939052919091209490945550505050565b600080808360028111156130b457fe5b14156130e7576130c48686612364565b90506130e086866130db848863ffffffff6131cd16565b613231565b9150612ec8565b60018360028111156130f557fe5b141561311c576131058686612364565b90506130e086866130db848863ffffffff61329816565b600283600281111561312a57fe5b141561313b576130e0868686613231565b60408051600160e51b62461bcd0281526020600482015260116024820152600160791b7024b73b30b634b21037b832b930ba34b7b702604482015290519081900360640190fd5b6000826001600160a01b0316846001600160a01b031614806131bd5750836001600160a01b03166131b28361113c565b6001600160a01b0316145b80611ed65750611ed68385612201565b60008282018381101561322a5760408051600160e51b62461bcd02815260206004820152601b60248201527f536166654d6174683a206164646974696f6e206f766572666c6f770000000000604482015290519081900360640190fd5b9392505050565b600062010000821061327757604051600160e51b62461bcd02815260040180806020018281038252602381526020018061333f6023913960400191505060405180910390fd5b5061ffff600183016010026101000390811b1984169082901b179392505050565b6000828211156132f25760408051600160e51b62461bcd02815260206004820152601e60248201527f536166654d6174683a207375627472616374696f6e206f766572666c6f770000604482015290519081900360640190fd5b5090039056fe17307eab39ab6107e8899845ad3d59bd9653f200f220920489ca2b5937696c31496e636f6e73697374656e74206172726179206c656e677468206265747765656e2061726773416d6f756e7420746f20777269746520696e2062696e20697320746f6f206c6172676553656e7420746f206120636f6e7472616374207768696368206973206e6f7420616e20455243373231207265636569766572ddf252ad1be2c89b69c2b068fc378daa952ba7f163c4a11628f55a4df523b3ef6d73672e73656e646572206973206e656974686572205f66726f6d206e6f72206f70657261746f7253656e7420746f206120636f6e7472616374207768696368206973206e6f7420616e20455243373231582072656365697665725175616e746974792067726561746572207468616e2066726f6d2062616c616e6365a165627a7a7230582028c322301bb788b6aeedbd2f2b9f7420afc84a2483f7e2df24e49755447877360029",
  "source": "pragma solidity ^0.5.6;\n\nimport \"./ERC721X/Core/ERC721XToken.sol\";\nimport \"../ExsMarket/ExsMarket.sol\";\nimport \"../ExsTrade/ExsTrade.sol\";\n\n\ncontract ExsToken is ERC721XToken {\n\n    ExsMarket public marketAddr;\n    ExsTrade public tradeAddr;\n\n    constructor() public ERC721XToken(\"\") {}\n\n    mapping (uint256 => string) tokenMataDatas;\n\n    // event SetTokenMetaData(uint256 indexed tokenId);\n    event NewMarketAddress(address _addr);\n    event NewTradeAddress(address _addr);\n\n    event RegisterServiceProduct(address _owner, address _to, uint256 _productId, uint256 _timestamp);\n    event RegisterUserProduct(address _owner, address _to, uint256 _productId, uint256 _timestamp);\n    event RegisterTradeProduct(address _owner, address _to, uint256 _productId, uint256 _timestamp);\n\n    function name() external view returns (string memory) {\n        return \"ExSports Tokens\";\n    }\n\n    function symbol() external view returns (string memory) {\n        return \"EXT\";\n    }\n\n    function setMarketAddress(address _addr) isOperatorOrOwner(msg.sender) public {\n      require(_addr != address(0) && address(marketAddr) != _addr, \"_addr error\");\n      marketAddr = ExsMarket(address(_addr));\n      emit NewMarketAddress(_addr);\n    }\n\n    function getMarketAddress() isOperatorOrOwner(msg.sender) public view returns(address) {\n      return address(marketAddr);\n    }\n\n    function setTradeAddress(address _addr) isOperatorOrOwner(msg.sender) public {\n      require(_addr != address(0) && address(tradeAddr) != _addr, \"_addr error\");\n      tradeAddr = ExsTrade(address(_addr));\n      emit NewTradeAddress(_addr);\n    }\n\n    function getTradeAddress() isOperatorOrOwner(msg.sender) public view returns(address) {\n      return address(tradeAddr);\n    }\n\n    function setOperator(address _owner, address _operator, bool approval) isOperatorOrOwner(msg.sender)public {\n      operators[_owner][_operator] = approval;\n      emit ApprovalForAll(_owner,_operator, approval);\n    }\n\n    // fungible mint\n    function mint(uint256 _tokenId, address _to, uint256 _supply) external {\n        _mint(_tokenId, _to, _supply);\n    }\n\n    function totalBalanceOf(address _owner) public view returns (uint256, uint256) {\n        uint256 numTokens = totalSupply();\n        uint256[] memory tokenIndexes = new uint256[](numTokens);\n        uint256[] memory tempTokens = new uint256[](numTokens);\n\n        uint256 tokenCount;\n        uint256 totalCount;\n        for (uint256 i = 0; i < numTokens; i++) {\n            uint256 tokenId = allTokens[i];\n            if (balanceOf(_owner, tokenId) > 0) {\n                totalCount = totalCount + balanceOf(_owner, tokenId);\n                tokenCount++;\n            }\n        }\n\n        return (tokenCount, totalCount);\n    }\n\n    function registerServiceProduct(address _owner, uint256 _tokenId, uint256 _totalAmount, uint256 _perPrice) isOperatorOrOwner(msg.sender) public payable returns(bool) {\n\n      _mint(_tokenId, _owner, _totalAmount);\n\n      operators[_owner][msg.sender] = true;\n      emit ApprovalForAll(_owner, msg.sender, true);\n\n      operators[address(marketAddr)][msg.sender] = true;\n      emit ApprovalForAll(address(marketAddr), msg.sender, true);\n\n      transferFrom(_owner, address(marketAddr), _tokenId, _totalAmount);\n      uint productId = marketAddr.registerServiceProduct(_owner, _tokenId, _totalAmount, _perPrice);\n\n      emit RegisterServiceProduct(_owner,  address(marketAddr), productId, block.timestamp);\n      return true;\n    }\n\n\n\n    function registerUserProduct(address _owner, uint256 _tokenId, uint256 _amount, uint256 _price)  public payable returns(bool) {\n\n      operators[_owner][msg.sender] = true;\n      emit ApprovalForAll(_owner, msg.sender, true);\n\n      operators[address(marketAddr)][msg.sender] = true;\n      emit ApprovalForAll(address(marketAddr), msg.sender, true);\n\n      transferFrom(_owner, address(marketAddr), _tokenId, _amount);\n      uint productId = marketAddr.registerUserProduct(_owner, _tokenId, _amount, _price);\n\n      emit RegisterUserProduct(_owner, address(marketAddr), productId, block.timestamp);\n      return true;\n    }\n\n    function registerTradeProduct(address _owner, uint[] memory _offerTokenIds, uint[] memory _offerTokenAmounts, uint[] memory _requiredTokenIds, uint[] memory _requiredTokenAmounts)  public payable returns(bool) {\n\n      require(_offerTokenIds.length == _offerTokenAmounts.length);\n      require(_requiredTokenIds.length == _requiredTokenAmounts.length);\n\n      operators[_owner][msg.sender] = true;\n      emit ApprovalForAll(_owner, msg.sender, true);\n\n      operators[address(tradeAddr)][msg.sender] = true;\n      emit ApprovalForAll(address(tradeAddr), msg.sender, true);\n\n\n      // safeBatchTransferFrom(_owner, address(tradeAddr), _offerTokenIds,  _offerTokenAmounts, \"RegisterToTradeList\");\n      batchTransferFrom(_owner, address(tradeAddr), _offerTokenIds,  _offerTokenAmounts);\n      uint productId = tradeAddr.registerTradeProduct(_owner, _offerTokenIds, _offerTokenAmounts, _requiredTokenIds, _requiredTokenAmounts);\n\n      emit RegisterTradeProduct(_owner, address(tradeAddr), productId, block.timestamp);\n      return true;\n    }\n}\n",
  "sourcePath": "/Users/DK/work/ExSports/Git/ExSports/blockchain/ExSports-Service/smartContract/contracts/ExsToken/ExsToken.sol",
  "compiler": {
    "name": "solc",
    "version": "0.5.8+commit.23d335f2.Emscripten.clang"
  },
  "schemaVersion": "3.0.16",
  "updatedAt": "2020-05-27T06:34:03.716Z",
  "devdoc": {
    "methods": {
      "approve(address,uint256)": {
        "details": "Approves another address to transfer the given token ID The zero address indicates there is no approved address. There can only be one approved address per token at a given time. Can only be called by the token owner or an approved operator.",
        "params": {
          "_to": "address to be approved for the given token ID",
          "_tokenId": "uint256 ID of the token to be approved"
        }
      },
      "balanceOf(address)": {
        "details": "Gets the number of tokens owned by the address we are checking",
        "params": {
          "_owner": "The adddress we are checking"
        },
        "return": "balance The unique amount of tokens owned"
      },
      "balanceOf(address,uint256)": {
        "details": "return the _tokenId type' balance of _address",
        "params": {
          "_address": "Address to query balance of",
          "_tokenId": "type to query balance of"
        },
        "return": "Amount of objects of a given type ID"
      },
      "exists(uint256)": {
        "details": "Returns whether the specified token exists",
        "params": {
          "_tokenId": "uint256 ID of the token to query the existence of"
        },
        "return": "whether the token exists"
      },
      "getApproved(uint256)": {
        "details": "Gets the approved address for a token ID, or zero if no address set",
        "params": {
          "_tokenId": "uint256 ID of the token to query the approval of"
        },
        "return": "address currently approved for the given token ID"
      },
      "isApprovedForAll(address,address)": {
        "details": "Function that verifies whether _operator is an authorized operator of _tokenHolder.",
        "params": {
          "_operator": "The address of the operator to query status of",
          "_owner": "Address of the tokenHolder"
        },
        "return": "A uint256 specifying the amount of tokens still available for the spender."
      },
      "ownerOf(uint256)": {
        "details": "Gets the owner of a given NFT",
        "params": {
          "_tokenId": "uint256 representing the unique token identifier"
        },
        "return": "address the owner of the token"
      },
      "safeBatchTransferFrom(address,address,uint256[],uint256[],bytes)": {
        "details": "transfer objects from different tokenIds to specified address",
        "params": {
          "_amounts": "Array of amount of object per type to be transferred.",
          "_data": "Data to pass to onERC721XReceived() function if recipient is contract Note:  Arrays should be sorted so that all tokenIds in a same bin are adjacent (more efficient).",
          "_from": "The address to BatchTransfer objects from.",
          "_to": "The address to batchTransfer objects to.",
          "_tokenIds": "Array of tokenIds to update balance of"
        }
      },
      "setApprovalForAll(address,bool)": {
        "details": "Will set _operator operator status to true or false",
        "params": {
          "_approved": "_operator's new operator status (true or false)",
          "_operator": "Address to changes operator status."
        }
      },
      "supportsInterface(bytes4)": {
        "details": "See `IERC165.supportsInterface`.     * Time complexity O(1), guaranteed to always use less than 30 000 gas."
      },
      "tokenByIndex(uint256)": {
        "details": "Gets the token ID at a given index of all the tokens in this contract Reverts if the index is greater or equal to the total number of tokens",
        "params": {
          "_index": "uint256 representing the index to be accessed of the tokens list"
        },
        "return": "uint256 token ID at the given index of the tokens list"
      },
      "tokensOwned(address)": {
        "details": "Gets Iterate through the list of existing tokens and return the indexes       and balances of the tokens owner by the user",
        "params": {
          "_owner": "The adddress we are checking"
        },
        "return": "indexes The tokenIdsbalances The balances of each token"
      },
      "totalSupply()": {
        "details": "Gets the total amount of tokens stored by the contract",
        "return": "uint256 representing the total amount of tokens"
      }
    }
  },
  "userdoc": {
    "methods": {}
  }
}