{
  "contractName": "ExsTrade",
  "abi": [
    {
      "constant": true,
      "inputs": [],
      "name": "tokenContract",
      "outputs": [
        {
          "name": "",
          "type": "address"
        }
      ],
      "payable": false,
      "stateMutability": "view",
      "type": "function"
    },
    {
      "constant": false,
      "inputs": [],
      "name": "renounceOwnership",
      "outputs": [],
      "payable": false,
      "stateMutability": "nonpayable",
      "type": "function"
    },
    {
      "constant": true,
      "inputs": [],
      "name": "owner",
      "outputs": [
        {
          "name": "",
          "type": "address"
        }
      ],
      "payable": false,
      "stateMutability": "view",
      "type": "function"
    },
    {
      "constant": true,
      "inputs": [],
      "name": "isOwner",
      "outputs": [
        {
          "name": "",
          "type": "bool"
        }
      ],
      "payable": false,
      "stateMutability": "view",
      "type": "function"
    },
    {
      "constant": true,
      "inputs": [
        {
          "name": "",
          "type": "uint256"
        }
      ],
      "name": "allTradeProducts",
      "outputs": [
        {
          "name": "tradeId",
          "type": "uint256"
        },
        {
          "name": "owner",
          "type": "address"
        },
        {
          "name": "timestamp",
          "type": "uint256"
        },
        {
          "name": "isValid",
          "type": "bool"
        }
      ],
      "payable": false,
      "stateMutability": "view",
      "type": "function"
    },
    {
      "constant": true,
      "inputs": [
        {
          "name": "",
          "type": "uint256"
        }
      ],
      "name": "validTradeProductIds",
      "outputs": [
        {
          "name": "",
          "type": "uint256"
        }
      ],
      "payable": false,
      "stateMutability": "view",
      "type": "function"
    },
    {
      "constant": false,
      "inputs": [
        {
          "name": "newOwner",
          "type": "address"
        }
      ],
      "name": "transferOwnership",
      "outputs": [],
      "payable": false,
      "stateMutability": "nonpayable",
      "type": "function"
    },
    {
      "inputs": [
        {
          "name": "_token",
          "type": "address"
        }
      ],
      "payable": false,
      "stateMutability": "nonpayable",
      "type": "constructor"
    },
    {
      "anonymous": false,
      "inputs": [
        {
          "indexed": false,
          "name": "_addr",
          "type": "address"
        }
      ],
      "name": "SetTokenAddress",
      "type": "event"
    },
    {
      "anonymous": false,
      "inputs": [
        {
          "indexed": false,
          "name": "_owner",
          "type": "address"
        },
        {
          "indexed": false,
          "name": "_productId",
          "type": "uint256"
        }
      ],
      "name": "RegisterTradeProduct",
      "type": "event"
    },
    {
      "anonymous": false,
      "inputs": [
        {
          "indexed": false,
          "name": "_productId",
          "type": "uint256"
        },
        {
          "indexed": false,
          "name": "_owner",
          "type": "address"
        },
        {
          "indexed": false,
          "name": "_requester",
          "type": "address"
        },
        {
          "indexed": false,
          "name": "_offerTokenIds",
          "type": "uint256[]"
        },
        {
          "indexed": false,
          "name": "_offerTokenAmounts",
          "type": "uint256[]"
        },
        {
          "indexed": false,
          "name": "_requiredTokenIds",
          "type": "uint256[]"
        },
        {
          "indexed": false,
          "name": "_requiredTokenAmounts",
          "type": "uint256[]"
        },
        {
          "indexed": false,
          "name": "_timestamp",
          "type": "uint256"
        }
      ],
      "name": "ConfirmTradeProduct",
      "type": "event"
    },
    {
      "anonymous": false,
      "inputs": [
        {
          "indexed": false,
          "name": "_productId",
          "type": "uint256"
        },
        {
          "indexed": false,
          "name": "_owner",
          "type": "address"
        },
        {
          "indexed": false,
          "name": "_requester",
          "type": "address"
        },
        {
          "indexed": false,
          "name": "_timestamp",
          "type": "uint256"
        }
      ],
      "name": "CancelTradeProduct",
      "type": "event"
    },
    {
      "anonymous": false,
      "inputs": [
        {
          "indexed": true,
          "name": "previousOwner",
          "type": "address"
        },
        {
          "indexed": true,
          "name": "newOwner",
          "type": "address"
        }
      ],
      "name": "OwnershipTransferred",
      "type": "event"
    },
    {
      "constant": false,
      "inputs": [
        {
          "name": "_addr",
          "type": "address"
        }
      ],
      "name": "setTokenAddress",
      "outputs": [],
      "payable": false,
      "stateMutability": "nonpayable",
      "type": "function"
    },
    {
      "constant": true,
      "inputs": [],
      "name": "getTokenAddress",
      "outputs": [
        {
          "name": "",
          "type": "address"
        }
      ],
      "payable": false,
      "stateMutability": "view",
      "type": "function"
    },
    {
      "constant": true,
      "inputs": [],
      "name": "countOfValidTradeProducts",
      "outputs": [
        {
          "name": "",
          "type": "uint256"
        }
      ],
      "payable": false,
      "stateMutability": "view",
      "type": "function"
    },
    {
      "constant": true,
      "inputs": [],
      "name": "countOfAllTradeProducts",
      "outputs": [
        {
          "name": "",
          "type": "uint256"
        }
      ],
      "payable": false,
      "stateMutability": "view",
      "type": "function"
    },
    {
      "constant": true,
      "inputs": [
        {
          "name": "_productId",
          "type": "uint256"
        }
      ],
      "name": "getTradeProduct",
      "outputs": [
        {
          "components": [
            {
              "name": "tradeId",
              "type": "uint256"
            },
            {
              "name": "owner",
              "type": "address"
            },
            {
              "name": "offerTokenIds",
              "type": "uint256[]"
            },
            {
              "name": "offerTokenAmounts",
              "type": "uint256[]"
            },
            {
              "name": "requiredTokenIds",
              "type": "uint256[]"
            },
            {
              "name": "requiredTokenAmounts",
              "type": "uint256[]"
            },
            {
              "name": "timestamp",
              "type": "uint256"
            },
            {
              "name": "isValid",
              "type": "bool"
            }
          ],
          "name": "",
          "type": "tuple"
        }
      ],
      "payable": false,
      "stateMutability": "view",
      "type": "function"
    },
    {
      "constant": true,
      "inputs": [
        {
          "name": "_productId",
          "type": "uint256"
        }
      ],
      "name": "ownerOfTradeProduct",
      "outputs": [
        {
          "name": "",
          "type": "address"
        }
      ],
      "payable": false,
      "stateMutability": "view",
      "type": "function"
    },
    {
      "constant": false,
      "inputs": [
        {
          "name": "_owner",
          "type": "address"
        },
        {
          "name": "_offerTokenIds",
          "type": "uint256[]"
        },
        {
          "name": "_offerTokenAmounts",
          "type": "uint256[]"
        },
        {
          "name": "_requiredTokenIds",
          "type": "uint256[]"
        },
        {
          "name": "_requiredTokenAmounts",
          "type": "uint256[]"
        }
      ],
      "name": "registerTradeProduct",
      "outputs": [
        {
          "name": "",
          "type": "uint256"
        }
      ],
      "payable": false,
      "stateMutability": "nonpayable",
      "type": "function"
    },
    {
      "constant": true,
      "inputs": [],
      "name": "getValidTradeProductAll",
      "outputs": [
        {
          "components": [
            {
              "name": "tradeId",
              "type": "uint256"
            },
            {
              "name": "owner",
              "type": "address"
            },
            {
              "name": "offerTokenIds",
              "type": "uint256[]"
            },
            {
              "name": "offerTokenAmounts",
              "type": "uint256[]"
            },
            {
              "name": "requiredTokenIds",
              "type": "uint256[]"
            },
            {
              "name": "requiredTokenAmounts",
              "type": "uint256[]"
            },
            {
              "name": "timestamp",
              "type": "uint256"
            },
            {
              "name": "isValid",
              "type": "bool"
            }
          ],
          "name": "",
          "type": "tuple[]"
        }
      ],
      "payable": false,
      "stateMutability": "view",
      "type": "function"
    },
    {
      "constant": true,
      "inputs": [
        {
          "name": "lastProductId",
          "type": "uint256"
        },
        {
          "name": "count",
          "type": "uint256"
        }
      ],
      "name": "getValidTradeProducts",
      "outputs": [
        {
          "components": [
            {
              "name": "tradeId",
              "type": "uint256"
            },
            {
              "name": "owner",
              "type": "address"
            },
            {
              "name": "offerTokenIds",
              "type": "uint256[]"
            },
            {
              "name": "offerTokenAmounts",
              "type": "uint256[]"
            },
            {
              "name": "requiredTokenIds",
              "type": "uint256[]"
            },
            {
              "name": "requiredTokenAmounts",
              "type": "uint256[]"
            },
            {
              "name": "timestamp",
              "type": "uint256"
            },
            {
              "name": "isValid",
              "type": "bool"
            }
          ],
          "name": "",
          "type": "tuple[]"
        }
      ],
      "payable": false,
      "stateMutability": "view",
      "type": "function"
    },
    {
      "constant": true,
      "inputs": [
        {
          "name": "_owner",
          "type": "address"
        }
      ],
      "name": "getValidTradeProductsOwned",
      "outputs": [
        {
          "components": [
            {
              "name": "tradeId",
              "type": "uint256"
            },
            {
              "name": "owner",
              "type": "address"
            },
            {
              "name": "offerTokenIds",
              "type": "uint256[]"
            },
            {
              "name": "offerTokenAmounts",
              "type": "uint256[]"
            },
            {
              "name": "requiredTokenIds",
              "type": "uint256[]"
            },
            {
              "name": "requiredTokenAmounts",
              "type": "uint256[]"
            },
            {
              "name": "timestamp",
              "type": "uint256"
            },
            {
              "name": "isValid",
              "type": "bool"
            }
          ],
          "name": "",
          "type": "tuple[]"
        }
      ],
      "payable": false,
      "stateMutability": "view",
      "type": "function"
    },
    {
      "constant": true,
      "inputs": [
        {
          "name": "_owner",
          "type": "address"
        },
        {
          "name": "lastProductId",
          "type": "uint256"
        },
        {
          "name": "count",
          "type": "uint256"
        }
      ],
      "name": "getValidTradeProductsOwnedPage",
      "outputs": [
        {
          "components": [
            {
              "name": "tradeId",
              "type": "uint256"
            },
            {
              "name": "owner",
              "type": "address"
            },
            {
              "name": "offerTokenIds",
              "type": "uint256[]"
            },
            {
              "name": "offerTokenAmounts",
              "type": "uint256[]"
            },
            {
              "name": "requiredTokenIds",
              "type": "uint256[]"
            },
            {
              "name": "requiredTokenAmounts",
              "type": "uint256[]"
            },
            {
              "name": "timestamp",
              "type": "uint256"
            },
            {
              "name": "isValid",
              "type": "bool"
            }
          ],
          "name": "",
          "type": "tuple[]"
        }
      ],
      "payable": false,
      "stateMutability": "view",
      "type": "function"
    },
    {
      "constant": true,
      "inputs": [],
      "name": "getAllTradeProducts",
      "outputs": [
        {
          "components": [
            {
              "name": "tradeId",
              "type": "uint256"
            },
            {
              "name": "owner",
              "type": "address"
            },
            {
              "name": "offerTokenIds",
              "type": "uint256[]"
            },
            {
              "name": "offerTokenAmounts",
              "type": "uint256[]"
            },
            {
              "name": "requiredTokenIds",
              "type": "uint256[]"
            },
            {
              "name": "requiredTokenAmounts",
              "type": "uint256[]"
            },
            {
              "name": "timestamp",
              "type": "uint256"
            },
            {
              "name": "isValid",
              "type": "bool"
            }
          ],
          "name": "",
          "type": "tuple[]"
        }
      ],
      "payable": false,
      "stateMutability": "view",
      "type": "function"
    },
    {
      "constant": false,
      "inputs": [
        {
          "name": "_productId",
          "type": "uint256"
        },
        {
          "name": "_owner",
          "type": "address"
        }
      ],
      "name": "cancelTradeProduct",
      "outputs": [
        {
          "name": "",
          "type": "uint256"
        }
      ],
      "payable": false,
      "stateMutability": "nonpayable",
      "type": "function"
    },
    {
      "constant": false,
      "inputs": [
        {
          "name": "_productId",
          "type": "uint256"
        },
        {
          "name": "_requester",
          "type": "address"
        }
      ],
      "name": "confirmTradeProduct",
      "outputs": [],
      "payable": false,
      "stateMutability": "nonpayable",
      "type": "function"
    }
  ],
  "bytecode": "0x60806040523480156200001157600080fd5b5060405160208062002cb3833981018060405262000033919081019062000101565b600080546001600160a01b03191633178082556040516001600160a01b039190911691907f8be0079c531659141344cd1fd0a4f28419497f9722a3daafe3b4186f6b6457e0908290a36001600160a01b038116620000c8576040517f08c379a0000000000000000000000000000000000000000000000000000000008152600401620000bf9062000165565b60405180910390fd5b600180546001600160a01b0319166001600160a01b0392909216919091179055620001ac565b8051620000fb8162000192565b92915050565b6000602082840312156200011457600080fd5b6000620001228484620000ee565b949350505050565b600062000139600c8362000177565b7f5f746f6b656e206572726f720000000000000000000000000000000000000000815260200192915050565b60208082528101620000fb816200012a565b90815260200190565b60006001600160a01b038216620000fb565b6200019d8162000180565b8114620001a957600080fd5b50565b612af780620001bc6000396000f3fe608060405234801561001057600080fd5b50600436106101375760003560e01c80638da5cb5b116100b8578063cefa74ed1161007c578063cefa74ed1461025d578063d4f7b48714610265578063dd21b6c214610278578063f0fcc4351461028b578063f2fde38b1461029e578063fee5ef38146102b157610137565b80638da5cb5b146102025780638f32d59b1461020a57806394151e801461021f5780639af396c214610232578063be2f89e01461023a57610137565b80633f61befb116100ff5780633f61befb146101b75780634738ead3146101bf5780634f4ab403146101d257806355a373d6146101e5578063715018a6146101fa57610137565b80630f7dd3441461013c57806310fe9ae8146101655780631f7a708a1461017a57806326a4e8d21461018f5780632a20ad0d146101a2575b600080fd5b61014f61014a366004612311565b6102d1565b60405161015c919061285e565b60405180910390f35b61016d6105b0565b60405161015c91906127a7565b61018d61018836600461237c565b6105d4565b005b61018d61019d366004612216565b610af3565b6101aa610ba8565b60405161015c919061290c565b6101aa610bae565b61014f6101cd366004612216565b610bb4565b6101aa6101e036600461237c565b610e72565b6101ed61115c565b60405161015c919061287d565b61018d61116b565b61016d6111dc565b6102126111eb565b60405161015c919061286f565b61014f61022d3660046123b6565b6111fc565b61014f61149b565b61024d61024836600461235e565b61169f565b60405161015c94939291906129e2565b61014f6116e2565b61016d61027336600461235e565b611947565b6101aa61028636600461223c565b61197f565b6101aa61029936600461235e565b611bef565b61018d6102ac366004612216565b611c0d565b6102c46102bf36600461235e565b611c40565b60405161015c91906128fb565b60608060018310156102e45790506105a9565b8380156102f15750600184015b60608460405190808252806020026020018201604052801561032d57816020015b61031a6120a3565b8152602001906001900390816103125790505b5090506000825b600254811015610590576002818154811061034b57fe5b600091825260209091206007600890920201015460ff16801561039f5750886001600160a01b03166002828154811061038057fe5b60009182526020909120600160089092020101546001600160a01b0316145b1561057c57600281815481106103b157fe5b6000918252602091829020604080516101008101825260089093029091018054835260018101546001600160a01b031683850152600281018054835181870281018701855281815294959294938601939283018282801561043157602002820191906000526020600020905b81548152602001906001019080831161041d575b505050505081526020016003820180548060200260200160405190810160405280929190818152602001828054801561048957602002820191906000526020600020905b815481526020019060010190808311610475575b50505050508152602001600482018054806020026020016040519081016040528092919081815260200182805480156104e157602002820191906000526020600020905b8154815260200190600101908083116104cd575b505050505081526020016005820180548060200260200160405190810160405280929190818152602001828054801561053957602002820191906000526020600020905b815481526020019060010190808311610525575b50505091835250506006820154602082015260079091015460ff161515604090910152835184908490811061056a57fe5b60209081029190910101526001909101905b86821061058857610590565b600101610334565b5080156105a2575092506105a9915050565b5091925050505b9392505050565b60006105ba611e14565b6105c357600080fd5b506001546001600160a01b03165b90565b6105dc611e14565b6105e557600080fd5b6001600160a01b0381166105f857600080fd5b6106006120a3565b6002838154811061060d57fe5b6000918252602091829020604080516101008101825260089093029091018054835260018101546001600160a01b031683850152600281018054835181870281018701855281815294959294938601939283018282801561068d57602002820191906000526020600020905b815481526020019060010190808311610679575b50505050508152602001600382018054806020026020016040519081016040528092919081815260200182805480156106e557602002820191906000526020600020905b8154815260200190600101908083116106d1575b505050505081526020016004820180548060200260200160405190810160405280929190818152602001828054801561073d57602002820191906000526020600020905b815481526020019060010190808311610729575b505050505081526020016005820180548060200260200160405190810160405280929190818152602001828054801561079557602002820191906000526020600020905b815481526020019060010190808311610781575b50505091835250506006820154602082015260079091015460ff16151560409091015260e081015190915015156001146107ce57600080fd5b80602001516001600160a01b0316826001600160a01b031614156107f157600080fd5b60018054604051600160e41b630bc735d90281526001600160a01b039091169163bc735d90916108289186913391906004016127b5565b600060405180830381600087803b15801561084257600080fd5b505af1158015610856573d6000803e3d6000fd5b505060018054604051600160e41b630bc735d90281526001600160a01b03909116935063bc735d9092506108919130913391906004016127b5565b600060405180830381600087803b1580156108ab57600080fd5b505af11580156108bf573d6000803e3d6000fd5b505060018054604051600160e41b630bc735d90281526001600160a01b03909116935063bc735d9092506108fa918691309190600401612828565b600060405180830381600087803b15801561091457600080fd5b505af1158015610928573d6000803e3d6000fd5b5050600154608084015160a0850151604051600160e21b6305feb5ff0281526001600160a01b0390931694506317fad7fc935061096d928792309290916004016127dd565b600060405180830381600087803b15801561098757600080fd5b505af115801561099b573d6000803e3d6000fd5b50506001546020840151608085015160a0860151604051600160e21b6305feb5ff0281526001600160a01b0390941695506317fad7fc94506109e49330939291906004016127dd565b600060405180830381600087803b1580156109fe57600080fd5b505af1158015610a12573d6000803e3d6000fd5b505060015460408085015160608601519151600160e21b6305feb5ff0281526001600160a01b0390931694506317fad7fc9350610a569230928892916004016127dd565b600060405180830381600087803b158015610a7057600080fd5b505af1158015610a84573d6000803e3d6000fd5b50505050610a9183611e4c565b7f5b499a88a4e09aec41d99086800eaa091d7c2fa01cc976b03d46552544ecbc5a81600001518260200151848460400151856060015186608001518760a0015142604051610ae698979695949392919061291a565b60405180910390a1505050565b610afb611e14565b610b0457600080fd5b6001600160a01b03811615801590610b2a57506001546001600160a01b03828116911614155b610b5257604051600160e51b62461bcd028152600401610b49906128cb565b60405180910390fd5b600180546001600160a01b0319166001600160a01b0383161790556040517f33a7e73920e7bb871d64f12f439f70e8d764c488da2188d67bd27ddb6020513790610b9d9083906127a7565b60405180910390a150565b60035490565b60025490565b6003546001600160a01b0382166000908152600660209081526040918290205482518181528183028101909201909252606092918391908015610c1157816020015b610bfe6120a3565b815260200190600190039081610bf65790505b5090506000805b600254811015610e685760028181548110610c2f57fe5b600091825260209091206007600890920201015460ff168015610c835750856001600160a01b031660028281548110610c6457fe5b60009182526020909120600160089092020101546001600160a01b0316145b15610e605760028181548110610c9557fe5b6000918252602091829020604080516101008101825260089093029091018054835260018101546001600160a01b0316838501526002810180548351818702810187018552818152949592949386019392830182828015610d1557602002820191906000526020600020905b815481526020019060010190808311610d01575b5050505050815260200160038201805480602002602001604051908101604052809291908181526020018280548015610d6d57602002820191906000526020600020905b815481526020019060010190808311610d59575b5050505050815260200160048201805480602002602001604051908101604052809291908181526020018280548015610dc557602002820191906000526020600020905b815481526020019060010190808311610db1575b5050505050815260200160058201805480602002602001604051908101604052809291908181526020018280548015610e1d57602002820191906000526020600020905b815481526020019060010190808311610e09575b50505091835250506006820154602082015260079091015460ff1615156040909101528351849084908110610e4e57fe5b60200260200101819052508160010191505b600101610c18565b5090949350505050565b6000610e7c611e14565b610e8557600080fd5b610e8e83611e4c565b610e966120a3565b60028481548110610ea357fe5b6000918252602091829020604080516101008101825260089093029091018054835260018101546001600160a01b0316838501526002810180548351818702810187018552818152949592949386019392830182828015610f2357602002820191906000526020600020905b815481526020019060010190808311610f0f575b5050505050815260200160038201805480602002602001604051908101604052809291908181526020018280548015610f7b57602002820191906000526020600020905b815481526020019060010190808311610f67575b5050505050815260200160048201805480602002602001604051908101604052809291908181526020018280548015610fd357602002820191906000526020600020905b815481526020019060010190808311610fbf575b505050505081526020016005820180548060200260200160405190810160405280929190818152602001828054801561102b57602002820191906000526020600020905b815481526020019060010190808311611017575b5050509183525050600682015460208083019190915260079092015460ff1615156040909101528101519091506001600160a01b0384811691161461108557604051600160e51b62461bcd028152600401610b49906128ab565b60208101516001600160a01b0316301461111057600154602082015160408084015160608501519151600160e21b6305feb5ff0281526001600160a01b03909416936317fad7fc936110dd93309391926004016127dd565b600060405180830381600087803b1580156110f757600080fd5b505af115801561110b573d6000803e3d6000fd5b505050505b7f48515ca78645292d2b2a251e70241909f92be3ff4c2b559a696191dd025bee2f848260200151854260405161114994939291906129ad565b60405180910390a1839150505b92915050565b6001546001600160a01b031681565b6111736111eb565b61119257604051600160e51b62461bcd028152600401610b49906128db565b600080546040516001600160a01b03909116907f8be0079c531659141344cd1fd0a4f28419497f9722a3daafe3b4186f6b6457e0908390a3600080546001600160a01b0319169055565b6000546001600160a01b031690565b6000546001600160a01b0316331490565b606080600183101561120f579050611156565b83801561121c5750600184015b60608460405190808252806020026020018201604052801561125857816020015b6112456120a3565b81526020019060019003908161123d5790505b5090506000825b60025481101561147e576002818154811061127657fe5b600091825260209091206007600890920201015460ff161561146a576002818154811061129f57fe5b6000918252602091829020604080516101008101825260089093029091018054835260018101546001600160a01b031683850152600281018054835181870281018701855281815294959294938601939283018282801561131f57602002820191906000526020600020905b81548152602001906001019080831161130b575b505050505081526020016003820180548060200260200160405190810160405280929190818152602001828054801561137757602002820191906000526020600020905b815481526020019060010190808311611363575b50505050508152602001600482018054806020026020016040519081016040528092919081815260200182805480156113cf57602002820191906000526020600020905b8154815260200190600101908083116113bb575b505050505081526020016005820180548060200260200160405190810160405280929190818152602001828054801561142757602002820191906000526020600020905b815481526020019060010190808311611413575b50505091835250506006820154602082015260079091015460ff161515604090910152835184908490811061145857fe5b60209081029190910101526001909101905b8682106114765761147e565b60010161125f565b50801561149057509250611156915050565b509195945050505050565b60606114a5611e14565b6114ae57600080fd5b6002805480602002602001604051908101604052809291908181526020016000905b828210156116965760008481526020908190206040805161010081018252600886029092018054835260018101546001600160a01b031683850152600281018054835181870281018701855281815294959294938601939283018282801561155757602002820191906000526020600020905b815481526020019060010190808311611543575b50505050508152602001600382018054806020026020016040519081016040528092919081815260200182805480156115af57602002820191906000526020600020905b81548152602001906001019080831161159b575b505050505081526020016004820180548060200260200160405190810160405280929190818152602001828054801561160757602002820191906000526020600020905b8154815260200190600101908083116115f3575b505050505081526020016005820180548060200260200160405190810160405280929190818152602001828054801561165f57602002820191906000526020600020905b81548152602001906001019080831161164b575b5050509183525050600682015460208083019190915260079092015460ff16151560409091015290825260019290920191016114d0565b50505050905090565b600281815481106116ac57fe5b600091825260209091206008909102018054600182015460068301546007909301549193506001600160a01b0316919060ff1684565b60035460408051828152602080840282010190915260609190829082801561172457816020015b6117116120a3565b8152602001906001900390816117095790505b5090506000805b60025481101561193e576002818154811061174257fe5b600091825260209091206007600890920201015460ff1615611936576002818154811061176b57fe5b6000918252602091829020604080516101008101825260089093029091018054835260018101546001600160a01b03168385015260028101805483518187028101870185528181529495929493860193928301828280156117eb57602002820191906000526020600020905b8154815260200190600101908083116117d7575b505050505081526020016003820180548060200260200160405190810160405280929190818152602001828054801561184357602002820191906000526020600020905b81548152602001906001019080831161182f575b505050505081526020016004820180548060200260200160405190810160405280929190818152602001828054801561189b57602002820191906000526020600020905b815481526020019060010190808311611887575b50505050508152602001600582018054806020026020016040519081016040528092919081815260200182805480156118f357602002820191906000526020600020905b8154815260200190600101908083116118df575b50505091835250506006820154602082015260079091015460ff161515604090910152835184908490811061192457fe5b60200260200101819052508160010191505b60010161172b565b50909250505090565b6000818152600560205260408120546001600160a01b03168061115657604051600160e51b62461bcd028152600401610b49906128eb565b6000611989611e14565b61199257600080fd5b61199a6120a3565b6001600160a01b03878116602083810191825260408401898152606085018990526080850188905260a085018790524260c0860152600160e086018190526002805480885291820180825560009190915286517f405787fa12a823e0f2b7631cc41b3ba8828b3321ca811111fa75cd3aa3bb5ace6008840290810191825595517f405787fa12a823e0f2b7631cc41b3ba8828b3321ca811111fa75cd3aa3bb5acf870180546001600160a01b031916919098161790965591518051919592948794611a8b937f405787fa12a823e0f2b7631cc41b3ba8828b3321ca811111fa75cd3aa3bb5ad09092019201906120f3565b5060608201518051611aa79160038401916020909101906120f3565b5060808201518051611ac39160048401916020909101906120f3565b5060a08201518051611adf9160058401916020909101906120f3565b5060c082015160068281019190915560e0909201516007909101805460ff1916911515919091179055602084810151600085815260058352604080822080546001600160a01b0319166001600160a01b03948516179055600380546004865282842081905560018181019092557fc2575a0e9e593c00f959f8c92f12db2869c3395a3b0502d05e2516446f71f85b01889055928e16825293909252919020549150611b8b908290611fcc565b6001600160a01b038a166000908152600660205260409081902091909155517f62b31ba2720783c7a77f12a86e4a431994ba6cbdc20b273dbc8c4949efd9f5a790611bd9908b908590612843565b60405180910390a1509150505b95945050505050565b60038181548110611bfc57fe5b600091825260209091200154905081565b611c156111eb565b611c3457604051600160e51b62461bcd028152600401610b49906128db565b611c3d81611ff4565b50565b611c486120a3565b6002548210611c5657600080fd5b60028281548110611c6357fe5b6000918252602091829020604080516101008101825260089093029091018054835260018101546001600160a01b0316838501526002810180548351818702810187018552818152949592949386019392830182828015611ce357602002820191906000526020600020905b815481526020019060010190808311611ccf575b5050505050815260200160038201805480602002602001604051908101604052809291908181526020018280548015611d3b57602002820191906000526020600020905b815481526020019060010190808311611d27575b5050505050815260200160048201805480602002602001604051908101604052809291908181526020018280548015611d9357602002820191906000526020600020905b815481526020019060010190808311611d7f575b5050505050815260200160058201805480602002602001604051908101604052809291908181526020018280548015611deb57602002820191906000526020600020905b815481526020019060010190808311611dd7575b50505091835250506006820154602082015260079091015460ff16151560409091015292915050565b6000611e1e6111dc565b6001600160a01b0316336001600160a01b03161480611e4757506001546001600160a01b031633145b905090565b60028181548110611e5957fe5b600091825260209091206007600890920201015460ff161515600114611e7e57600080fd5b600354600090611e9590600163ffffffff61207816565b60008381526004602052604081205460038054939450909284908110611eb757fe5b906000526020600020015490508060038381548110611ed257fe5b6000918252602080832090910192909255828152600490915260409020829055600354611f0690600163ffffffff61207816565b611f1160038261213e565b5060008481526004602052604081208190556002805486908110611f3157fe5b60009182526020822060089190910201600701805460ff1916921515929092179091556002805486908110611f6257fe5b60009182526020808320600160089093020191909101546001600160a01b031680835260069091526040909120549091508015611fc457611faa81600163ffffffff61207816565b6001600160a01b0383166000908152600660205260409020555b505050505050565b6000828201838110156105a957604051600160e51b62461bcd028152600401610b499061289b565b6001600160a01b03811661201d57604051600160e51b62461bcd028152600401610b499061288b565b600080546040516001600160a01b03808516939216917f8be0079c531659141344cd1fd0a4f28419497f9722a3daafe3b4186f6b6457e091a3600080546001600160a01b0319166001600160a01b0392909216919091179055565b60008282111561209d57604051600160e51b62461bcd028152600401610b49906128bb565b50900390565b6040518061010001604052806000815260200160006001600160a01b0316815260200160608152602001606081526020016060815260200160608152602001600081526020016000151581525090565b82805482825590600052602060002090810192821561212e579160200282015b8281111561212e578251825591602001919060010190612113565b5061213a929150612167565b5090565b81548183558181111561216257600083815260209020612162918101908301612167565b505050565b6105d191905b8082111561213a576000815560010161216d565b803561115681612aa0565b600082601f83011261219d57600080fd5b81356121b06121ab82612a3e565b612a17565b915081818352602084019350602081019050838560208402820111156121d557600080fd5b60005b8381101561220157816121eb888261220b565b84525060209283019291909101906001016121d8565b5050505092915050565b803561115681612ab4565b60006020828403121561222857600080fd5b60006122348484612181565b949350505050565b600080600080600060a0868803121561225457600080fd5b60006122608888612181565b955050602086013567ffffffffffffffff81111561227d57600080fd5b6122898882890161218c565b945050604086013567ffffffffffffffff8111156122a657600080fd5b6122b28882890161218c565b935050606086013567ffffffffffffffff8111156122cf57600080fd5b6122db8882890161218c565b925050608086013567ffffffffffffffff8111156122f857600080fd5b6123048882890161218c565b9150509295509295909350565b60008060006060848603121561232657600080fd5b60006123328686612181565b93505060206123438682870161220b565b92505060406123548682870161220b565b9150509250925092565b60006020828403121561237057600080fd5b6000612234848461220b565b6000806040838503121561238f57600080fd5b600061239b858561220b565b92505060206123ac85828601612181565b9150509250929050565b600080604083850312156123c957600080fd5b60006123d5858561220b565b92505060206123ac8582860161220b565b60006105a983836126e0565b60006123fe838361279e565b505060200190565b61240f81612a8e565b82525050565b61240f81612a72565b600061242982612a65565b6124338185612a69565b93508360208202850161244585612a5f565b8060005b8581101561247f578484038952815161246285826123e6565b945061246d83612a5f565b60209a909a0199925050600101612449565b5091979650505050505050565b600061249782612a65565b6124a18185612a69565b93506124ac83612a5f565b8060005b838110156124da5781516124c488826123f2565b97506124cf83612a5f565b9250506001016124b0565b509495945050505050565b60006124f082612a65565b6124fa8185612a69565b935061250583612a5f565b8060005b838110156124da57815161251d88826123f2565b975061252883612a5f565b925050600101612509565b61240f81612a7d565b61240f81612a95565b6000612552602683612a69565b7f4f776e61626c653a206e6577206f776e657220697320746865207a65726f20618152600160d01b6564647265737302602082015260400192915050565b600061259d601b83612a69565b7f536166654d6174683a206164646974696f6e206f766572666c6f770000000000815260200192915050565b60006125d6602583612a69565b7f596f7520617265206e6f7420746865206f776e6572206f66207468652070726f8152600160d91b64323ab1ba1702602082015260400192915050565b6000612620601e83612a69565b7f536166654d6174683a207375627472616374696f6e206f766572666c6f770000815260200192915050565b6000612659600b83612a69565b600160a91b6a2fb0b232391032b93937b902815260200192915050565b6000612683602083612a69565b7f4f776e61626c653a2063616c6c6572206973206e6f7420746865206f776e6572815260200192915050565b60006126bc601283612a69565b600160721b71141c9bd91d58dd081a5cc81a5b9d985b1a5902815260200192915050565b80516000906101008401906126f5858261279e565b5060208301516127086020860182612415565b5060408301518482036040860152612720828261248c565b9150506060830151848203606086015261273a828261248c565b91505060808301518482036080860152612754828261248c565b91505060a083015184820360a086015261276e828261248c565b91505060c083015161278360c086018261279e565b5060e083015161279660e0860182612533565b509392505050565b61240f816105d1565b602081016111568284612415565b606081016127c38286612415565b6127d06020830185612406565b6122346040830184612533565b608081016127eb8287612415565b6127f86020830186612415565b818103604083015261280a81856124e5565b9050818103606083015261281e81846124e5565b9695505050505050565b606081016128368286612415565b6127d06020830185612415565b604081016128518285612415565b6105a9602083018461279e565b602080825281016105a9818461241e565b602081016111568284612533565b60208101611156828461253c565b6020808252810161115681612545565b6020808252810161115681612590565b60208082528101611156816125c9565b6020808252810161115681612613565b602080825281016111568161264c565b6020808252810161115681612676565b60208082528101611156816126af565b602080825281016105a981846126e0565b60208101611156828461279e565b6101008101612929828b61279e565b612936602083018a612415565b6129436040830189612415565b818103606083015261295581886124e5565b9050818103608083015261296981876124e5565b905081810360a083015261297d81866124e5565b905081810360c083015261299181856124e5565b90506129a060e083018461279e565b9998505050505050505050565b608081016129bb828761279e565b6129c86020830186612415565b6129d56040830185612415565b611be6606083018461279e565b608081016129f0828761279e565b6129fd6020830186612415565b612a0a604083018561279e565b611be66060830184612533565b60405181810167ffffffffffffffff81118282101715612a3657600080fd5b604052919050565b600067ffffffffffffffff821115612a5557600080fd5b5060209081020190565b60200190565b5190565b90815260200190565b600061115682612a82565b151590565b6001600160a01b031690565b6000611156825b600061115682612a72565b612aa981612a72565b8114611c3d57600080fd5b612aa9816105d156fea265627a7a7230582034fb423823c1d75c38b1c5def8f3f9229295fc27ef5e233525503d5221e564986c6578706572696d656e74616cf50037",
  "source": "pragma solidity ^0.5.0;\n\nimport \"openzeppelin-solidity/contracts/ownership/Ownable.sol\";\nimport \"openzeppelin-solidity/contracts/math/SafeMath.sol\";\nimport \"../ExsToken/ExsToken.sol\";\nimport \"../ExsToken/ERC721X/Interfaces/ERC721XReceiver.sol\";\n\npragma experimental ABIEncoderV2;\ncontract ExsTrade is Ownable {\n\n  ExsToken public tokenContract;\n\n  constructor(address _token) public ExsTrade(_token) {\n    require(_token != address(0), \"_token error\");\n\n     tokenContract = ExsToken(address(_token));\n  }\n\n  bytes4 constant ERC721X_RECEIVED = 0x660b3370;\n  bytes4 constant ERC721X_BATCH_RECEIVE_SIG = 0xe9e5be6a;\n\n  struct TradeProduct {\n    uint tradeId;\n    address owner;\n    uint[] offerTokenIds;\n    uint[] offerTokenAmounts;\n    uint[] requiredTokenIds;\n    uint[] requiredTokenAmounts;\n    uint timestamp;\n    bool isValid;\n  }\n\n  using SafeMath for uint256;\n\n\n  TradeProduct[] public allTradeProducts;\n  uint256[] public validTradeProductIds;\n  mapping(uint256 => uint256) private validTradeProductIndex;\n  mapping (uint256 => address) tradeProductOwners;\n  mapping(address => uint256) tradeProductCounts;\n\n// events\n  event SetTokenAddress(address _addr);\n\n  event RegisterTradeProduct(address _owner, uint256 _productId);\n  event ConfirmTradeProduct(uint256 _productId, address _owner, address _requester, uint[] _offerTokenIds, uint[] _offerTokenAmounts, uint[] _requiredTokenIds, uint[] _requiredTokenAmounts, uint256 _timestamp);\n  event CancelTradeProduct(uint _productId, address _owner, address _requester,  uint256 _timestamp);\n\n//\n// functions ---\n//\n  // set/get tokenContract\n  function setTokenAddress(address _addr)  public {\n    require(isOwnerOrOperator());\n    require(_addr != address(0) && address(tokenContract) != _addr, \"_addr error\");\n    tokenContract = ExsToken(address(_addr));\n    emit SetTokenAddress(_addr);\n  }\n\n  function getTokenAddress()  public view returns(address) {\n    require(isOwnerOrOperator());\n    return address(tokenContract);\n  }\n\n  // counts of tradeProducts\n  function countOfValidTradeProducts() public view returns (uint) {\n    return validTradeProductIds.length;\n   }\n  function countOfAllTradeProducts() public view returns (uint) {\n    return allTradeProducts.length;\n  }\n\n  function getTradeProduct(uint _productId) public view returns (TradeProduct memory) {\n    require(_productId < allTradeProducts.length);\n    return allTradeProducts[_productId];\n  }\n\n   function ownerOfTradeProduct(uint256 _productId) public view returns (address) {\n       address addr_owner =  tradeProductOwners[_productId];\n       require(addr_owner != address(0), \"Product is invalid\");\n       return addr_owner;\n   }\n\n  function isOwnerOrOperator() private view returns (bool) {\n    return (msg.sender == owner() || msg.sender == address(tokenContract));\n  }\n\n\n\n   // registerServiceProduct()\n   function registerTradeProduct(address _owner,\n   uint[] memory _offerTokenIds,\n   uint[] memory _offerTokenAmounts,\n   uint[] memory _requiredTokenIds,\n   uint[] memory _requiredTokenAmounts)  public returns(uint) {\n     //require(tokenContract != address(0));\n     // tokenContract.transferFrom(msg.sender, address(this), _tokenId, _totalQuantity);\n     require(isOwnerOrOperator());\n\n\n     TradeProduct memory product;\n     product.owner = _owner;\n\n     product.offerTokenIds = _offerTokenIds;\n     product.offerTokenAmounts = _offerTokenAmounts;\n     product.requiredTokenIds = _requiredTokenIds;\n     product.requiredTokenAmounts = _requiredTokenAmounts;\n     // product.expireTimestamp = block.timestamp + 1 days;\n     product.timestamp = block.timestamp;\n\n     product.isValid = true;\n\n     uint tradeId =  allTradeProducts.length;\n     product.tradeId = tradeId;\n     allTradeProducts.push(product);\n\n     tradeProductOwners[tradeId] = product.owner;\n\n     validTradeProductIndex[tradeId] = validTradeProductIds.length;\n     validTradeProductIds.push(tradeId);\n\n\n     uint256 totalCount = tradeProductCounts[_owner];\n     tradeProductCounts[_owner] = totalCount.add(1);\n\n     emit RegisterTradeProduct(_owner, tradeId);\n\n     return tradeId;\n   }\n\n\n   function getValidTradeProductAll() public view returns (TradeProduct[] memory) {\n\n     uint validProductsCount = validTradeProductIds.length;\n     TradeProduct[] memory products = new TradeProduct[](validProductsCount);\n     uint validIndex = 0;\n     for (uint i = 0; i < allTradeProducts.length; i++) {\n        if (allTradeProducts[i].isValid) {\n          products[validIndex] = allTradeProducts[i];\n          validIndex = validIndex + 1;\n        }\n     }\n     return products;\n   }\n\n   function getValidTradeProducts(uint lastProductId, uint count) public view returns (TradeProduct[] memory) {\n\n       TradeProduct [] memory tempProducts;\n       if (count < 1) {\n         return tempProducts;\n       }\n\n       uint startId = lastProductId;\n       if (lastProductId > 0){\n         startId = lastProductId + 1;\n       }\n       TradeProduct[] memory products = new TradeProduct[](count);\n\n       uint counter = 0;\n       for (uint i = startId; i < allTradeProducts.length; i++) {\n          if (allTradeProducts[i].isValid) {\n              products[counter] = allTradeProducts[i];\n              counter++;\n          }\n          if (counter >=count) {\n            break;\n          }\n       }\n\n      if (counter > 0){\n        return products;\n      }\n\n       return tempProducts;\n\n\n   }\n\n   function invalidateTradeProduct(uint _productId) private {\n\n      require(allTradeProducts[_productId].isValid == true);\n\n       uint256 lastIndex = validTradeProductIds.length.sub(1);\n       uint256 removeIndex = validTradeProductIndex[_productId];\n       uint256 lastProductId = validTradeProductIds[lastIndex];\n\n       //swap\n       validTradeProductIds[removeIndex] =  lastProductId;\n       validTradeProductIndex[lastProductId] = removeIndex;\n\n       validTradeProductIds.length = validTradeProductIds.length.sub(1);\n       validTradeProductIndex[_productId] = 0; //no meaning\n\n\n      allTradeProducts[_productId].isValid = false;\n\n\n      address owner = allTradeProducts[_productId].owner;\n      uint totalCount = tradeProductCounts[owner];\n      if (totalCount > 0)\n      {\n        tradeProductCounts[owner] = totalCount.sub(1);\n      }\n   }\n   function getValidTradeProductsOwned(address _owner) public view returns (TradeProduct[] memory) {\n\n     uint validProductsCount = validTradeProductIds.length;\n     TradeProduct[] memory products = new TradeProduct[](tradeProductCounts[_owner]);\n     uint validIndex = 0;\n     for (uint i = 0; i < allTradeProducts.length; i++) {\n        if (allTradeProducts[i].isValid && allTradeProducts[i].owner == _owner) {\n          products[validIndex] = allTradeProducts[i];\n          validIndex = validIndex + 1;\n        }\n     }\n     return products;\n   }\n\n   function getValidTradeProductsOwnedPage(address _owner, uint lastProductId, uint count) public view returns (TradeProduct[] memory) {\n\n       TradeProduct [] memory tempProducts;\n       if (count < 1) {\n         return tempProducts;\n       }\n\n       uint startId = lastProductId;\n       if (lastProductId > 0){\n         startId = lastProductId + 1;\n       }\n       TradeProduct[] memory products = new TradeProduct[](count);\n\n       uint counter = 0;\n       for (uint i = startId; i < allTradeProducts.length; i++) {\n          if (allTradeProducts[i].isValid && allTradeProducts[i].owner == _owner) {\n              products[counter] = allTradeProducts[i];\n              counter++;\n          }\n          if (counter >=count) {\n            break;\n          }\n       }\n\n      if (counter > 0){\n        return products;\n      }\n\n       return tempProducts;\n   }\n\n\n   function getAllTradeProducts()  public view returns (TradeProduct[] memory) {\n     require(isOwnerOrOperator());\n     // uint productsCount = allServiceProducts.length;\n     // ServiceProduct[] memory products = new ServiceProduct[](productsCount);\n     //  for (uint i = 0; i < productsCount; i++) {\n     //    uint productId = validServiceProductIds[i];\n     //    ServiceProduct memory product = allServiceProducts[productId];\n     //    products[i] = product;\n     //  }\n      return allTradeProducts;\n   }\n\n  function cancelTradeProduct(uint _productId, address _owner)  public returns (uint)\n  {\n      require(isOwnerOrOperator());\n      invalidateTradeProduct(_productId);\n\n      TradeProduct memory product = allTradeProducts[_productId];\n      require (product.owner == _owner, \"You are not the owner of the product.\");\n\n\n      if (product.owner != address(this)) {\n        tokenContract.batchTransferFrom(address(this), product.owner, product.offerTokenIds, product.offerTokenAmounts);\n      }\n\n      emit CancelTradeProduct(_productId, product.owner, _owner, block.timestamp);\n      return _productId;\n  }\n\n\n   function confirmTradeProduct(uint256 _productId, address _requester)   public  {\n     require(isOwnerOrOperator());\n     require(_requester != address(0));\n\n     TradeProduct memory product = allTradeProducts[_productId];\n     require(product.isValid == true);\n     require(_requester != product.owner);\n     //coinAddr.approve(address(this), product.price);\n\n     /*\n     uint tradeId;\n     address owner;\n     uint ownerId;\n     string ownerName;\n     uint[3] offerTokenIds;\n     uint[3] requiredTokenIds;ssss\n     uint expireTimestamp;\n     bool isValid;\n     */\n\n     tokenContract.setOperator(_requester, msg.sender, true);\n     tokenContract.setOperator(address(this), msg.sender, true);\n     tokenContract.setOperator(_requester, address(this), true);\n\n\n     // require(product.expireTimestamp > block.timestamp, \"The product has expired.\");\n     // requester to owner\n     // tokenContract.safeBatchTransferFrom(_requester, product.owner, product.requiredTokenIds,  product.requiredTokenAmounts, \"trade\");\n\n     tokenContract.batchTransferFrom(_requester, address(this), product.requiredTokenIds,  product.requiredTokenAmounts);\n     tokenContract.batchTransferFrom(address(this), product.owner, product.requiredTokenIds,  product.requiredTokenAmounts);\n\n     //tokenContract.batchTransferFrom(_requester, product.owner, product.requiredTokenIds,  product.requiredTokenAmounts);\n\n     // market to requester\n     tokenContract.batchTransferFrom(address(this),_requester,product.offerTokenIds,product.offerTokenAmounts);\n     // tokenContract.batchTransferFrom(address(this), _requester, product.offerTokenIds, product.offerTokenAmounts);\n\n     //\n     invalidateTradeProduct(_productId);\n\n     emit ConfirmTradeProduct(product.tradeId, product.owner,  _requester, product.offerTokenIds, product.offerTokenAmounts, product.requiredTokenIds, product.requiredTokenAmounts, block.timestamp);\n   }\n\n}\n",
  "sourcePath": "/Users/DK/work/ExSports/Git/ExSports/blockchain/ExSports-Service/smartContract/contracts/ExsTrade/ExsTrade.sol",
  "compiler": {
    "name": "solc",
    "version": "0.5.8+commit.23d335f2.Emscripten.clang"
  },
  "schemaVersion": "3.0.16",
  "updatedAt": "2020-05-27T06:33:49.732Z",
  "devdoc": {
    "methods": {
      "isOwner()": {
        "details": "Returns true if the caller is the current owner."
      },
      "owner()": {
        "details": "Returns the address of the current owner."
      },
      "renounceOwnership()": {
        "details": "Leaves the contract without owner. It will not be possible to call `onlyOwner` functions anymore. Can only be called by the current owner.     * > Note: Renouncing ownership will leave the contract without an owner, thereby removing any functionality that is only available to the owner."
      },
      "transferOwnership(address)": {
        "details": "Transfers ownership of the contract to a new account (`newOwner`). Can only be called by the current owner."
      }
    }
  },
  "userdoc": {
    "methods": {}
  }
}